:020000040000FA
:1000000080060020D5000000A50C0000E5000000DF
:10001000FFFFFFFFFFFFFFFFFFFFFFFFFFFFFFFFF0
:10002000FFFFFFFFFFFFFFFFFFFFFFFF8510000047
:10003000FFFFFFFFFFFFFFFF150F0000871000000D
:100040000301000003010000FFFFFFFF03010000A8
:100050000301000003010000030100000301000090
:1000600003010000FFFFFFFF030100000301000088
:1000700055110000C51100002D1200000301000001
:100080000301000003010000FFFFFFFFFFFFFFFF70
:10009000771400000301000003010000FFFFFFFFD1
:1000A0000301000003010000FFFFFFFFFFFFFFFF50
:1000B0000301000003010000030100000301000030
:1000C0000348854600F096F800480047D91600001E
:1000D00080060020002001688D460A4880470A48B3
:1000E0000047FEE704207146084202D0EFF3098082
:1000F00001E0EFF308807146044A1047FEE7FEE78F
:10010000FEE7FEE791100000C10000006508000056
:10011000D2B201E00270401C491EFBD2704700229F
:10012000F6E710B513460A4604461946FFF7F0FFF6
:10013000204610BD70B50446002903D000202022BF
:10014000012310E0002801D00020C043C046C04673
:100150000DE02546D5408D4205D30D469540641BE4
:100160001D46954040191546521E002DF1DC2146D2
:1001700070BDF0B51FB40646002082B0054640248D
:10018000019100901BE0019922460F46304600F095
:1001900043F8049A059B801A994110D310461946DA
:1001A000224600F016F8361A8F41019722460120A8
:1001B0000021009F00F00DF838184D4100902046B6
:1001C000641E0028DFDC019B00982946324607B0F8
:1001D000F0BD10B5202A04DB0146203A91400020F2
:1001E00010BD914020239C1A0346E34019439040E0
:1001F00010BD0000064C0125064E05E0E36807CC63
:100200002B430C3C98471034B442F7D3FFF75CFF04
:10021000741D0000941D000010B5202A04DB084660
:10022000203AD040002110BD0B46D340D0402024BE
:10023000A21A91400843194610BD0000F0B581B0E4
:1002400000F020FA401C02D0012001B0F0BD0420D3
:1002500000F0B4FCFD2802D9022001B0F0BDC500B9
:100260000835284600F020FCC0B247022048C01BD9
:100270004019009001204502002634460BE0A0B250
:1002800000F0AAFB30461A492A4600F09DFB761979
:10029000641C042C28D0B74204D0E0B2032801D05B
:1002A0000028F4D1304612492A4600F07FFBE0B224
:1002B000032808D0002803D10D494868401C486035
:1002C000B742DCD10BE07F208000AB21084A1150FF
:1002D0003F20C0001158491C1150B742CFD10549E9
:1002E00003C9009A03C2CAE7002001B0F0BDC046AE
:1002F0006800002070020020B0B504464D1E29465B
:1003000000F036FA615D401A411E8841B0BD000020
:10031000054908607047C046034909680140481E06
:10032000814108467047C0460000014C411E88418B
:10033000C000D2490A78F723134018180870704794
:1003400081B0002100910069009068468078042106
:100350000140CA488278FB23134059188170017804
:10036000090703D4017808220A43027001460D39B7
:1003700009784906FAD510382021017001B070477C
:10038000F0B58DB000220C9295480C900B92612034
:1003900000010B900A9211200A90924B1888924803
:1003A00018805968914C214001273C030594091994
:1003B000596019881A808E4D6B1F19880793188011
:1003C00003230A98E850284609380C9901600BA8C5
:1003D0008078C024204069783F2603963140081871
:1003E00068700CA88078800708920993049404D060
:1003F0000CA880781840022804D1681E01781020CB
:10040000084303E0681E0078102188436E1E307098
:10041000794C204600F000F92046FFF791FF306844
:1004200020239843029630600BAA51780C20069046
:1004300001402C78F326264071182970517830201D
:10044000019001402C78CF262640711829705178F0
:10045000099801402C78FC262640711829705178A3
:100460000907890F3A468A40D1B22C460F3C2278C0
:1004700012099142F9D10BA949788906890F3A46A8
:100480008A40D1B22E46103E30780F22104088426A
:10049000F8D10BA840780999084039468140C9B283
:1004A000207810408842FBD10CA800788007C00F4C
:1004B00039468140C9B230788006800F8142FAD136
:1004C0000BA84078049C20408028099E0CD10299FA
:1004D0000878184308700D20C04328560028FAD524
:1004E00028461138402101700BAB587820402978FC
:1004F000039C2140081828703A4908883D48088024
:1005000048683A4C2040059C2043486008883B4896
:100510000880987838406978FE240C40201868706C
:100520000A98A851587880098740F9B228460E38B1
:100530000078072318408842F8D128460D38089CD7
:1005400004600820E8500B202D4929502D48A85060
:1005500013202D4929501F202C5023202C502720B8
:100560002C502F200421295033202C5037202C5080
:1005700028780007800F08D028788006800F04D0E4
:10058000029A1078F721014011700BA84078069B61
:10059000184004281CD00BA840783040012817D000
:1005A0000BA8407801990840102811D03449888858
:1005B000164A104088800BA8407818400C2807D0B5
:1005C0000BA840783040032802D0088810400880EB
:1005D000079908880C800E480E4901600DB0F0BDE7
:1005E000012E01000C00004D17A2FFFFFFCFFFFFFF
:1005F0001100014C17A200007C1C00007A210000B1
:100600001F910000ED13F72093890000FF0F0000F9
:100610000400002000127A0010B581B00021009182
:10062000006900901548017B04220A4302730121EE
:100630000903134A13888B4202D193888B4201D05D
:100640001180918001460D390978C906FAD5014615
:10065000103902220A7069468A78C02313408278D2
:100660003F241440E2188270097810220A40017871
:10067000EF230B409918017001B010BD1000014C20
:1006800034000244F0B583B00446012108250090EF
:100690000291002601952778284600F083FA8742C8
:1006A00006D1701C641C6D1C062E0646F3D90AE0A8
:1006B000019D08350299491CFF29009CE8D10020C2
:1006C000C04303B0F0BD0298C00003B0F0BDB0B5A8
:1006D000FFF756FE00F024FC00F09EF800F0C4FD89
:1006E00000F04AFF0C25284600F0A2FF002428460F
:1006F000214600F0A7FF0D25284600F099FF0121B3
:10070000284600F09FFF0E25284600F091FF28465E
:10071000214600F097FF1425284600F089FF28465F
:10072000214600F08FFFB0BD7047000070B500F0AB
:10073000E1FA05460124204600F0AAFF002D11D061
:10074000332000F0F5FA0026084D00F0ADFAA85568
:10075000761C082EF9D1EE790721284600F008F81A
:10076000864200D00024204670BDC04670020020A2
:1007700010B50022002907D0044BD2B204785440AF
:100780001A5D401C491EF8D1104610BD7A1B0000AE
:1007900070B584B01C48039000240294012001909D
:1007A0001A4800903F2045012846183001A9042628
:1007B000324600F009F928461C306946324600F0FE
:1007C00003F9134E0298401C029008340822204678
:1007D000314600F0F9F8AC42F4D308350D4908224F
:1007E000284600F0F1F80298401C0290002003A96E
:1007F0000424224600F0E8F802A92046224600F030
:10080000E3F804B070BDC046ABABABABCCCCCCCC4A
:100810000800002010000020002004490A580B188E
:100820005B68136008307028F8D17047CC1C00005A
:10083000026807239A43026002781A400A43026062
:10084000704770B50C46054600F0EEF90C21FFF735
:1008500071FC064628462146FFF76CFCC043301861
:1008600080B270BD82B001910168214C2160416865
:10087000204F39608168204E3160C1681F4D29606A
:1008800001691F4A116041691E4A116081691E4A4F
:100890001160C0691D4908601D4800F0D7FF21683C
:1008A0001C4800F0D3FF39681B4800F0CFFF3168C7
:1008B0001AA000F0CBFF29681CA000F0C7FF104869
:1008C00001681EA000F0C2FF0E4801681FA000F0E2
:1008D000BDFF0D48016823A000F0B8FF0B48016878
:1008E00026A000F0B3FF2BA0019900F0AFFFFEE7B8
:1008F0002C00002030000020380000203C000020A8
:1009000034000020200000202400002028000020C7
:100910005C1D0000401D00004E1D000020205232D2
:10092000203D20307825580A0D0000002020523349
:10093000203D20307825580A0D000000202052313B
:1009400032203D20307825580A0D000020205374B5
:1009500061636B6564204C52203D20307825580A35
:100960000D0000002020537461636B6564205043C8
:10097000203D20307825580A0D00000020205374B7
:1009800061636B656420505352203D2030782558B8
:100990000A0D0000202043757272656E74204C525F
:1009A000203D20307825580A0D00000070B516183B
:1009B000864208D90C460546284600F0FFF801C4D7
:1009C0002D1DB542F8D370BD80B50D235B06C01850
:1009D000920800F087F880BD10B5044600F024F9B5
:1009E000400A844206D20D20400661020818012107
:1009F00000F002F810BD0000F0B581B0664A127830
:100A0000274B03400D2464060127A34244D1082349
:100A10001A4041D0234C231F1A88604A1A80256847
:100A20000122154325606668022500952E43666005
:100A3000266820273743D026B743276046262673EB
:100A4000BE26A681012900D811462246103A222747
:100A50001770BFF36F8F0026F543056015783D4092
:100A60000122022D06D101256D024019491EECD14B
:100A7000374600E0174618884948188026732068D2
:100A8000F021884320606068009988436060206896
:100A90009043206018881E80384601B0F0BDC046E3
:100AA000FF0100FE1000004D400A704770B504467B
:100AB0000B4D284600F0B6FD01263046FFF736FC08
:100AC000B007FFF729FC0028FAD02020FFF720FC10
:100AD000284600F020FA204600F0ACF870BDC04671
:100AE0000C00014CF0B581B02B4B1B7801261B0785
:100AF0004FD503250C462C406342634105406C42B0
:100B00006C41450E0D2D44D11C4342D0644C2388CA
:100B1000224B2380656801231D436560A66802257A
:100B200000952E43A660666810273743E026B7433A
:100B3000676046262674BE262682268800272780E0
:100B4000012A00D81A4623460C3B22261E70BFF30A
:100B50006F8F0D6805601D7835400123022D06D189
:100B6000521E001D091D002AEDD13E4600E01E4622
:100B700020880B48208027746068F02188436060DB
:100B8000A06800998843A0606068984360602088EE
:100B90002780304601B0F0BD1000014C17A2FFFFC6
:100BA00017A2000010B5044600F03EF8A04203D999
:100BB0000D204006205C10BD012010BD10B504467C
:100BC00000F032F8A04203D90D204006205810BD95
:100BD000012010BD411E884103490A78FE231340BD
:100BE000181808707047C0461000005D03490A7865
:100BF0000F23134000011818087070470800005DAB
:100C000002480168491C01607047C0467C02002010
:100C10004D210906086070474D2109060968014009
:100C2000091A4842484170470148008880007047CF
:100C30002800004DF0B583B00746194DE969A87941
:100C4000800601D4012427E00191BE08012420047C
:100C50000290FFF7DDFF284600F0E4FC2002014689
:100C6000FF310F4200D03618EE61284600F053F9EC
:100C70000298FFF7D1FF002806D1B600FFF7D4FF96
:100C8000B04201D1002407E0284600F0CBFC0198D7
:100C9000E861284600F03FF9204603B0F0BDC046A9
:100CA0000C00004D70470000F0B581B000263746BB
:100CB0000096344C03E02E437F1C082F16D00225EB
:100CC0002F482946FFF7B4FD00982070284600F011
:100CD000F9FC03212A48FFF7ABFD25783C2000F002
:100CE000F1FC002DE7D00125BD40E4E7F0B201B0F2
:100CF000F0BDC04670B5224C02212046FFF798FD9A
:100D0000204E00203070192005012846503000F098
:100D1000D9FC03212046FFF78BFD502000F0D2FCC8
:100D20003478284600F0CEFC6042604170BDC04679
:100D3000F0B581B004460027114D3E4609E03C2045
:100D400000F0C0FC03212846FFF772FD761C082E38
:100D500014D002212846FFF76BFD0A480770204691
:100D6000F040C007EBD0012000F0ACFC0321284686
:100D7000FFF75EFD3C2000F0A5FCE7E701B0F0BD09
:100D8000000003447000004170B5292040065A4C11
:100D90002178FF291BD0594D2E7800F0DFFB172E4C
:100DA00004D82978B54A5054481C2870287803285C
:100DB00001D10D2121702178002907D0884205D169
:100DC000FF202070E248012100F08AFA70BD00F097
:100DD000C5FB70BD70B5DE480024214600F080FAE6
:100DE00045480470B748048044480178A44E3170E7
:100DF0000470022000F04CFCA0480178432926D161
:100E00004178102923D181781F20084014280FD061
:100E10000A2819D130780D2819D1984D0D2128466E
:100E2000FFF76AFA00282DD0F32000F0FDF870BD1E
:100E3000924D0D2428462146FFF75EFA002807D080
:100E4000E52000F0F1F870BDA02000F0EDF870BDD5
:100E5000E87A2B49C871A87A8871687A4871287A2B
:100E60000871E879C870A87988706879487028791D
:100E70000870E87800281AD001281DD1204800F019
:100E800067F817E01020687043202870E87805287C
:100E90001FD8C046784400794000874402161A1AC9
:100EA0001C1F1B4800886871000AA8711EE01448C6
:100EB000FFF7C4F9E87003E0E81C0A21FFF72FF9F7
:100EC0003470052000F0B0F870BD104800786871EB
:100ED0000CE06C710AE00C48406804E009480068C6
:100EE0000C21FFF7AEFCA871000A68710920307070
:100EF000132000F099F870BD410000206802002026
:100F0000700200201C0000205C0000204000002037
:100F1000420000207047002101800120704700003E
:100F20000748018807490180074941600021816025
:100F3000064AC26001614161816102880180704797
:100F40000C00004C17A20000000800020E08000070
:100F5000F0B585B0FFF796FB411C60D00090FFF71D
:100F6000A3FDC5B268022F4E301A0490012047023B
:100F70000024029501970DE0A0B2FFF72DFD039824
:100F8000284E3146019F3A46FFF71EFD029D641C24
:100F9000042C41D0002C01D0A542F8D86002039067
:100FA00031463A46FFF702FDE0B2032816D000288A
:100FB00002D17068401E70600398C619A5421CD10A
:100FC0000098B042D8D2009D28460830FFF7EAFDCD
:100FD000049948556D1CAE42F6D1CDE77F208000C4
:100FE000AB2131503F20C0003158491C31503E46A2
:100FF000103E03980643A542E2D00398B042BBD20C
:10100000084F039D28460830FFF7CCFD38707F1C41
:101010006D1CAE42F6D1AFE7032005B0F0BD042051
:1010200005B0F0BD68000020F0B581B0124D01217F
:101030002970124CA070124E3078411E2046FFF7E6
:1010400097FB31780919491E0870072000F0ECFB66
:101050003078002807D00027E05D00F0C9FA7F1C37
:1010600030788742F8D300F095FA0028FBD00020B2
:10107000287001B0F0BDC0463A0000414400002095
:1010800018000020704780B5FFF7BAFD80BD000052
:10109000014802490160704704000020001BB700AE
:1010A00080B5FFF797FE80BD80B50648018800290E
:1010B00006D0491C018088B2112801D300F0D6FA6D
:1010C00080BDC0467A020020074801784A424A4162
:1010D0000270064801784A424A4102700448017889
:1010E000491C01707047C0469D00004172000041DC
:1010F0007802002010B5164C8021204600F09CF8A4
:10110000012803D18021204600F094F820212046B8
:1011100000F092F8012803D12021204600F08AF83F
:101120001021204600F088F8012805D1FFF7B8FF0C
:101130001021204600F07EF80821204600F07CF8BF
:10114000012803D10821204600F074F810BDC046E4
:101150000000015580B503480078800701D5FFF7EE
:10116000C9FF80BD6C00005010B5AB20C4058021C4
:10117000204600F061F8012803D18021204600F0CC
:1011800059F82021204600F057F8012803D12021EA
:10119000204600F04FF81021204600F04DF80128BD
:1011A00005D1FFF781FF1021204600F043F8082108
:1011B000204600F041F8012803D10821204600F024
:1011C00039F810BD80B5FFF7CFFF80BD10B5164CC4
:1011D0008021204600F030F8012803D180212046EC
:1011E00000F028F82021204600F026F8012803D13D
:1011F0002021204600F01EF81021204600F01CF8A7
:10120000012805D1FFF760FF1021204600F012F8F9
:101210000821204600F010F8012803D108212046BB
:1012200000F008F810BDC0460000865580B5FFF7F5
:10123000CDFF80BD0160704700680840411E8841B5
:10124000704701220A400179FE230B409918017171
:101250007047012A03D142680A43426070474268DE
:101260008A43426070470000F0B5174C211F0020F0
:1012700008600821E1606325A5614F2626620322EC
:101280001307236062602060104C271F3860E16004
:10129000A56126622360626020600D4C251F2860D6
:1012A000E160F925A5619F252562236062602060C9
:1012B000084C251F2860E1600749A16107492162A8
:1012C000236062602060F0BD0C0000550C000155E9
:1012D0000C0080550C0086553F1F0000E7030000FE
:1012E000012901D0002100E00321027CFC231340EE
:1012F00059180174704770B529204406204600F043
:1013000027F90646204600F027F905463540A8078C
:101310000AD468061BD4280621D4E80627D4280757
:1013200036D4680751D470BD0126680552D428050B
:1013300056D4E8045AD4A80403D57103204600F01B
:101340009EF80221204600F09AF86806E3D500F0E6
:101350002DF94021204600F092F82806DDD500F056
:1013600046F98021204600F08AF8E806D7D5012604
:10137000A80342D4680346D4E80303D531042046C9
:1013800000F07DF81021204600F079F82807C8D534
:101390000126E8023ED4A80242D4680246D42802BC
:1013A0004AD4E8014ED4280152D4E80056D4A8000B
:1013B0005AD4680003D5B107204600F060F8082130
:1013C000204600F05CF86807ADD50421204600F007
:1013D00056F870BDB102204600F051F82805A8D596
:1013E000F102204600F04BF8E804A4D53103204672
:1013F00000F045F8A804A0D4A3E77104204600F04B
:101400003EF86803B8D5B104204600F038F8E80388
:10141000B4D4B7E73105204600F031F8A802BCD5B6
:101420007105204600F02BF86802B8D5B1052046BA
:1014300000F025F82802B4D5F105204600F01FF889
:10144000E801B0D53106204600F019F82801ACD5E6
:10145000F106204600F013F8E800A8D53107204631
:1014600000F00DF8A800A4D57107204600F007F899
:101470006800A0D4A3E780B5FFF73DFF80BD21221F
:10148000914301607047026901239A430A43026154
:1014900070470000F0B583B0044608461146FEF7D9
:1014A00049FE082801D201214BE0064601940120A3
:1014B000009000030290002508273C4605E00299B1
:1014C000884213D37F1C202F11D030463946FEF7B7
:1014D00031FE39464143711AF1D0781AE9B2884297
:1014E00000DB3C468842EDDB0546EBE73C46019DD0
:1014F000A86815490140A96030462146FEF71AFE4A
:101500000299884200991CD8401EA884601EE87584
:10151000687503200006A9680143A9604020A875EA
:1015200028752020C02129542869084901402961D3
:10153000A8690C210143A96128690121014329619E
:101540000021084603B0F0BDF1FFCCFF85FFFCFF92
:10155000006821218843704740687047006B7047DE
:10156000426801239A430A43426070474A434368F2
:101570008B4313434360704780B5292040064B21BD
:101580000A020349FFF786FF401E411E884180BDC5
:1015900000127A002920400600784007C00F7047EB
:1015A000292040060078C0097047000080B5FFF789
:1015B000EBFB35480121018080BDC046491E03294F
:1015C0000AD8C0467944097949008F4401070A0DB9
:1015D0003421425400207047012070478286002049
:1015E0007047826300207047426300207047704755
:1015F00010B50446FFF7D4FF0028FBD02920400691
:1016000001212246FFF7DAFF10BD80B502462920EE
:101610004006017849B20029FBD50421FFF7CEFF2F
:1016200080BD0000014901800120704717A2000021
:101630001F21014001208840014908607047C046D1
:1016400000E100E010B5C0B28207D20EFF23934044
:10165000054C00190324A04304689C438901C9B2C6
:1016600091402143016010BD00E400E004480021E6
:1016700001700448017004480180044801707047FB
:1016800041000020680200207A0200203A00004158
:1016900010B5002804D0044600F003F8641EFBD106
:1016A00010BD10B55520040610212046FFF7C4FDDB
:1016B0000028F9D010212046FFF7BCFD10BD00BF67
:1016C00000BF704710B5002804D00446FFF7F7FFAD
:1016D000641EFBD110BD000084B072B6FEF7F7FFA8
:1016E00000F096F8454D281DFFF7E0F9444C002125
:1016F00002912046FFF7F4FD1027012620463946C7
:1017000003973246FFF7A5FD20463146FFF799FDC6
:1017100020463946FFF78EFDAB20C40520460299CE
:10172000FFF7DEFD2046039F39463246FFF791FD65
:10173000019420463146FFF784FD204639463C4659
:10174000FFF778FD2F48029F3946FFF7C9FD2D4866
:1017500021463246FFF77DFD2A483146FFF771FDED
:1017600028482146FFF766FD2920440620463946D1
:10177000FFF789FE402120463246FFF7F7FE20465C
:101780003146FFF7EDFE01983146FFF7A9FD2046EF
:101790003146FFF778FE62B6552000060399FFF741
:1017A00049FD194807700D2046063068401C02D0DC
:1017B000FEF7BAFF01E0FEF7EBFF0320C443274624
:1017C000B8194068FFF721FF3F1DAF42F8D3FEF77D
:1017D000ADFF0028FBD00D48FEF730FDFFF715FFE9
:1017E0002746B8194068FFF710FF3F1DAF42F8D3F6
:1017F00028462C38FFF74CFFE9E7C046FC070000FD
:101800000000015500008655720000417002002062
:1018100010B50D4C2046FFF705FF0020FFF7DAF961
:101820002046FFF778FB10BDB0B50446064D2846AC
:10183000FFF7F8FE2046FFF7D9F90120FFF7CAF9B4
:101840002846FFF768FBB0BD0C00005D0FB410B573
:1018500003A9044B044A029800F018F810BC08BC15
:1018600004B01847691B00000000002002E008C80F
:10187000121F08C1002AFAD170477047002001E00A
:1018800001C1121F002AFBD170470000FFB58FB0C5
:101890000F460446002606E025280AD0129A119920
:1018A0009047641C761C20780028F5D1304613B090
:1018B000F0BD00250121A14A009500E00543641C0C
:1018C00023780846203B98401042F7D120782E28F4
:1018D00015D1042005436078641C2A280AD101CF61
:1018E000641C00900BE000990A22514330394018E3
:1018F000641C00902078014630390929F3D92078FA
:101900006C280ED004DC4C2813D06A2812D104E0D5
:1019100074280ED07A280DD10BE001204005054334
:1019200007E00121090562780D43824201D16D185B
:10193000641C641C2078864669284AD008DC00288C
:10194000B4D058286DD0632810D0642808D140E066
:1019500070286BD0732812D0752860D0782860D09A
:10196000129A704611999047761CE5E038786946DE
:1019700008720020487202A80190012003E0386834
:1019800001900020C0433F1D69070CD5002500E0F1
:101990006D1C00998D420FDA8542F9DB0199495D92
:1019A0000029F5D108E0002500E06D1C8542FCDB34
:1019B0000199495D0029F8D1761907E0019801994C
:1019C0000078491C0191129A119990476D1EF5D229
:1019D000B2E00A20029000216802400F0391022821
:1019E0000CD001CFC117844600290DDA62460846A3
:1019F00052420021814194462D2008E0FF1DFF083E
:101A0000FF0003CF8446EFE7280504D52B206A4664
:101A1000107401203CE0E8073AD02020F7E70A20C4
:101A200000E0102000210391029007E010200290B6
:101A30000021042005430820039100906802400F14
:101A4000022810D001CF0021844600200D902807E5
:101A50001FD5704670280CD0029A1020039B42407C
:101A60001A430CD015E0FF1DFF08FF0003CF84468A
:101A7000EBE740206A46107401200D900CE06046B0
:101A8000084306D030206A46107470465074022015
:101A90000D907046582804D029A001900DA80E90F2
:101AA0000DE02CA0F9E76046039B029AFEF761FB6C
:101AB000019B84469B5C0E9A521E0E9213706046E8
:101AC0000843F0D10E9805A9081A20300190680744
:101AD00001D5009801E0012000900199884203DDC2
:101AE00001460198081A00E000200025009006E059
:101AF00004A8129A405D119990476D1C761C0D98B0
:101B00008542F5DB04E0129A302011999047761C4B
:101B10000099481E00900029F5DC08E00E980E9907
:101B20000078491C0E91129A11999047761C0199E0
:101B3000481E01900029F1DC641CB4E6092801006C
:101B40003031323334353637383961626364656633
:101B500000000000303132333435363738394142F5
:101B6000434445460000000038B50446684604700A
:101B700069460320ABBE204638BD005EBCE2613F33
:101B8000DD83C29C7E20A3FD1F419DC3217FFCA25B
:101B9000401E5F01E3BD3E6082DC237D9FC1421C8D
:101BA000FEA0E1BF5D0380DE3C62BEE0025CDF813F
:101BB000633D7C22C09E1D43A1FF4618FAA42779ED
:101BC0009BC584DA3866E5BB5907DB856739BAE41B
:101BD00006581947A5FB7826C49A653BD987045A4D
:101BE000B8E6A7F91B45C6987A24F8A6441A99C7FF
:101BF000257B3A6486D85B05E7B98CD2306EEDB3AD
:101C0000510F4E10F2AC2F7193CD114FADF3702EDA
:101C1000CC92D38D6F31B2EC0E50AFF1134DCE900C
:101C2000722C6D33D18F0C52B0EE326C8ED0530DBE
:101C3000EFB1F0AE4C1291CF2D73CA947628ABF56C
:101C400017490856B4EA6937D58B5709EBB536689A
:101C50008AD495CB2977F4AA4816E9B7550B88D6CC
:101C6000346A2B7597C94A14F6A8742AC896154B7E
:101C7000A9F7B6E80A54D7896B35000000000000C8
:101C800000000000012E010000000000100600000E
:101C900011000000080000001F910000ED13F72064
:101CA0009389000000000000000000000000000018
:101CB0000000000004000000000000000000000020
:101CC0000000000000127A00000000002000014423
:101CD0002230000024000144213000004000014473
:101CE0000000000020000041FFFF0000000003444E
:101CF0000300000008000344020000001000034439
:101D00002300000040000344000000006000004188
:101D1000FFFF0000340004440200000038000444C7
:101D2000020000003C0004440200000040000444A3
:101D30000000000080000041FFFF000000000000E4
:101D400020205230203D20307825580A0D002020D8
:101D50005231203D20307825580A0D00202048615E
:101D60007264204661756C742048616E646C6572A3
:101D70000A0D0000941D0000000000201800000063
:101D80006C180000AC1D0000180000206806000060
:101D90007C18000000000000001BB7000114E68161
:0C1DA0000F0000F501D8D373010000C350
:04000005000000DB1C
:00000001FF
