:020000040000FA
:10000000A0080020D5000000450C0000E50000001D
:10001000FFFFFFFFFFFFFFFFFFFFFFFFFFFFFFFFF0
:10002000FFFFFFFFFFFFFFFFFFFFFFFFA910000023
:10003000FFFFFFFFFFFFFFFF310F0000AB100000CD
:100040000301000003010000FFFFFFFF03010000A8
:100050000301000003010000030100000301000090
:1000600003010000FFFFFFFF030100000301000088
:1000700045120000B51200001D130000030100002E
:100080000301000085130000FFFFFFFFFFFFFFFFDC
:10009000D11500000301000003010000FFFFFFFF76
:1000A0000301000003010000FFFFFFFFFFFFFFFF50
:1000B0000301000003010000030100000301000030
:1000C0000348854600F07CF80048004749180000C6
:1000D000A0080020002001688D460A4880470A4891
:1000E0000047FEE704207146084202D0EFF3098082
:1000F00001E0EFF308807146044A1047FEE7FEE78F
:10010000FEE7FEE7B5100000C10000001D0700007B
:1001100030B50B46014600202022012409E00D469F
:10012000D5409D4205D31D469540491B2546954027
:1001300040191546521E002DF1DC30BDD2B201E04F
:100140000270401C491EFBD270470022F6E710B532
:1001500013460A4604461946FFF7F0FF204610BD35
:10016000F0B51FB40646002082B005464024019138
:1001700000901BE0019922460F46304600F042F8FD
:10018000049A059B801A994110D3104619462246BD
:1001900000F028F8361A8F410197224601200021ED
:1001A000009F00F01FF838184D4100902046641E53
:1001B0000028DFDC019B00982946324607B0F0BDDD
:1001C000064C0125064E05E0E36807CC2B430C3CAA
:1001D00098471034B442F7D3FFF776FFB41E0000FF
:1001E000D41E000010B5202A04DB0146203A9140BD
:1001F000002010BD914020239C1A0346E340194380
:10020000904010BD10B5202A04DB0846203AD040AB
:10021000002110BD0B46D340D0402024A21A9140AB
:100220000843194610BD0000F0B583B000F082F914
:10023000401C02D0012003B0F0BD042000F02CFCD3
:10024000FD2802D9022003B0F0BDC50008352846BC
:1002500000F090FBC0B280021B4C0290201A4019A3
:1002600001900120850200273E460BE0B0B200F06D
:100270000FFB384621462A4600F002FB7F19761C08
:10028000022E1ED0384621462A4600F0EBFAF0B284
:10029000012805D000280CD16068401C606008E08F
:1002A000FF208000AB2121507F20C0002158491C35
:1002B00021500298B842D9D1DE4903C9019A03C23C
:1002C000D4E7002003B0F0BD80000020054908609D
:1002D0007047C046034909680140481E81410846ED
:1002E0007047C0460000014C90490A78002803D0AE
:1002F000082002430A707047F72002400A707047D6
:10030000F0B589B0002708970126300404900890C2
:1003100007970325680207900697069663490A68BF
:1003200063480240634BD2180A602A034B68934328
:100330004B600A6802400A607C4C221F1168014031
:100340005C480818059210600698606020460838DE
:1003500008990160A8050799014022688243501856
:10036000206008988003800F05D028040899014078
:100370007004814203D120681021014321604E485E
:1003800000F0A6F820682021019188432060A8028F
:10039000079A02402368039083439A182260280238
:1003A000079A02402368029083439A182260079AB2
:1003B0001205920F334693402246103A1168090203
:1003C000090F9942F8D107998905890F33468B4067
:1003D00011680903090F9942FAD1AD030799294021
:1003E000F303994208D12168019801432160116803
:1003F0000029FCD540211170079929402068A843A5
:10040000084320600798049908402949491E256837
:100410000D40054325600698606007980004800F32
:100420003146814010684001400F8842FAD1204691
:100430000C3807600821A1602048E0602048206156
:100440009333636127626762A76204202063676356
:10045000A7632068039B184202D02068884320606D
:1004600007981840B102884216D0079802990840B0
:100470003102884210D02E498888124A1040888064
:1004800007981840984207D00798029B1840984256
:1004900002D0088810400880059A10680449084076
:1004A000106009480949016009B0F0BD0C00004D19
:1004B0000000FFFF17A20000AC1D00000F8100002C
:1004C000E5110300FF0F00000C00002000127A006D
:1004D00081B000210091006900901448C168042295
:1004E0000A43C26001210903114A13888B4202D1D9
:1004F00093888B4201D011809180014610390A689F
:10050000D200FAD502220A7003218905009A0A4016
:1005100003688B43991801601021009A0A40036810
:100520008B439918016001B07047C0461000014C20
:1005300034000244F0B585B00746042000F0ACFA60
:100540000025E943002823D00091012608210297C5
:100550000195049603910E463C78304600F090FADF
:10056000844206D1681C761C7F1C062D0546F3D9F3
:100570000CE0049E761C042000F08EFA03990831EA
:100580008642029F019DE4D9009901E00498C100D0
:10059000084605B0F0BD10B5FFF7B2FE00F0CEFC86
:1005A00000F09EF800F00AFF01F096F80C242046B7
:1005B00001F0E2F8204601F0EBF80D24204601F0AE
:1005C000DBF8204601F0E4F80E24204601F0D4F8D0
:1005D000204601F0DDF81124204601F0CDF8204638
:1005E00001F0D6F81424204601F0C6F8204601F0A8
:1005F000CFF810BD70B500F051FB05460124204630
:1006000001F0F2F8002D11D0332000F065FB002638
:10061000084D00F019FBA855761C082EF9D1EE798B
:100620000721284600F008F8864200D00024204622
:1006300070BDC0468804002010B50022002907D0F4
:10064000044BD2B2047854401A5D401C491EF8D1C4
:10065000104610BDAA1C000070B584B01C48039061
:1006600000240294012001901A4800903F20450187
:100670002846183001A90426324600F001F9284620
:100680001C306946324600F0FBF8134E0298401CBD
:100690000290083408222046314600F0F1F8AC42BE
:1006A000F4D308350D490822284600F0E9F80298ED
:1006B000401C0290002003A90424224600F0E0F828
:1006C00002A92046224600F0DBF804B070BDC04607
:1006D000ABABABABCCCCCCCC2000002028000020B6
:1006E000002004490A580B185B6813600830802802
:1006F000F8D17047FC1D0000026807239A4302608E
:1007000002681A400A4302607047000002490878F4
:1007100000220A707047C0463A00002082B0019162
:100720000168214C21604168204F39608168204E6A
:100730003160C1681F4D296001691F4A116041691C
:100740001E4A116081691E4A1160C0691D49086016
:100750001D4801F013F921681C4801F00FF93968B0
:100760001B4801F00BF931681AA001F007F929685C
:100770001CA001F003F9104801681EA001F0FEF86A
:100780000E4801681FA001F0F9F80D48016823A088
:1007900001F0F4F80B48016826A001F0EFF82BA057
:1007A000019901F0EBF8FEE7480000204C00002022
:1007B0005400002058000020500000203C00002081
:1007C00040000020440000209C1E0000801E00000D
:1007D0008E1E000020205232203D20307825580AFD
:1007E0000D00000020205233203D20307825580A8B
:1007F0000D0000002020523132203D203078255855
:100800000A0D00002020537461636B6564204C5214
:10081000203D20307825580A0D0000002020537418
:1008200061636B6564205043203D20307825580A71
:100830000D0000002020537461636B6564205053E9
:1008400052203D20307825580A0D000020204375A5
:100850007272656E74204C52203D20307825580A03
:100860000D00000070B51618864208D90C460546E2
:10087000284600F011F901C42D1DB542F8D370BD12
:1008800080B50D235B06C018920800F091F880BD7A
:1008900010B5044600F03AF9800A844206D20D20D1
:1008A0004006A1020818012100F002F810BD000066
:1008B000F0B583B06F4A13682C4C04400D225506E6
:1008C0000122AC424FD1082423404CD0284F3B1F7B
:1008D0001A68694C2240694C121902931A603A68EE
:1008E000012301931A433A607A68022300931A4362
:1008F0007A603A6820241443D02294433C60462214
:100900003A73BE22BA81002422463D46103D22267B
:100910002E70BFF36F8FE34303602B783340022BBD
:1009200008D101239B02C018521C8A42EDD3002239
:10093000019D01E0019D2A46029B18684E4C204013
:100940004E4908431860002038733868F021884306
:10095000386078680099884378603868A8433860C0
:10096000186820401860104603B0F0BDFF0300FE79
:100970001000004D800A704770B504460B4D2846A4
:1009800000F0F4FE01263046FFF7AEFCB007FFF79B
:10099000A1FC0028FAD02020FFF798FC284600F0A0
:1009A000C8FA204600F0B8F870BDC0460C00014CF3
:1009B000F0B582B02F4B1C680123240757D50326BE
:1009C0000D4635406C426C41064075427541460EFD
:1009D0000D2E4CD125434AD0694C2368264E334016
:1009E000264D5B1923606368012501952B436360E5
:1009F000A368022500952B43A360636810251D435F
:100A0000E0239D43656046232374BE23238223682D
:100A100033402360002325460C3D22272F70BFF36F
:100A20006F8F0E6806602D783D40022D07D15B1C4C
:100A3000001D091D9342EED30023019D01E0019D9D
:100A40002B4620680C4A10400C49084320600020C7
:100A500020746068F02188436060A0680099884332
:100A6000A0606068A843606020681040206018465D
:100A700002B0F0BD1000014C0000FFFF17A2000003
:100A800010B5044600F042F8A04203D90D204006FC
:100A9000205C10BD012010BD10B5044600F036F8F2
:100AA000A04203D90D204006205810BD012010BDE2
:100AB00005490A680123002802D01A430A607047DA
:100AC0009A430A607047C0461000005D04490A68F6
:100AD000F0239A430007000E101808607047C046C4
:100AE0000800005D02480168491C01607047C0466B
:100AF000940400204D210906086070474D21090625
:100B000009680140091A4842484170470148008875
:100B1000800070472800004DF0B583B00746184D9F
:100B2000E9696868800201D4012425E00191BE08CA
:100B3000012420040290FFF7DDFF284600F016FE96
:100B4000B80501D020023618EE61284600F0F1F910
:100B50000298FFF7D3FF002806D1B600FFF7D6FFB3
:100B6000B04201D1002407E0284600F0FFFD0198C3
:100B7000E861284600F0DDF9204603B0F0BDC0462C
:100B80000C00004DB0B5264C2078022808D0012872
:100B900012D0002803D1254D287800281DD0B0BDE3
:100BA00020480068204909688842F8D30020207056
:100BB0001E4801218171B0BDFFF71CFD002817D030
:100BC000DA48FFF7B7FC401C1CD0022020701849FF
:100BD0000870144800210160B0BD642000F004FEDC
:100BE00028780028DBD10120207011490870B0BDA1
:100BF00012480068124909688842D0D30C48042181
:100C00000170B0BD0A48032101700A4900220A6040
:100C1000094A0B681468A342FBD305210170B0BDDB
:100C20003B0000207800002010000020330000412D
:100C30003A00002098040020340000207C000020AE
:100C40001400002070470000F0B581B03648032141
:100C5000FFF752FD002634460096344F03E02E4342
:100C6000641C082C16D002252F482946FFF744FDA6
:100C700000983870284600F0DDFD03212A48FFF770
:100C80003BFD3D783C2000F0D5FD002DE7D001254F
:100C9000A540E4E7F0B201B0F0BDC04670B5224C0B
:100CA00002212046FFF728FD204E00203070192039
:100CB00005012846503000F0BDFD03212046FFF716
:100CC0001BFD502000F0B6FD3478284600F0B2FD40
:100CD0006042604170BDC046F0B581B00446002757
:100CE000114D3E4609E03C2000F0A4FD03212846BA
:100CF000FFF702FD761C082E14D002212846FFF7CC
:100D0000FBFC0A4807702046F040C007EBD00120EA
:100D100000F090FD03212846FFF7EEFC3C2000F098
:100D200089FDE7E701B0F0BD00000144300000415B
:100D300070B529204006764C2178FF2920D0754DCA
:100D40002E7800F0BBFC172E04D82978D44A5054D2
:100D5000481C28702878032806D1D1498978C9060B
:100D6000890F094A515C21702178002907D08842F7
:100D700005D1FF2020706548012100F079FB70BD8E
:100D800000F09CFC70BDC04606000020F0B581B0AC
:100D90005E480024214600F06BFB5D480470D24899
:100DA00004805C480178BF4E31700470022000F06E
:100DB0001BFDBB4F387843284DD1787810284AD195
:100DC000B9781F2008401C2814D014282FD00A28D6
:100DD0003ED1307806283ED1F87806286CD8C04637
:100DE0007844007940008744036A6D7175797D000D
:100DF000042579E0317816292DD1387B4B4AD07102
:100E0000F87A9071B87A5071787A1071387AD07017
:100E1000F8799070B879507078791070F878002867
:100E20001BD0012822D1414800F0A4F818E0317805
:100E3000092910D1F878C01E042820D878440079F8
:100E4000400087440225282B2E00787936492AE075
:100E5000A02000F0FBF801B0F0BD3448FFF7E4F942
:100E6000F870062030700020387123E00429F8D390
:100E7000F81C091FC9B2491CFFF767F9F1E70429FB
:100E800012D3F81C091FC9B2491CFFF75EF90BE029
:100E90007879244907E07879214904E078791F4975
:100EA00001E078791C49087000203871FF20F87043
:100EB000062030700A2024E07C7120461CE07C7102
:100EC000FE2019E07C711848007815E07C71154807
:100ED000007811E07C71124800780DE07C710E48BA
:100EE000007809E0FF20C5002846FFF7D5FD000A7D
:100EF00078712846FFF7D0FDFC71B8710920307079
:100F0000132000F0A3F801B0F0BDC0460000015569
:100F10005D00002080040020050000205C0000200F
:100F2000380000200A00002004000020880400206F
:100F300070470021018001207047000009480268C5
:100F400009490A40094BD2180260094A426000224E
:100F500082600E23C36002614261826102680A40BE
:100F6000026070470C00004C0000FFFF17A2000059
:100F700000100002F0B585B0FFF7DCFA411C60D02C
:100F80000090FFF7F7FCC5B2A8022F4E301A04906C
:100F9000012087020024029501970DE0A0B2FFF71F
:100FA00077FC0398284E3146019F3A46FFF768FCCC
:100FB000029D641C022C41D0002C01D0A542F8D81F
:100FC000A002039031463A46FFF74CFCE0B20128FC
:100FD00016D0002802D17068401E70600398C619B0
:100FE000A5421CD10098B042D8D2009D28460830B6
:100FF000FFF746FD049948556D1CAE42F6D1CDE78A
:10100000FF208000AB2131507F20C0003158491CA7
:1010100031503E46103E03980643A542E2D0039865
:10102000B042BBD2084F039D28460830FFF728FD89
:1010300038707F1C6D1CAE42F6D1AFE7032005B0BF
:10104000F0BD042005B0F0BD80000020F0B581B0F7
:10105000124D01212970124CA070124E3078411EA1
:101060002046FFF7E9FA31780919491E0870072070
:1010700000F072FC3078002807D00027E05D00F017
:1010800067FB7F1C30788742F8D300F033FB0028E1
:10109000FBD00020287001B0F0BDC0463B000041ED
:1010A0005E00002039000020704780B5FFF71AFD70
:1010B00080BD000001480249016070470C0000201B
:1010C000001BB70080B5FFF761FE80BD80B5064804
:1010D0000188002906D0491C018088B2112801D35B
:1010E00000F072FB80BDC0469204002006480168F3
:1010F000491C016038480168491C01603848016892
:10110000491C01607047C04678000020B0B5FFF769
:10111000FDFA401E2A4C042834D8C0467844007991
:10112000400087440204111E23002B481FE00020CA
:101130002070254901220A60244914220A602449AA
:101140000870244804211CE0002020701E49012260
:101150000A601E490A220A601D4908701D480321C1
:101160000FE00020C043174908600BE01C48002135
:1011700001601548012101601648184901601348B3
:101180006421016010490868421C0A600F4D2968FB
:10119000FEF7BEFF002907D120784142414121706E
:1011A0000B480178491C0170094800780949096811
:1011B0004900884203D300202070C0432860B0BD9E
:1011C0003100004114000020180000201C00002005
:1011D00090040020300000207C000020FFFF000071
:1011E0009804002010B5164C8021204600F0D0F85D
:1011F000012803D18021204600F0C8F82021204694
:1012000000F0C6F8012803D12021204600F0BEF8E6
:101210001021204600F0BCF8012805D1FFF752FF4D
:101220001021204600F0B2F80821204600F0B0F866
:10123000012803D10821204600F0A8F810BDC046BF
:101240000000015580B503480078800701D5FFF7FD
:10125000C9FF80BD6C00005010B5AB20C4058021D3
:10126000204600F095F8012803D18021204600F0A7
:101270008DF82021204600F08BF8012803D1202191
:10128000204600F083F81021204600F081F8012864
:1012900005D1FFF71BFF1021204600F077F8082149
:1012A000204600F075F8012803D10821204600F0FF
:1012B0006DF810BD80B5FFF7CFFF80BD10B5164C9F
:1012C0008021204600F064F8012803D180212046C7
:1012D00000F05CF82021204600F05AF8012803D1E4
:1012E0002021204600F052F81021204600F050F84E
:1012F000012805D1FFF7FAFE1021204600F046F83C
:101300000821204600F044F8012803D10821204696
:1013100000F03CF810BDC0460000865580B5FFF7D0
:10132000CDFF80BD10B5164C8021204600F030F86E
:10133000012803D18021204600F028F820212046F2
:1013400000F026F8012803D12021204600F01EF8E5
:101350001021204600F01CF8012805D1FFF7D6FE29
:101360001021204600F012F80821204600F010F865
:10137000012803D10821204600F008F810BDC0461E
:101380000000865680B5FFF7CDFF80BD0160704735
:1013900000680840411E884170470122114043689F
:1013A0009343591841607047012A03D142680A43A8
:1013B0004260704742688A434260704770B5244D6E
:1013C000291F002008600822EA60C721A96127249C
:1013D0002C6203210B072B60696028601D4D2E1FB6
:1013E0003060EA602F26AE612C622B606960286055
:1013F000194D2E1F3060EA60184EAE6107262E622E
:101400002B6069602860164D2E1F3060EA60154E13
:10141000AE612C622B6069602860134C251F286028
:10142000E260A661216223606062A0620F4AE2620C
:1014300020636063A063E063A06460642065E0648F
:10144000A06560652066E0656160206070BDC04693
:101450000C0000550C0001550C0080550F270000B2
:101460000C0086551F4E00000C008656F0F0000060
:10147000027C012903D0FC210A4002747047032139
:101480000A430274704770B529204406204600F0D4
:101490000FF90646204600F00FF905463540A8072B
:1014A0000BD4680628D428062ED4E80634D428079E
:1014B0004BD4680700D586E070BD0126680503D5CA
:1014C000B102204600F088F8280503D5F102204635
:1014D00000F082F8E80403D53103204600F07CF8E0
:1014E000A80403D57103204600F076F802212046B7
:1014F00000F072F86806D6D500F008F940212046C1
:1015000000F06AF82806D0D500F021F980212046A5
:1015100000F062F8E806CAD50126A80303D57104D5
:10152000204600F059F8680303D5B104204600F0C6
:1015300053F8E80303D53104204600F04DF810219C
:10154000204600F049F82807B3D50126E80203D564
:101550003105204600F040F8A80203D57105204669
:1015600000F03AF8680203D5B105204600F034F8DF
:10157000280203D5F105204600F02EF8E80103D536
:101580003106204600F028F8280103D5F106204650
:1015900000F022F8E80003D53107204600F01CF8DF
:1015A000A80003D57107204600F016F8680003D59F
:1015B000B107204600F010F80821204600F00CF892
:1015C000680700D478E70421204600F005F870BDD4
:1015D00080B5FFF758FF80BD21229143016070471D
:1015E000026901239A430A4302617047F0B583B050
:1015F000044608461146FEF78BFD082801D201215A
:101600004EE0064601940120009000030290002461
:1016100008273D4604E00D4604467F1C202F15D0C8
:1016200030463946FEF774FD39464143711A09D0F8
:10163000781AE2B29042394600DA29469042EADA54
:101640002046E8E702998842E7D23D46019CA0681F
:1016500015490140A16030462946FEF759FD02991F
:10166000884200991CD8401EA084681EE0756075F1
:1016700003200006A1680143A1604020A0752075E9
:101680002020C02121542069084901402161A0691E
:101690000C210143A1612069012101432161002145
:1016A000084603B0F0BDC046F1FFCCFF85FFFCFF4C
:1016B000006821218843704740687047006B70477D
:1016C000426801239A430A43426070474A43436891
:1016D0008B4313434360704780B5292040064B215C
:1016E0000A020349FFF782FF401E411E884180BD68
:1016F00000127A002920400600684007C00F70479A
:101700002920400600680006C00F704780B5FFF72B
:101710000FFB34480121018080BDC046491E0329CA
:101720000AD8C0467944097949008F4401070A0D57
:1017300034214254002070470120704782860020E7
:1017400070478263002070474263002070477047F3
:1017500010B50446FFF7D4FF0028FBD0292040062F
:1017600001212246FFF7DAFF10BD00000149018088
:101770000120704717A20000002805D41F2108404F
:1017800001218140014801607047C04600E100E04E
:10179000002805D4032102468A430A49511806E06D
:1017A0000F210140083903229143054A8918800717
:1017B000C00EFF2282400868904308607047C04610
:1017C0001CED00E000E400E0044800210170044842
:1017D0000170044801805F48017070475D0000207F
:1017E000800400209204002010B5002804D0044694
:1017F00000F003F8641EFBD110BD10B5552004069F
:1018000010212046FFF7C2FD01212046FFF730FEE0
:1018100010212046FFF7BCFD0028F9D0002120460A
:10182000FFF726FE10212046FFF7B0FD10BD00BFD8
:1018300000BF704710B5002804D00446FFF7F7FF3B
:10184000641EFBD110BD000072B6FEF7A4FE012499
:10185000E002FFF791F83C4F002538462946FFF794
:1018600007FE1026384631462246FFF79DFD3846D2
:101870002146FFF792FD38463146FFF787FDAB2042
:10188000C70538462946FFF7F3FD3846314622465C
:10189000FFF78AFD38462146FFF77FFD384631467F
:1018A000FFF774FD294F38462946FFF7E1FD38461A
:1018B00031462246FFF778FD38462146FFF76DFD99
:1018C00038463146FFF762FD214F38462946FFF77B
:1018D000CFFD384631462246FFF766FD38462146A1
:1018E000FFF75BFD38463146FFF750FD29204706DC
:1018F00038462946FFF774FE402138462246FFF756
:10190000E5FE38462146FFF7DBFE38462146FFF765
:1019100067FE62B6552000063146FFF737FD0D4ED3
:1019200035700D2040060068401C01D1FEF794FE82
:10193000347007482146FFF79BFD04482146FFF716
:1019400097FDFFF71FF9FCE70000015500008656E0
:10195000000086553B000041B0B50446064D2846C0
:10196000FFF704FF2046FFF7B1F80120FFF7A0F8CA
:101970002846FFF7DEFAB0BD0C00005D0FB410B5CD
:1019800003A9044B044A029800F018F810BC08BCE4
:1019900004B01847991C00000000002002E008C8AD
:1019A000121F08C1002AFAD170477047002001E0D9
:1019B00001C1121F002AFBD170470000FFB58FB094
:1019C0000F460446002606E025280AD0129A1199EF
:1019D0009047641C761C20780028F5D1304613B05F
:1019E000F0BD00250121A14A009500E00543641CDB
:1019F00023780846203B98401042F7D120782E28C3
:101A000015D1042005436078641C2A280AD101CF2F
:101A1000641C00900BE000990A22514330394018B1
:101A2000641C00902078014630390929F3D92078C8
:101A30006C280ED004DC4C2813D06A2812D104E0A4
:101A400074280ED07A280DD10BE001204005054303
:101A500007E00121090562780D43824201D16D182A
:101A6000641C641C2078864669284AD008DC00285B
:101A7000B4D058286DD0632810D0642808D140E035
:101A800070286BD0732812D0752860D0782860D069
:101A9000129A704611999047761CE5E038786946AD
:101AA00008720020487202A80190012003E0386803
:101AB00001900020C0433F1D69070CD5002500E0C0
:101AC0006D1C00998D420FDA8542F9DB0199495D61
:101AD0000029F5D108E0002500E06D1C8542FCDB03
:101AE0000199495D0029F8D1761907E0019801991B
:101AF0000078491C0191129A119990476D1EF5D2F8
:101B0000B2E00A20029000216802400F03910228EF
:101B10000CD001CFC117844600290DDA6246084671
:101B200052420021814194462D2008E0FF1DFF080C
:101B3000FF0003CF8446EFE7280504D52B206A4633
:101B4000107401203CE0E8073AD02020F7E70A2093
:101B500000E0102000210391029007E01020029085
:101B60000021042005430820039100906802400FE3
:101B7000022810D001CF0021844600200D902807B4
:101B80001FD5704670280CD0029A1020039B42404B
:101B90001A430CD015E0FF1DFF08FF0003CF844659
:101BA000EBE740206A46107401200D900CE060467F
:101BB000084306D030206A461074704650740220E4
:101BC0000D907046582804D029A001900DA80E90C1
:101BD0000DE02CA0F9E76046039B029AFEF7C0FADD
:101BE000019B84469B5C0E9A521E0E9213706046B7
:101BF0000843F0D10E9805A9081A20300190680713
:101C000001D5009801E0012000900199884203DD90
:101C100001460198081A00E000200025009006E027
:101C200004A8129A405D119990476D1C761C0D987E
:101C30008542F5DB04E0129A302011999047761C1A
:101C40000099481E00900029F5DC08E00E980E99D6
:101C50000078491C0E91129A11999047761C0199AF
:101C6000481E01900029F1DC641CB4E6092801003B
:101C70003031323334353637383961626364656602
:101C800000000000303132333435363738394142C4
:101C9000434445460000000038B5044668460470D9
:101CA00069460320ABBE204638BD005EBCE2613F02
:101CB000DD83C29C7E20A3FD1F419DC3217FFCA22A
:101CC000401E5F01E3BD3E6082DC237D9FC1421C5C
:101CD000FEA0E1BF5D0380DE3C62BEE0025CDF810E
:101CE000633D7C22C09E1D43A1FF4618FAA42779BC
:101CF0009BC584DA3866E5BB5907DB856739BAE4EA
:101D000006581947A5FB7826C49A653BD987045A1B
:101D1000B8E6A7F91B45C6987A24F8A6441A99C7CD
:101D2000257B3A6486D85B05E7B98CD2306EEDB37B
:101D3000510F4E10F2AC2F7193CD114FADF3702EA9
:101D4000CC92D38D6F31B2EC0E50AFF1134DCE90DB
:101D5000722C6D33D18F0C52B0EE326C8ED0530D8D
:101D6000EFB1F0AE4C1291CF2D73CA947628ABF53B
:101D700017490856B4EA6937D58B5709EBB5366869
:101D80008AD495CB2977F4AA4816E9B7550B88D69B
:101D9000346A2B7597C94A14F6A8742AC896154B4D
:101DA000A9F7B6E80A54D7896B3500000000000097
:101DB000000000000000010000000000000600001C
:101DC00001000000080000000F810000E511030081
:101DD00093800000000000000000000000000000F0
:101DE00000000000040000000000000000000000EF
:101DF0000000000000127A000000000040000044D3
:101E0000000000000000004100000000000001444C
:101E10000300000004000144020000000800014427
:101E2000020000000C0001442300000020000144D7
:101E300002000000240001440200000028000144C8
:101E4000020000002C000144020000004000014498
:101E500000000000200000410000000000000244DB
:101E600022A000000400024421A00000400002441F
:101E70000000000040000041FF7F00000000000063
:101E800020205230203D20307825580A0D00202097
:101E90005231203D20307825580A0D00202048611D
:101EA0007264204661756C742048616E646C657262
:101EB0000A0D0000D41E00000000002038000000C1
:101EC0009C1900000C1F000038000020680800006A
:101ED000AC19000000000000010104060916010011
:101EE000001BB700320000003200000001000000BB
:101EF000FFFFFFFF0114E6810F0000F501D8D37347
:0C1F0000010000C3FFFF000014000000FF
:04000005000000DB1C
:00000001FF
