:020000040000FA
:1000000070080020D5000000290A0000E50000006B
:10001000FFFFFFFFFFFFFFFFFFFFFFFFFFFFFFFFF0
:10002000FFFFFFFFFFFFFFFFFFFFFFFF250D0000AA
:10003000FFFFFFFFFFFFFFFFB90B0000270D0000D0
:100040000301000003010000FFFFFFFF03010000A8
:100050000301000003010000030100000301000090
:1000600003010000FFFFFFFF030100000301000088
:10007000D90D0000490E0000B10E00000301000080
:100080000301000003010000FFFFFFFFFFFFFFFF70
:10009000FB1000000301000003010000FFFFFFFF51
:1000A0000301000003010000FFFFFFFFFFFFFFFF50
:1000B0000301000003010000030100000301000030
:1000C0000348854600F086F8004800472D130000DD
:1000D00070080020002001688D460A4880470A48C1
:1000E0000047FEE704207146084202D0EFF3098082
:1000F00001E0EFF308807146044A1047FEE7FEE78F
:10010000FEE7FEE7310D0000C1000000A50600007B
:10011000D2B201E00270401C491EFBD2704700229F
:10012000F6E710B513460A4604461946FFF7F0FFF6
:10013000204610BD70B50446002903D000202022BF
:10014000012310E0002801D00020C043C046C04673
:100150000DE02546D5408D4205D30D469540641BE4
:100160001D46954040191546521E002DF1DC2146D2
:1001700070BDF0B51FB40646002082B0054640248D
:10018000019100901BE0019922460F46304600F095
:1001900043F8049A059B801A994110D310461946DA
:1001A000224600F029F8361A8F4101972246012095
:1001B0000021009F00F020F838184D4100902046A3
:1001C000641E0028DFDC019B00982946324607B0F8
:1001D000F0BD0000064C0125064E05E0E36807CCA3
:1001E0002B430C3C98471034B442F7D3FFF76CFF15
:1001F0006C1900008C19000010B5202A04DB0146A0
:10020000203A9140002010BD914020239C1A0346C3
:10021000E3401943904010BD10B5202A04DB084686
:10022000203AD040002110BD0B46D340D0402024BE
:10023000A21A91400843194610BD0000F0B581B0E4
:1002400000F0B0F9401C02D0012001B0F0BD042044
:1002500000F0BAFB4108FE2902D9022001B0F0BD2E
:10026000C5000835284600F041FBC0B2870220488F
:10027000C01B4019009001208502002634460BE087
:10028000A0B200F0C9FA304619492A4600F0BCFA7B
:100290007619641C042C28D0B74204D0E0B203289D
:1002A00001D00028F4D1304611492A4600F09EFAC8
:1002B000E0B2032808D0002803D10D494868401C4B
:1002C0004860B742DCD10BE0FF208000AB21084A38
:1002D00011507F20C0001158491C1150B742CFD196
:1002E000044903C9009A03C2CAE7002001B0F0BD67
:1002F0005800002060040020B0B504464D1E294679
:1003000000F0A2F9615D401A411E8841B0BD0000B5
:1003100081B0002100910069009068468078042136
:1003200001409E488278FB23134059188170017860
:10033000090703D4017808220A43027001460D39E7
:1003400009784906FAD510382021017001B07047AC
:10035000F0B589B000250895012738040890079565
:10036000612000010790069506976B4801886B494C
:10037000018003242203436893434360028805807D
:10038000864E321F108804921180069870603046A5
:1003900008380899016007A88078C0221040B17819
:1003A0003F23029319400818B07008A8807880078E
:1003B0000594039204D008A880782040022803D135
:1003C00031781020084302E03078102188433070E3
:1003D000534C204600F0B0F82046FFF799FF3068F4
:1003E000202101918843306007AA53780C200340F4
:1003F0007478F3212140C91871705178059B194018
:100400007378FC241C406118717051780907890FBA
:100410003A468A40D3B232460E3A117809098B42E5
:10042000F9D107A94978059B19403B468B40DBB2BF
:1004300011780F240C409C42FAD107A94978039BFC
:10044000194080290BD13178019A11433170C14391
:1004500071560029FBD53146103940220A7007A990
:100460004A781A407378029C23409A1872708A78EE
:100470003A40B378FE241C40A218B270069A72600B
:10048000497889098F40F9B232460D3A127807232C
:1004900013408B42F8D131460C390D600821B16010
:1004A00020490A467C32F2601F4A3261716135622E
:1004B0007562B562042131637563B56371780907AC
:1004C000890F059C03D03178F7220A40327007A9C2
:1004D00049780140042916D007A94978214001290B
:1004E00011D02F498B88114A13408B8007AB5B7862
:1004F00003400C2B07D007A840782040032802D0E7
:10050000088810400880049908880D800848094927
:10051000016009B0F0BDC0460C00004D17A2FFFFFE
:100520006418000093800000E5110300FF0F000035
:100530000400002000127A0010B581B00021009163
:1005400000690090E648017B04220A4302730121FE
:100550000903134A13888B4202D193888B4201D03E
:100560001180918001460D390978C906FAD50146F6
:10057000103902220A7069468A78C02313408278B3
:100580003F241440E2188270097810220A40017852
:10059000EF230B409918017001B010BD1000014C01
:1005A00034000244F0B583B00446012108250090D0
:1005B0000291002601952778284600F0F9F9874234
:1005C00006D1701C641C6D1C062E0646F3D90AE089
:1005D000019D08350299491CFF29009CE8D10020A3
:1005E000C04303B0F0BD0298C00003B0F0BDB0B589
:1005F000FFF7AEFE00F0E6FA00F036F800F076FC09
:1006000000F0FCFD0C25284600F048FE002428469A
:10061000214600F04DFE0D25284600F03FFE012149
:10062000284600F045FE0E25284600F037FE2846F5
:10063000214600F03DFE1425284600F02FFE2846F6
:10064000214600F035FEB0BD10B50022002907D0CC
:10065000044BD2B2047854401A5D401C491EF8D1B4
:10066000104610BD62170000002004490A580B18FC
:100670005B68136008308028F8D17047B418000018
:1006800070B50C46054600F0C9F90C21FFF752FD84
:10069000064628462146FFF74DFDC043301880B27C
:1006A00070BD000082B001910168214C2160416859
:1006B000204F39608168204E3160C1681F4D29602C
:1006C00001691F4A116041691E4A116081691E4A11
:1006D0001160C0691D4908601D4800F0ABFE21682B
:1006E0001C4800F0A7FE39681B4800F0A3FE3168E3
:1006F0001AA000F09FFE29681CA000F09BFE104885
:1007000001681EA000F096FE0E4801681FA000F0D0
:1007100091FE0D48016823A000F08CFE0B48016893
:1007200026A000F087FE2BA0019900F083FEFEE7D3
:100730001C00002020000020280000202C000020A9
:1007400024000020100000201400002018000020C9
:1007500054190000381900004619000020205232B8
:10076000203D20307825580A0D000000202052330B
:10077000203D20307825580A0D00000020205231FD
:1007800032203D20307825580A0D00002020537477
:1007900061636B6564204C52203D20307825580AF7
:1007A0000D0000002020537461636B65642050438A
:1007B000203D20307825580A0D0000002020537479
:1007C00061636B656420505352203D20307825587A
:1007D0000A0D0000202043757272656E74204C5221
:1007E000203D20307825580A0D00000070B51618FD
:1007F000864208D90C460546284600F0E5F801C4B3
:100800002D1DB542F8D370BD80B50D235B06C01811
:10081000920800F06DF880BD10B5044600F0FEF8B7
:10082000800A844206D20D204006A1020818012148
:1008300000F002F810BD0000F0B581B0594A1278FE
:10084000284B03400D2464060127A34244D108230A
:100850001A4041D0244C231F1A88544A1A80256814
:100860000122154325606668022500952E436660C7
:10087000266820273743D026B743276046262673AD
:10088000BE26A681012900D811462246103A222709
:100890001770BFF36F8F0026F543056015783D4054
:1008A0000122022D06D10125AD024019491EECD1CD
:1008B000374600E017461888CB4818802673206812
:1008C000F021884320606068009988436060206858
:1008D0009043206018881E80384601B0F0BDC046A5
:1008E0001000014CFF0300FE1000004D800A70470D
:1008F000F0B581B02B4B1B7801261B074FD5032584
:100900000C462C406342634105406C426C41450EED
:100910000D2D44D11C4342D0234C2388234B2380EC
:10092000656801231D436560A668022500952E4376
:10093000A660666810273743E026B74367604626FF
:100940002674BE262682268800272780012A00D802
:100950001A4623460C3B22261E70BFF36F8F0D688C
:1009600005601D7835400123022D06D1521E001D61
:10097000091D002AEDD13E4600E01E4620889A4817
:10098000208027746068F02188436060A068009927
:100990008843A06060689843606020882780304664
:1009A00001B0F0BD1000014C0C00004D17A2FFFF7C
:1009B00010B5044600F032F8A04203D90D204006DD
:1009C000205C10BD012010BD10B5044600F026F8D3
:1009D000A04203D90D204006205810BD012010BDB3
:1009E000411E884103490A78FE23134018180870F5
:1009F0007047C0461000005D03490A780F2313407A
:100A000000011818087070470800005D024801686E
:100A1000491C01607047C0466C04002001480088F2
:100A2000800070472800004D7047000070B52920F5
:100A300040065A4C2178FF291BD0594D2E7800F0E2
:100A4000CFFB172E04D82978B44A5054481C28707C
:100A50002878032801D10D2121702178002907D0A1
:100A6000884205D1FF202070DA48012100F07AFA8F
:100A700070BD00F0B5FB70BD70B5D64800242146AE
:100A800000F070FA45480470B64804804448017884
:100A9000A34E31700470022000F030FC9F480178B2
:100AA000432926D14178102923D181781F2008407D
:100AB00014280FD00A2819D130780D2819D1974D54
:100AC0000D212846FFF718FC00282DD0F32000F058
:100AD000FBF870BD914D0D2428462146FFF70CFC14
:100AE000002807D0E52000F0EFF870BDA02000F04E
:100AF000EBF870BDE87A2B49C871A87A8871687ADA
:100B00004871287A0871E879C870A879887068797E
:100B1000487028790870E87800281AD001281DD17B
:100B2000204800F065F817E0102068704320287016
:100B3000E87805281FD8C0467844007940008744EB
:100B400002161A1A1C1F1B4800886871000AA87137
:100B50001EE01448FFF772FBE87003E0E81C0A216E
:100B6000FFF7DDFA3470052000F0AEF870BD1048D4
:100B7000007868710CE06C710AE00C48406804E091
:100B8000094800680C21FFF77BFDA871000A687115
:100B900009203070132000F097F870BD310000205C
:100BA00058040020600400200C0000204C000020AD
:100BB0003000002032000020704700210180012019
:100BC00070470000074801880749018007494160D4
:100BD000002181600E22C260016141618161028851
:100BE000018070470C00004C17A2000000100002AA
:100BF000F0B585B0FFF7D6FC411C60D00090FFF740
:100C000075FEC5B2A8022F4E301A0490012087024B
:100C10000024029501970DE0A0B2FFF7FDFD0398B7
:100C2000284E3146019F3A46FFF7EEFD029D641CB7
:100C3000042C41D0002C01D0A542F8D8A00203908A
:100C400031463A46FFF7D2FDE0B2032816D000281D
:100C500002D17068401E70600398C619A5421CD16D
:100C60000098B042D8D2009D28460830FFF7A0FE79
:100C7000049948556D1CAE42F6D1CDE7FF208000A7
:100C8000AB2131507F20C0003158491C31503E46C5
:100C9000103E03980643A542E2D00398B042BBD26F
:100CA000084F039D28460830FFF782FE38707F1CEE
:100CB0006D1CAE42F6D1AFE7032005B0F0BD0420B5
:100CC00005B0F0BD58000020F0B581B0124D0121F3
:100CD0002970124CA070124E3078411E2046FFF74A
:100CE000B3FC31780919491E0870072000F090FB09
:100CF0003078002807D00027E05D00F0BBFA7F1CA9
:100D000030788742F8D300F087FA0028FBD0002023
:100D1000287001B0F0BDC0463B0000413400002007
:100D200008000020704780B5FFF770FE80BD00000E
:100D3000014802490160704704000020001BB70011
:100D400080B5FFF799FE80BD80B50648018800296F
:100D500006D0491C018088B2112801D300F0BCFAEA
:100D600080BDC0466A04002002480178491C017019
:100D70007047C0466804002010B5164C80212046FC
:100D800000F09CF8012803D18021204600F094F85F
:100D90002021204600F092F8012803D1202120468E
:100DA00000F08AF81021204600F088F8012805D1CB
:100DB000FFF7C6FF1021204600F07EF808212046EC
:100DC00000F07CF8012803D10821204600F074F8D7
:100DD00010BDC0460000015580B50348007880076B
:100DE00001D5FFF7C9FF80BD6C00005010B5AB20E6
:100DF000C4058021204600F061F8012803D180213C
:100E0000204600F059F82021204600F057F801282C
:100E100003D12021204600F04FF81021204600F099
:100E20004DF8012805D1FFF78FFF1021204600F073
:100E300043F80821204600F041F8012803D1082199
:100E4000204600F039F810BD80B5FFF7CFFF80BD18
:100E500010B5164C8021204600F030F8012803D14F
:100E60008021204600F028F82021204600F026F8B6
:100E7000012803D12021204600F01EF81021204631
:100E800000F01CF8012805D1FFF76EFF1021204665
:100E900000F012F80821204600F010F8012803D1D4
:100EA0000821204600F008F810BDC0460000865515
:100EB00080B5FFF7CDFF80BD016070470068084036
:100EC000411E8841704701220A400179FE230B40F0
:100ED000991801717047012A03D142680A434260A0
:100EE000704742688A4342607047000070B5184CF2
:100EF000211F002008600822E260C721A161272588
:100F0000256203210B07236061602060114C261FBE
:100F10003060E2602F26A661256223606160206058
:100F20000D4C251F2860E2600C4DA5610725256248
:100F30002360616020600A4C251F2860E2607D22EA
:100F40009501A561D200226223606160206070BDBE
:100F50000C0000550C0001550C0080550F270000B7
:100F60000C008655012901D0002100E00321027CFC
:100F7000FC23134059180174704770B529204406AA
:100F8000204600F027F90646204600F027F90546DE
:100F90003540A8070AD468061BD4280621D4E806E1
:100FA00027D4280736D4680751D470BD01266805B8
:100FB00052D4280556D4E8045AD4A80403D57103A2
:100FC000204600F09EF80221204600F09AF86806BC
:100FD000E3D500F02DF94021204600F092F82806D4
:100FE000DDD500F046F98021204600F08AF8E806B9
:100FF000D7D50126A80342D4680346D4E80303D515
:101000003104204600F07DF81021204600F079F8E8
:101010002807C8D50126E8023ED4A80242D46802B7
:1010200046D428024AD4E8014ED4280152D4E8001C
:1010300056D4A8005AD4680003D5B107204600F062
:1010400060F80821204600F05CF86807ADD504215F
:10105000204600F056F870BDB102204600F051F86D
:101060002805A8D5F102204600F04BF8E804A4D5E5
:101070003103204600F045F8A804A0D4A3E771048A
:10108000204600F03EF86803B8D5B104204600F0D1
:1010900038F8E803B4D4B7E73105204600F031F85A
:1010A000A802BCD57105204600F02BF86802B8D51F
:1010B000B105204600F025F82802B4D5F1052046F8
:1010C00000F01FF8E801B0D53106204600F019F80D
:1010D0002801ACD5F106204600F013F8E800A8D5A9
:1010E0003107204600F00DF8A800A4D5710720466E
:1010F00000F007F86800A0D4A3E780B5FFF73DFF34
:1011000080BD2122914301607047026901239A4307
:101110000A43026170470000F0B583B004460846F8
:101120001146FFF707F8082801D201214BE00646D7
:1011300001940120009000030290002508273C46FE
:1011400005E00299884213D37F1C202F11D030462E
:101150003946FEF7EFFF39464143711AF1D0781A4C
:10116000E9B2884200DB3C468842EDDB0546EBE70E
:101170003C46019DA86815490140A96030462146BA
:10118000FEF7D8FF0299884200991CD8401EA88417
:10119000601EE875687503200006A9680143A96010
:1011A0004020A87528752020C021295428690849A5
:1011B00001402961A8690C210143A9612869012125
:1011C000014329610021084603B0F0BDF1FFCCFFC7
:1011D00085FFFCFF00682121884370474068704705
:1011E000006B7047426801239A430A43426070478C
:1011F0004A4343688B4313434360704780B52920BB
:1012000040064B210A020349FFF786FF401E411E9C
:10121000884180BD00127A002920400600784007EE
:10122000C00F7047292040060078C00970470000B1
:1012300080B5FFF7FBFB2F480121018080BDC04630
:10124000491E03290AD8C0467944097949008F44C8
:1012500001070A0D342142540020704701207047D5
:10126000828600207047826300207047426300201E
:101270007047704710B50446FFF7D4FF0028FBD035
:101280002920400601212246FFF7DAFF10BD0000A9
:10129000014901800120704717A200001F21014071
:1012A00001208840014908607047C04600E100E025
:1012B00010B5C0B28207D20EFF239340054C00192F
:1012C0000324A04304689C438901C9B2914021438F
:1012D000016010BD00E400E00448002101700448F2
:1012E00001700448018004480170704731000020FB
:1012F000580400206A0400203B00004110B500287B
:1013000004D0044600F003F8641EFBD110BD10B5F4
:101310005520040610212046FFF7D0FD0028F9D003
:1013200010212046FFF7C8FD10BD000082B072B644
:10133000FFF75DF9334C002101912046FFF712FEC3
:1013400010260125204631462A46FFF7C4FD2046D7
:101350002946FFF7B8FD20463146FFF7ADFDAB202B
:10136000C7053846019C2146FFF7FCFD384631464B
:101370002A46FFF7B0FD38462946FFF7A4FD384658
:101380003146FFF799FD20482146FFF7EBFD1E4847
:1013900031462A46FFF79FFD1B4804462946FFF7C2
:1013A00092FD20463146FFF787FD2920440620465E
:1013B0000199FFF7AAFE402120462A46FFF718FFB1
:1013C00020462946FFF70EFF38462946FFF7CAFD9B
:1013D00020462946FFF799FE62B6552000063146A1
:1013E000FFF76AFD094C6570019820702078414232
:1013F0004141217060784142414161706420FFF7B2
:101400007DFFF3E7000001550000865539000041DB
:10141000B0B50446064D2846FFF73AFF2046FFF7D1
:10142000EBFA0120FFF7DCFA2846FFF7C6FBB0BD58
:101430000C00005D0FB410B503A9044B044A0298D8
:1014400000F018F810BC08BC04B018475117000091
:101450000000002002E008C8121F08C1002AFAD1CB
:1014600070477047002001E001C1121F002AFBD124
:1014700070470000FFB58FB00F460446002606E017
:1014800025280AD0129A11999047641C761C20785E
:101490000028F5D1304613B0F0BD00250121A14A46
:1014A000009500E00543641C23780846203B9840E3
:1014B0001042F7D120782E2815D1042005436078FA
:1014C000641C2A280AD101CF641C00900BE000990B
:1014D0000A22514330394018641C0090207801469C
:1014E00030390929F3D920786C280ED004DC4C2837
:1014F00013D06A2812D104E074280ED07A280DD1B6
:101500000BE001204005054307E001210905627851
:101510000D43824201D16D18641C641C20788646FC
:1015200069284AD008DC0028B4D058286DD0632838
:1015300010D0642808D140E070286BD0732812D0F6
:10154000752860D0782860D0129A7046119990471B
:10155000761CE5E03878694608720020487202A8D7
:101560000190012003E0386801900020C0433F1D36
:1015700069070CD5002500E06D1C00998D420FDA3B
:101580008542F9DB0199495D0029F5D108E0002584
:1015900000E06D1C8542FCDB0199495D0029F8D112
:1015A000761907E0019801990078491C0191129A77
:1015B000119990476D1EF5D2B2E00A2002900021E9
:1015C0006802400F039102280CD001CFC117844656
:1015D00000290DDA624608465242002181419446B4
:1015E0002D2008E0FF1DFF08FF0003CF8446EFE732
:1015F000280504D52B206A46107401203CE0E8073A
:101600003AD02020F7E70A2000E0102000210391C3
:10161000029007E0102002900021042005430820DA
:10162000039100906802400F022810D001CF0021E2
:10163000844600200D9028071FD5704670280CD0D6
:10164000029A1020039B42401A430CD015E0FF1D64
:10165000FF08FF0003CF8446EBE740206A46107482
:1016600001200D900CE06046084306D030206A4609
:1016700010747046507402200D907046582804D0A3
:1016800029A001900DA80E900DE02CA0F9E760466E
:10169000039B029AFEF76DFD019B84469B5C0E9AAC
:1016A000521E0E92137060460843F0D10E9805A9A1
:1016B000081A20300190680701D5009801E0012048
:1016C00000900199884203DD01460198081A00E064
:1016D00000200025009006E004A8129A405D1199B0
:1016E00090476D1C761C0D988542F5DB04E0129A3C
:1016F000302011999047761C0099481E00900029CF
:10170000F5DC08E00E980E990078491C0E91129AAB
:1017100011999047761C0199481E01900029F1DC2F
:10172000641CB4E6092801003031323334353637D1
:10173000383961626364656600000000303132331D
:1017400034353637383941424344454600000000BD
:1017500038B504466846047069460320ABBE20468F
:1017600038BD005EBCE2613FDD83C29C7E20A3FDEC
:101770001F419DC3217FFCA2401E5F01E3BD3E606F
:1017800082DC237D9FC1421CFEA0E1BF5D0380DEA1
:101790003C62BEE0025CDF81633D7C22C09E1D4353
:1017A000A1FF4618FAA427799BC584DA3866E5BB01
:1017B0005907DB856739BAE406581947A5FB78262F
:1017C000C49A653BD987045AB8E6A7F91B45C69861
:1017D0007A24F8A6441A99C7257B3A6486D85B0513
:1017E000E7B98CD2306EEDB3510F4E10F2AC2F71C1
:1017F00093CD114FADF3702ECC92D38D6F31B2ECEF
:101800000E50AFF1134DCE90722C6D33D18F0C5220
:10181000B0EE326C8ED0530DEFB1F0AE4C1291CFD2
:101820002D73CA947628ABF517490856B4EA693780
:10183000D58B5709EBB536688AD495CB2977F4AAAE
:101840004816E9B7550B88D6346A2B7597C94A14E0
:10185000F6A8742AC896154BA9F7B6E80A54D78992
:101860006B350000000000000000000000000100D7
:101870000000000010060000010000000800000049
:101880000F810000E51103009380000000000000BC
:101890000000000000000000000000000400000044
:1018A00000000000000000000000000000127A00AC
:1018B0000000000040000044000000000000004163
:1018C0000000000000000144030000000400014487
:1018D0000200000008000144020000000C00014466
:1018E0000300000020000144020000002400014425
:1018F0000200000028000144020000002C00014406
:1019000002000000400001440000000020000041EF
:10191000000000000000024422A000000400024475
:1019200021A00000400002440000000040000041EF
:10193000FF7F00000000000020205230203D2030BA
:101940007825580A0D0020205231203D203078257E
:10195000580A0D00202048617264204661756C743D
:101960002048616E646C65720A0D00008C190000DD
:10197000000000200800000054140000941900002A
:101980000800002068080000641400000000000047
:04199000001BB70081
:04000005000000DB1C
:00000001FF
