:020000040000FA
:1000000090080020D5000000110C0000E500000061
:10001000FFFFFFFFFFFFFFFFFFFFFFFFFFFFFFFFF0
:10002000FFFFFFFFFFFFFFFFFFFFFFFFF50F0000D8
:10003000FFFFFFFFFFFFFFFF890E000055100000CC
:100040000301000003010000FFFFFFFF03010000A8
:100050000301000003010000030100000301000090
:1000600003010000FFFFFFFF030100000301000088
:10007000CD1100003D120000A51200000301000098
:10008000030100000D130000FFFFFFFFFFFFFFFF54
:10009000931500000301000003010000FFFFFFFFB4
:1000A0000301000003010000FFFFFFFFFFFFFFFF50
:1000B0000301000003010000030100000301000030
:1000C0000348854600F086F800480047E91700001D
:1000D00090080020002001688D460A4880470A48A1
:1000E0000047FEE704207146084202D0EFF3098082
:1000F00001E0EFF308807146044A1047FEE7FEE78F
:10010000FEE7FEE75D100000C1000000ED06000004
:10011000D2B201E00270401C491EFBD2704700229F
:10012000F6E710B513460A4604461946FFF7F0FFF6
:10013000204610BD70B50446002903D000202022BF
:10014000012310E0002801D00020C043C046C04673
:100150000DE02546D5408D4205D30D469540641BE4
:100160001D46954040191546521E002DF1DC2146D2
:1001700070BDF0B51FB40646002082B0054640248D
:10018000019100901BE0019922460F46304600F095
:1001900043F8049A059B801A994110D310461946DA
:1001A000224600F029F8361A8F4101972246012095
:1001B0000021009F00F020F838184D4100902046A3
:1001C000641E0028DFDC019B00982946324607B0F8
:1001D000F0BD0000064C0125064E05E0E36807CCA3
:1001E0002B430C3C98471034B442F7D3FFF76CFF15
:1001F000F41D0000141E000010B5202A04DB014687
:10020000203A9140002010BD914020239C1A0346C3
:10021000E3401943904010BD10B5202A04DB084686
:10022000203AD040002110BD0B46D340D0402024BE
:10023000A21A91400843194610BD0000F0B583B0E2
:1002400000F094F9401C02D0012003B0F0BD04205E
:1002500000F0F8FBFD2802D9022003B0F0BDC50074
:100260000835284600F064FBC0B280021B4C0290A7
:10027000201A401901900120850200273E460BE01C
:10028000B0B200F0EDFA384621462A4600F0E0FA16
:100290007F19761C022E1ED0384621462A4600F0D1
:1002A000C9FAF0B2012805D000280CD16068401CC2
:1002B000606008E0FF208000AB2121507F20C0005B
:1002C0002158491C21500298B842D9D1E74903C9A5
:1002D000019A03C2D4E7002003B0F0BD78000020EB
:1002E000B0B504464D1E294600F0C2F9615D401AC2
:1002F000411E8841B0BD0000054908607047C046F6
:10030000034909680140481E814108467047C046BC
:100310000000014C411E8841C00092490A78F72331
:100320001340181808707047F0B589B0002408947D
:10033000012630040890079403256802079006946C
:10034000069667480188674901802A0343689343FA
:100350004360028804940480824F3A1F10880392FD
:10036000118006987860384608380899016007A817
:100370008078C02102910840B9783F220192114053
:100380000818B87008A88078800704D008A880787A
:100390002840022803D1387810210143397052488F
:1003A00000F0AEF83868202100918843386007AA31
:1003B00053780C20034079782C46F3250D40E9183A
:1003C00079705178059421407B78FC251D4069188F
:1003D000797051780907890F32468A40D3B23A467C
:1003E0000E3A117809098B42F9D107A94978059B82
:1003F000194033468B40DBB211780F250D409D42EA
:10040000FAD107A94978029B19408029049C0BD195
:100410003978009A11433970C14379560029FBD5C8
:100420003946103940220A7007A94A781A407B7869
:10043000019D2B409A187A708A783240BB78FE254D
:100440001D40AA18BA70069A7A60497889098E40C8
:10045000F1B23A460D3A1278072313408B42F8D195
:1004600039460C390C600821B96020490A467C32B3
:10047000FA601F4A3A6179613C627C62BC62042185
:1004800039637C63BC6379780907890F059D03D0C4
:100490003978F7220A403A7007A9497801400429BF
:1004A00016D007A949782940012911D02E498B88F7
:1004B000104A13408B8007AB5B7803400C2B07D0AE
:1004C00007A840782840032802D0088810400880F8
:1004D000039908880C8008480849016009B0F0BDFC
:1004E0000C00004D17A2FFFFEC1C000093800000E1
:1004F000E5110300FF0F00000400002000127A0045
:1005000010B581B000210091006900901548017B71
:1005100004220A43027301210903134A13888B4200
:1005200002D193888B4201D01180918001460D3910
:100530000978C906FAD50146103902220A706946BF
:100540008A78C023134082783F241440E2188270D6
:10055000097810220A400178EF230B4099180170A6
:1005600001B010BD1000014C34000244F0B585B05C
:100570000746042000F066FA0025E943002823D04E
:1005800000910126082102970195049603910E46D9
:100590003C78304600F04AFA844206D1681C7F1C41
:1005A000761C062D0546F3D90CE0049E761C04202B
:1005B00000F048FA039908318642029F019DE4D970
:1005C000009901E00498C100084605B0F0BD10B5DF
:1005D000FFF7AAFE00F05EFC00F05AF800F0B4FE4F
:1005E00001F058F80C24204601F0A4F8204601F050
:1005F000ABF80D24204601F09DF8204601F0A4F848
:100600000E24204601F096F8204601F09DF81124B2
:10061000204601F08FF8204601F096F81424204679
:1006200001F088F8204601F08FF810BD70B500F099
:100630001BFB05460124204601F0A6F8002D11D031
:10064000332000F02FFB0026084D00F0E3FAA855F8
:10065000761C082EF9D1EE790721284600F008F81B
:10066000864200D00024204670BDC0468004002091
:1006700010B50022002907D0044BD2B204785440B0
:100680001A5D401C491EF8D1104610BDEA1B00003F
:10069000002004490A580B185B6813600830802852
:1006A000F8D170473C1D0000026807239A4302609E
:1006B00002781A400A430260704770B50C4605463E
:1006C00000F0F6F90C21FFF735FD064628462146D5
:1006D000FFF730FDC043301880B270BD0249087882
:1006E00000220A707047C0461100002082B00191BC
:1006F0000168214C21604168204F39608168204E9B
:100700003160C1681F4D296001691F4A116041694C
:100710001E4A116081691E4A1160C0691D49086046
:100720001D4801F0CBF821681C4801F0C7F8396872
:100730001B4801F0C3F831681AA001F0BFF829681E
:100740001CA001F0BBF8104801681EA001F0B6F82B
:100750000E4801681FA001F0B1F80D48016823A000
:1007600001F0ACF80B48016826A001F0A7F82BA017
:10077000019901F0A3F8FEE7280000202C000020DA
:100780003400002038000020300000201C00002031
:100790002000002024000020DC1D0000C01D0000FF
:1007A000CE1D000020205232203D20307825580AEE
:1007B0000D00000020205233203D20307825580ABB
:1007C0000D0000002020523132203D203078255885
:1007D0000A0D00002020537461636B6564204C5245
:1007E000203D20307825580A0D0000002020537449
:1007F00061636B6564205043203D20307825580AA2
:100800000D0000002020537461636B656420505319
:1008100052203D20307825580A0D000020204375D5
:100820007272656E74204C52203D20307825580A33
:100830000D00000070B51618864208D90C46054612
:10084000284600F0FFF801C42D1DB542F8D370BD55
:1008500080B50D235B06C018920800F087F880BDB4
:1008600010B5044600F024F9800A844206D20D2017
:100870004006A1020818012100F002F810BD000096
:10088000F0B581B0664A1278274B03400D24640608
:100890000127A34244D108231A4041D0234C231FEF
:1008A0001A88604A1A802568012215432560666807
:1008B000022500952E436660266820273743D02600
:1008C000B743276046262673BE26A681012900D895
:1008D00011462246103A22271770BFF36F8F002669
:1008E000F543056015783D400122022D06D1012512
:1008F000AD024019491EECD1374600E01746188872
:100900004948188026732068F02188432060606879
:1009100000998843606020689043206018881E809A
:10092000384601B0F0BDC046FF0300FE1000004D88
:10093000800A704770B504460B4D284600F0F4FE5F
:1009400001263046FFF7E6FCB007FFF7D9FC002888
:10095000FAD02020FFF7D0FC284600F096FA204677
:1009600000F0ACF870BDC0460C00014CF0B581B091
:100970002B4B1B7801261B074FD503250C462C401B
:100980006342634105406C426C41450E0D2D44D1DC
:100990001C4342D0634C2388224B2380656801238B
:1009A0001D436560A668022500952E43A660666813
:1009B00010273743E026B743676046262674BE26D5
:1009C0002682268800272780012A00D81A46234637
:1009D0000C3B22261E70BFF36F8F0D6805601D78DB
:1009E00035400123022D06D1521E001D091D002A8B
:1009F000EDD13E4600E01E4620880B48208027743B
:100A00006068F02188436060A06800998843A06016
:100A100060689843606020882780304601B0F0BD50
:100A20001000014C17A2FFFF17A2000010B50446EA
:100A300000F03EF8A04203D90D204006205C10BD16
:100A4000012010BD10B5044600F032F8A04203D9D1
:100A50000D204006205810BD012010BD411E8841C8
:100A600003490A78FE231340181808707047C046DF
:100A70001000005D03490A780F2313400001181885
:100A8000087070470800005D02480168491C016059
:100A90007047C0468C0400204D210906086070474D
:100AA0004D21090609680140091A4842484170472A
:100AB00001480088800070472800004DF0B583B0E1
:100AC0000746184DE969A879800601D4012425E07C
:100AD0000191BE08012420040290FFF7DDFF2846A3
:100AE00000F022FEB80501D020023618EE6128463B
:100AF00000F0CBF90298FFF7D3FF002806D1B6002B
:100B0000FFF7D6FFB04201D1002407E0284600F0ED
:100B10000BFE0198E861284600F0B7F9204603B0C3
:100B2000F0BDC0460C00004D70B5334D2878042848
:100B30005FD8C0467844007940008744021A2F5A93
:100B40003B00314C2078002853D1642000F01CFE7B
:100B5000207800284DD10020C143022000F04CFA3B
:100B600001212970264800F049FC287800F0CEFDCC
:100B700070BD224E307802282DD0012833D17D203F
:100B80008100C831032000F037FA1D4800242146B7
:100B900000F034FC34701B48046017E01A4C2078D5
:100BA000002826D0642000F0EFFD2078002820D017
:100BB00000200CE0114E307800281AD01048002494
:100BC000214600F01BFC0F4804603470022028709E
:100BD00000F09CFD70BD7D208100042000F00CFA27
:100BE0000020307070BD09480068064909688142DC
:100BF00000D270BD0420EAE7180000205800002051
:100C0000000086555C0000203300004108000020F1
:100C100070470000F0B581B036480321FFF744FD6E
:100C2000002634460096344F03E02E43641C082C03
:100C300016D002252F482946FFF736FD0098387058
:100C4000284600F0C7FD03212A48FFF72DFD3D7817
:100C50003C2000F0BFFD002DE7D00125A540E4E7D2
:100C6000F0B201B0F0BDC04670B5224C0221204662
:100C7000FFF71AFD204E002030701920050128468C
:100C8000503000F0A7FD03212046FFF70DFD502056
:100C900000F0A0FD3478284600F09CFD60426041E1
:100CA00070BDC046F0B581B004460027114D3E46E8
:100CB00009E03C2000F08EFD03212846FFF7F4FCFC
:100CC000761C082E14D002212846FFF7EDFC0A48B6
:100CD00007702046F040C007EBD0012000F07AFDFD
:100CE00003212846FFF7E0FC3C2000F073FDE7E716
:100CF00001B0F0BD000001443000004170B5292072
:100D000040065B4C2178FF291BD05A4D2E7800F00D
:100D1000B3FC172E04D82978B44A5054481C2870C4
:100D20002878032801D10D2121702178002907D0CE
:100D3000884205D1FF2020704C48012100F05EFB65
:100D400070BD00F099FC70BD70B548480024214684
:100D500000F054FB46480470CD48048045480178B3
:100D6000A34E31700470022000F00EFD9F48017800
:100D7000432926D14178102923D181781F200840AA
:100D800014280FD00A2819D130780D2819D1974D81
:100D90000D212846FFF7A4FA00282DD0F32000F0FB
:100DA000FBF870BD914D0D2428462146FFF798FAB7
:100DB000002807D0E52000F0EFF870BDA02000F07B
:100DC000EBF870BDE87ABE49C871A87A8871687A74
:100DD0004871287A0871E879C870A87988706879AC
:100DE000487028790870E87800281AD001281DD1A9
:100DF000B34800F065F817E01020687043202870B1
:100E0000E87805281FD8C046784400794000874418
:100E100002161A1A1C1F1B4800886871000AA87164
:100E20001EE0A748FFF70AFAE87003E0E81C0A2171
:100E3000FFF775F93470052000F0AEF870BD10486A
:100E4000007868710CE06C710AE00C48406804E0BE
:100E5000094800680C21FFF730FCA871000A68718E
:100E600009203070132000F097F870BD0000015584
:100E70003D00002078040020140000206C000020B9
:100E80003C0000203E00002070470021018001202E
:100E90007047000007480188074901800749416001
:100EA000002181600E22C26001614161816102887E
:100EB000018070470C00004C17A2000000100002D7
:100EC000F0B585B0FFF752FB411C60D00090FFF7F2
:100ED0002FFDC5B2A8022F4E301A049001208702C0
:100EE0000024029501970DE0A0B2FFF7B9FC03982A
:100EF000284E3146019F3A46FFF7AAFC029D641C2A
:100F0000022C41D0002C01D0A542F8D8A0020390B9
:100F100031463A46FFF78EFCE0B2012816D0002891
:100F200002D17068401E70600398C619A5421CD19A
:100F30000098B042D8D2009D28460830FFF776FDD1
:100F4000049948556D1CAE42F6D1CDE7FF208000D4
:100F5000AB2131507F20C0003158491C31503E46F2
:100F6000103E03980643A542E2D00398B042BBD29C
:100F7000084F039D28460830FFF758FD38707F1C46
:100F80006D1CAE42F6D1AFE7032005B0F0BD0420E2
:100F900005B0F0BD78000020F0B581B0124D012100
:100FA0002970124CA070124E3078411E2046FFF777
:100FB0005FFB31780919491E0870072000F06CFCAE
:100FC0003078002807D00027E05D00F09FFB7F1CF1
:100FD00030788742F8D300F06BFB0028FBD000206C
:100FE000287001B0F0BDC0463B0000414000002029
:100FF0001000002070470000F0B581B00D46064695
:101000000E4C00272046394600F0F8F90C480760DE
:10101000701EC1B2032905D840B2800009A108584A
:101020004E4908600A212846FFF784F84C490860B9
:101030000121204600F0E2F901B0F0BD0000865623
:101040006000002064000000320000000A00000080
:101050000500000080B5FFF717FD80BD014802497B
:101060000160704704000020001BB70080B5FFF747
:101070006BFE80BD80B506480188002906D0491C5A
:10108000018088B2112801D300F06EFB80BDC046FC
:101090008804002080B509480168491C0160FFF7F9
:1010A000C5FA002809D00648FFF760FA401C01D0B5
:1010B000012000E002200349087080BD5C00002090
:1010C000800400205800002070B50024FFF706FBC4
:1010D000421E032A19D8E0436421C0467A4412799B
:1010E000520097440E01070D1B4804607D20C0008C
:1010F000192106E0184804607D20C0000A2100E0A4
:101100003221164A116016490860134D2868411CA7
:101110002960124E3168FFF70DF8002904D11148FB
:1011200001784A424A4102700D4801682A688A42A1
:1011300011D90D490978022906D001290BD1642162
:101140003160E143016070BD2C60064804706E4858
:10115000214600F053F970BD6000002068000020B7
:10116000640000203A0000411800002010B5164C21
:101170008021204600F0D0F8012803D180212046AC
:1011800000F0C8F82021204600F0C6F8012803D15D
:101190002021204600F0BEF81021204600F0BCF8C7
:1011A000012805D1FFF762FF1021204600F0B2F8B8
:1011B0000821204600F0B0F8012803D1082120467C
:1011C00000F0A8F810BDC0460000015580B50348E6
:1011D0000078800701D5FFF7C9FF80BD6C00005083
:1011E00010B5AB20C4058021204600F095F80128F9
:1011F00003D18021204600F08DF82021204600F008
:101200008BF8012803D12021204600F083F810211B
:10121000204600F081F8012805D1FFF72BFF1021AF
:10122000204600F077F80821204600F075F80128E4
:1012300003D10821204600F06DF810BD80B5FFF7FE
:10124000CFFF80BD10B5164C8021204600F064F819
:10125000012803D18021204600F05CF8202120469F
:1012600000F05AF8012803D12021204600F052F85E
:101270001021204600F050F8012805D1FFF70AFFA1
:101280001021204600F046F80821204600F044F8DE
:10129000012803D10821204600F03CF810BDC046CB
:1012A0000000865580B5FFF7CDFF80BD10B5164C08
:1012B0008021204600F030F8012803D1802120460B
:1012C00000F028F82021204600F026F8012803D15C
:1012D0002021204600F01EF81021204600F01CF8C6
:1012E000012805D1FFF7F0FE1021204600F012F88A
:1012F0000821204600F010F8012803D108212046DB
:1013000000F008F810BDC0460000865680B5FFF713
:10131000CDFF80BD0160704700680840411E8841D4
:10132000704701220A400179FE230B409918017190
:101330007047012A03D142680A43426070474268FD
:101340008A4342607047000070B5244D291F002079
:1013500008600822EA60C721A96127242C620321C2
:101360000B072B60696028601D4D2E1F3060EA60FE
:101370002F26AE612C622B6069602860194D2E1FEC
:101380003060EA60184EAE6107262E622B606960FD
:101390002860164D2E1F3060EA60154EAE612C623B
:1013A0002B6069602860134C251F2860E260A661ED
:1013B000216223606062A0620F4AE2622063606380
:1013C000A063E063A06460642065E064A06560657C
:1013D0002066E0656160206070BDC0460C0000556D
:1013E0000C0001550C0080550F2700000C0086559D
:1013F0001F4E00000C008656F0F00000012901D0BD
:10140000002100E00321027CFC23134059180174E1
:10141000704770B529204406204600F027F906469B
:10142000204600F027F905463540A8070AD468068B
:101430001BD4280621D4E80627D4280736D4680709
:1014400051D470BD0126680552D4280556D4E8044D
:101450005AD4A80403D57103204600F09EF8022157
:10146000204600F09AF86806E3D500F02DF94021F7
:10147000204600F092F82806DDD500F046F98021DC
:10148000204600F08AF8E806D7D50126A80342D402
:10149000680346D4E80303D53104204600F07DF804
:1014A0001021204600F079F82807C8D50126E80267
:1014B0003ED4A80242D4680246D428024AD4E801A5
:1014C0004ED4280152D4E80056D4A8005AD468005B
:1014D00003D5B107204600F060F80821204600F04F
:1014E0005CF86807ADD50421204600F056F870BDC1
:1014F000B102204600F051F82805A8D5F102204697
:1015000000F04BF8E804A4D53103204600F045F87C
:10151000A804A0D4A3E77104204600F03EF86803B5
:10152000B8D5B104204600F038F8E803B4D4B7E7E2
:101530003105204600F031F8A802BCD571052046DF
:1015400000F02BF86802B8D5B105204600F025F868
:101550002802B4D5F105204600F01FF8E801B0D507
:101560003106204600F019F82801ACD5F1062046D6
:1015700000F013F8E800A8D53107204600F00DF878
:10158000A800A4D57107204600F007F86800A0D491
:10159000A3E780B5FFF73DFF80BD212291430160A5
:1015A0007047026901239A430A43026170470000B1
:1015B000F0B583B0044608461146FEF7BBFD082887
:1015C00001D201214BE00646019401200090000366
:1015D0000290002508273C4605E00299884213D373
:1015E0007F1C202F11D030463946FEF7A3FD394627
:1015F0004143711AF1D0781AE9B2884200DB3C46C7
:101600008842EDDB0546EBE73C46019DA86815499D
:101610000140A96030462146FEF78CFD02998842C0
:1016200000991CD8401EA884601EE87568750320C8
:101630000006A9680143A9604020A87528752020EC
:10164000C02129542869084901402961A8690C2151
:101650000143A9612869012101432961002108464C
:1016600003B0F0BDF1FFCCFF85FFFCFF0068212136
:101670008843704740687047006B70474268012399
:101680009A430A43426070474A4343688B4313437B
:101690004360704780B5292040064B210A02034968
:1016A000FFF786FF401E411E884180BD00127A0070
:1016B0002920400600784007C00F704729204006C7
:1016C0000078C0097047000080B5FFF717FB2D4870
:1016D0000121018080BDC046491E03290AD8C046A9
:1016E0007944097949008F4401070A0D3421425495
:1016F0000020704701207047828600207047826377
:1017000000207047426300207047704710B50446C0
:10171000FFF7D4FF0028FBD02920400601212246F4
:10172000FFF7DAFF10BD000001490180012070477A
:1017300017A200001F2101400120884001490860D4
:101740007047C04600E100E0C0B28107C90EFF2229
:101750008A4004494018032188430168914301608D
:101760007047C04600E400E00448002101700448CE
:101770000170044801804648017070473D00002018
:10178000780400208804002010B5002804D0044606
:1017900000F003F8641EFBD110BD10B555200406FF
:1017A00010212046FFF7B6FD01212046FFF726FE57
:1017B00010212046FFF7B0FD0028F9D00021204677
:1017C000FFF71CFE10212046FFF7A4FD10BD00BF4F
:1017D00000BF704710B5002804D00446FFF7F7FF9C
:1017E000641EFBD110BD000072B6FEF7F0FE0124AE
:1017F000E002FFF79FF8244F002638463146FFF7F6
:10180000FDFD1025384629462246FFF792FD384651
:101810002146FFF786FD38462946FFF77BFD1B4F23
:1018200038463146FFF7EAFD384629462246FFF79B
:1018300080FD38462146FFF774FD38462946FFF7FC
:1018400069FD2920470638463146FFF7AAFE4021A8
:1018500038462246FFF718FF38462146FFF70EFFAD
:1018600038462146FFF79DFE62B655200006294600
:10187000FFF750FD0648047006480078FFF746FF62
:10188000FFF752F9FCE7C046000086560000865577
:101890003B00004118000020B0B50446064D284624
:1018A000FFF742FF2046FFF7E5F80120FFF7D6F8E3
:1018B0002846FFF7EAFAB0BD0C00005D0FB410B582
:1018C00003A9044B044A029800F018F810BC08BCA5
:1018D00004B01847D91B00000000002002E008C82F
:1018E000121F08C1002AFAD170477047002001E09A
:1018F00001C1121F002AFBD170470000FFB58FB055
:101900000F460446002606E025280AD0129A1199AF
:101910009047641C761C20780028F5D1304613B01F
:10192000F0BD00250121A14A009500E00543641C9B
:1019300023780846203B98401042F7D120782E2883
:1019400015D1042005436078641C2A280AD101CFF0
:10195000641C00900BE000990A2251433039401872
:10196000641C00902078014630390929F3D9207889
:101970006C280ED004DC4C2813D06A2812D104E065
:1019800074280ED07A280DD10BE0012040050543C4
:1019900007E00121090562780D43824201D16D18EB
:1019A000641C641C2078864669284AD008DC00281C
:1019B000B4D058286DD0632810D0642808D140E0F6
:1019C00070286BD0732812D0752860D0782860D02A
:1019D000129A704611999047761CE5E0387869466E
:1019E00008720020487202A80190012003E03868C4
:1019F00001900020C0433F1D69070CD5002500E081
:101A00006D1C00998D420FDA8542F9DB0199495D21
:101A10000029F5D108E0002500E06D1C8542FCDBC3
:101A20000199495D0029F8D1761907E001980199DB
:101A30000078491C0191129A119990476D1EF5D2B8
:101A4000B2E00A20029000216802400F03910228B0
:101A50000CD001CFC117844600290DDA6246084632
:101A600052420021814194462D2008E0FF1DFF08CD
:101A7000FF0003CF8446EFE7280504D52B206A46F4
:101A8000107401203CE0E8073AD02020F7E70A2054
:101A900000E0102000210391029007E01020029046
:101AA0000021042005430820039100906802400FA4
:101AB000022810D001CF0021844600200D90280775
:101AC0001FD5704670280CD0029A1020039B42400C
:101AD0001A430CD015E0FF1DFF08FF0003CF84461A
:101AE000EBE740206A46107401200D900CE0604640
:101AF000084306D030206A461074704650740220A5
:101B00000D907046582804D029A001900DA80E9081
:101B10000DE02CA0F9E76046039B029AFEF729FB33
:101B2000019B84469B5C0E9A521E0E921370604677
:101B30000843F0D10E9805A9081A203001906807D3
:101B400001D5009801E0012000900199884203DD51
:101B500001460198081A00E000200025009006E0E8
:101B600004A8129A405D119990476D1C761C0D983F
:101B70008542F5DB04E0129A302011999047761CDB
:101B80000099481E00900029F5DC08E00E980E9997
:101B90000078491C0E91129A11999047761C019970
:101BA000481E01900029F1DC641CB4E609280100FC
:101BB00030313233343536373839616263646566C3
:101BC0000000000030313233343536373839414285
:101BD000434445460000000038B50446684604709A
:101BE00069460320ABBE204638BD005EBCE2613FC3
:101BF000DD83C29C7E20A3FD1F419DC3217FFCA2EB
:101C0000401E5F01E3BD3E6082DC237D9FC1421C1C
:101C1000FEA0E1BF5D0380DE3C62BEE0025CDF81CE
:101C2000633D7C22C09E1D43A1FF4618FAA427797C
:101C30009BC584DA3866E5BB5907DB856739BAE4AA
:101C400006581947A5FB7826C49A653BD987045ADC
:101C5000B8E6A7F91B45C6987A24F8A6441A99C78E
:101C6000257B3A6486D85B05E7B98CD2306EEDB33C
:101C7000510F4E10F2AC2F7193CD114FADF3702E6A
:101C8000CC92D38D6F31B2EC0E50AFF1134DCE909C
:101C9000722C6D33D18F0C52B0EE326C8ED0530D4E
:101CA000EFB1F0AE4C1291CF2D73CA947628ABF5FC
:101CB00017490856B4EA6937D58B5709EBB536682A
:101CC0008AD495CB2977F4AA4816E9B7550B88D65C
:101CD000346A2B7597C94A14F6A8742AC896154B0E
:101CE000A9F7B6E80A54D7896B3500000000000058
:101CF00000000000000001000000000000060000DD
:101D000001000000080000000F810000E511030041
:101D100093800000000000000000000000000000B0
:101D200000000000040000000000000000000000AF
:101D30000000000000127A00000000004000004493
:101D4000000000000000004100000000000001440D
:101D500003000000040001440200000008000144E8
:101D6000020000000C000144230000002000014498
:101D70000200000024000144020000002800014489
:101D8000020000002C000144020000004000014459
:101D9000000000002000004100000000000002449C
:101DA00022A000000400024421A0000040000244E0
:101DB0000000000040000041FF7F00000000000024
:101DC00020205230203D20307825580A0D00202058
:101DD0005231203D20307825580A0D0020204861DE
:101DE0007264204661756C742048616E646C657223
:101DF0000A0D0000141E0000000000200C0000006E
:101E0000DC180000201E00001000002080080000E8
:101E1000EC18000000000000001BB70032000000BA
:04000005000000DB1C
:00000001FF
