:020000040000FA
:10000000E8090020D5000000E3000000E500000042
:10001000FFFFFFFFFFFFFFFFFFFFFFFFFFFFFFFFF0
:10002000FFFFFFFFFFFFFFFFFFFFFFFFFD000000DF
:10003000FFFFFFFFFFFFFFFFFF00000001010000C7
:100040000301000003010000FFFFFFFF03010000A8
:100050000301000003010000030100000301000090
:1000600003010000FFFFFFFF030100000301000088
:1000700091200000C520000079210000030100004C
:1000800003010000B9210000FFFFFFFFFFFFFFFF9A
:10009000552300000301000003010000FFFFFFFFE4
:1000A0000301000003010000FFFFFFFFFFFFFFFF50
:1000B0000301000003010000030100000301000030
:1000C0000348854600F08AF800480047F125000003
:1000D000E8090020002001688D460A4880470A4848
:1000E0000047FEE704207146084202D0EFF3098082
:1000F00001E0EFF308807146044A1047FEE7FEE78F
:10010000FEE7FEE7391F0000C1000000390F0000C4
:1001100030B50B46014600202022012409E00D469F
:10012000D5409D4205D31D469540491B2546954027
:1001300040191546521E002DF1DC30BD03460B431D
:100140009B0703D009E008C9121F08C0042AFAD28D
:1001500003E00B780370401C491C521EF9D2704713
:1001600030B504460020034600E05B1C934203D2F6
:10017000E05CCD5C401BF8D030BDF0B51FB4064646
:10018000002082B005464024019100901BE00199B7
:1001900022460F46304600F043F8049A059B801A29
:1001A000994110D310461946224600F029F8361A14
:1001B0008F410197224601200021009F00F020F886
:1001C00038184D4100902046641E0028DFDC019B5A
:1001D00000982946324607B0F0BD0000064C0125C4
:1001E000064E05E0E36807CC2B430C3C98471034DF
:1001F000B442F7D3FFF768FFBC2A0000DC2A0000F6
:1002000010B5202A04DB0146203A9140002010BDA1
:10021000914020239C1A0346E3401943904010BDAF
:1002200010B5202A04DB0846203AD040002110BD3A
:100230000B46D340D0402024A21A914008431946CF
:1002400010BD30B58C180278401C13071B0F01D16C
:100250000378401C120906D10278401C03E005789F
:100260000D70401C491C5B1EF9D101E00B70491C4C
:10027000521EFBD1A142E6D3002030BDF0B583B0C1
:100280000026F443012845D805466F480088002819
:1002900040D010024718F8087C283BD80220394685
:1002A00000F0B0FFFF2835D0A842344632D00120FC
:1002B0000290830202200024614E019021463246C2
:1002C00000F0C4FE681E41424141F155012D00D0AD
:1002D000E5435C48018849198AB243799B00F25092
:1002E00001805A4D6979019800F092FF411C88B253
:1002F0002A88904200D929806979890070500225A6
:10030000284600F0AFFE02980302284621463246F6
:1003100000F085FF204603B0F0BDC046F0B585B0C3
:100320000024E743022800D984E00D460646100267
:100330004118C8087C287DD8404F012003900293C3
:1003400083028809C01CC0B201903D4A0491214635
:10035000009300F07BFE093728013840384D2818FB
:1003600010220299FFF7EAFE019F384600F07AFE5C
:1003700003980302384621462A46029300F04FFFB5
:100380000220049900F03EFFB042274652D00546B5
:10039000022000272A4C39462246009B00F056FED8
:1003A000002D12D0012D18D0FF2D029D049828D1C8
:1003B000012E1DD1039921542248417989000288D8
:1003C000521C93B26350028013E0012E029D0498E8
:1003D00017D1039921541B480CE0002E029D04986C
:1003E0000FD127541748417989000288521E05E031
:1003F00027541548417989000288521C93B26350F2
:1004000002802646114C6179022000F001FF411C58
:1004100088B22288904200D9218061798900705089
:100420000224204600F01EFE2046394632462B4666
:1004300000F0F5FE384605B0F0BDC046E703000009
:10044000E00100200400002004010020D000002072
:1004500070B50022491E08D0064B04460D4626788A
:1004600056409A5D641C6D1EF9D1405C101A411E05
:10047000884170BD86290000054908607047C04664
:10048000034909680140481E814108467047C0463B
:100490000000014C92490A78002803D0082002434A
:1004A0000A707047F72002400A707047F0B58BB0B1
:1004B000002309930122100404900990089303205B
:1004C00041020691089107930792824D2E68824956
:1004D0000E40824C36192E6006036F68B7436F607A
:1004E0002E680E402E607E4E371F3D680D402C1941
:1004F00005973C60079C74603446083C099D256064
:100500008505089C2C40376876490F403C193460BB
:10051000099CA403A40F05D00404099F2740540498
:10052000A74203D134681027274337600A930699FE
:100530000A91F468042102910C43F46017036A499C
:100540000C88BC4202D18C88BC4201D00F808F80C5
:1005500003973446103C2768FF00FAD5022727701E
:100560000A9F2F4035685F490D403D433560102597
:100570000A9F2F403168A943C91931600A9306992F
:100580000A9191040A9D0D4037688F4379193160B3
:100590003168090703D4316808250D43356001929D
:1005A00021684900FCD5202727703168B9433160A4
:1005B000024680020899014035680690854310463E
:1005C000691831601202089911403568009295430C
:1005D00069183160089909058D0F019A1146A940E3
:1005E00025682D022D0F8D42FAD1089989058D0FAE
:1005F0001146A94025682D032D0F8D42FAD18103A4
:10060000089D0D40D003854207D135683D433560D4
:100610002568002DFCD540252570089D0D403768C4
:100620008F432F4337600899049D29402A4D6D1E42
:1006300037682F400F4337600799716008990904A4
:100640008D0F1146A94025686D016D0F8D42FAD1BD
:1006500031460C390B600821B160244CF460244C05
:1006600034619330706133627362B36202983063B5
:100670007363B3633068069C2042039B02D03068EA
:1006800088433060089820409102884217D008982B
:10069000009908401102884211D0581E124A9188D0
:1006A0000140918008992140A14208D00899009A00
:1006B0001140914203D00C4A118801401180059AE3
:1006C00010680549084010600A480B4901600BB0EA
:1006D000F0BDC0460C00004D0000FFFF17A2000057
:1006E0001000014CFFFF3FFF340002440F81000067
:1006F000E51103000001002000127A0080B5FFF729
:10070000D5FE80BD70B500F047FF0546012001F021
:10071000E1FE0024002D26D0332000F05BFF00F026
:1007200067FE124E307000F063FE707000F060FEE5
:10073000B07000F05DFEF07000F05AFE307100F015
:1007400057FE707100F054FEB07100F051FE054686
:10075000F0713078012806D10448072100F0C6F86E
:10076000281A44424441204670BDC046D0010020B2
:10077000F0B581B00D460021CC4300285CD00128A3
:100780006FD1584F386842880088904209D10420C0
:10079000021D202A5CD038584388008898421046B1
:1007A000F6D00126B30200244F4D204621462A46AA
:1007B00000F04CFC38684188018040798000295065
:1007C000786841880180407980002950B868418864
:1007D0000180407980002950F86841880180407983
:1007E0008000295038694188018040798000295073
:1007F000786941880180407980002950B869418832
:100800000180407980002950F64F7979204600F028
:10081000FFFC411C88B23A88904200D9398079792E
:1008200089006850204600F01DFC33022046214616
:100830002A4600F0F4FC14E0012D12D8E4480088A8
:1008400000280ED0E34A1288012D05D1824203D13F
:100850000C46204601B0F0BD002D05D1002A0C4603
:1008600002D1204601B0F0BD012000908602022096
:1008700000241D4F21463A46334600F0E7FB193E5F
:1008800003E0761E7F1C002E04D03878FF28F8D0B5
:100890003D70F6E7002DCF4A01D0CD480588A8B2BB
:1008A00051798900104E70501580CE4D6979022023
:1008B00000F0AEFC411C88B22A88904200D9298001
:1008C0006979890070500225284600F0CBFB00981A
:1008D000030228462146324600F0A1FC204601B022
:1008E000F0BDC04650010020E001002010B50022FC
:1008F000002907D0044BD2B2047854401A5D401C42
:10090000491EF8D1104610BD86290000F0B581B00F
:100910000520800200F0EEFB0020014600F078FC8C
:10092000AA2800D0A4E0A94D2868417900242046D7
:1009300000F06EFC2968088068684179204600F064
:1009400067FC69680880A8684179204600F060FC6F
:10095000A9680880E8684179204600F059FCE968F8
:10096000088028694179204600F052FC29690880F6
:1009700068694179204600F04BFC69690880A869E4
:100980004179204600F044FCA9690880904D6979BE
:100990000226304600F03CFC28808E4D6979009696
:1009A000304600F035FC2880FF262046314600F016
:1009B0002FFC054601242046314600F029FC07465D
:1009C000A84200D82F460098314600F021FCB842DA
:1009D00000D83846834908807F4D286801780A2668
:1009E0007143204600F014FC2968C87008787043F1
:1009F000411C204600F00CFC296888700878704380
:100A0000811C204600F004FC296848706868017861
:100A10007143204600F0FCFB6968C8700878704399
:100A2000411C204600F0F4FB696888700878704328
:100A3000811C204600F0ECFB69684870A8680178CA
:100A40007143204600F0E4FBA968C8700878704341
:100A5000411C204600F0DCFBA968887008787043D0
:100A6000811C204600F0D4FBA968487001B0F0BD9D
:100A70000024FF270125204639462A4600F0DCFBEA
:100A8000284639462A4600F0D7FB0226304639462A
:100A90002A4600F0D1FB4D4F386842884179204604
:100AA00000F0CAFB786842884179204600F0C4FB18
:100AB000B86842884179204600F0BEFBF868428859
:100AC0004179204600F0B8FB3869428841792046D8
:100AD00000F0B2FB786942884179204600F0ACFB17
:100AE000B86942884179204600F0A6FB3848428820
:100AF0004179304600F0A0FB3648428841793046C3
:100B000000F09AFB344E306801780A277943C9B265
:100B1000C278284600F090FB306801787943491C80
:100B2000C9B28278284600F087FB306801787943A3
:100B3000891CC9B24278284600F07EFB70680178B3
:100B40007943C9B2C278284600F076FB7068017814
:100B50007943491CC9B28278284600F06DFB706861
:100B600001787943891CC9B24278284600F064FBB9
:100B7000B06801787943C9B2C278284600F05CFBBE
:100B8000B06801787943491CC9B28278284600F0E0
:100B900053FBB06801787943891CC9B24278284672
:100BA00000F04AFBAA222046214600F045FB0B4BF1
:100BB000284621462246FFF7B1FB094B2846294625
:100BC0002246FFF7ABFB01B0F0BDC046500100204C
:100BD0000401002004000020200100202E0100203C
:100BE0003E010020D0000020F0B583B09B480024D7
:100BF00004704470C47101250572029544728472B8
:100C0000974E03210191304600F053F930462946B2
:100C100000F061F93046214600F032F930462146B5
:100C200000F03FF93046214600F04CF930462146AD
:100C300000F02EF93046214600F016F9351D022746
:100C40002846394600F035F92846214600F043F998
:100C50002846214600F014F92846214600F021F9E3
:100C60002846214600F02EF92846214600F010F9CA
:100C70002846214600F0F8F835460835284639461A
:100C800000F017F92846214600F025F928462146AC
:100C900000F0F6F82846214600F003F928462146E0
:100CA00000F010F92846214600F0F2F828462146C7
:100CB00000F0DAF835460C352846019900F0F9F8CD
:100CC0002846029900F007F92846214600F0D8F896
:100CD0002846214600F0E5F82846214600F0F2F8C3
:100CE0002846214600F0D4F82846214600F0BCF8FA
:100CF000354620352846394600F0DBF8284621469F
:100D000000F0E9F82846214600F0BAF828462146C6
:100D100000F0C7F82846214600F0D4F828462146BE
:100D200000F0B6F82846214600F09EF835462435F6
:100D30002846394600F0BDF82846214600F0CBF899
:100D40002846214600F09CF82846214600F0A9F8E4
:100D50002846214600F0B6F82846214600F098F8CB
:100D60002846214600F080F8354628352846394681
:100D700000F09FF82846214600F0ADF828462146AD
:100D800000F07EF82846214600F08BF828462146E0
:100D900000F098F82846214600F07AF828462146C7
:100DA00000F062F82C363046394600F082F83046C2
:100DB000214600F090F83046214600F061F83046B8
:100DC000214600F06EF83046214600F07BF83046B0
:100DD000214600F05DF83046214600F045F8214EEE
:100DE0003046394600F065F83046029F394600F03B
:100DF00072F83046214600F043F83046214600F0B4
:100E000050F83046214600F05DF83046214600F0AB
:100E10003FF80A253046294600F026F8361D3046B0
:100E2000394600F046F83046394600F054F830466E
:100E3000214600F025F83046214600F032F83046D1
:100E4000214600F03FF83046214600F021F83046B8
:100E5000294600F009F803B0F0BDC046310000415A
:100E600000000144000002440268044B13400903DF
:100E700019430122D207891801607047FF0FFF7FD5
:100E8000026808239A43C907090F51180160704787
:100E90000322920203689343036002680A430260DC
:100EA0007047026880239A43C907090E51180160F0
:100EB0007047026807239A43026002681A400A4397
:100EC00002607047032212020368934303600268C2
:100ED0000A4302607047026820239A43C907890EBB
:100EE00051180160704700000A2802D90020C04351
:100EF0007047800001490858008870475001002061
:100F0000B0B50A480178FF290FD0FF220270084CC3
:100F1000207830224243074B9A18CB00D55CD21878
:100F20005268002A00D090472570B0BD1001002003
:100F3000D9010020100000200C4601681B4D2960DB
:100F4000416869608168A960C168E96001692961D7
:100F5000416969618169A961C069E861144801F06A
:100F60007BFB2968134801F077FB6968124801F0A0
:100F700073FBA96811A001F06FFBE96813A001F0F1
:100F80006BFB296915A001F067FB696917A001F0E7
:100F900063FBA9691BA001F05FFBE9691FA001F0D9
:100FA0005BFB24A0214601F057FBFEE7B0010020C7
:100FB000A22A0000862A0000942A00002020523233
:100FC000203D20307825580A0D00000020205233A3
:100FD000203D20307825580A0D0000002020523195
:100FE00032203D20307825580A0D0000202053740F
:100FF00061636B6564204C52203D20307825580A8F
:101000000D0000002020537461636B656420504321
:10101000203D20307825580A0D0000002020537410
:1010200061636B656420505352203D203078255811
:101030000A0D0000202043757272656E74204C52B8
:10104000203D20307825580A0D00000010B50D24F1
:10105000640680020019411810461A46FFF76EF820
:1010600010BD0000F0B59B4909680D2252068002B0
:1010700086180F204006304090423AD108200140A7
:1010800037D09549081F0468944A1440944AA4181C
:1010900004600D68012425430D604F6802252F432D
:1010A0004F600F6820233B43D027BB430B60462390
:1010B0000B73BE238B810B46103B22271F70BFF39F
:1010C0006F8F0027FA4332601A780268834E3240ED
:1010D000834BD21802600F730A68F0239A430A60A8
:1010E0004A68AA434A600A68A2430A60016831401C
:1010F0000160F0BD70B504460B4D284601F0D4F9EF
:1011000001263046FFF7C6F9B007FFF7B9F9002806
:10111000FAD02020FFF7B0F9284600F041FD204624
:1011200000F02AF970BDC0460C00014C80B50D23BB
:101130005B06C018FFF714F84142484180BD00002B
:10114000F0B582B0634B1C680123240757D50326F2
:101150000D4635406C426C41064075427541460E65
:101160000D2E4CD125434AD0A04C23685B4E334012
:101170005B4D5B1923606368012501952B43636018
:10118000A368022500952B43A360636810251D43C7
:10119000E0239D43656046232374BE232382236896
:1011A00033402360002325460C3D22272F70BFF3D8
:1011B0006F8F0E6806602D783D40022D07D15B1CB5
:1011C000001D091D9342EED30023019D01E0019D06
:1011D0002B462068414A10404149084320600020C6
:1011E00020746068F02188436060A068009988439B
:1011F000A0606068A84360602068104020601846C6
:1012000002B0F0BD0D22520680028018405C70478B
:101210000D2252068002801889004058704780B520
:101220008900800240180D214906401811461A46CF
:10123000FFF786FF80BD0000F0B581B0254B1B682D
:101240001B0702D4012001B0F0BD234D2C1F2668DE
:1012500000920246214806402148301820602B6841
:10126000012003432B606E6802231E436E602E68CC
:1012700010273743E026B7432F6046262E73B92642
:10128000AE812E46103E22273770890092025118F7
:10129000BFF36F8F0D225206009F8F5021680F4FB2
:1012A00039400F4A891821602968F022914329604A
:1012B00069689943696029688143296021683940D8
:1012C00021603178890602D53178890700D5002060
:1012D00001B0F0BD1000014C1000004D0000FFFFF8
:1012E00017A2000005490A680123002802D01A430A
:1012F0000A6070479A430A607047C0461000005D5C
:1013000004490A68F0239A430007000E1018086089
:101310007047C0460800005D0148024901807047DF
:101320000C00005D14200000F0B581B0104E308834
:10133000002819D00320840200270E4D04E0103449
:101340007F1C308887420FD2B9B20220FFF75AFFC4
:101350000128F4D1082220462946FFF7E7FE00289D
:10136000EDD0012001B0F0BD002001B0F0BDC046BD
:1013700004010020D0010020F0B583B006461B4FC9
:10138000F9697868800203D40124204603B0F0BDD7
:101390000191B00802903D460C3D012420042860D4
:1013A000384601F081F8B00503D02002029E3618BD
:1013B00000E0029EFE61384600F0F2FB2868C003A0
:1013C00009D4032080078643B88B864203D10024CA
:1013D000204603B0F0BD384601F066F80198F86188
:1013E000384600F0DDFB204603B0F0BD0C00004D98
:1013F000F0B58DB0E04F012538462946FFF759FD7D
:10140000DE4800210B91017006460224204602941A
:1014100001F06BF8032138460F46FFF74AFD30789C
:1014200009903C20019001F060F8D3480C952946C2
:10143000FFF73FFD0B9ED1480670204601F055F89E
:10144000CD483946FFF735FDCC4800780890019C1F
:10145000204601F04AF8C8482946FFF72AFDC74848
:101460000670029E304601F040F8C34839460A979C
:10147000FFF71FFDC14800780790204601F035F8BE
:10148000BD482946FFF715FD0B9DBC480570304649
:1014900001F02BF8B8483946FFF70BFDB74908783B
:1014A0000F460690204601F020F8B3480C99FFF74C
:1014B00000FD3D702F46304601F017F8AE48054656
:1014C0000A99FFF7F6FCAD4801780591204601F036
:1014D0000CF828460C9D2946FFF7EBFCA74807703F
:1014E000304601F002F8A4480A9F3946FFF7E1FCB4
:1014F000A24801780491204600F0F7FF9E48294653
:10150000FFF7D7FC0B9D9D480570304600F0EDFFBE
:1015100099483946FFF7CDFC984801780391204659
:1015200000F0E3FF94480C99FFF7C3FC9348057063
:101530000546304600F0D9FF8F483946FFF7B9FC21
:101540002E78204600F0D1FF0999481E8141089A63
:10155000501E824150004018079A511E8A41910046
:101560000818069A511E8A41D1000818059A511E82
:101570008A4111010818049A511E8A415101081824
:10158000039A511E8A4191010143701E8641F00168
:101590000843C0B20DB0F0BD70B5774C01212046B4
:1015A000FFF787FC754E0020307019200501284692
:1015B000503000F09AFF03212046FFF77AFC5020BC
:1015C00000F093FF3478284600F08FFF60426041BE
:1015D00070BDC046F0B581B00546674C012120467C
:1015E000FFF767FC654E00273770E80707D13C20FE
:1015F00000F07BFF03212046FFF75BFC09E00120A0
:1016000000F073FF03212046FFF753FC3C2000F05D
:101610006CFF01212046FFF74CFC3770A80707D468
:101620003C2000F062FF03212046FFF742FC09E066
:10163000012000F05AFF03212046FFF73AFC3C202E
:1016400000F053FF01212046FFF733FC3770680795
:1016500007D43C2000F049FF03212046FFF729FC76
:1016600009E0012000F041FF03212046FFF721FCA3
:101670003C2000F03AFF01212046FFF71AFC3770AA
:10168000280707D43C2000F030FF03212046FFF755
:1016900010FC09E0012000F028FF03212046FFF79D
:1016A00008FC3C2000F021FF01212046FFF701FC4F
:1016B0003770E80607D43C2000F017FF03212046CE
:1016C000FFF7F7FB09E0012000F00FFF03212046A0
:1016D000FFF7EFFB3C2000F008FF01212046FFF759
:1016E000E8FB3770A80607D43C2000F0FEFE03217B
:1016F0002046FFF7DEFB09E0012000F0F6FE0321A3
:101700002046FFF7D6FB3C2000F0EFFE01212046EB
:10171000FFF7CFFB3770680607D43C2000F0E5FEEA
:1017200003212046FFF7C5FB09E0012000F0DDFEA4
:1017300003212046FFF7BDFB3C2000F0D6FE01212F
:101740002046FFF7B6FB3770280608D43C2000F08F
:10175000CCFE03212046FFF7ACFB01B0F0BD012019
:1017600000F0C3FE03212046FFF7A3FB3C2000F05E
:10177000BCFE01B0F0BDC046000001443000004195
:1017800070B5D74C257826792920400600F00CFE4C
:10179000012E10D01D2D0ED8217862181073481C10
:1017A0002070022908D1A17BC906890F084A515C23
:1017B0006170002903D170BD61780029FBD0C0B2EF
:1017C0008842F8D101212171254800F0B8FD70BD93
:1017D000E8000020F0B581B021480024214600F047
:1017E000AEFDED4E747034713078B07034700220FC
:1017F00000F070FE307B43282FD1707B10282CD155
:10180000B17B1F2008400A2807D01E2809D01428C1
:101810000BD100F067F901B0F0BD00F023F801B082
:10182000F0BD00F013F901B0F0BDDC4F01203870BD
:10183000B420B073B07835460C35411E2846FFF70A
:1018400055F8B1784919491E0870072000F0EEFEDE
:10185000B178284600F0B6FD3C7001B0F0BDC0463E
:101860000000015570B5CC4DA878062808D128464F
:101870000C300621FEF7ECFD00281BD0F32000E021
:101880009320C64E01213170A873A8782C460C34E1
:10189000411E2046FFF72AF8A9780919491E087049
:1018A000072000F0C3FEA978204600F08BFD002041
:1018B000307070BDE87B002815D0012820D1DE48AB
:1018C00001680A79002A1FD0098800221346EC1803
:1018D0000E46D640267408325B1C04682479A34265
:1018E000F5D3E91811E0287CFFF7FEFA411C00D17E
:1018F000A8E068740921A970000AA8741320C0E741
:101900000920A870B320BCE729461031426813793A
:10191000002B0CD0128800231C461646DE400E55C4
:101920000833641C46683679B442F6D309198268D4
:101930001379002B0CD0128800231C461646DE407B
:101940000E550833641C86683679B442F6D30919FB
:10195000C2681379002B0CD0128800231C4616464F
:10196000DE400E550833641CC6683679B442F6D39F
:10197000091902691379002B0CD0128800231C4628
:101980001646DE400E550833641C06693679B442AB
:10199000F6D3091942691379002B0CD01288002361
:1019A0001C461646DE400E550833641C46693679DF
:1019B000B442F6D3091982691379002B0CD012882E
:1019C00000231C461646DE400E550833641C86690B
:1019D0003679B442F6D30919C2691379002B0CD0B9
:1019E000128800231C461646DE400E550833641C40
:1019F000C6693679B442F6D30919026A1379002B05
:101A00000CD0128800231C461646DE400E550833C3
:101A1000641C066A3679B442F6D30919426A13790E
:101A2000002B0BD0128800231C461646DE400E55B4
:101A30000833641C466A3679B442F6D31820A8707D
:101A40001D201EE70920A87073201AE770B5524EBA
:101A5000B078524D18280AD130460C301821FEF7C4
:101A6000F7FC00281CD001202870E52002E00120AE
:101A700028708520B073B07834460C34411E20465F
:101A8000FEF734FFB1780919491E0870072000F0ED
:101A9000CDFDB178204600F095FC0020287070BD87
:101AA0000420B070F07B012809D0002814D1B27C4A
:101AB000717C307C33461333FEF730FC03E0304654
:101AC000103000F0BBF8B06001212970401C01D03B
:101AD0000520CFE72520CDE701202870A520C9E704
:101AE0007801002070B52C4EB0782C4D09280AD111
:101AF00030460C300921FEF7ABFC00281CD0012039
:101B00002870E52002E0012028708520B073B078AD
:101B100034460C34411E2046FEF7E8FEB178091920
:101B2000491E0870072000F081FDB178204600F0C2
:101B300049FC0020287070BDF07B022809D00128E4
:101B40000CD000281AD1B27C717C307CFEF796FB59
:101B500009E0717C307CFEF70BFE04E0B27C717C06
:101B6000307C00F02DF80421B170B06001212970A3
:101B7000401C01D00520C9E72520C7E70420B0702C
:101B800001202870A520C1E7034800210171C17020
:101B90000180024801707047780100203B0000413D
:101BA0000021018001207047044A1368002902D0F7
:101BB0000343136070478343136070471400004C65
:101BC000F0B581B00024072803D9E443204601B0D2
:101BD000F0BD8000D54B12025718195809888F4262
:101BE000F4D01D180120009083020024D04E20461E
:101BF00021463246FFF72AFA28680780407980009C
:101C00003750CC4F79792046FFF702FB411C88B250
:101C10003A88904200D939807979890070502046FD
:101C2000FFF720FA00980302204621463246FFF7CC
:101C3000F6FA204601B0F0BD50010020F0B581B0A9
:101C40000446BA480168087900280FD000231D46D1
:101C50001A46665D9E40B6B2324308336D1C85421B
:101C6000F7D360190988914206D095E000222046FA
:101C70000988914200D08FE0AC4949680B79002B6C
:101C80000FD000252E462A46875DAF40BFB23A43AB
:101C90000835761C9E42F7D380190988914204D0FA
:101CA0007AE000220988914276D1A04989680B79AF
:101CB000002B0FD000252E462A46875DAF40BFB2CD
:101CC0003A430835761C9E42F7D380190988914221
:101CD00004D061E00022098891425DD19349C9682E
:101CE0000B79002B0FD000252E462A46875DAF408A
:101CF000BFB23A430835761C9E42F7D38019098853
:101D0000914204D048E000220988914244D1874999
:101D100009690B79002B0FD000252E462A46875DD6
:101D2000AF40BFB23A430835761C9E42F7D38019C4
:101D30000988914204D02FE00022098891422BD1DA
:101D40007A4949690B79002B0CD000252E462A468A
:101D5000875DAF40BFB23A430835761C9E42F7D349
:101D6000801900E000220988914215D16F498969E4
:101D70000A79002A0BD000252E462B46875DAF40FE
:101D8000BFB23B430835761C9642F7D300E00023F0
:101D90000888984200D1C5E0012000908302002706
:101DA000634A38463946FFF751F9604800680279BE
:101DB000002A0BD000210B460E46E55C8D402E43D9
:101DC00008315B1C9342F8D3E41800E03E460680DD
:101DD000B1B240798000564E315054484068027983
:101DE000002A0CD000231E461946A55D9D402943BC
:101DF0000833761C9642F8D3A4194D4E00E03946BC
:101E0000018089B240798000315048488068027969
:101E1000002A0CD000231E461946A55D9D4029438B
:101E20000833761C9642F8D3A419414E00E0394697
:101E3000018089B24079800031503C48C068027905
:101E4000002A0CD000231E461946A55D9D4029435B
:101E50000833761C9642F8D3A419354E00E0394673
:101E6000018089B2407980003150304800690279A0
:101E7000002A0CD000231E461946A55D9D4029432B
:101E80000833761C9642F8D3A419294E00E039464F
:101E9000018089B24079800031502448406902793C
:101EA000002A0CD000231E461946A55D9D402943FB
:101EB0000833761C9642F8D3A4191D4E00E039462B
:101EC000018089B2407980003150184880690179D9
:101ED000002909D0002213461746E55C95402F43A0
:101EE00008325B1C8B42F8D30780B9B2407980007E
:101EF0003150104C61790020FFF78AF9411C88B2FB
:101F00002288904200D92180617989007050002494
:101F10002046FFF7A7F800980302204621463246E4
:101F2000FFF77DF9002001B0F0BDC0465001002050
:101F3000E0010020D0000020014802490160704704
:101F400000010020001BB700F0B587B004AC2046AC
:101F500000F0A8F91F20E080F92727815520060608
:101F60003046214600F0A8F910253046294600F0F9
:101F700081F90720E0802781514F3846214600F043
:101F80009BF9012638462946324600F081F9384649
:101F9000314600F076F93846294600F06BF93003F7
:101FA00036490860364820810020E08035490868BD
:101FB000FF22039290430860AB20C70538462146B4
:101FC00000F07AF938462946324600F061F9384681
:101FD000314600F056F93846294600F04BF97003B7
:101FE00026490860284820810F200190E080254A7A
:101FF000106826490840F103401810606D4F3846BC
:10200000214600F059F93846294600F033F93846A0
:102010002946324600F03CF93846314600F031F9A5
:10202000B103029115480160174820810198E080B2
:1020300003980004134A11688143B0050818106022
:10204000824F3846214600F037F93846294600F0DD
:1020500011F938462946324600F01AF93846314619
:1020600000F00FF9700405490860064A50680749F6
:10207000084002994018506007B0F0BD00E100E050
:102080003F9C00000CE400E04FC3FFFFFF00FFFF98
:1020900010B50A48007880070FD5094C102120465A
:1020A00000F0EAF8012808D1B64800210170FFF7D6
:1020B00091FB1021204600F0DDF810BD6C000050AF
:1020C0000000015510B5AB20C4051021204600F0DA
:1020D000D3F8012846D12448027824480178002A00
:1020E00007D0002917D0491E0170417801291FD15E
:1020F00008E0204A1278914214D2491C01704178BC
:10210000012915D11A49097800291CD15249052203
:102110000A70002116E0164900220A704178012950
:1021200006D1EFE7124901220A7041780129E9D06E
:10213000002908D10E490978012904D14649002215
:102140000A70012141708F480178002906D0491C8E
:102150000170C8B2112801D3FFF716FD10212046E7
:1021600000F088F810BDC04633000041A2010020F5
:10217000E00500202C01002010B5F04C1021204675
:1021800000F07AF8012814D1FEF7BCFA01280CD12E
:102190000021204600F0D3F8FFF7C6F8002801D050
:1021A000012000E002202C4908701021204600F098
:1021B00061F810BD0000865510B5EC4C102120468A
:1021C00000F05AF8012840D121480178214A1268CC
:1021D0008A4201D9491C03E01F4904220A700021E8
:1021E00001701E4801781E4A1278914202D2491CA1
:1021F000017026E01B4908681B4A126890420BD107
:10220000EB480021017001220272204600F097F88D
:1022100011480321017014E0421C0A601349097837
:10222000FDF776FF00290CD111480178ED4800290F
:1022300003D101784A424A410270017A4A424A4136
:1022400002721021204600F015F810BD00008656DD
:10225000D80100200C01002010010020A401002062
:102260002D010020A8010020AC010020A5010020C4
:10227000A60100200160704700680840411E8841A7
:1022800070470122114043689343591841607047D9
:10229000012A03D142680A434260704742688A4378
:1022A0004260704705210181C18000210180817059
:1022B000C17001714171704770B5CA888B78002B6D
:1022C000144600D11C46048582850A894B78002B70
:1022D000144600D11C46048482840A7803693024A1
:1022E000A3439207920E9A180261CB784022D24300
:1022F00084681440DB075B0EE31883600C7980234D
:10230000DB4385681D40E407240E2C1984604C795A
:1023100003252D038668AE43A407A40CA41984608A
:102320004C7805691540E207520EAA1802618978B7
:1023300002691A40C907090E5118016170BD027C7B
:10234000012903D0FC210A400274704703210A438B
:1023500002747047B0B529204406204600F01EF8EC
:102360000546204600F01EF82840400608D50548DE
:1023700001210170FFF704FA4021204600F004F823
:10238000B0BDC0467B01002021229143016070470F
:10239000026901239A430A430261704700682121C0
:1023A0008843704740687047006B7047426801235C
:1023B0009A430A43426070474A4343688B4313433E
:1023C00043607047F0B581B00646292044060029D5
:1023D0000DD00D460027327820680006FCD501217B
:1023E000204600F009F87F1C761CAF42F3D120682C
:1023F0004007FCD501B0F0BD491E03290AD8C046EC
:102400007944097949008F4401070A0D3421425467
:102410000020704701207047828600207047826349
:1024200000207047426300207047000070B5184ECE
:1024300030681849014031601748332181800721F5
:10244000F17371730321090632680A433260402137
:10245000B1733173C0220270B068104A0240B2609A
:102460003446083C012520462A46FFF7A5FF2046B2
:102470002946FFF79BFF28050949086009480168BC
:10248000FF229143016030690C210143316170BD2D
:1024900008000052F1FFCCFF2000005285FFFCFF36
:1024A00000E100E014E400E00149018001207047F0
:1024B00017A2000010B5064C2046FFF7F5FF0121DA
:1024C000C802FFF771FB2046FFF76AFB10BDC0464C
:1024D0000C00004C7D21C900414305D000BF00BF66
:1024E00000BF00BF491EF9D17047002805D000BFCA
:1024F00000BF00BF00BF401EF9D1704710B53B4878
:1025000000242146FFF71BFF3648047001210172A9
:1025100035484160847010BD10B531480024214613
:10252000FFF70DFF31482146FFF709FF2D480470E2
:10253000012101722C484160847010BD0000865555
:1025400010B5274801242146FFF7F9FE2548002150
:1025500001700472C8432449032252020A804C606D
:10256000886022482146FFF7EAFE10BD000086562B
:1025700080B51C4800210170012101721A48062211
:102580000B020380416082601848FFF7D8FE80BDCF
:1025900080B51448002101700121017212481022F7
:1025A0004B020380416082601048FFF7C8FE80BD87
:1025B0003100004110B50A4801242146FFF7BFFE53
:1025C0000848002101700472C843074903225202DF
:1025D0000A804C60886005482146FFF7B0FE10BDB8
:1025E0000000865531000041A401002000008656FD
:1025F00072B6FEF783F8FEF789F9FEF7F5FAFFF7F2
:10260000A3FCFFF713FFFFF755FF29204006012425
:102610002146FFF7BDFEAB20C0052146FFF78FFE28
:1026200062B6FEF76DFC00F013F8FAE7B0B50446A9
:10263000064D2846FFF738FF2046FEF761FE0120D1
:10264000FEF750FE2846FFF7ABFAB0BD0C00005D68
:1026500080B5FEF761FE80BD0FB410B503A9044B31
:10266000044A029800F018F810BC08BC04B01847DF
:10267000752900000000002002E008C8121F08C1F0
:10268000002AFAD170477047002001E001C1121FF3
:10269000002AFBD170470000FFB58FB00F460446FB
:1026A000002606E025280AD0129A11999047641C4A
:1026B000761C20780028F5D1304613B0F0BD0025F7
:1026C0000121A14A009500E00543641C23780846D7
:1026D000203B98401042F7D120782E2815D10420B5
:1026E00005436078641C2A280AD101CF641C00903D
:1026F0000BE000990A22514330394018641C0090C5
:102700002078014630390929F3D920786C280ED079
:1027100004DC4C2813D06A2812D104E074280ED0AF
:102720007A280DD10BE001204005054307E0012187
:10273000090562780D43824201D16D18641C641C46
:102740002078864669284AD008DC0028B4D058286A
:102750006DD0632810D0642808D140E070286BD079
:10276000732812D0752860D0782860D0129A7046ED
:1027700011999047761CE5E0387869460872002088
:10278000487202A80190012003E0386801900020FF
:10279000C0433F1D69070CD5002500E06D1C009962
:1027A0008D420FDA8542F9DB0199495D0029F5D1A7
:1027B00008E0002500E06D1C8542FCDB0199495DC5
:1027C0000029F8D1761907E0019801990078491C91
:1027D0000191129A119990476D1EF5D2B2E00A202C
:1027E000029000216802400F039102280CD001CF13
:1027F000C117844600290DDA62460846524200217C
:10280000814194462D2008E0FF1DFF08FF0003CF03
:102810008446EFE7280504D52B206A461074012072
:102820003CE0E8073AD02020F7E70A2000E010203B
:1028300000210391029007E0102002900021042063
:1028400005430820039100906802400F022810D031
:1028500001CF0021844600200D9028071FD5704627
:1028600070280CD0029A1020039B42401A430CD0CF
:1028700015E0FF1DFF08FF0003CF8446EBE7402073
:102880006A46107401200D900CE06046084306D0A3
:1028900030206A4610747046507402200D907046C5
:1028A000582804D029A001900DA80E900DE02CA06E
:1028B000F9E76046039B029AFDF75FFC019B8446A3
:1028C0009B5C0E9A521E0E92137060460843F0D124
:1028D0000E9805A9081A20300190680701D50098C4
:1028E00001E0012000900199884203DD0146019832
:1028F000081A00E000200025009006E004A8129AC3
:10290000405D119990476D1C761C0D988542F5DB52
:1029100004E0129A302011999047761C0099481EC5
:1029200000900029F5DC08E00E980E990078491C0B
:102930000E91129A11999047761C0199481E0190A8
:102940000029F1DC641CB4E609280100303132337F
:1029500034353637383961626364656600000000DB
:1029600030313233343536373839414243444546C5
:102970000000000038B5044668460470694603202C
:10298000ABBE204638BD005EBCE2613FDD83C29C29
:102990007E20A3FD1F419DC3217FFCA2401E5F013D
:1029A000E3BD3E6082DC237D9FC1421CFEA0E1BFEF
:1029B0005D0380DE3C62BEE0025CDF81633D7C2221
:1029C000C09E1D43A1FF4618FAA427799BC584DA4F
:1029D0003866E5BB5907DB856739BAE406581947FD
:1029E000A5FB7826C49A653BD987045AB8E6A7F9AF
:1029F0001B45C6987A24F8A6441A99C7257B3A64E1
:102A000086D85B05E7B98CD2306EEDB3510F4E100E
:102A1000F2AC2F7193CD114FADF3702ECC92D38DBC
:102A20006F31B2EC0E50AFF1134DCE90722C6D336E
:102A3000D18F0C52B0EE326C8ED0530DEFB1F0AEA0
:102A40004C1291CF2D73CA947628ABF517490856CE
:102A5000B4EA6937D58B5709EBB536688AD495CB7C
:102A60002977F4AA4816E9B7550B88D6346A2B752E
:102A700097C94A14F6A8742AC896154BA9F7B6E860
:102A80000A54D7896B3520205230203D20307825DC
:102A9000580A0D0020205231203D20307825580A58
:102AA0000D00202048617264204661756C742048D6
:102AB000616E646C65720A0D00000000DC2A000083
:102AC000000000207801000042020000902B00006E
:102AD000780100207008000088260000914A02FE5C
:102AE00058025802020D01032B4125820142023394
:102AF000912542033371258201420133FD24820175
:102B00008202820282028202C20233192582038279
:102B1000038203420133B52582038203570100017A
:102B20000002FF59010F03000300020A2E011004E6
:102B300006091805000500020C1E551E00020B4375
:102B4000010E631BB73302FD421464FF00018202D1
:102B50002BDA010020120100201801392014020193
:102B600014E6810F92F53601D8D37301B2C332DC7B
:102B70003320F23320EC33200A3320F83320D633CD
:102B800020E2372004010020043320D0122000006E
:04000005000000DB1C
:00000001FF
