:020000040000FA
:10000000C0090020D5000000E3000000E50000006A
:10001000FFFFFFFFFFFFFFFFFFFFFFFFFFFFFFFFF0
:10002000FFFFFFFFFFFFFFFFFFFFFFFFFD000000DF
:10003000FFFFFFFFFFFFFFFFFF00000001010000C7
:100040000301000003010000FFFFFFFF03010000A8
:100050000301000003010000030100000301000090
:1000600003010000FFFFFFFF030100000301000088
:10007000DD1B0000351C0000451C000003010000D2
:1000800003010000791C0000FFFFFFFFFFFFFFFFDF
:10009000D91D00000301000003010000FFFFFFFF66
:1000A0000301000003010000FFFFFFFFFFFFFFFF50
:1000B0000301000003010000030100000301000030
:1000C0000348854600F0A4F800480047212A0000B4
:1000D000C0090020002001688D460A4880470A4870
:1000E0000047FEE704207146084202D0EFF3098082
:1000F00001E0EFF308807146044A1047FEE7FEE78F
:10010000FEE7FEE7251A0000C100000055110000BF
:1001100003460B439B0703D009E008C9121F08C020
:10012000042AFAD203E00B780370401C491C521ECB
:10013000F9D27047D2B201E00270401C491EFBD2D6
:1001400070470022F6E710B513460A4604461946E2
:10015000FFF7F0FF204610BD30B5044600200346EF
:1001600000E05B1C934203D2E05CCD5C401BF8D006
:1001700030BD70B50446002903D0002020220123A1
:1001800010E0002801D00020C043C046C0460DE06A
:100190002546D5408D4205D30D469540641B1D462E
:1001A000954040191546521E002DF1DC214670BDC8
:1001B000F0B51FB40646002082B0054640240191E8
:1001C00000901BE0019922460F46304600F042F8AD
:1001D000049A059B801A994110D31046194622466D
:1001E00000F028F8361A8F4101972246012000219D
:1001F000009F00F01FF838184D4100902046641E03
:100200000028DFDC019B00982946324607B0F0BD8C
:10021000064C0125064E05E0E36807CC2B430C3C59
:1002200098471034B442F7D3FFF74EFF302F000049
:10023000502F000010B5202A04DB0146203A9140DF
:10024000002010BD914020239C1A0346E34019432F
:10025000904010BD10B5202A04DB0846203AD0405B
:10026000002110BD0B46D340D0402024A21A91405B
:100270000843194610BD30B58C180278401C13078E
:100280001B0F01D10378401C120906D10278401CD3
:1002900003E005780D70401C491C5B1EF9D101E09C
:1002A0000B70491C521EFBD1A142E6D3002030BD89
:1002B000F0B581B00024E543012843D806467048D4
:1002C000008800283ED010024718F8087C2839D84A
:1002D00001200090394601F0B5F8FF2832D0B04235
:1002E00025462FD0009883020025634C29462246DC
:1002F00000F0D4FF701E41424141E1552746012ED6
:1003000000D0EE435D48018889198AB243799B0089
:10031000FA5001805B4C6179009E304601F098F8FC
:10032000411C88B22288904200D9218061798900DD
:100330007850304600F0BEFF3302304629463A4638
:1003400001F08DF8284601B0F0BDC046F0B585B08B
:100350000024E743022800D988E00D460646100233
:100360004118C8087C2800D980E0424F0120039042
:10037000029383028809801CC0B201903E4A049116
:100380002146009300F08AFF0937280138403A4996
:10039000081810220299FFF7BBFE019F384600F0B3
:1003A00089FF039D2B0238462146334A029301F010
:1003B00056F82846049901F045F8B042274655D032
:1003C0000546012400272C4A20463946009B00F0B0
:1003D00065FF002D13D0012D1AD0FF2D029D049929
:1003E0002BD1012E1ED12448445404462348417980
:1003F00089000288521C93B26350028014E0012EDF
:10040000029D049919D11C48445404461B490CE030
:10041000002E029D049810D1174C275417490888C4
:10042000401E04E0144C675415490888401C08809D
:10043000491D80B2097889006050124C6179012011
:1004400001F006F8411C88B22288904200D9218030
:1004500061798900084E70500124204600F02AFF7F
:100460002046394632462B4600F0F9FF384605B0A3
:10047000F0BDC046E7030000AC0100200A000020E8
:10048000F8000020DC000020F0B581B01E480124F7
:1004900004701C480578364E37782920400601F054
:1004A000AEFC012D1BD01E2F19D03278E54988549F
:1004B000501C3070022A06D18978C906890F094A72
:1004C000515C0F4A11700E490978C0B2884206D1BA
:1004D000002904D00B480470072002F0C9FA01B0CB
:1004E000F0BDC046E800002005480021017020480A
:1004F00001700448017004480170D14801707047D0
:1005000084010020B8050020BC05002070B5184803
:100510000078CD4D2870CB4C2078432827D16078C7
:10052000102824D1A1781F2008400A2806D01E28B0
:1005300007D0142808D100F01DF970BD00F01AF89A
:1005400070BD00F0D3F870BDBD4E01203070B420F6
:10055000A0702878411E204600F0CCFB29780A19AB
:10056000521E1070204601F058FC0020307070BD03
:10057000AF050020F0B581B0B34D297806290AD126
:10058000B04C204600F062F900281AD0AC4E012091
:100590003070F32004E0AA4E01203070A94C932063
:1005A000A0702878411E204600F0A4FB29780A1983
:1005B000521E1070204601F030FC0020307001B057
:1005C000F0BDE078002821D002282ED001284CD19F
:1005D000201D0021444F02E0491C09294CD08B000A
:1005E000FC582679002EF7D02A46FB1825880024CF
:1005F00027462E46E640C65508347F1C1E683679CD
:10060000B742F6D3C0191546374FE5E7207900F019
:1006100079FD411C5DD0607109212970000AA0712B
:10062000874E012030701320BAE72D4E3088718834
:10063000884229D1092028700026E671A6716671CA
:1006400026717F4F012038701320A0702878411E3A
:10065000204600F04FFB29780A19521E10702046E0
:1006600001F0DBFB3E7001B0F0BD09202870744E34
:1006700001203070B32093E718202870704E0120BD
:1006800030701D206F4C8BE7A07100272771000A86
:100690006071E01D13491022FFF73AFD1820287001
:1006A0006749012008701D20A0702878411E20464F
:1006B00000F020FB29780A19521E1070204601F024
:1006C000ACFB5F4807707088308000F02FFA01B0F3
:1006D000F0BD09202870732000F09CF801B0F0BD37
:1006E000FE0000206C0100202401002070B5564E51
:1006F0003178534D182909D1524C204600F0A6F804
:10070000002817D001202870E52002E00120287081
:1007100085204C4CA0703078411E204600F0EAFA4B
:1007200031780A19521E1070204601F076FB002025
:10073000287070BD04203070E078012808D00028AF
:1007400013D1A27961792079E31DFFF7FFFD02E063
:10075000201D01F0EDF82E49086001212970401C90
:1007600001D00520D5E72520D3E701202870A5205A
:10077000CFE7C04670B5344E3178314D092909D1E3
:10078000304C204600F062F8002817D00120287075
:10079000E52002E00120287085202A4CA0703078E6
:1007A000411E204600F0A6FA31780A19521E107038
:1007B000204601F032FB0020287070BDE07802284E
:1007C00009D001280CD000281BD1A27961792079A9
:1007D000FFF76EFD09E06179207900F007FA04E087
:1007E000A2796179207901F069F804213170084912
:1007F000086001212970401C01D00520CDE725208B
:10080000CBE70420307001202870A520C5E7C04642
:10081000B405002070B50A4D01212970094CA07063
:10082000094E3078411E204600F064FA31780A19EA
:10083000521E1070204601F0F0FA0020287070BDA2
:100840003B000041850100204801002070B50022D6
:10085000491E08D0064B04460D46267856409A5D40
:10086000641C6D1EF9D1405C101A411E884170BD98
:10087000FA2D0000044908607047C0460249096823
:100880000840411E884170470000014C411E8841CC
:10089000C0009B490A78F723134018180870704766
:1008A000F0B58DB000200B900A9009909E490A780F
:1008B000012632430A7031040B916121090106912E
:1008C0000A9109968C490B888C4C0C808B791022EC
:1008D000049213438B7103252B034F689F434F6092
:1008E0000B88088086490A1F138802921480099B8E
:1008F0004B600B46083B0B9C1C600AAB9B78C022EC
:10090000079213408C783F2205921440E3188B70B5
:100910000B460C3B18600BAB9B789B0704D00BABD2
:100920009B782B40022B03D10C78049A144302E0ED
:100930000C78049A94430C700C90069A0C920B7BE2
:100940000422019213430B7334036E4A1388A342AB
:1009500002D19388A34201D014809480009408951A
:100960000C460D3C2378DB06FAD50A46103A0223E2
:10097000039213700CAB9A78079D2A408D78059FDF
:100980003D40AA188A701A78049B1A400B78EF250C
:100990001D40AA180A700C90069A0C920CAA927824
:1009A000019B1A408B78FB251D40AA188A700A7893
:1009B000120703D40A78082313430B700690227899
:1009C0005206FCD52023039803700A6804939A43C7
:1009D0000A600AAF7B780C2213404D78F320284040
:1009E000C01848707878089B18404B78FC251D404B
:1009F0002818487078780007800F334683400F46E8
:100A00000E3F387800098342F9D10AA84078089B44
:100A100018403346834038780F2505409D42FAD16F
:100A20000AA84078079B184080280AD10878049BC0
:100A300018430870D04308560028FBD54020039B7C
:100A400018700AAD6878079B18404B78059F3B40AB
:100A500018184870A87830408B78FE271F40381847
:100A60008870099848606878800986402078072354
:100A70000340B342FAD108208860234803467C3300
:100A8000CB60224B0B61486106980862486288621D
:100A900008634863886348780007800F089C03D088
:100AA0000878F72303400B700AA840781040042808
:100AB00018D00AA840782040012813D00098411E81
:100AC000104B9888084098800AA8407810400C285D
:100AD00008D00AA840782040032803D0094A10888B
:100AE000084010800299088806980880084809493B
:100AF00001600DB0F0BDC0460C00004D17A2FFFF15
:100B00001000014C3400024493800000E511030002
:100B1000F400002000127A0080B5FFF7C1FE024801
:100B20000121017080BDC0460400034CB0B5002413
:100B3000204600F0BFFBAA222046214600F09CFC84
:100B4000B0480288FF21204600F096FCA84D2859A5
:100B500002884179002000F08FFC241D182CF6D16A
:100B6000B0BDC046B0B500F037FE002816D0332027
:100B700000F05AFE00250A4C00F0FCFD60556D1C8B
:100B8000082DF9D12078012808D1E57907212046E0
:100B900000F0B0F8291A48424841B0BD0020B0BD6D
:100BA0007C01002080B50D480088002806D00C4844
:100BB000012101800B480221017080BD0848008896
:100BC000002807D00748022101700748012101F0E1
:100BD000F8F880BD03480021017080BD1600002098
:100BE00004000020A901002000000155F0B581B0EB
:100BF0000024E643002843D0012853D17C4F3868B5
:100C00004188008888420BD100263046011D1029FA
:100C100048D0381840684288008890420846F5D08D
:100C200001208302324D204621462A4600F036FB41
:100C3000385941880180407980002950241D102CAA
:100C4000F6D1704D69790024204600F001FC401C6B
:100C500081B22A88914201D96A49088080B26949E3
:100C600049798900224D6850204600F023FB01207D
:100C700003020026204631462A4600F0F0FB11E030
:100C80000D4601290ED85B48008800280AD05A4931
:100C900009880026012D01D1814203D0002D04D105
:100CA000002902D1304601B0F0BD0124A602002186
:100CB0000F4F20463A46334600F0F0FA193E03E063
:100CC000761E7F1C002E04D03878FF28F8D03D70A7
:100CD000F6E7002D484B01D046480588A8B259795F
:100CE0008900034A50501D80464D6979ACE7C046E3
:100CF000AC01002010B50022002907D0044BD2B26D
:100D0000047854401A5D401C491EF8D1104610BDAD
:100D1000FA2D000070B50520800200F00DFB0024C4
:100D20002046214600F094FBAA2828D10025FA4E3F
:100D3000705941790024204600F08AFB71590880DF
:100D40002D1D182DF4D12B4E71790125284600F068
:100D50007FFB3080284E7179284600F079FB308087
:100D6000264603E0641C002D06463DD1E5B2FF2176
:100D7000284600F06DFBB042F4D83046F2E7AA22D4
:100D80002046214600F078FBFF2501262046294613
:100D9000324600F071FB30462946324600F06CFBCB
:100DA000DD4D285942884179002000F065FB241D63
:100DB000182CF6D10F48428841790124204600F0D2
:100DC0005BFB0D4842884179204600F055FB0B48FB
:100DD00008210B4D2A4600F059FC002120460A4606
:100DE0002B46FFF7B3FA70BD0649088070BDC046B8
:100DF00024010020F80000200A0000201A01002031
:100E00006C010020DC000020F0B583B09B4800247A
:100E100004704470C4710125057202954472847295
:100E2000974E03210191304600F052F93046294691
:100E300000F060F93046214600F032F93046214694
:100E400000F03FF93046214600F04BF9304621468C
:100E500000F02EF93046214600F016F9351D022724
:100E60002846394600F034F92846214600F042F978
:100E70002846214600F014F92846214600F021F9C1
:100E80002846214600F02DF92846214600F010F9A9
:100E90002846214600F0F8F83546083528463946F8
:100EA00000F016F92846214600F024F9284621468C
:100EB00000F0F6F82846214600F003F928462146BE
:100EC00000F00FF92846214600F0F2F828462146A6
:100ED00000F0DAF835460C352846019900F0F8F8AC
:100EE0002846029900F006F92846214600F0D8F875
:100EF0002846214600F0E5F82846214600F0F1F8A2
:100F00002846214600F0D4F82846214600F0BCF8D7
:100F1000354620352846394600F0DAF8284621467D
:100F200000F0E8F82846214600F0BAF828462146A5
:100F300000F0C7F82846214600F0D3F8284621469D
:100F400000F0B6F82846214600F09EF835462435D4
:100F50002846394600F0BCF82846214600F0CAF879
:100F60002846214600F09CF82846214600F0A9F8C2
:100F70002846214600F0B5F82846214600F098F8AA
:100F80002846214600F080F835462835284639465F
:100F900000F09EF82846214600F0ACF8284621468D
:100FA00000F07EF82846214600F08BF828462146BE
:100FB00000F097F82846214600F07AF828462146A6
:100FC00000F062F82C363046394600F081F83046A1
:100FD000214600F08FF83046214600F061F8304697
:100FE000214600F06EF83046214600F07AF830468F
:100FF000214600F05DF83046214600F045F8214ECC
:101000003046394600F064F83046029F394600F019
:1010100071F83046214600F043F83046214600F092
:1010200050F83046214600F05CF83046214600F08A
:101030003FF80A253046294600F026F8361D30468E
:10104000394600F045F83046394600F053F830464E
:10105000214600F025F83046214600F032F83046AF
:10106000214600F03EF83046214600F021F8304697
:10107000294600F009F803B0F0BDC0463100004138
:1010800000000144000002440268044B13400903BD
:1010900019430122D207891801607047FF0FFF7FB3
:1010A0000278F7231340C907090F591801707047D8
:1010B0000322920203689343036002680A430260BA
:1010C000704702787F231340C90159180170704797
:1010D000026807239A43026002781A400A430260BA
:1010E00070470322120203689343036002680A43B5
:1010F000026070470278DF231340C907890E591830
:1011000001707047092802D90020C0437047800051
:1011100001490858008870472401002070B501F08B
:1011200073FBFF2810D00146084C20788201084D3F
:10113000AA18CE0092195268002A00D09047207851
:1011400080012818805D207070BDC046A901002074
:101150001C00002082B001910168214C216041688F
:10116000204F39608168204E3160C1681F4D296071
:1011700001691F4A116041691E4A116081691E4A56
:101180001160C0691D4908601D4801F09FFC21687D
:101190001C4801F09BFC39681B4801F097FC316842
:1011A0001AA001F093FC29681CA001F08FFC1048E4
:1011B00001681EA001F08AFC0E4801681FA001F022
:1011C00085FC0D48016823A001F080FC0B480168F4
:1011D00026A001F07BFC2BA0019901F077FCFEE733
:1011E000580100205C0100206401002068010020FB
:1011F000600100204C01002050010020540100201B
:10120000162F0000FA2E0000082F00002020523276
:10121000203D20307825580A0D0000002020523350
:10122000203D20307825580A0D0000002020523142
:1012300032203D20307825580A0D000020205374BC
:1012400061636B6564204C52203D20307825580A3C
:101250000D0000002020537461636B6564205043CF
:10126000203D20307825580A0D00000020205374BE
:1012700061636B656420505352203D2030782558BF
:101280000A0D0000202043757272656E74204C5266
:10129000203D20307825580A0D00000080B58002DE
:1012A00008180D214906411810461A46FEF730FF6E
:1012B00080BD0000F0B581B09449097802B2002ADF
:1012C00038D40822114035D0914A111F0B88914B18
:1012D0000B801468012300931C4314605668022499
:1012E00026435660166820273743D026B743176039
:1012F00046261673BE2696811646103E2227377064
:10130000BFF36F8F0D277F0683020020C543DD5199
:1013100033780B887F4B0B8010731368F025AB4339
:1013200013605368A34353601368009CA343136086
:101330000A88088001B0F0BD70B504460B4D284600
:1013400000F0DCFD01263046FFF7A0FAB007FFF7FA
:1013500095FA0028FAD02020FFF78CFA284600F0F2
:101360009DFA204600F0D0F970BDC0460C00014C3B
:1013700080B50D235B06C018FEF7EEFE41424841E2
:1013800080BD0000F0B581B0604B1B7801261B07C3
:1013900052D503230C461C40651EAC4103405D1E24
:1013A000AB413925AD0645196D0E7F2D44D3234041
:1013B00042D1EF4C2388574B2380656801231D439E
:1013C0006560A668022500952E43A6606668102712
:1013D0003743E026B743676046262674BE2626823A
:1013E000268800272780012A00D81A4623460C3B6E
:1013F00022261E70BFF36F8F0D6805601D78354083
:101400000123022D06D1521E001D091D002AEDD117
:101410003E4600E01E462088094820802774606808
:10142000F02188436060A06800998843A0606068EC
:101430009843606020882780304601B0F0BDC046E8
:1014400017A20000800208180D214906405C704771
:101450008002890008180D2149064058704780B560
:101460008002890008180D214906401811461A46C5
:10147000FFF788FF80BD0000F0B581B00346234828
:101480000078000702D4012001B0F0BD204D2C1FD0
:101490002088204820802E68012006432E606E6838
:1014A00002273E436E602E6800921A461023334393
:1014B000E026B3432B6046232B73B923AB812E4622
:1014C000103E22233370920289008918BFF36F8F78
:1014D0000D225206009B8B5021880E4921802968DD
:1014E000F022914329606968B943696029688143A2
:1014F00029602188002121803278920602D5327835
:10150000920700D5084601B0F0BDC0461000014C5E
:101510001000004D17A2FFFF411E884103490A78C1
:10152000FE231340181808707047C0461000005D75
:1015300003490A780F2313400001181808707047F8
:101540000800005D01480249018070470C00005D01
:1015500014200000F0B581B018480821184A00F0A6
:1015600095F818480088411E07468F4100281CD076
:101570000120C402002503E010348542374619D209
:10158000A9B201263046FFF75DFF012806D11022DF
:1015900020460B49FFF7ECFE002808D109480088D7
:1015A0006D1C8542E8D30026E6E73E4602E0064889
:1015B00005803E460120304001B0F0BD7C01002096
:1015C0006C010020F80000204A010020F0B581B035
:1015D0000C46054608683F2738400A4618328021E5
:1015E000009211544740401C26465036072F0BD816
:1015F000201818303946FEF7A4FD402720460099F0
:101600003A4600F091FC002020181830083F394677
:10161000FEF797FD03CC7160410DF170410BB17085
:1016200041097170C0003070083C206040222046A3
:10163000009900F079FCA0682870A068000A687022
:101640006089A870E07AE870E0682871E068000AB4
:101650006871E089A871E07BE871206928722069CF
:10166000000A6872608AA872E07CE8726069287378
:101670006069000A6873E08AA873E07DE8739821C6
:101680002046FEF75EFD01B0F0BD0000F0B5A7B04A
:1016900014460D4606461848069018480590184806
:1016A00004901848039000200290019001AF183771
:1016B00080213846FEF745FD680F0290072040075D
:1016C000294681430191402D0AD300943F242A46A4
:1016D000A24301A8314600F027FC06462540009CA5
:1016E000384631462A46FEF713FD01A92046FFF78A
:1016F0006DFF27B0F0BDC04676543210FEDCBA98BC
:1017000089ABCDEF01234567F0B581B00646184C93
:10171000E169A079800601D4012626E000912546E2
:101720000C3D012738042860204600F0E7FBB10893
:10173000B00501D0380209183E46E16120460F4647
:1017400000F0ACF82868C00307D403208007874363
:10175000A08B874201D1002607E0204600F0CEFB97
:101760000098E061204600F099F8304601B0F0BDE5
:101770000C00004DF0B581B0002427462646012517
:1017800044482946FFF7A4FC434804700A2000BFE0
:1017900000BF00BF00BF401EF9D103213D48FFF745
:1017A00097FC3D480078002801D1054600E0BD4087
:1017B000462000BF00BF00BF00BF401EF9D12E432E
:1017C0007F1C082FDBD1F0B201B0F0BD80B501461F
:1017D0003048FFF77DFC80BD70B52E4C01212046BE
:1017E000FFF776FC2C4E00203070192005012846AA
:1017F000503000BF00BF00BF00BF401EF9D1032121
:101800002046FFF765FC502000BF00BF00BF00BFAF
:10181000401EF9D1317800BF00BF00BF00BF6D1E70
:10182000F9D14842484170BDF0B581B00446002767
:10183000184D3E4602E0761C082E28D0012128468D
:10184000FFF746FC144807702046F040C00712D04E
:101850000A2000BF00BF00BF00BF401EF9D1032116
:101860002846FFF735FC462000BF00BF00BF00BF81
:10187000401EF9D1DFE7502000BF00BF00BF00BF0E
:10188000401EF9D103212846FFF722FCD3E701B01F
:10189000F0BDC0460000014430000041002101803D
:1018A00001207047044A1368002902D003431360E3
:1018B00070478343136070471400004CF0B581B04B
:1018C0000024042801D9E4432FE08000524B120287
:1018D0005718195809888F4227D01D1801200090E9
:1018E000830200244D4E204621463246FFF7D6FCA7
:1018F00028680780407980003750494F7979204621
:10190000FFF7A6FD411C88B23A88904200D9398081
:101910007979890070502046FFF7CCFC00980302CB
:10192000204621463246FFF79AFD204601B0F0BD21
:10193000F0B583B000210091029004468800364A39
:1019400013581879002813D0C600401EC0B2019069
:101950000025204622462F461478AC40A4B22743E7
:101960000835521CAE42F7D1019A8018441C00E0A1
:10197000009F1888B84204D1481C03290146DDD1D4
:1019800047E00120009083020024244A204621469B
:10199000FFF784FC0194204608E0019A0A80497907
:1019A00089001E4B5A50401C042818D081001A4A46
:1019B00051580A79002AF0D0D300521ED5B2002720
:1019C000029C3A462678BE40B6B232430837641CC1
:1019D000BB42F7D1029B5B195B1C0293DEE7104C04
:1019E00061790020FFF734FD411C88B222889042C3
:1019F00000D9218061798900084D68500024204673
:101A0000FFF758FC00980302204621462A46FFF7BC
:101A100026FD002003B0F0BD24010020AC01002011
:101A2000DC0000200148024901607047F4000020FA
:101A3000001BB70080B51D4802781D480178002AB8
:101A400004D0002909D00178491E0BE01A4A127807
:101A5000914205D20178491C04E01648002101E0BA
:101A600014480121017015490878002805D1114852
:101A70000078012801D1002007E00878012809D169
:101A80000C480078002805D104200A4A12780A7010
:101A900000F0EEFF0A480178002906D0491C0170C9
:101AA000C8B2112801D3FEF71FFD80BD33000041ED
:101AB000AC050020AD0500200C010020B005002081
:101AC000BC050020F0B585B002AD284600F032F923
:101AD0009F200090E880F9262E8155200706384681
:101AE000294600F031F9102101910124384622469F
:101AF00000F016F93846214600F00AF90098E8800F
:101B00002E814B4F3846294600F01EF93846019E7B
:101B10003146224600F004F93846214600F0F8F834
:101B20000F200090E8802A482881AB20C70538465E
:101B3000294600F009F938463146224600F0F0F80F
:101B40003846214600F0E4F8009EEE8020482881C7
:101B5000484F3846294600F0F7F83846019F394685
:101B6000224600F0DDF84348214600F0D1F8EE802F
:101B7000174828815E4E3046294600F0E5F8304689
:101B80003946224600F0CCF83046214600F0C0F835
:101B9000A003D8490860FF2003040E4A15689D433E
:101BA000156063040B6053680B4D2B40E6039B19D3
:101BB000536063030B6013682B400325AD035B196F
:101BC000136023030B6011688143116005B0F0BD01
:101BD0004FC3FFFF0CE400E0FF00FFFF70B51148AA
:101BE0000178C90715D1007880071AD50E4E3088C4
:101BF000411C31800D4909880D4C88420DD10025CA
:101C00002046294600F0DDF83580052000F030FF41
:101C100003E0FFF70FFF552004061021204600F0D7
:101C200075F870BD6C000050BA050020220100203C
:101C30000000015580B5AB20C005102100F066F80A
:101C400080BD000010B50B4CFEF78CFF01280CD1B5
:101C50000021204600F0B5F8FFF77CFC002801D0F9
:101C6000012000E0022000F003FF1021204600F0D8
:101C70004DF810BD0000865510B51B4801781B4A71
:101C800012781B4C914203D20178491C017026E066
:101C900018490868184A1268904207D10021204666
:101CA00000F08FF8062000F0E3FE18E00868421C00
:101CB0000A6012490978FEF75CFA00290FD1104832
:101CC00001784A424A4102700E490A780E49002AB8
:101CD00003D10278534253410B70007808721021EF
:101CE000204600F013F810BDAE05002018010020BA
:101CF0000000865610010020140100200D01002074
:101D000019010020A8010020310000410160704746
:101D100001220A400179FE230B4099180171704796
:101D2000012A03D142680A434260704742688A43ED
:101D30004260704705210181C180002101808170CE
:101D4000C17001714171704770B5CA888B78002BE2
:101D5000144600D11C46048582850A894B78002BE5
:101D6000144600D11C46048482840B78047CCF2264
:101D700014409B079B0EE3180374CC78057ABF23AD
:101D80001D40E407640E2C1904720D79067A7F2435
:101D90002640ED01751905724D79467A1640AA075D
:101DA000920EB21842724A78057C1D40D207520E3C
:101DB000AA1802748978027C2240C9015118017462
:101DC00070BD012901D0002100E00321027CFC2329
:101DD000134059180174704780B5FEF755FB292050
:101DE0004006402100F001F880BD212291430160AE
:101DF0007047026901239A430A4302617047006BEE
:101E00007047426801239A430A43426070474A433D
:101E100043688B4313434360704770B506462920DF
:101E2000440600290DD00D4632786D1E0020205644
:101E30000028FBD50121204600F008F8761C280672
:101E4000F2D120784007FCD570BD0000491E03295F
:101E50000AD8C0467944097949008F4401070A0D20
:101E600034214254002070470120704782860020B0
:101E70007047826300207047426300207047000073
:101E800070B5184E30681849014031601748332149
:101E900081800721F17371730321090632680A43B7
:101EA00032604021B1733173C0220270B068104AB1
:101EB0000240B2603446083C012520462A46FFF71E
:101EC000A6FF20462946FFF79CFF28050949086020
:101ED00009480168FF229143016030690C210143E8
:101EE000316170BD08000052F1FFCCFF20000052AC
:101EF00085FFFCFF00E100E014E400E001490180FF
:101F00000120704717A2000010B5064C2046FFF7CD
:101F1000F5FF0121C802FFF7C5FC2046FFF7BEFC14
:101F200010BDC0460C00004CF0B59CB0876805465B
:101F30000C3538CD01908030009008931B910297AA
:101F400003951A94049208781B9949780902081895
:101F50001B998978090440181B99C978090640180B
:101F60001290019B98651B9800791B994979090289
:101F700008181B998979090440181B99C979090621
:101F800040181790D8651B98007A1B99497A090266
:101F900008181B99897A090440181B99C97A0906FF
:101FA0004018199018661B98007B1B99497B090201
:101FB00008181B99897B090440181B99C97B0906DD
:101FC0004018149058661B98007C1B99497C0902A4
:101FD00008181B99897C090440181B99C97C0906BB
:101FE0004018189098661B98007D1B99497D09023E
:101FF00008181B99897D090440181B99C97D090699
:1020000040181190D8661B98007E1B99497E0902E2
:1020100008181B99897E090440181B99C97E090676
:102020004018159018671B98007F1B99497F09027B
:1020300008181B99897F090440181B99C97F090654
:1020400040180E90586720201B99085C1B9A20327C
:10205000517809020818917809044018D1780906C6
:1020600040180A90986710795179090208189179F7
:1020700009044018D179090640181690D867107ADB
:10208000517A09020818917A09044018D17A090690
:1020900040180F90009B1860107B517B09020818B4
:1020A000917B09044018D17B0906401813905860B1
:1020B000107C517C09020818917C09044018D17CDD
:1020C000090640180C909860107D517D090208188F
:1020D000917D09044018D17D090640181090D86000
:1020E000107E517E09020818917E09044018D17EA5
:1020F000090640180B901861107F517F09020818DB
:10210000917F09044018D17F090640180D9058614D
:1021100028466040089A10406840381812994018C4
:10212000FC49401819210691C841114684181046EF
:102130001A99484020401A99484017996918081878
:10214000F54940181426F041071920465040384000
:10215000504013461A99199A89180818EF494018DF
:102160000F210991C841C1193846604008406040BC
:10217000149A9A181018EA4A80180A220792D04135
:1021800040180D467D4005407D40189BE4186419B9
:10219000E44D6419069AD441241805464D40254063
:1021A0004D40119BFF187D19DF4FED190596F54144
:1021B0002F19254645403D404540159BC9184919F2
:1021C000DA4D4919099BD941C9193D4665400D4071
:1021D00065400E9BC0184019D54D4019079BD8414A
:1021E00040180D467D4005407D400A9BE418641967
:1021F000D04D6419D441241805464D4025404D402A
:10220000169BFF187D19CC4FED19F5412F19254666
:1022100045403D4045400F9BC9184919C74D4919D4
:10222000099AD141CD193946614029406140139B3B
:10223000C0184018C2494018079EF041401929466D
:102240007940014079400C9B1C196118BD4C09195B
:10225000069BD9410C180146694021406940109BFA
:10226000DF197918B84FC919059BD94109192746B3
:1022700047400F4047400B9B5D19ED19B34FED19D7
:10228000D5416B180D4665401D4065400D9F3818BF
:102290004019AF4D4019F041C2181046584008404F
:1022A0005840179D2C192018AA4C00191B2405947E
:1022B000E04184182046504018405040159D691850
:1022C0000818A54940181726F04135460696071903
:1022D00038466040104060401399C91808189F495B
:1022E000401812210791C841C11908467840204082
:1022F0007840129B9A181018994A80180C2209925B
:10230000D04142181046484038404840119B1C19A3
:102310002018944C0019059EF04184182046504026
:10232000084050400F9BDF1938188F4FC019E84103
:10233000071938466040104060400D9B5918081836
:102340008A4940180799C841C11908467840204079
:102350007840189DAA181018854A8018099AD0410B
:10236000401802464A403A404A40169D2C19A2188D
:10237000FD4C1219F2411418224642400A404240D4
:102380000B9BDF19BA18F94FD219069BDA411719BE
:102390003A46624002406240149D69188918F44A26
:1023A0008918079EF141C9190A467A4022407A40AD
:1023B0000A9B18188018EF4A8018099AD0414018D3
:1023C00002464A403A404A40109D2C19A218EA4C55
:1023D0001219059CE2411418224642400A4042402C
:1023E000199DEF19BA18E54FD219069DEA41151942
:1023F0002A466240024062400E9F79188918E04ADE
:102400008918F14149190A466A40174627406F402A
:102410000C9E3018C019DB4FC019099EF0414718B7
:102420007A40119800198018D74A80181C26F0416C
:102430000996C4193846484060405A191018D34AC2
:10244000801815220692D041051920467840684030
:10245000139A51180818CE49401810210591C84107
:1024600042192946614051400B98C7197918C9484B
:102470000F1809200790C741BF18104668407840E0
:10248000179B1C192018C44C0019F041C419384678
:1024900050406040189B5D192818C04D401906999E
:1024A000C84105192046784068400E9B9A181018BC
:1024B000BB4A8018059EF04140192A4662404240BE
:1024C0000F9BDF19BA18B74FD219079BDA411718BB
:1024D00002466A407A40109B1C19A218B24C12198D
:1024E000099BDA41D4193A4642406240129B5D1979
:1024F000AA18AE4D5219CA41151922467A406A40AF
:10250000149B18188018AA4A8018F04140192A46CE
:1025100030E0C04678A46AD756B7C7E8DB702024FD
:10252000EECEBDC1AF0F7CF52AC68747134630A853
:10253000019546FDD8988069AFF7448BB15BFFFFEA
:10254000BED75C892211906B937198FD8E4379A65A
:102550002108B44962251EF640B340C0515A5E2698
:10256000AAC7B6E95D102FD65314440281E6A1D85C
:10257000C8FBD3E762404240159BDF19BA188D4F64
:10258000D2190799CA41171802466A407A40169B29
:102590001C19A218884C1219099BDA41D4193A4621
:1025A000424062400C9B5D19AA18844D5219069B4B
:1025B000DA41121925467D4055400D9B18184019E7
:1025C0007F4D4019F0418018134663404340199DE8
:1025D000ED19EB187B4D5B19CB411918D3430B4315
:1025E0004340129D2C19E318774C1B191A240994A7
:1025F000E3415C18C34323434B400E9DAA18D218F5
:10260000724BD2181626F2411519CA432A4362406A
:102610000B9B181880186E4A801811221292D04114
:102620004719E04338436840119B59180818694915
:1026300040180B211191C841C019E9430143794069
:102640000C9B1C196118644C0919099AD1410C188A
:10265000F94321434140149B5D1969185F4D4919A5
:102660000E96F1410D19C143294361400F9BDF19BB
:1026700079185B4FC919129BD9414F19E14339436E
:102680006940179B18184018564940181199C841BD
:10269000C019E943014379400A9B1C196118524C47
:1026A0000919D1410918FC430C4344400D9B5D19A5
:1026B0002C194E4D6419F4416518C4432C434C4009
:1026C000159BDF193C194A4FE419129AD441671936
:1026D000CC433C436C40109B18180019454C001922
:1026E000119EF041C419E84320437840189B5918C3
:1026F0000818414940180999C8410019F943014394
:102700006140139B5D1969183C4D49190E9BD941D5
:102710000918E5430D434540199BDF197D19384FD2
:10272000ED19D5416A18089BD518C74317434F4088
:10273000169B1C19E419029F324BE418F4412B1923
:10274000039D1A9C1419049A4D191B99C7194031FD
:10275000403A01D0FFF7F1FB019887600C3038C098
:1027600008461CB0F0BDC046E6CDE121D60737C310
:10277000870DD5F4ED145A4505E9E3A9F8A3EFFC5C
:10278000D9026F678A4C2A8D4239FAFF81F6718728
:1027900022619D6D0C38E5FD44EABEA4A9CFDE4B55
:1027A000604BBBF670BCBFBEC67E9B28FA27A1EA71
:1027B0008530EFD4051D880439D0D4D9E599DBE6FE
:1027C000F87CA21F6556ACC4442229F497FF2A4323
:1027D000A72394AB39A093FCC3595B6592CC0C8FB3
:1027E0007DF4EFFFD15D84854F7EA86FE0E62CFE7F
:1027F000144301A3A111084E827E53F735F23ABD6E
:10280000BBD2D72A91D386EBA44841780278914273
:1028100001D1FF2070478278521E8A4201D04A1CA3
:1028200000E0002242704018C078704710B56F4831
:1028300000240480FEF77AF90148047010BDC046F8
:10284000B005002010B56E4800242146FFF7B9FA04
:102850000320FEF7BBFF3548012101704448047096
:1028600010BDC04680B566480121FFF7AAFA684846
:102870000078414241413E4801702C4800210170DE
:1028800080BDC0463A4800210170012202722748EB
:1028900001705D4802605E480270704780B5FDF7C8
:1028A00035FE80BD80B50E480078012803D154481C
:1028B0000121FFF786FA2E480022027001210172E1
:1028C0005148016051480270514801705148062337
:1028D0000370D043504A10605048FFF772FA80BD31
:1028E000AD05002010B5464800242146FFF769FADF
:1028F0000320FEF76BFF1E4804700121017242485D
:1029000001604248047042480170424801704248E8
:10291000062202604148FFF754FA10BD0348012126
:1029200001701348002101707047C046A8010020C3
:1029300010B5AB20C00501242146FFF742FA30480C
:102940002146FFF73EFA0A480021017004722E4822
:1029500004602E4801702E4804702E480622027032
:10296000C8432D4908602D482146FFF72AFA10BDBB
:1029700031000041F0B581B01C48012404801C489E
:1029800000881C490880FEF7D1F8384F3C701A487F
:1029900010252946FFF741FA00263E70AB20C005FE
:1029A0003146FFF70EFA1548066015483146FFF725
:1029B00008FA0320FEF70AFF12482146FFF701FA42
:1029C000B81E0A3F3E7004700F4804600F4806703E
:1029D0000F4804700F48022101700F4805600F482E
:1029E0002146FFF7EEF901B0F0BDC046040000201B
:1029F0004A010020FE0000206C010020A4010020FC
:102A0000000086550000015510010020AE05002091
:102A1000190100200D01002014010020000086563D
:102A200072B6FEF779F8FEF775F9FEF7EDF9FFF7E4
:102A300049F8FFF725FAFFF767FA29204006012435
:102A40002146FFF7D6F9FEF7ADF8552000062146DE
:102A5000FFF7B7F9054800210170072000F020F8C2
:102A600062B6FEF75BFB00F02DF8FAE73B00004191
:102A700010B50A494B788A78521E002B02D19A422F
:102A800000D110BD0B78CC18E0709A4202D0581CCF
:102A9000087010BD0020087010BDC0460401002061
:102AA000B0B50446064D2846FFF728FA2046FEF743
:102AB0003FFD0120FEF730FD2846FEF7EFFEB0BDDA
:102AC0000C00005D80B5FEF73DFD80BD0FB410B574
:102AD00003A9044B044A029800F018F810BC08BC83
:102AE00004B01847E92D00000000002002E008C8EB
:102AF000121F08C1002AFAD170477047002001E078
:102B000001C1121F002AFBD170470000FFB58FB032
:102B10000F460446002606E025280AD0129A11998D
:102B20009047641C761C20780028F5D1304613B0FD
:102B3000F0BD00250121A14A009500E00543641C79
:102B400023780846203B98401042F7D120782E2861
:102B500015D1042005436078641C2A280AD101CFCE
:102B6000641C00900BE000990A2251433039401850
:102B7000641C00902078014630390929F3D9207867
:102B80006C280ED004DC4C2813D06A2812D104E043
:102B900074280ED07A280DD10BE0012040050543A2
:102BA00007E00121090562780D43824201D16D18C9
:102BB000641C641C2078864669284AD008DC0028FA
:102BC000B4D058286DD0632810D0642808D140E0D4
:102BD00070286BD0732812D0752860D0782860D008
:102BE000129A704611999047761CE5E0387869464C
:102BF00008720020487202A80190012003E03868A2
:102C000001900020C0433F1D69070CD5002500E05E
:102C10006D1C00998D420FDA8542F9DB0199495DFF
:102C20000029F5D108E0002500E06D1C8542FCDBA1
:102C30000199495D0029F8D1761907E001980199B9
:102C40000078491C0191129A119990476D1EF5D296
:102C5000B2E00A20029000216802400F039102288E
:102C60000CD001CFC117844600290DDA6246084610
:102C700052420021814194462D2008E0FF1DFF08AB
:102C8000FF0003CF8446EFE7280504D52B206A46D2
:102C9000107401203CE0E8073AD02020F7E70A2032
:102CA00000E0102000210391029007E01020029024
:102CB0000021042005430820039100906802400F82
:102CC000022810D001CF0021844600200D90280753
:102CD0001FD5704670280CD0029A1020039B4240EA
:102CE0001A430CD015E0FF1DFF08FF0003CF8446F8
:102CF000EBE740206A46107401200D900CE060461E
:102D0000084306D030206A46107470465074022082
:102D10000D907046582804D029A001900DA80E905F
:102D20000DE02CA0F9E76046039B029AFDF740FAFC
:102D3000019B84469B5C0E9A521E0E921370604655
:102D40000843F0D10E9805A9081A203001906807B1
:102D500001D5009801E0012000900199884203DD2F
:102D600001460198081A00E000200025009006E0C6
:102D700004A8129A405D119990476D1C761C0D981D
:102D80008542F5DB04E0129A302011999047761CB9
:102D90000099481E00900029F5DC08E00E980E9975
:102DA0000078491C0E91129A11999047761C01994E
:102DB000481E01900029F1DC641CB4E609280100DA
:102DC00030313233343536373839616263646566A1
:102DD0000000000030313233343536373839414263
:102DE000434445460000000038B504466846047078
:102DF00069460320ABBE204638BD005EBCE2613FA1
:102E0000DD83C29C7E20A3FD1F419DC3217FFCA2C8
:102E1000401E5F01E3BD3E6082DC237D9FC1421CFA
:102E2000FEA0E1BF5D0380DE3C62BEE0025CDF81AC
:102E3000633D7C22C09E1D43A1FF4618FAA427795A
:102E40009BC584DA3866E5BB5907DB856739BAE488
:102E500006581947A5FB7826C49A653BD987045ABA
:102E6000B8E6A7F91B45C6987A24F8A6441A99C76C
:102E7000257B3A6486D85B05E7B98CD2306EEDB31A
:102E8000510F4E10F2AC2F7193CD114FADF3702E48
:102E9000CC92D38D6F31B2EC0E50AFF1134DCE907A
:102EA000722C6D33D18F0C52B0EE326C8ED0530D2C
:102EB000EFB1F0AE4C1291CF2D73CA947628ABF5DA
:102EC00017490856B4EA6937D58B5709EBB5366808
:102ED0008AD495CB2977F4AA4816E9B7550B88D63A
:102EE000346A2B7597C94A14F6A8742AC896154BEC
:102EF000A9F7B6E80A54D7896B3520205230203D17
:102F000020307825580A0D0020205231203D2030F5
:102F10007825580A0D0020204861726420466175AA
:102F20006C742048616E646C65720A0D00000000CC
:102F3000502F000000000020480100007602000031
:102F4000FC2F00004801002078080000FC2A000047
:102F50009153010E5902FE01000100020C44010DC3
:102F60000103373129339D2842013365284202335A
:102F70007529420133E5284201331D2942013345B9
:102F8000288201420133A5284201339D2882028212
:102F90000282028202C202332D2842023385284275
:102FA00002339D282A0100010002FF6400644D02E3
:102FB0000A0406091801000100020B631BB739025D
:102FC000FDFFFFFFFF020F620533140642013CFFC5
:102FD000FFFFFF01010114E6810F35F5A00FE23379
:102FE00020EC3320103320163320043320FE33200E
:0C2FF000F833200A3320DC12200000001F
:04000005000000DB1C
:00000001FF
