:020000040000FA
:1000000030090020D5000000950D0000E50000003B
:10001000FFFFFFFFFFFFFFFFFFFFFFFFFFFFFFFFF0
:10002000FFFFFFFFFFFFFFFFFFFFFFFFE90F0000E4
:10003000FFFFFFFFFFFFFFFFA50F0000BD10000047
:100040000301000003010000FFFFFFFF03010000A8
:100050000301000003010000030100000301000090
:1000600003010000FFFFFFFF030100000301000088
:1000700061110000D11100003912000003010000DD
:1000800003010000A1120000FFFFFFFFFFFFFFFFC1
:10009000ED1400000301000003010000FFFFFFFF5B
:1000A0000301000003010000FFFFFFFFFFFFFFFF50
:1000B0000301000003010000030100000301000030
:1000C0000348854600F07CF80048004765170000AB
:1000D00030090020002001688D460A4880470A4800
:1000E0000047FEE704207146084202D0EFF3098082
:1000F00001E0EFF308807146044A1047FEE7FEE78F
:10010000FEE7FEE7C5100000C100000091080000F6
:1001100030B50B46014600202022012409E00D469F
:10012000D5409D4205D31D469540491B2546954027
:1001300040191546521E002DF1DC30BD03460B431D
:100140009B0703D009E008C9121F08C0042AFAD28D
:1001500003E00B780370401C491C521EF9D2704713
:10016000F0B51FB40646002082B005464024019138
:1001700000901BE0019922460F46304600F042F8FD
:10018000049A059B801A994110D3104619462246BD
:1001900000F028F8361A8F410197224601200021ED
:1001A000009F00F01FF838184D4100902046641E53
:1001B0000028DFDC019B00982946324607B0F0BDDD
:1001C000064C0125064E05E0E36807CC2B430C3CAA
:1001D00098471034B442F7D3FFF776FFA01D000014
:1001E000C01D000010B5202A04DB0146203A9140D2
:1001F000002010BD914020239C1A0346E340194380
:10020000904010BD10B5202A04DB0846203AD040AB
:10021000002110BD0B46D340D0402024A21A9140AB
:100220000843194610BD0000F0B581B00026F44324
:10023000012831D8054610024718F8087C282BD829
:10024000384600F001FBC0B2FF2825D0A842344652
:1002500022D00226304600F0B1F9681E41424141E9
:10026000DF48C15507460024012D00D0E5430C4866
:10027000018849198AB243799B00FA5001802046CF
:1002800001F016FA0749497989007850304600F0A4
:10029000AEFB304600F09CF9204601B0F0BDC046F0
:1002A0000400002010000020F0B581B00D4601468A
:1002B0000027F84302291AD811024919CA087C2AD2
:1002C00015D81C468809C01CC6B2304600F076F925
:1002D0002807000EEC49081810222146FFF72EFFD0
:1002E000304600F084FB304600F072F9384601B029
:1002F000F0BDC046054908607047C046034909681B
:100300000140481E814108467047C0460000014C2C
:1003100090490A78002803D0082002430A707047E9
:10032000F72002400A707047F0B589B0002708979F
:10033000012630040490089007970325680207906F
:100340000697069663490A6863480240634BD218D1
:100350000A602A034B6893434B600A6802400A60B4
:100360007C4C221F116801405C48081805921060FF
:10037000069860602046083808990160A80507992A
:100380000140226882435018206008988003800F43
:1003900005D02804089901407004814203D12068E7
:1003A0001021014321604E4800F0A6F8206820216A
:1003B000019188432060A802079A024023680390B5
:1003C00083439A1822602802079A02402368029009
:1003D00083439A182260079A1205920F334693407E
:1003E0002246103A11680902090F9942F8D107997B
:1003F0008905890F33468B4011680903090F99421B
:10040000FAD1AD0307992940F303994208D1216835
:1004100001980143216011680029FCD54021117029
:10042000079929402068A843084320600798049949
:1004300008402949491E25680D4005432560069856
:10044000606007980004800F3146814010684001C9
:10045000400F8842FAD120460C3807600821A1607D
:100460002048E0602048206193336361276267621F
:10047000A762042020636763A7632068039B184278
:1004800002D020688843206007981840B102884253
:1004900016D00798029908403102884210D02E49A0
:1004A0008888124A1040888007981840984207D0E0
:1004B0000798029B1840984202D008881040088094
:1004C000059A10680449084010600948094901600C
:1004D00009B0F0BD0C00004D0000FFFF17A20000A6
:1004E000981C00000F810000E5110300FF0F0000C1
:1004F0003C00002000127A0081B0002100910069C8
:1005000000901448C16804220A43C2600121090313
:10051000114A13888B4202D193888B4201D01180FB
:100520009180014610390A68D200FAD502220A7079
:1005300003218905009A0A4003688B4399180160DA
:100540001021009A0A4003688B439918016001B09A
:100550007047C0461000014C3400024410B5FFF74C
:10056000E3FE00F025FD00F063F900F0B5FE01F0B8
:1005700041F80C24204601F0A9F8204601F0B2F819
:100580000D24204601F0A2F8204601F0ABF80E241D
:10059000204601F09BF8204601F0A4F811242046E3
:1005A00001F094F8204601F09DF81424204601F053
:1005B0008DF8204601F096F810BD000010B501211D
:1005C0008B020024304A214600F006FA204610BD76
:1005D00080B501210B0200212B4A00F051FB80BDA8
:1005E0002001002070B50024E64302294AD80128E2
:1005F0002CD0002846D10D460220FFF7DFFF22480D
:10060000224903E0491E401C002904D00278FF2A39
:10061000F8D00570F6E7002D01D06A480588A8B229
:1006200069494A799200184EB0500D80204601F079
:100630003FF867494979890070500225284600F043
:10064000D6F92846FFF7C4FF204670BD0024204697
:10065000FFF7B4FF8D480C4D01594A88497989004C
:100660006A50241D1C2CF7D10026304601F020F8DA
:100670005749497989006850304600F0B8F930464A
:10068000FFF7A6FF304670BD20010020E703000001
:1006900010B50022002907D0044BD2B20478544090
:1006A0001A5D401C491EF8D1104610BD961B000073
:1006B000F0B581B000252846294600F085FAAA2821
:1006C00030D10025714E705941790024204600F048
:1006D0007BFA715908802D1D282DF4D100F0BAF84D
:1006E0003B490880394E305901780A277943012562
:1006F000284600F069FA3159C87008787843411CDF
:10070000284600F061FA3159887008787843811CD6
:10071000284600F059FA31594870241D0C2CE2D1BA
:1007200001B0F0BDFF24012628462146324600F0E4
:10073000B3FA30462146324600F0AEFA0220214696
:10074000324600F0A9FA514E70594288417900248E
:10075000204600F0A1FA2D1D1C2DF5D11948428824
:1007600041790225284600F097FA174842884179D6
:10077000284600F091FA154E3059C27800780A27C1
:100780007843C1B20125284600F086FA30598278B4
:1007900000787843401CC1B2284600F07DFA3059F9
:1007A000427800787843801CC1B2284600F074FA81
:1007B000241D0C2CE0D10020AA22014600F06CFA86
:1007C00001B0F0BD400000200400002054000020D3
:1007D00010000020B0B501250024104B284621460A
:1007E0002246FFF761FD0E4B204629462246FFF7C1
:1007F0005BFD02250B4B284629462246FFF754FD98
:100800000321094B20462246FFF74EFD0421074BEA
:1008100028462246FFF748FDB0BDC04660000020D4
:10082000700000208000002090000020A000002028
:10083000002004490A580B185B68136008308028B0
:10084000F8D17047E81C000080B50146022000F096
:10085000B5F980BD70B500252E4603E06D1C022C55
:10086000064608D2ECB2FF21204600F0ADF9B042B6
:10087000F4D83046F2E770BD0A2802D90020C04300
:10088000704780000149085800887047B000002078
:1008900082B001910168214C21604168204F39608C
:1008A0008168204E3160C1681F4D296001691F4A6F
:1008B000116041691E4A116081691E4A1160C06958
:1008C0001D4908601D4800F0CFFF21681C4800F05A
:1008D000CBFF39681B4800F0C7FF31681AA000F051
:1008E000C3FF29681CA000F0BFFF104801681EA0CC
:1008F00000F0BAFF0E4801681FA000F0B5FF0D48D8
:10090000016823A000F0B0FF0B48016826A000F0AA
:10091000ABFF2BA0019900F0A7FFFEE7E800002045
:10092000EC000020F4000020F8000020F00000207F
:10093000DC000020E0000020E4000020881D000012
:100940006C1D00007A1D000020205232203D203016
:100950007825580A0D00000020205233203D203019
:100960007825580A0D0000002020523132203D2009
:10097000307825580A0D00002020537461636B65A0
:1009800064204C52203D20307825580A0D0000008C
:100990002020537461636B6564205043203D2030F8
:1009A0007825580A0D0000002020537461636B65A0
:1009B0006420505352203D20307825580A0D000005
:1009C000202043757272656E74204C52203D203099
:1009D0007825580A0D00000010B50D246406800229
:1009E0000019411810461A46FFF7A8FB10BD80B544
:1009F0000D21490680024018012100F001F880BD58
:100A0000F0B583B0994A13682C4C04400D2255066A
:100A10000122AC424FD1082423404CD0954F3B1FBC
:100A20001A68954C2240954C121902931A603A6844
:100A3000012301931A433A607A68022300931A4310
:100A40007A603A6820241443D02294433C604622C2
:100A50003A73BE22BA81002422463D46103D22262A
:100A60002E70BFF36F8FE34303602B783340022B6C
:100A700008D101239B02C018521C8A42EDD30022E8
:100A8000019D01E0019D2A46029B18687A4C204096
:100A90007A4908431860002038733868F021884389
:100AA000386078680099884378603868A84338606F
:100AB000186820401860104603B0F0BDFF0300FE28
:100AC00070B504460B4D284600F0ECFD012630467B
:100AD000FFF71EFCB007FFF711FC0028FAD020201A
:100AE000FFF708FC284600F05EFA204600F01CF9EB
:100AF00070BDC0460C00014CF0B582B05B4B1C6869
:100B00000123240757D503260D4635406C426C411E
:100B1000064075427541460E0D2E4CD125434AD0F4
:100B20009B4C2368544E3340544D5B1923606368DB
:100B3000012501952B436360A368022500952B4393
:100B4000A360636810251D43E0239D436560462331
:100B50002374BE2323822368334023600023254669
:100B60000C3D22272F70BFF36F8F0E6806602D7823
:100B70003D40022D07D15B1C001D091D9342EED3A1
:100B80000023019D01E0019D2B4620683A4A104058
:100B90003A4908432060002020746068F0218843AF
:100BA0006060A06800998843A0606068A8436060A6
:100BB000206810402060184602B0F0BD0D22520699
:100BC00080028018405C70470D2252068002801817
:100BD0008900405870470000F0B506462348036876
:100BE000234C34400D2045060120AC423DD1082461
:100BF00023403AD01F4C231F18681F4A10401F4A39
:100C00008018186025680120054325606568022763
:100C10003D436560256810222A43E025AA432260EF
:100C200046222273B922A2812546103D22222A7033
:100C3000BFF36F8F31601968E94E3140E94A891876
:100C400019602168F022914321606168B9436160B5
:100C5000216881432160196831401960297889062B
:100C600002D52978890700D50020F0BD1000014C7D
:100C7000030000FE1000004D0000FFFF17A200005F
:100C800080B58900800240180D21490640181146A0
:100C90001A46FFF731FF80BD80B5890080024018F9
:100CA0000D21490640181146FFF796FF80BD000050
:100CB00005490A680123002802D01A430A607047D8
:100CC0009A430A607047C0461000005D04490A68F4
:100CD000F0239A430007000E101808607047C046C2
:100CE0000800005D01480249018070470C00005D6A
:100CF0001420000002480168491C01607047C0468A
:100D00002C0500204D210906086070474D21090679
:100D100009680140091A4842484170470148008863
:100D2000800070472800004DF0B583B00746184D8D
:100D3000E9696868800201D4012425E00191BE08B8
:100D4000012420040290FFF7DDFF284600F0AAFCF2
:100D5000B80501D020023618EE61284600F023F9CC
:100D60000298FFF7D3FF002806D1B600FFF7D6FFA1
:100D7000B04201D1002407E0284600F093FC01981E
:100D8000E861284600F00FF9204603B0F0BDC046E8
:100D90000C00004D7047000080B5814801210170B2
:100DA0002920400600F018FC80BDC04610B5EB4875
:100DB0000024214600F0EAFA77480470CE48047017
:100DC000764801786E4A11700470022000F0A6FC8B
:100DD0006A48017843290ED1417810290BD18178D6
:100DE0001F2008400A280AD01E280BD014280CD136
:100DF00000F074F810BD452000F096F810BD00F02A
:100E000009F810BD00F046F810BDB42000F08CF8D1
:100E100010BDC046F0B581B0584EF078B32401281B
:100E20000BD000282DD13079FFF726FD411C25D0AD
:100E30007071000AB071132423E000252846FFF7E3
:100E40001BFD411C1CD0009499490A681279002AA4
:100E50000CD02A460346EB40B7183C791C433C7142
:100E60000835521C0B681B799A42F3D34448182169
:100E700001701D2000F058F8009C02E0732400E08F
:100E800073243F4809210170204600F04DF801B05D
:100E9000F0BDC04680B53A4804210170374BD87880
:100EA000012808D0002811D19A7959791879DB1DC9
:100EB000FFF7FAF902E0181D00F0BEF819490860C2
:100EC000401C07D0052000F02FF880BDA52000F0C1
:100ED0002BF880BD252000F027F880BD80B527487D
:100EE000C178022909D001290CD0002912D18279B8
:100EF00041790079FFF798F909E041790079FFF726
:100F000071FB04E082794179007900F06FF80549BE
:100F1000086080BD1A4804210170A52000F004F883
:100F200080BDC04624050020F0B581B0124D0121DE
:100F30002970124CA070124E3078411E2046FFF7E7
:100F4000A7FB31780919491E0870072000F076FCCC
:100F50003078002807D00027E05D00F089FB7F1C77
:100F600030788742F8D300F053FB0028FBD00020F4
:100F7000287001B0F0BDC0463B000041FC000020DD
:100F8000D8000020044800210170044801705A482C
:100F90000170034801707047D9000020200500202F
:100FA00028050020704700210180012070470000C3
:100FB0000A4802680A490A400A4BD2180260012214
:100FC00052064260002282600E23C36002614261C9
:100FD000826102680A4002607047C0460C00004C03
:100FE0000000FFFF17A2000070470000F0B581B0BD
:100FF0000024072801D9E4431AE085002C4E7059DB
:101000001202571807802046FFF7D8FA7059407926
:101010008000284D2F50204600F04AFB2649497990
:10102000890068502046FFF7E2FC2046FFF7D0FA1F
:10103000204601B0F0BDC046F0B581B004460025A1
:101040002846FFF7BBFA1A4F0095294609E0009E93
:101050001680B3B25279920016488350491C072972
:1010600014D08B00FA581579002DF0D0FA181268B8
:10107000177900252B462E46E05CA840064308352C
:101080005B1CBB42F8D3E418094FE1E7002420467B
:1010900000F00EFB084949798900064A5050204665
:1010A000FFF7A5FC2046FFF793FA204601B0F0BDFC
:1010B000B0000020200100201000002080B5FFF7C4
:1010C00019FE80BD01480249016070473C000020C4
:1010D000001BB70080B5FFF769FE80BD80B50648EC
:1010E0000178002906D0491C0170C8B2112801D32B
:1010F000FFF748FF80BDC0462905002070477047B4
:1011000010B5164C8021204600F0D0F8012803D1FC
:101110008021204600F0C8F82021204600F0C6F8C3
:10112000012803D12021204600F0BEF810212046DE
:1011300000F0BCF8012805D1FFF7CCFF10212046B4
:1011400000F0B2F80821204600F0B0F8012803D1E1
:101150000821204600F0A8F810BDC0460000015547
:1011600080B503480078800701D5FFF7C9FF80BD2F
:101170006C00005010B5AB20C4058021204600F063
:1011800095F8012803D18021204600F08DF8202118
:10119000204600F08BF8012803D12021204600F0E2
:1011A00083F81021204600F081F8012805D1FFF7CF
:1011B00095FF1021204600F077F80821204600F026
:1011C00075F8012803D10821204600F06DF810BD04
:1011D00080B5FFF7CFFF80BD10B5164C80212046AB
:1011E00000F064F8012803D18021204600F05CF86B
:1011F0002021204600F05AF8012803D12021204662
:1012000000F052F81021204600F050F8012805D1D6
:10121000FFF774FF1021204600F046F80821204611
:1012200000F044F8012803D10821204600F03CF8E2
:1012300010BDC0460000865580B5FFF7CDFF80BDCC
:1012400010B5164C8021204600F030F8012803D15B
:101250008021204600F028F82021204600F026F8C2
:10126000012803D12021204600F01EF8102120463D
:1012700000F01CF8012805D1FFF741FF102120469E
:1012800000F012F80821204600F010F8012803D1E0
:101290000821204600F008F810BDC0460000865620
:1012A00080B5FFF7CDFF80BD016070470068084042
:1012B000411E8841704701221140436893435918E9
:1012C00041607047012A03D142680A434260704777
:1012D00042688A434260704770B5244D291F002040
:1012E00008600822EA60C721A96127242C62032133
:1012F0000B072B60696028601D4D2E1F3060EA606F
:101300002F26AE612C622B6069602860194D2E1F5C
:101310003060EA60184EAE6107262E622B6069606D
:101320002860164D2E1F3060EA60154EAE612C62AB
:101330002B6069602860134C251F2860E260A6615D
:10134000216223606062A0620F4AE26220636063F0
:10135000A063E063A06460642065E064A0656065EC
:101360002066E0656160206070BDC0460C000055DD
:101370000C0001550C0080550F2700000C0086550D
:101380001F4E00000C008656F0F00000027C012980
:1013900003D0FC210A400274704703210A430274FF
:1013A000704770B529204406204600F00FF9064624
:1013B000204600F00FF905463540A8070BD4680613
:1013C00028D428062ED4E80634D428074BD468073E
:1013D00000D586E070BD0126680503D5B102204620
:1013E00000F088F8280503D5F102204600F082F8C5
:1013F000E80403D53103204600F07CF8A80403D5A7
:101400007103204600F076F80221204600F072F8C1
:101410006806D6D500F008F94021204600F06AF8A9
:101420002806D0D500F023F98021204600F062F88C
:10143000E806CAD50126A80303D57104204600F0AA
:1014400059F8680303D5B104204600F053F8E803C7
:1014500003D53104204600F04DF81021204600F05D
:1014600049F82807B3D50126E80203D531052046FF
:1014700000F040F8A80203D57105204600F03AF8C4
:10148000680203D5B105204600F034F8280203D5E0
:10149000F105204600F02EF8E80103D5310620467C
:1014A00000F028F8280103D5F106204600F022F8C4
:1014B000E80003D53107204600F01CF8A80003D54A
:1014C0007107204600F016F8680003D5B1072046E2
:1014D00000F010F80821204600F00CF8680700D44E
:1014E00078E70421204600F005F870BD80B5FFF7CD
:1014F00058FF80BD2122914301607047026901239A
:101500009A430A4302617047F0B583B00446084627
:101510001146FEF7FDFD082801D201214EE00646E6
:1015200001940120009000030290002408273D460A
:1015300004E00D4604467F1C202F15D03046394666
:10154000FEF7E6FD39464143711A09D0781AE2B236
:101550009042394600DA29469042EADA2046E8E726
:1015600002998842E7D23D46019CA0681549014096
:10157000A16030462946FEF7CBFD029988420099CA
:101580001CD8401EA084681EE0756075032000060C
:10159000A1680143A1604020A07520752020C021D2
:1015A00021542069084901402161A0690C210143AF
:1015B000A16120690121014321610021084603B096
:1015C000F0BDC046F1FFCCFF85FFFCFF0068212184
:1015D0008843704740687047006B7047426801233A
:1015E0009A430A43426070474A4343688B4313431C
:1015F0004360704780B5292040064B210A02034909
:10160000FFF782FF401E411E884180BD00127A0014
:101610002920400600684007C00F70472920400677
:1016200000680006C00F704780B5FFF7B5FB0248A1
:101630000121017080BDC04629050020491E0329F3
:101640000AD8C0467944097949008F4401070A0D38
:1016500034214254002070470120704782860020C8
:1016600070478263002070474263002070477047D4
:1016700010B50446FFF7D2FF0028FBD02920400612
:1016800001212246FFF7DAFF10BD10B50446FFF72F
:10169000C5FF0028FBD02920400604212246FFF781
:1016A000CDFF10BD014901800120704717A2000045
:1016B00010B5054C6179FFF787FA411C88B2228882
:1016C000904200D9218010BD10000020002805D4D0
:1016D0001F21084001218140014801607047C04638
:1016E00000E100E0002805D4032102468A430A49AC
:1016F000511806E00F210140083903229143054AA1
:1017000089188007C00EFF22824008689043086055
:101710007047C0461CED00E000E400E010B5002872
:1017200004D0044600F003F8641EFBD110BD10B5D0
:101730005520040610212046FFF7B6FD0121204662
:10174000FFF724FE10212046FFF7B0FD0028F9D056
:1017500000212046FFF71AFE10212046FFF7A4FDC6
:1017600010BD000072B6FEF7F9FE00F05BF8132022
:101770008002FFF7A5F9294F002438462146FFF7DC
:1017800005FE10260125384631462A46FFF79AFD08
:1017900038462946FFF78FFD38463146FFF784FD6E
:1017A000AB20C70538462146FFF7F0FD38463146E5
:1017B0002A46FFF787FD38462946FFF77CFD384665
:1017C0003146FFF771FD2920470638462146FFF7CD
:1017D00095FE402138462A46FFF706FF384629463F
:1017E000FFF7FCFE38462946FFF788FE62B6552013
:1017F00000063146FFF758FD09480570FEF758FF0F
:10180000FEF7E8FF03202146FFF7DEF9FFF73DFF73
:10181000641CFF2CF6D100F023F8FCE70000015512
:101820003B00004110B50D4C2046FFF73BFF002068
:10183000FFF73EFA2046FFF7B6FB10BDB0B50446F1
:10184000064D2846FFF72EFF2046FFF73FFA0120FE
:10185000FFF72EFA2846FFF7A6FBB0BD0C00005D8F
:1018600080B5FFF73FFA80BD0FB410B503A9044B54
:10187000044A029800F018F810BC08BC04B01847DD
:10188000851B00000000002002E008C8121F08C1EC
:10189000002AFAD170477047002001E001C1121FF1
:1018A000002AFBD170470000FFB58FB00F460446F9
:1018B000002606E025280AD0129A11999047641C48
:1018C000761C20780028F5D1304613B0F0BD0025F5
:1018D0000121A14A009500E00543641C23780846D5
:1018E000203B98401042F7D120782E2815D10420B3
:1018F00005436078641C2A280AD101CF641C00903B
:101900000BE000990A22514330394018641C0090C2
:101910002078014630390929F3D920786C280ED077
:1019200004DC4C2813D06A2812D104E074280ED0AD
:101930007A280DD10BE001204005054307E0012185
:10194000090562780D43824201D16D18641C641C44
:101950002078864669284AD008DC0028B4D0582868
:101960006DD0632810D0642808D140E070286BD077
:10197000732812D0752860D0782860D0129A7046EB
:1019800011999047761CE5E0387869460872002086
:10199000487202A80190012003E0386801900020FD
:1019A000C0433F1D69070CD5002500E06D1C009960
:1019B0008D420FDA8542F9DB0199495D0029F5D1A5
:1019C00008E0002500E06D1C8542FCDB0199495DC3
:1019D0000029F8D1761907E0019801990078491C8F
:1019E0000191129A119990476D1EF5D2B2E00A202A
:1019F000029000216802400F039102280CD001CF11
:101A0000C117844600290DDA624608465242002179
:101A1000814194462D2008E0FF1DFF08FF0003CF01
:101A20008446EFE7280504D52B206A461074012070
:101A30003CE0E8073AD02020F7E70A2000E0102039
:101A400000210391029007E0102002900021042061
:101A500005430820039100906802400F022810D02F
:101A600001CF0021844600200D9028071FD5704625
:101A700070280CD0029A1020039B42401A430CD0CD
:101A800015E0FF1DFF08FF0003CF8446EBE7402071
:101A90006A46107401200D900CE06046084306D0A1
:101AA00030206A4610747046507402200D907046C3
:101AB000582804D029A001900DA80E900DE02CA06C
:101AC000F9E76046039B029AFEF74AFB019B8446B6
:101AD0009B5C0E9A521E0E92137060460843F0D122
:101AE0000E9805A9081A20300190680701D50098C2
:101AF00001E0012000900199884203DD0146019830
:101B0000081A00E000200025009006E004A8129AC0
:101B1000405D119990476D1C761C0D988542F5DB50
:101B200004E0129A302011999047761C0099481EC3
:101B300000900029F5DC08E00E980E990078491C09
:101B40000E91129A11999047761C0199481E0190A6
:101B50000029F1DC641CB4E609280100303132337D
:101B600034353637383961626364656600000000D9
:101B700030313233343536373839414243444546C3
:101B80000000000038B5044668460470694603202A
:101B9000ABBE204638BD005EBCE2613FDD83C29C27
:101BA0007E20A3FD1F419DC3217FFCA2401E5F013B
:101BB000E3BD3E6082DC237D9FC1421CFEA0E1BFED
:101BC0005D0380DE3C62BEE0025CDF81633D7C221F
:101BD000C09E1D43A1FF4618FAA427799BC584DA4D
:101BE0003866E5BB5907DB856739BAE406581947FB
:101BF000A5FB7826C49A653BD987045AB8E6A7F9AD
:101C00001B45C6987A24F8A6441A99C7257B3A64DE
:101C100086D85B05E7B98CD2306EEDB3510F4E100C
:101C2000F2AC2F7193CD114FADF3702ECC92D38DBA
:101C30006F31B2EC0E50AFF1134DCE90722C6D336C
:101C4000D18F0C52B0EE326C8ED0530DEFB1F0AE9E
:101C50004C1291CF2D73CA947628ABF517490856CC
:101C6000B4EA6937D58B5709EBB536688AD495CB7A
:101C70002977F4AA4816E9B7550B88D6346A2B752C
:101C800097C94A14F6A8742AC896154BA9F7B6E85E
:101C90000A54D7896B3500000000000000000000E6
:101CA000000001000000000000060000010000002C
:101CB000080000000F810000E51103009380000080
:101CC0000000000000000000000000000000000014
:101CD0000400000000000000000000000000000000
:101CE00000127A00000000004000004400000000E4
:101CF000000000410000000000000144030000005B
:101D00000400014402000000080001440200000039
:101D10000C000144230000002000014402000000E8
:101D200024000144020000002800014402000000D9
:101D30002C000144020000004000014400000000AB
:101D400020000041000000000000024422A000002A
:101D50000400024421A000004000024400000000F2
:101D600040000041FF7F00000000000020205230B2
:101D7000203D20307825580A0D0020205231203D8A
:101D800020307825580A0D002020486172642046D2
:101D900061756C742048616E646C65720A0D000098
:101DA000C01D000000000020D800000088180000BE
:101DB000981E0000D8000020580800009818000065
:101DC000000000000000000002FE58025802020D50
:101DD0000100010002FF00000000010F03000300EA
:101DE000020A00000000011005000500020C1E00A0
:101DF0001E00020B00000000010E0000001BB700D7
:101E00000000000002FD01000000000002000000D0
:101E1000000000001A010020460000204C000020B5
:101E20000114E6810F0000F5000000000000000032
:101E300001D8D373010000C30000000000000000BF
:101E4000013A6F14090000D90000000000000000F2
:101E50000137476E090000E60000000000000000A6
:101E6000013769C90900009300000000000000006C
:101E70001C0000202E000020280000200A00002066
:101E80003400002016000020220000204000002026
:081E90000400002010000020F6
:04000005000000DB1C
:00000001FF
