:020000040000FA
:10000000D0090020D5000000E3000000E50000005A
:10001000FFFFFFFFFFFFFFFFFFFFFFFFFFFFFFFFF0
:10002000FFFFFFFFFFFFFFFFFFFFFFFFFD000000DF
:10003000FFFFFFFFFFFFFFFFFF00000001010000C7
:100040000301000003010000FFFFFFFF03010000A8
:100050000301000003010000030100000301000090
:1000600003010000FFFFFFFF030100000301000088
:10007000D9200000092100001D210000030100001B
:100080000301000031210000FFFFFFFFFFFFFFFF22
:10009000112200000301000003010000FFFFFFFF29
:1000A0000301000003010000FFFFFFFFFFFFFFFF50
:1000B0000301000003010000030100000301000030
:1000C0000348854600F0A4F800480047912E000040
:1000D000D0090020002001688D460A4880470A4860
:1000E0000047FEE704207146084202D0EFF3098082
:1000F00001E0EFF308807146044A1047FEE7FEE78F
:10010000FEE7FEE72D1E0000C1000000A51500005F
:1001100003460B439B0703D009E008C9121F08C020
:10012000042AFAD203E00B780370401C491C521ECB
:10013000F9D27047D2B201E00270401C491EFBD2D6
:1001400070470022F6E710B513460A4604461946E2
:10015000FFF7F0FF204610BD30B5044600200346EF
:1001600000E05B1C934203D2E05CCD5C401BF8D006
:1001700030BD70B50446002903D0002020220123A1
:1001800010E0002801D00020C043C046C0460DE06A
:100190002546D5408D4205D30D469540641B1D462E
:1001A000954040191546521E002DF1DC214670BDC8
:1001B000F0B51FB40646002082B0054640240191E8
:1001C00000901BE0019922460F46304600F042F8AD
:1001D000049A059B801A994110D31046194622466D
:1001E00000F028F8361A8F4101972246012000219D
:1001F000009F00F01FF838184D4100902046641E03
:100200000028DFDC019B00982946324607B0F0BD8C
:10021000064C0125064E05E0E36807CC2B430C3C59
:1002200098471034B442F7D3FFF74EFFCC330000A9
:10023000EC33000010B5202A04DB0146203A91403F
:10024000002010BD914020239C1A0346E34019432F
:10025000904010BD10B5202A04DB0846203AD0405B
:10026000002110BD0B46D340D0402024A21A91405B
:100270000843194610BD30B58C180278401C13078E
:100280001B0F01D10378401C120906D10278401CD3
:1002900003E005780D70401C491C5B1EF9D101E09C
:1002A0000B70491C521EFBD1A142E6D3002030BD89
:1002B000F0B581B006460020C443012E37D8D44B98
:1002C0001B88002B33D009024B0A30D18D18D2493C
:1002D000695CFF292BD0B142044628D00127BA021D
:1002E000CA4CEA492046FFF713FF701E41424141C4
:1002F00061550024012E00D0E643C64801888919C3
:100300008AB243799B00C14EF2500180384602F018
:1003100003F8C249497989007050DC4D28463946B6
:1003200001F0E4F93A022846314601F037FA204656
:1003300001B0F0BDF0B585B01C4607460023D84398
:10034000022F7AD8154609024A0A76D10493491930
:1003500003910D2040068909891CC9B28902091838
:1003600002910126B202A9480192FFF7D1FEA80628
:10037000800DA649081810222146FFF7C9FE029DEC
:100380002846314601F0B2F90096340228469F49CA
:10039000224601F003FABD4803990D5CBD4202D12B
:1003A000049805B0F0BD0E469848B849019AFFF789
:1003B000AFFE002D11D0012D16D0FF2D29D1012F18
:1003C0001BD1924D0098A855924841798900028826
:1003D000521C93B26B50028012E0012F19D18B4D49
:1003E0000098A8558B490CE0002F12D10020874DB2
:1003F000A85588490888401E05E00020834DA8556F
:10040000A0490888401C0880491D80B209788900ED
:1004100068500125284601F07FFF8049497989000D
:100420007A4F7850994E3046294601F05FF93046B0
:100430003946224601F0B2F9049805B0F0BDC04635
:1004400080B50B468F490A88110AD2B2FFF772FFB6
:1004500080BDC04680B50B4600018B494118102273
:100460001846FFF755FE002080BDC04610B5024675
:100470000020082A01D9C04310BD9200AA4B9C5805
:1004800064780C709A5812784A7010BD10B500212B
:10049000A54A04E00370091D401C24290AD05458C1
:1004A00023882479022CF5D11B0A037053581B783A
:1004B000401CEFE7002010BDF0B581B0144C20883F
:1004C000401C564E30800D2045060121284601F083
:1004D0000DF9AA21284601F0C1F93188204601F022
:1004E000BDF90027904EF1594879800028430988CA
:1004F00001F0B4F93F1D182FF5D1206805490968AE
:10050000884200D808464549088001B0F0BDC04681
:10051000FC03001AFC07001AF0B581B00D46014635
:100520000024E04300293DD0012939D17E4E3068B6
:100530004188008888420BD1002001460A1D102AFC
:100540002ED0711849684B88098899421146F5D018
:100550000D204706012082022C4D28463946FFF720
:10056000D7FD204631584A884B799B00EA504A888B
:100570000A80001D1028F5D12646304601F0CCFE39
:10058000264949798900214D68500126384631466F
:1005900001F0ACF832023846294601F0FFF8204657
:1005A00001B0F0BD012DFBD8364909880029F7D0EC
:1005B00018480088012D01D1884203D0002D04D1B4
:1005C000002802D1204601B0F0BD01260091B20200
:1005D0000E4F2E493846FFF79BFD009A3002FF3040
:1005E00003E0401E7F1C002804D03978FF29F8D092
:1005F0003D70F6E7002D00D12A46064B5879800061
:1006000002490A501A80214FB7E7C046B8010020BE
:10061000F80000200A0000200004001ADC0000207E
:10062000F0B581B015480821154A01F0E3F91548E5
:100630000788781E3A468241002F1AD00025124CB6
:10064000124E03E000221034AF4212D0A85D012800
:1006500008D10092102220460949FFF77DFD009A3B
:10066000002804D06D1CBD42ECD20122EBE7084803
:1006700005800120104001B0F0BDC0468C01002073
:100680007C010020F80000200008001A0004001A75
:100690005A010020B0B50024042801D9E043B0BDC0
:1006A000054608028018A9001F4A51580A8890423E
:1006B00005D00880FFF700FF284601F055FB2046D3
:1006C000B0BDC04670B504460020174D21462A58DB
:1006D0001379022B05D14B780E783602F318491C9A
:1006E00000E00B7812889A4204D10C281AD0001D21
:1006F000491CECE7002608E00180F0B201F034FB71
:100700002D1D761C641C042E0AD0217828680279DD
:10071000022AF1D10902018062788918641CEBE792
:10072000FFF7CAFE002070BD3001002070B52148DF
:10073000012404701E4D2878012803D0434E3078E0
:100740001E2804D12920400601F075FD70BD292026
:10075000400601F070FD3278E84988543078421C38
:100760003270022806D18878C006800F0849085CDC
:100770000E49087031780D480278914206D1007810
:10078000002803D02C70072002F0C4FB70BDC046C7
:10079000E80000202D480021017004480170044841
:1007A000017004480170D448017070479401002022
:1007B000C4050020CC050020F0B581B023480078A6
:1007C000CC4F3870CD4C207843283CD1607810282D
:1007D00039D1A1781F2008400A2807D01E2809D047
:1007E00014280BD100F072FA01B0F0BD00F030F81F
:1007F00001B0F0BD00F088F901B0F0BDBE4E01209F
:100800003070B420A0703878411E204600F020FDE2
:1008100039780919491E0870292045063F78002FAC
:100820000CD02278002028560028FBD5012128462C
:1008300001F014FD641C7F1E3806F2D128784007B1
:10084000FCD50020307001B0F0BDC046BD050020D1
:10085000F0B581B0A74E307806282CD13178A74C5E
:10086000204600F047FB00284DD009203070A24FF1
:1008700001203870F320A0703078411E204600F02F
:10088000E7FC31780919491E087029204506367899
:10089000002E0CD02278002028560028FBD50121FC
:1008A000284601F0DBFC641C761E3006F2D1287865
:1008B0004007FCD523E0904F012038708F4C9320E7
:1008C000A0703078411E204600F0C2FC3178091932
:1008D000491E0870292045063678002E0CD0227853
:1008E000002028560028FBD50121284601F0B6FC3F
:1008F000641C761E3006F2D128784007FCD5002013
:10090000387001B0F0BDF04CE078022832D00128F8
:1009100063D0002800D08AE0EB4C2079611DFFF7FE
:10092000A5FD09213170401C00D1DEE0E54F01201A
:1009300038701320A0703078411E204600F088FCEB
:1009400031780919491E0870292045063678002E8D
:100950000CD02278002028560028FBD501212846FB
:1009600001F07CFC641C761E3006F2D1287840072A
:10097000FCD5C4E762490888498888427DD10920AE
:100980003070D14C0027E771A77167712771CD498D
:10099000012008701320A0703078411E204600F01E
:1009A00057FC31780919491E087029204506367808
:1009B000002E0BD02278E8570028FCD501212846CC
:1009C00001F04CFC641C761E3006F3D128784007F9
:1009D000FCD5BC48077001B0F0BDBB4C201DFFF733
:1009E00055FD18203070B74F012038701D20A070C1
:1009F0003078411E204600F02BFC31780919491E41
:100A00000870292045063678002E0CD02278002068
:100A100028560028FBD50121284601F01FFC641C44
:100A2000761E3006F2D128784007FCD567E709200A
:100A30003070A44F01203870B320A0703078411E70
:100A4000204600F005FC31780919491E087029205C
:100A500045063678002E0CD0227800202856002833
:100A6000FBD50121284601F0F9FB641C761E3006F7
:100A7000F2D128784007FCD541E7934CA0710027BC
:100A80002771000A6071E01D1E491022FFF740FB2C
:100A9000182030708B49012008701D20A07030781C
:100AA000411E204600F0D4FB31780919491E087018
:100AB000292045063678002E0BD02278E8570028EA
:100AC000FCD50121284601F0C9FB641C761E3006C6
:100AD000F3D10B4928784007FCD5ED4807704888CA
:100AE0000880FFF7E9FC01B0F0BD732000F0D2F9F7
:100AF00001B0F0BD580100203B00004195010020ED
:100B0000FE0000207C010020F0B581B0F84F38785D
:100B1000F54E18282BD13978F44C204600F0EAF92C
:100B200004213970002849D001203070E520A070E0
:100B30003878411E204600F08BFB39780919491E90
:100B40000870292045063F78002F0CD0227800201D
:100B500028560028FBD50121284601F07FFB641CA4
:100B60007F1E3806F2D128784007FCD522E001200C
:100B70003070DE4C8520A0703878411E204600F091
:100B800067FB39780919491E0870292045063F7806
:100B9000002F0CD02278002028560028FBD50121F8
:100BA000284601F05BFB641C7F1E3806F2D12878D2
:100BB0004007FCD50020307001B0F0BDCB4CE07890
:100BC00001280DD0002810D1C84B18799A7959798D
:100BD000FF292DD1FF2A2BD1D91DFFF731FC2AE0A7
:100BE000C248001DFFF76EFD25E001203070A520F2
:100BF000A0703878411E204600F02AFB3978091988
:100C0000491E0870292045063F78002F0CD0227815
:100C1000002028560028FBD50121284601F01EFBA4
:100C2000641C7F1E3806F2D128784007FCD5C1E746
:100C3000DB1DFFF77FFB01213170AC4C401C20D045
:100C40000520A0703878411E204600F001FB39785D
:100C50000919491E0870292045063F78002F0CD03D
:100C60002278002028560028FBD50121284601F0D3
:100C7000F5FA641C7F1E3806F2D128784007FCD5AF
:100C800098E72520A0703878411E204600F0E0FA51
:100C900039780919491E0870292045063F78002F28
:100CA0000CD02278002028560028FBD501212846A8
:100CB00001F0D4FA641C7F1E3806F2D12878400770
:100CC000FCD577E73B00004195010020F0B581B0ED
:100CD000874F3878844E09282BD13978834C2046A9
:100CE00000F008F900284BD009203870012030703E
:100CF000E520A0703878411E204600F0A9FA397826
:100D00000919491E0870292045063F78002F0CD08C
:100D10002278002028560028FBD50121284601F022
:100D20009DFA641C7F1E3806F2D128784007FCD556
:100D300022E0012030706D4C8520A0703878411E73
:100D4000204600F085FA39780919491E08702920D3
:100D500045063F78002F0CD0227800202856002826
:100D6000FBD50121284601F079FA641C7F1E380664
:100D7000F2D128784007FCD50020307001B0F0BDDA
:100D80005A4CE07802280AD001280ED0002859D108
:100D90005648827941790079FFF78AFA0BE0534887
:100DA00041790079FFF7B8FB05E050488279417935
:100DB0000079FFF76FFC042139700121317029217E
:100DC0004C064A4D401C1ED00520A8703878411EA4
:100DD000284600F03DFA39784919491E08703F78D5
:100DE000002F0CD02A78002020560028FBD50121A6
:100DF000204601F033FA6D1C7F1E3806F2D12078B0
:100E00004007FCD5B8E72520A8703878411E284651
:100E100000F01EFA39784919491E08703F78002FF2
:100E20000CD02A78002020560028FBD5012120462E
:100E300001F014FA6D1C7F1E3806F2D120784007AD
:100E4000FCD599E70420387001203070A520A070EF
:100E50003878411E204600F0FBF939780919491EFF
:100E60000870292045063F78002F0CD022780020FA
:100E700028560028FBD50121284601F0EFF9641C13
:100E80007F1E3806F2D128784007FCD574E7C046AB
:100E90003B000041F0B581B0134E01213170134C7D
:100EA000A070134F3878411E204600F0D1F93978F0
:100EB0000919491E0870292045063F78002F0CD0DB
:100EC0002278002028560028FBD50121284601F071
:100ED000C5F9641C7F1E3806F2D128784007FCD57E
:100EE0000020307001B0F0BD3B00004195010020B2
:100EF0005801002070B50022491E08D0DB4B044683
:100F00000D46267856409A5D641C6D1EF9D1405CF2
:100F1000101A411E884170BD044908607047C046E0
:100F2000024909680840411E884170470000014C91
:100F3000411E8841C0009B490A78F72313401818C6
:100F400008707047F0B58DB000200B900A900990A2
:100F50009E490A78012632430A7031040B916121BF
:100F6000090106910A9109968C490B888C4C0C80DA
:100F70008B791022049213438B7103252B034F6846
:100F80009F434F600B88088086490A1F138802928E
:100F90001480099B4B600B46083B0B9C1C600AAB02
:100FA0009B78C022079213408C783F220592144010
:100FB000E3188B700B460C3B18600BAB9B789B07C0
:100FC00004D00BAB9B782B40022B03D10C78049AF6
:100FD000144302E00C78049A94430C700C90069A27
:100FE0000C920B7B0422019213430B7334036E4A61
:100FF0001388A34202D19388A34201D01480948025
:10100000009408950C460D3C2378DB06FAD50A4679
:10101000103A0223039213700CAB9A78079D2A4072
:101020008D78059F3D40AA188A701A78049B1A4053
:101030000B78EF251D40AA180A700C90069A0C92A6
:101040000CAA9278019B1A408B78FB251D40AA18A8
:101050008A700A78120703D40A78082313430B70A6
:10106000069022785206FCD52023039803700A6864
:1010700004939A430A600AAF7B780C2213404D78A0
:10108000F3202840C01848707878089B18404B78A7
:10109000FC251D402818487078780007800F3346DB
:1010A00083400F460E3F387800098342F9D10AA8E1
:1010B0004078089B18403346834038780F25054018
:1010C0009D42FAD10AA84078079B184080280AD18F
:1010D0000878049B18430870D04308560028FBD5B5
:1010E0004020039B18700AAD6878079B18404B7826
:1010F000059F3B4018184870A87830408B78FE2731
:101100001F403818887009984860687880098640C0
:10111000207807230340B342FAD10820886023488F
:1011200003467C33CB60224B0B6148610698086212
:101130004862886208634863886348780007800FC4
:10114000089C03D00878F72303400B700AA8407866
:101150001040042818D00AA840782040012813D055
:101160000098411E104B9888084098800AA8407843
:1011700010400C2808D00AA840782040032803D04B
:10118000094A10880840108002990888069808804B
:101190000848094901600DB0F0BDC0460C00004D83
:1011A00017A2FFFF1000014C34000244938000009E
:1011B000E5110300F400002000127A0080B5FFF76B
:1011C000C1FE02480121017080BDC0460400034CED
:1011D000B0B500F0C9FC002816D0332000F0ECFCBC
:1011E00000250A4C00F08EFC60556D1C082DF9D1CD
:1011F0002078012808D1E5790721204600F028F859
:10120000291A48424841B0BD0020B0BD8C010020E1
:1012100080B50C480088002803D0E0480221017006
:1012200080BD09480088002807D0DC4802210170F1
:101230000648012100F0E1FF80BDD848002101707F
:1012400080BDC046160000200400002000000155AB
:1012500010B50022002907D0044BD2B204785440C4
:101260001A5D401C491EF8D1104610BD9632000090
:10127000F0B583B09B48002404704470C47101250C
:101280000572029544728472974E03210191304693
:1012900000F052F93046294600F060F93046214608
:1012A00000F032F93046214600F03FF93046214641
:1012B00000F04BF93046214600F02EF93046214629
:1012C00000F016F9351D02272846394600F034F99A
:1012D0002846214600F042F92846214600F014F93C
:1012E0002846214600F021F92846214600F02DF934
:1012F0002846214600F010F92846214600F0F8F86B
:10130000354608352846394600F016F92846214664
:1013100000F024F92846214600F0F6F82846214638
:1013200000F003F92846214600F00FF9284621462F
:1013300000F0F2F82846214600F0DAF835460C3580
:101340002846019900F0F8F82846029900F006F9BD
:101350002846214600F0D8F82846214600F0E5F856
:101360002846214600F0F1F82846214600F0D4F83E
:101370002846214600F0BCF8354620352846394637
:1013800000F0DAF82846214600F0E8F82846214621
:1013900000F0BAF82846214600F0C7F82846214652
:1013A00000F0D3F82846214600F0B6F8284621463A
:1013B00000F09EF8354624352846394600F0BCF842
:1013C0002846214600F0CAF82846214600F09CF83D
:1013D0002846214600F0A9F82846214600F0B5F835
:1013E0002846214600F098F82846214600F080F86B
:1013F000354628352846394600F09EF828462146CD
:1014000000F0ACF82846214600F07EF82846214638
:1014100000F08BF82846214600F097F82846214630
:1014200000F07AF82846214600F062F82C36304663
:10143000394600F081F83046214600F08FF83046FA
:10144000214600F061F83046214600F06EF8304643
:10145000214600F07AF83046214600F05DF830462B
:10146000214600F045F8214E3046394600F064F838
:101470003046029F394600F071F83046214600F0B0
:1014800043F83046214600F050F83046214600F03F
:101490005CF83046214600F03FF80A2530462946E0
:1014A00000F026F8361D3046394600F045F8304643
:1014B000394600F053F83046214600F025F8304612
:1014C000214600F032F83046214600F03EF8304622
:1014D000214600F021F83046294600F009F803B013
:1014E000F0BDC0463100004100000144000002444C
:1014F0000268044B1340090319430122D2078918DB
:1015000001607047FF0FFF7F0278F7231340C90780
:10151000090F591801707047032292020368934320
:10152000036002680A430260704702787F23134019
:10153000C901591801707047026807239A43026075
:1015400002781A400A4302607047032212020368BD
:101550009343036002680A43026070470278DF2306
:101560001340C907890E59180170704770B501F012
:1015700065FBFF2810D00146084C20788201084DF9
:10158000AA18CE0092195268002A00D090472078FD
:1015900080012818805D207070BDC046B401002015
:1015A0001C00002082B001910168214C216041683B
:1015B000204F39608168204E3160C1681F4D29601D
:1015C00001691F4A116041691E4A116081691E4A02
:1015D0001160C0691D4908601D4801F0C5FC216803
:1015E0001C4801F0C1FC39681B4801F0BDFC3168A2
:1015F0001AA001F0B9FC29681CA001F0B5FC104844
:1016000001681EA001F0B0FC0E4801681FA001F0A7
:10161000ABFC0D48016823A001F0A6FC0B48016853
:1016200026A001F0A1FC2BA0019901F09DFCFEE792
:10163000680100206C010020740100207801002066
:10164000700100205C010020600100206401002086
:10165000B233000096330000A43300002020523241
:10166000203D20307825580A0D00000020205233FC
:10167000203D20307825580A0D00000020205231EE
:1016800032203D20307825580A0D00002020537468
:1016900061636B6564204C52203D20307825580AE8
:1016A0000D0000002020537461636B65642050437B
:1016B000203D20307825580A0D000000202053746A
:1016C00061636B656420505352203D20307825586B
:1016D0000A0D0000202043757272656E74204C5212
:1016E000203D20307825580A0D000000F0B581B06B
:1016F0007E4A127839239B06C3185B0E01277F2B85
:1017000047D3254B034044D108231A4041D0784C9D
:10171000231F1A88774A1A802568012215432560FD
:101720006668022500952E436660266820273743A9
:10173000D026B743276046262673BE26A6810129F8
:1017400000D811462246103A22271770BFF36F8F38
:101750000026F543056015783D400122022D06D193
:101760000125AD024019491EECD1374600E017466D
:10177000009D39491888198026732068F021884314
:1017800020606068A84360602068904320601888EB
:101790001E80384601B0F0BDFF030000F0B581B0F7
:1017A000524B1B7801261B0752D503230C461C40C5
:1017B000651EAC4103405D1EAB413925AD064519A0
:1017C0006D0E7F2D44D3234042D1C34C2388494B17
:1017D0002380656801231D436560A6680225009586
:1017E0002E43A660666810273743E026B74367603C
:1017F00046262674BE262682268800272780012AB0
:1018000000D81A4623460C3B22261E70BFF36F8F6A
:101810000D6805601D7835400123022D06D1521E4A
:10182000001D091D002AEDD13E4600E01E4620881D
:101830000948208027746068F02188436060A068B0
:1018400000998843A0606068984360602088278082
:10185000304601B0F0BDC04617A20000F0B5054605
:1018600022480378392080062818440E01207F2C56
:101870003AD303242C4037D10824234034D01C4CC5
:10188000231F18881B4818802668012006432660FD
:101890006768022637436760276810223A43E027CB
:1018A000BA43226046222273B922A2812746103F02
:1018B00022223A70BFF36F8F296019880D49198071
:1018C0002168F022914321606168B1436160216821
:1018D000814321601988002119803A78920602D547
:1018E0003A78920700D50846F0BDC0461000014C7A
:1018F0001000004D17A2FFFF411E884103490A78DE
:10190000FE231340181808707047C0461000005D91
:1019100003490A780F231340000118180870704714
:101920000800005D01480249018070470C00005D1D
:1019300014200000F0B581B00C46054608683F272A
:1019400038400A4618328021009211544740401C0A
:1019500026465036072F0BD8201818303946FEF788
:10196000F0FB4027204600993A4600F0F7FC0020A3
:1019700020181830083F3946FEF7E3FB03CC7160AE
:10198000410DF170410BB17041097170C0003070B0
:10199000083C206040222046009900F0DFFCA0684F
:1019A0002870A068000A68706089A870E07AE87002
:1019B000E0682871E068000A6871E089A871E07B3E
:1019C000E871206928722069000A6872608AA8722A
:1019D000E07CE872606928736069000A6873E08AD5
:1019E000A873E07DE87398212046FEF7AAFB01B0BA
:1019F000F0BD0000F0B5A7B014460D4606461848E5
:101A00000690184805901848049018480390002044
:101A10000290019001AF183780213846FEF791FB04
:101A2000680F029007204007294681430191402D0D
:101A30000AD300943F242A46A24301A8314600F06D
:101A40008DFC06462540009C384631462A46FEF766
:101A50005FFB01A92046FFF76DFF27B0F0BDC04630
:101A600076543210FEDCBA9889ABCDEF012345677E
:101A7000F0B581B00646184CE169A079800601D422
:101A8000012626E0009125460C3D012738042860F8
:101A9000204600F03BFCB108B00501D0380209181F
:101AA0003E46E16120460F4600F04EF92868C0032B
:101AB00007D4032080078743A08B874201D10026EB
:101AC00007E0204600F022FC0098E061204600F08C
:101AD0003BF9304601B0F0BD0C00004DB0B5084DEB
:101AE000AC1F204600F012FC2878DF21014029704D
:101AF000204600F029F928788006C00FB0BDC04606
:101B00001200004DF0B581B000242746264601257D
:101B100044482946FFF710FD434804700A2000BFDF
:101B200000BF00BF00BF401EF9D103213D48FFF7B1
:101B300003FD3D480078002801D1054600E0BD4086
:101B4000462000BF00BF00BF00BF401EF9D12E439A
:101B50007F1C082FDBD1F0B201B0F0BD80B501468B
:101B60003048FFF7E9FC80BD70B52E4C01212046BE
:101B7000FFF7E2FC2C4E00203070192005012846AA
:101B8000503000BF00BF00BF00BF401EF9D103218D
:101B90002046FFF7D1FC502000BF00BF00BF00BFB0
:101BA000401EF9D1317800BF00BF00BF00BF6D1EDD
:101BB000F9D14842484170BDF0B581B004460027D4
:101BC000184D3E4602E0761C082E28D001212846FA
:101BD000FFF7B2FC144807702046F040C00712D04F
:101BE0000A2000BF00BF00BF00BF401EF9D1032183
:101BF0002846FFF7A1FC462000BF00BF00BF00BF82
:101C0000401EF9D1DFE7502000BF00BF00BF00BF7A
:101C1000401EF9D103212846FFF78EFCD3E701B01F
:101C2000F0BDC0460000014430000041F0B581B075
:101C30000D2044062068AA2827D100203B490A58D5
:101C400053799B0023431B681380001D1828F6D18D
:101C5000374841798900334A8958018035484179AC
:101C600089008958018030480168101F0068884247
:101C700000D8084632490880324908884988884295
:101C800037D02E49FEF7E6FB33E0AA212046FFF7C6
:101C9000E5FD244E301F01252946FFF7DFFD2248D0
:101CA0002946FFF7DBFD0025204F79594879800050
:101CB00020434988FFF7D2FD2D1D182DF5D11C4971
:101CC0004879800030434988FFF7C8FD19494879B1
:101CD000800030434988FFF7C1FD17480821174CA1
:101CE0002246FFF787FE012000210A462346FEF721
:101CF00021FB4C4800884C494143880C6C490860E2
:101D00004648008846494143764801604B20C00060
:101D10004149098841437F480160FFF779FA01B0E2
:101D2000F0BDC0460004001AFC07001A3001002074
:101D3000F80000200A0000201E0100207C01002085
:101D4000DC000020FE0000200021018001207047FF
:101D5000044A1368002902D0034313607047834389
:101D6000136070471400004CB0B503284FD88000B2
:101D700001A108588746C046891D0000991D000032
:101D8000A71D0000B71D00002648008826494143D2
:101D9000880C47490860B0BD20480088204941436D
:101DA00050480160B0BD4B20C0001B490988414329
:101DB00058480160B0BD16480088D24C002822D097
:101DC000DF480025294600F018FA7C4805700121FB
:101DD0000172794805707448016076480170D348F3
:101DE000294600F00AFA0320FFF7B8FE20462946EC
:101DF00000F003FAAB20C005294600F0FEF90548C3
:101E000002210170B0BD0121204600F0F6F9B0BDFD
:101E100016000020B401002010000020EC0000207B
:101E2000E02E0000E2000020CDCC00000148024975
:101E300001607047F4000020001BB70010B5194C7A
:101E4000217819480078002909D000281DD01748AA
:101E5000016800290FD00168491E016015E00028C3
:101E600013D112480168124A1268914208D20168DF
:101E7000491C016009E0042001F04CF8002003E057
:101E8000002001F047F8012020700A48017800295D
:101E900007D00178491C01700078112801D3FEF7A2
:101EA00079FC10BDB501002033000041B8050020C9
:101EB0000C010020CC050020B0B5094D2868411C5C
:101EC000296008490968884208D18E4800242146C3
:101ED00000F093F92C60052001F01CF8B0BDC0465D
:101EE000C80500202C010020B0B5094D2868411C10
:101EF000296008490968884209D1AB20C00500243F
:101F0000214600F07AF92C60032001F003F8B0BDFF
:101F1000C00500202801002080B5FFF759F90128ED
:101F20000CD18248002100F068F9FEF779FB002807
:101F300001D0012000E0022000F0ECFF80BDC0468F
:101F400080B517480178174A1278914203D2017878
:101F5000491C017080BD14490868144A12689042F7
:101F600003D1062000F0D6FF80BD0868421C0A603D
:101F70000F490978FEF7FDF8002900D080BD0D4813
:101F800001784A424A4102700B490A780B49002AFB
:101F900003D10278534253410B700078087280BD20
:101FA000BC0500201C0100201401002018010020A5
:101FB000100100201D010020B3010020310000416C
:101FC000F0B585B002AD284600F0D0F89F20009013
:101FD000E880F9262E81552007063846294600F06C
:101FE000CFF81021019101243846224600F0B4F8C0
:101FF0003846214600F0A8F80098E8802E81414F2D
:102000003846294600F0BCF83846019E3146224643
:1020100000F0A2F83846214600F096F80F20009014
:10202000E8802A482881AB20C7053846294600F0B9
:10203000A7F838463146224600F08EF83846214649
:1020400000F082F8009EEE8020482881374F384605
:10205000294600F095F83846019F3946224600F09F
:102060007BF83248214600F06FF8EE80174828814F
:10207000334E3046294600F083F830463946224632
:1020800000F06AF83046214600F05EF8A0039D4952
:102090000860FF2003040E4A15689D431560630421
:1020A0000B6053680B4D2B40E6039B195360630391
:1020B0000B6013682B400325AD035B1913602303EA
:1020C0000B6011688143116005B0F0BD4FC3FFFF85
:1020D0000CE400E0FF00FFFF80B509480178C90764
:1020E00006D1007880070AD5FFF7E6FE054803E031
:1020F000FFF7A4FE55200006102100F023F880BD54
:102100006C0000500000015580B5FFF7EDFEAB20DC
:10211000C005102100F016F880BD000080B5FFF763
:10212000FBFE0248102100F00DF880BD000086552E
:1021300080B5FFF705FF0248102100F003F880BDCD
:10214000000086560160704701220A400179FE2393
:102150000B40991801717047012A03D142680A4364
:102160004260704742688A4342607047052101819E
:10217000C180002101808170C1700171417170477F
:1021800070B5CA888B78002B144600D11C46048594
:1021900082850A894B78002B144600D11C460484A2
:1021A00082840B78047CCF2214409B079B0EE3189B
:1021B0000374CC78057ABF231D40E407640E2C1904
:1021C00004720D79067A7F242640ED017519057297
:1021D0004D79467A1640AA07920EB21842724A7892
:1021E000057C1D40D207520EAA1802748978027C21
:1021F0002240C9015118017470BD012901D000218C
:1022000000E00321027CFC2313405918017470473D
:1022100080B500F01EF829204006402100F001F8AA
:1022200080BD2122914301607047026901239A43D6
:102230000A4302617047006B7047426801239A436A
:102240000A43426070474A4343688B4313434360E9
:10225000704780B5FEF76AFA80BD0000491E032969
:102260000AD8C0467944097949008F4401070A0D0C
:10227000342142540020704701207047828600209C
:10228000704782630020704742630020704700005F
:1022900070B5184E30681849014031601748332135
:1022A00081800721F17371730321090632680A43A3
:1022B00032604021B1733173C0220270B068104A9D
:1022C0000240B2603446083C012520462A46FFF70A
:1022D000BAFF20462946FFF7B0FF280509490860E4
:1022E00009480168FF229143016030690C210143D4
:1022F000316170BD08000052F1FFCCFF2000005298
:1023000085FFFCFF00E100E014E400E001490180EA
:102310000120704717A20000800207494A79920005
:1023200010180D225206805A421C90B20B88984217
:1023300000D90A807047C046DC00002010B5064C6A
:102340002046FFF7E3FF0121C802FFF701FD204609
:10235000FFF7FAFC10BDC0460C00004CF0B59CB075
:10236000876805460C3538CD019080300090089381
:102370001B91029703951A94049208781B99497847
:10238000090208181B998978090440181B99C97813
:10239000090640181290019B98651B9800791B99BB
:1023A0004979090208181B998979090440181B9971
:1023B000C979090640181790D8651B98007A1B99AF
:1023C000497A090208181B99897A090440181B994F
:1023D000C97A09064018199018661B98007B1B994A
:1023E000497B090208181B99897B090440181B992D
:1023F000C97B09064018149058661B98007C1B99ED
:10240000497C090208181B99897C090440181B990A
:10241000C97C09064018189098661B98007D1B9986
:10242000497D090208181B99897D090440181B99E8
:10243000C97D090640181190D8661B98007E1B992B
:10244000497E090208181B99897E090440181B99C6
:10245000C97E09064018159018671B98007F1B99C4
:10246000497F090208181B99897F090440181B99A4
:10247000C97F090640180E90586720201B99085CF8
:102480001B9A2032517809020818917809044018E3
:10249000D178090640180A90986710795179090295
:1024A0000818917909044018D17909064018169046
:1024B000D867107A517A09020818917A09044018ED
:1024C000D17A090640180F90009B1860107B517B51
:1024D00009020818917B09044018D17B09064018AD
:1024E00013905860107C517C09020818917C0904F3
:1024F0004018D17C090640180C909860107D517DE1
:1025000009020818917D09044018D17D0906401878
:102510001090D860107E517E09020818917E09043F
:102520004018D17E090640180B901861107F517F2A
:1025300009020818917F09044018D17F0906401844
:102540000D90586128466040089A1040684038183D
:1025500012994018FC49401819210691C8411146AA
:10256000841810461A99484020401A9948401799F3
:1025700069180818F54940181426F0410719204633
:1025800050403840504013461A99199A8918081833
:10259000EF4940180F210991C841C11938466040E0
:1025A00008406040149A9A181018EA4A80180A22C3
:1025B0000792D04140180D467D4005407D40189B54
:1025C000E4186419E44D6419069AD44124180546A8
:1025D0004D4025404D40119BFF187D19DF4FED19EF
:1025E0000596F5412F19254645403D404540159B30
:1025F000C9184919DA4D4919099BD941C9193D46EC
:1026000065400D4065400E9BC0184019D54D4019DE
:10261000079BD84140180D467D4005407D400A9BF0
:10262000E4186419D04D6419D441241805464D406E
:1026300025404D40169BFF187D19CC4FED19F541F3
:102640002F19254645403D4045400F9BC918491963
:10265000C74D4919099AD141CD19394661402940E0
:102660006140139BC0184018C2494018079EF041B2
:10267000401929467940014079400C9B1C1961188A
:10268000BD4C0919069BD9410C18014669402140EF
:102690006940109BDF197918B84FC919059BD941BA
:1026A0000919274647400F4047400B9B5D19ED191C
:1026B000B34FED19D5416B180D4665401D4065407F
:1026C0000D9F38184019AF4D4019F041C2181046FF
:1026D000584008405840179D2C192018AA4C001942
:1026E0001B240594E0418418204650401840504077
:1026F000159D69180818A54940181726F041354658
:102700000696071938466040104060401399C91872
:1027100008189F49401812210791C841C11908465D
:10272000784020407840129B9A181018994A8018D7
:102730000C220992D0414218104648403840484087
:10274000119B1C192018944C0019059EF041841807
:1027500020465040084050400F9BDF1938188F4FDB
:10276000C019E841071938466040104060400D9B91
:10277000591808188A4940180799C841C1190846CC
:10278000784020407840189DAA181018854A801873
:10279000099AD041401802464A403A404A40169DA4
:1027A0002C19A218FD4C1219F2411418224642406D
:1027B0000A4042400B9BDF19BA18F94FD219069B09
:1027C000DA4117193A46624002406240149D691886
:1027D0008918F44A8918079EF141C9190A467A40B6
:1027E00022407A400A9B18188018EF4A8018099AEC
:1027F000D041401802464A403A404A40109D2C19A8
:10280000A218EA4C1219059CE241141822464240D3
:102810000A404240199DEF19BA18E54FD219069D9A
:10282000EA4115192A466240024062400E9F79181B
:102830008918E04A8918F14149190A466A40174641
:1028400027406F400C9E3018C019DB4FC019099EFD
:10285000F04147187A40119800198018D74A80181B
:102860001C26F0410996C4193846484060405A1960
:102870001018D34A801815220692D0410519204617
:1028800078406840139A51180818CE494018102112
:102890000591C84142192946614051400B98C7191A
:1028A0007918C9480F1809200790C741BF1810466A
:1028B00068407840179B1C192018C44C0019F0413F
:1028C000C419384650406040189B5D192818C04D07
:1028D00040190699C84105192046784068400E9B6A
:1028E0009A181018BB4A8018059EF04140192A46D4
:1028F000624042400F9BDF19BA18B74FD219079BAD
:10290000DA41171802466A407A40109B1C19A21837
:10291000B24C1219099BDA41D4193A46424062403E
:10292000129B5D19AA18AE4D5219CA4115192246BB
:102930007A406A40149B18188018AA4A8018F041FF
:1029400040192A4630E0C04678A46AD756B7C7E88F
:10295000DB702024EECEBDC1AF0F7CF52AC68747C1
:10296000134630A8019546FDD8988069AFF7448B8F
:10297000B15BFFFFBED75C892211906B937198FD0C
:102980008E4379A62108B44962251EF640B340C0A3
:10299000515A5E26AAC7B6E95D102FD653144402D9
:1029A00081E6A1D8C8FBD3E762404240159BDF19FE
:1029B000BA188D4FD2190799CA41171802466A40B2
:1029C0007A40169B1C19A218884C1219099BDA41EF
:1029D000D4193A46424062400C9B5D19AA18844DB6
:1029E0005219069BDA41121925467D4055400D9B30
:1029F000181840197F4D4019F04180181346634064
:102A00004340199DED19EB187B4D5B19CB4119180B
:102A1000D3430B434340129D2C19E318774C1B19E9
:102A20001A240994E3415C18C34323434B400E9D91
:102A3000AA18D218724BD2181626F2411519CA4399
:102A40002A4362400B9B181880186E4A8018112286
:102A50001292D0414719E04338436840119B5918FE
:102A60000818694940180B211191C841C019E94360
:102A7000014379400C9B1C196118644C0919099A8F
:102A8000D1410C18F94321434140149B5D19691849
:102A90005F4D49190E96F1410D19C143294361401B
:102AA0000F9BDF1979185B4FC919129BD9414F1938
:102AB000E14339436940179B18184018564940189C
:102AC0001199C841C019E943014379400A9B1C1977
:102AD0006118524C0919D1410918FC430C43444078
:102AE0000D9B5D192C194E4D6419F4416518C443B2
:102AF0002C434C40159BDF193C194A4FE419129A9C
:102B0000D4416719CC433C436C40109B1818001902
:102B1000454C0019119EF041C419E8432043784008
:102B2000189B59180818414940180999C8410019BB
:102B3000F94301436140139B5D1969183C4D4919E4
:102B40000E9BD9410918E5430D434540199BDF19F8
:102B50007D19384FED19D5416A18089BD518C74320
:102B600017434F40169B1C19E419029F324BE4187F
:102B7000F4412B19039D1A9C1419049A4D191B99A1
:102B8000C7194031403A01D0FFF7F1FB0198876047
:102B90000C3038C008461CB0F0BDC046E6CDE1217F
:102BA000D60737C3870DD5F4ED145A4505E9E3A9D7
:102BB000F8A3EFFCD9026F678A4C2A8D4239FAFFDD
:102BC00081F6718722619D6D0C38E5FD44EABEA453
:102BD000A9CFDE4B604BBBF670BCBFBEC67E9B2848
:102BE000FA27A1EA8530EFD4051D880439D0D4D95D
:102BF000E599DBE6F87CA21F6556ACC4442229F4B3
:102C000097FF2A43A72394AB39A093FCC3595B6574
:102C100092CC0C8F7DF4EFFFD15D84854F7EA86F41
:102C2000E0E62CFE144301A3A111084E827E53F767
:102C300035F23ABDBBD2D72A91D386EBC048417852
:102C40000278914201D1FF2070478278521E8A4259
:102C500001D04A1C00E0002242704018C078704742
:102C600080B57E4800210180FDF726FC37480078BA
:102C7000002802D0002000F04DF980BD10B57A4840
:102C800000242146FFF7B9FA0320FEF767FFAB20C7
:102C9000C0052146FFF7B1FA774801210170754858
:102CA000047010BD10B5704801242146FFF7A5FA45
:102CB0006F480078414241416E4801706E480021E2
:102CC00001704A480160AB20C0052146FFF795FA24
:102CD00010BDC04610B56D4800242146FFF78DFA9F
:102CE0006448047001210172634804706348016004
:102CF0005F48017010BDC0465F48012101705D480A
:102D0000002101707047C04680B5FDF755FD80BDBC
:102D100080B50E480078012803D153480121FFF700
:102D20006CFA54480022027001210172534801607C
:102D3000534802704E480170524806230370D04336
:102D4000514A10605148FFF758FA80BDB501002084
:102D5000F0B581B0444800242146FFF74EFA032025
:102D6000FEF7FCFE424E307841424141414F3970FE
:102D7000414804701D480460AB20C0050125294668
:102D8000FFF73BFA3C703D723C4805603C480470DC
:102D900035703C4805703C48062101603B48294697
:102DA000FFF72BFA01B0F0BDB0B510480025056063
:102DB000AB20C00501242146FFF71FFA2A4821460F
:102DC000FFF71BFA2B48057004722C4804602C484E
:102DD0000570274804702B4806210170E8432A49F2
:102DE00008602A482146FFF708FAB0BDC005002058
:102DF000B0B51A4801240480194800881949088090
:102E0000FDF75AFB184800252946FFF7F6F903207D
:102E1000FEF7A4FE15482146FFF7EFF9AB20C005E9
:102E20002946FFF7EAF9124801784A424A41114916
:102E30000A70114A15700D700C7210490C6010491F
:102E40000D7004700F48022101700F4810210160BD
:102E50000E482146FFF7D1F9B0BDC046040000205E
:102E60005A010020FE000020000086550000015598
:102E70001D01002031000041B30100201401002099
:102E8000BC0500201001002018010020000086561B
:102E900072B6FEF793F9FEF7EBF9FFF791F8FFF73B
:102EA000F7F9FFF74BFA194C2046FFF72FFA0125E7
:102EB0002846FEF73DF8A807FEF732F80028FAD0BA
:102EC0002020FEF729F82046FEF73EFF0520C0022D
:102ED000FEF7CEFDFEF702FEFEF7A8FE0C4800212D
:102EE00001702920400601242146FFF79EF9552054
:102EF00000062146FFF781F9072000F023F862B6AB
:102F0000FEF734FBFEF70EFDFAE7C0460C00014C5D
:102F10003B00004110B50A494B788A78521E002BBD
:102F200002D19A4200D110BD0B78CC18E0709A42C1
:102F300002D0581C087010BD0020087010BDC0469B
:102F400004010020B0B50446064D2846FFF7DEF91F
:102F50002046FEF7DDFC0120FEF7CEFC2846FEF7FA
:102F6000F3FEB0BD0C00005D0FB410B503A9044B17
:102F7000044A029800F018F810BC08BC04B01847C6
:102F8000853200000000002002E008C8121F08C1BE
:102F9000002AFAD170477047002001E001C1121FDA
:102FA000002AFBD170470000FFB58FB00F460446E2
:102FB000002606E025280AD0129A11999047641C31
:102FC000761C20780028F5D1304613B0F0BD0025DE
:102FD0000121A14A009500E00543641C23780846BE
:102FE000203B98401042F7D120782E2815D104209C
:102FF00005436078641C2A280AD101CF641C009024
:103000000BE000990A22514330394018641C0090AB
:103010002078014630390929F3D920786C280ED060
:1030200004DC4C2813D06A2812D104E074280ED096
:103030007A280DD10BE001204005054307E001216E
:10304000090562780D43824201D16D18641C641C2D
:103050002078864669284AD008DC0028B4D0582851
:103060006DD0632810D0642808D140E070286BD060
:10307000732812D0752860D0782860D0129A7046D4
:1030800011999047761CE5E038786946087200206F
:10309000487202A80190012003E0386801900020E6
:1030A000C0433F1D69070CD5002500E06D1C009949
:1030B0008D420FDA8542F9DB0199495D0029F5D18E
:1030C00008E0002500E06D1C8542FCDB0199495DAC
:1030D0000029F8D1761907E0019801990078491C78
:1030E0000191129A119990476D1EF5D2B2E00A2013
:1030F000029000216802400F039102280CD001CFFA
:10310000C117844600290DDA624608465242002162
:10311000814194462D2008E0FF1DFF08FF0003CFEA
:103120008446EFE7280504D52B206A461074012059
:103130003CE0E8073AD02020F7E70A2000E0102022
:1031400000210391029007E010200290002104204A
:1031500005430820039100906802400F022810D018
:1031600001CF0021844600200D9028071FD570460E
:1031700070280CD0029A1020039B42401A430CD0B6
:1031800015E0FF1DFF08FF0003CF8446EBE740205A
:103190006A46107401200D900CE06046084306D08A
:1031A00030206A4610747046507402200D907046AC
:1031B000582804D029A001900DA80E900DE02CA055
:1031C000F9E76046039B029AFCF7F2FF019B8446F5
:1031D0009B5C0E9A521E0E92137060460843F0D10B
:1031E0000E9805A9081A20300190680701D50098AB
:1031F00001E0012000900199884203DD0146019819
:10320000081A00E000200025009006E004A8129AA9
:10321000405D119990476D1C761C0D988542F5DB39
:1032200004E0129A302011999047761C0099481EAC
:1032300000900029F5DC08E00E980E990078491CF2
:103240000E91129A11999047761C0199481E01908F
:103250000029F1DC641CB4E6092801003031323366
:1032600034353637383961626364656600000000C2
:1032700030313233343536373839414243444546AC
:103280000000000038B50446684604706946032013
:10329000ABBE204638BD005EBCE2613FDD83C29C10
:1032A0007E20A3FD1F419DC3217FFCA2401E5F0124
:1032B000E3BD3E6082DC237D9FC1421CFEA0E1BFD6
:1032C0005D0380DE3C62BEE0025CDF81633D7C2208
:1032D000C09E1D43A1FF4618FAA427799BC584DA36
:1032E0003866E5BB5907DB856739BAE406581947E4
:1032F000A5FB7826C49A653BD987045AB8E6A7F996
:103300001B45C6987A24F8A6441A99C7257B3A64C7
:1033100086D85B05E7B98CD2306EEDB3510F4E10F5
:10332000F2AC2F7193CD114FADF3702ECC92D38DA3
:103330006F31B2EC0E50AFF1134DCE90722C6D3355
:10334000D18F0C52B0EE326C8ED0530DEFB1F0AE87
:103350004C1291CF2D73CA947628ABF517490856B5
:10336000B4EA6937D58B5709EBB536688AD495CB63
:103370002977F4AA4816E9B7550B88D6346A2B7515
:1033800097C94A14F6A8742AC896154BA9F7B6E847
:103390000A54D7896B3520205230203D20307825C3
:1033A000580A0D0020205231203D20307825580A3F
:1033B0000D00202048617264204661756C742048BD
:1033C000616E646C65720A0D00000000EC33000051
:1033D0000000002054010000760200009C34000030
:1033E0005801002078080000982F00009153010E2A
:1033F0005902FE01000100020C44010D010337A92E
:103400002D33092D420133A52C420233F12D420107
:1034100033512D420133F92C4201337D2C8201427C
:103420000133112D420133092D8202820282028270
:1034300002C20233612C420233D52C420233092DE1
:103440002A0100010002FF6400644D020A0406091B
:103450001801000100020B631BB73902FDFFFFFFDB
:10346000FF020F62054214420642013CFFFFFFFFCC
:1034700001010114E6810F32F5421433A00F32E24C
:103480003320EC3320103320163320043320FE3356
:0C34900020F833200A3320DC122000005A
:04000005000000DB1C
:00000001FF
