:020000040000FA
:1000000010090020D5000000910C0000E500000060
:10001000FFFFFFFFFFFFFFFFFFFFFFFFFFFFFFFFF0
:10002000FFFFFFFFFFFFFFFFFFFFFFFFE10E0000ED
:10003000FFFFFFFFFFFFFFFF9D0E00009D0F000071
:100040000301000003010000FFFFFFFF03010000A8
:100050000301000003010000030100000301000090
:1000600003010000FFFFFFFF030100000301000088
:1000700041100000B1100000191100000301000040
:100080000301000081110000FFFFFFFFFFFFFFFFE2
:10009000CD1300000301000003010000FFFFFFFF7C
:1000A0000301000003010000FFFFFFFFFFFFFFFF50
:1000B0000301000003010000030100000301000030
:1000C0000348854600F07CF8004800471116000000
:1000D00010090020002001688D460A4880470A4820
:1000E0000047FEE704207146084202D0EFF3098082
:1000F00001E0EFF308807146044A1047FEE7FEE78F
:10010000FEE7FEE7A50F0000C1000000AD070000FC
:1001100030B50B46014600202022012409E00D469F
:10012000D5409D4205D31D469540491B2546954027
:1001300040191546521E002DF1DC30BD03460B431D
:100140009B0703D009E008C9121F08C0042AFAD28D
:1001500003E00B780370401C491C521EF9D2704713
:10016000F0B51FB40646002082B005464024019138
:1001700000901BE0019922460F46304600F042F8FD
:10018000049A059B801A994110D3104619462246BD
:1001900000F028F8361A8F410197224601200021ED
:1001A000009F00F01FF838184D4100902046641E53
:1001B0000028DFDC019B00982946324607B0F0BDDD
:1001C000064C0125064E05E0E36807CC2B430C3CAA
:1001D00098471034B442F7D3FFF776FF441C000071
:1001E000641C000010B5202A04DB0146203A91402F
:1001F000002010BD914020239C1A0346E340194380
:10020000904010BD10B5202A04DB0846203AD040AB
:10021000002110BD0B46D340D0402024A21A9140AB
:100220000843194610BD0000F0B581B00027FD431A
:10023000012816D8044610024618B00A11D13046DB
:1002400000F09CFAFF280CD00225284600F0D8F9CF
:10025000F5488455284600F05EFB284600F0DAF9A0
:100260003D46284601B0F0BDF0B583B005460020FC
:10027000C443022D5DD810024618B00A59D101932B
:10028000304600F07BFA07460024204600F0B8F91B
:10029000F8B2002802900AD001280ED0FF2812D10F
:1002A000E148416C491C4164012D03D00BE0012D54
:1002B00009D1DD48816C491C04E0002D03D1DA48E6
:1002C000816C491E8164D8494868401C48602046BA
:1002D00000F021FB204600F09DF9B009C01CC7B218
:1002E000384600F08DF93007000EF1490818102249
:1002F0000199FFF723FF384600F00DFB384600F068
:1003000089F90298A84214D00227384600F078F9FB
:1003100000240298FF28204600D02846022DE449F8
:1003200000D028468855384600F0F5FA384600F0E7
:1003300071F9204603B0F0BD054908607047C0461A
:10034000034909680140481E814108467047C0467C
:100350000000014C90490A78002803D0082002438D
:100360000A707047F72002400A707047F0B589B0F4
:10037000002708970126300404900890079703256A
:10038000680207900697069663490A686348024028
:10039000634BD2180A602A034B6893434B600A6888
:1003A00002400A607C4C221F116801405C4808181A
:1003B0000592106006986060204608380899016030
:1003C000A8050799014022688243501820600898C8
:1003D0008003800F05D028040899014070048142F1
:1003E00003D120681021014321604E4800F0A6F897
:1003F00020682021019188432060A802079A0240CA
:100400002368039083439A1822602802079A0240C7
:100410002368029083439A182260079A1205920F6C
:10042000334693402246103A11680902090F994257
:10043000F8D107998905890F33468B401168090364
:10044000090F9942FAD1AD0307992940F303994264
:1004500008D1216801980143216011680029FCD569
:1004600040211170079929402068A8430843206063
:100470000798049908402949491E25680D400543FD
:1004800025600698606007980004800F314681401F
:1004900010684001400F8842FAD120460C380760AE
:1004A0000821A1602048E060204820619333636107
:1004B00027626762A762042020636763A7632068DE
:1004C000039B184202D02068884320600798184098
:1004D000B102884216D0079802990840310288423A
:1004E00010D02E498888124A1040888007981840FA
:1004F000984207D00798029B1840984202D008887B
:1005000010400880059A10680449084010600948A6
:100510000949016009B0F0BD0C00004D0000FFFF6B
:1005200017A200003C1B00000F810000E511030032
:10053000FF0F00003C00002000127A0081B0002173
:100540000091006900901448C16804220A43C26007
:1005500001210903114A13888B4202D193888B42EF
:1005600001D011809180014610390A68D200FAD575
:1005700002220A7003218905009A0A4003688B430E
:10058000991801601021009A0A4003688B4399185A
:10059000016001B07047C0461000014C34000244B5
:1005A00010B5FFF7E3FE00F07FFC00F0DBF800F091
:1005B00003FE00F08FFF0C24204600F0DDFF2046F4
:1005C00000F0E6FF0D24204600F0D6FF204600F0A4
:1005D000DFFF0E24204600F0CFFF204600F0D8FFBA
:1005E0001124204600F0C8FF204600F0D1FF14245B
:1005F000204600F0C1FF204600F0CAFF10BD0000F9
:1006000080B5800201218A02294900F073F9002097
:1006100080BDC04680B5800201218A02244900F0D5
:1006200072F9002080BDC0460401002070B500268C
:10063000F54302293AD8012820D0002836D10C46AB
:100640000220FFF7DDFF01208002194903E0401E70
:10065000491C002804D00A78FF2AF8D00C70F6E76D
:100660001348002C00D0446C84640224204600F01F
:1006700052F92046FFF7CEFF304670BD00242046D9
:10068000FFF7BEFF48490A480A5953881279920079
:100690008350241D1C2CF7D14168491C4160002562
:1006A000284600F038F92846FFF7B4FF284670BD09
:1006B0000401002010B50022002907D0044BD2B25B
:1006C000047854401A5D401C491EF8D1104610BDF4
:1006D0003A1A0000B0B50024204600F007FAAA2814
:1006E00010D0AA21204600F059FA0120014600F05E
:1006F00055FA2D4D28594188007900F04FFA241DF4
:10070000282CF7D1B0BDC046B0B501250024104B50
:10071000284621462246FFF7A7FD0E4B20462946D4
:100720002246FFF7A1FD02250B4B2846294622460B
:10073000FFF79AFD0321094B20462246FFF794FD5F
:100740000421074B28462246FFF78EFDB0BDC04668
:1007500046000020560000206600002076000020A1
:1007600086000020002004490A580B185B681360BB
:1007700008308028F8D170478C1B000080B501211B
:10078000C902401800F0AEF980BD000080B50A280B
:1007900002D90020C04380BD800003490858007979
:1007A000800000F0A3F980BD9800002082B0019184
:1007B0000168214C21604168204F39608168204EDA
:1007C0003160C1681F4D296001691F4A116041698C
:1007D0001E4A116081691E4A1160C0691D49086086
:1007E0001D4800F093FF21681C4800F08FFF396816
:1007F0001B4800F08BFF31681AA000F087FF2968C2
:100800001CA000F083FF104801681EA000F07EFFCE
:100810000E4801681FA000F079FF0D48016823A071
:1008200000F074FF0B48016826A000F06FFF2BA0BA
:10083000019900F06BFFFEE7D0000020D4000020FB
:10084000DC000020E0000020D8000020C4000020D0
:10085000C8000020CC0000202C1C0000101C000050
:100860001E1C000020205232203D20307825580ADE
:100870000D00000020205233203D20307825580AFA
:100880000D0000002020523132203D2030782558C4
:100890000A0D00002020537461636B6564204C5284
:1008A000203D20307825580A0D0000002020537488
:1008B00061636B6564205043203D20307825580AE1
:1008C0000D0000002020537461636B656420505359
:1008D00052203D20307825580A0D00002020437515
:1008E0007272656E74204C52203D20307825580A73
:1008F0000D00000080B50B460D2149064118184631
:10090000FFF71CFC80BD80B50D235B06C018920864
:1009100000F086F880BD80B50D21490680024018A0
:10092000012100F001F880BDF0B583B0964A13684C
:100930002C4C04400D2255060122AC424FD1082414
:1009400023404CD0924F3B1F1A68924C2240924C4D
:10095000121902931A603A68012301931A433A600C
:100960007A68022300931A437A603A682024144379
:10097000D02294433C6046223A73BE22BA810024BE
:1009800022463D46103D22262E70BFF36F8FE34373
:1009900003602B783340022B08D101239B02C0183F
:1009A000521C8A42EDD30022019D01E0019D2A469E
:1009B000029B1868774C2040774908431860002054
:1009C00038733868F0218843386078680099884324
:1009D00078603868A843386018682040186010466E
:1009E00003B0F0BDFF0300FE70B504460B4D284672
:1009F00000F0BCFD01263046FFF7ACFCB007FFF766
:100A00009FFC0028FAD02020FFF796FC284600F033
:100A100046FA204600F006F970BDC0460C00014CB5
:100A2000F0B582B0584B1C680123240757D5032624
:100A30000D4635406C426C41064075427541460E8C
:100A40000D2E4CD125434AD0904C2368514E334053
:100A5000514D5B1923606368012501952B43636049
:100A6000A368022500952B43A360636810251D43EE
:100A7000E0239D43656046232374BE2323822368BD
:100A800033402360002325460C3D22272F70BFF3FF
:100A90006F8F0E6806602D783D40022D07D15B1CDC
:100AA000001D091D9342EED30023019D01E0019D2D
:100AB0002B462068374A1040374908432060002001
:100AC00020746068F02188436060A06800998843C2
:100AD000A0606068A84360602068104020601846ED
:100AE00002B0F0BD0D214906405C70470D2149065A
:100AF00040587047F0B5064623480368234C3440FD
:100B00000D2045060120AC423DD1082423403AD0B7
:100B10001F4C231F1868EF4A1040EF4A80181860D6
:100B20002568012005432560656802273D4365600F
:100B3000256810222A43E025AA4322604622227318
:100B4000B922A2812546103D22222A70BFF36F8F61
:100B500031601968DF4E3140DF4A89181960216819
:100B6000F022914321606168B9436160216881434B
:100B700021601968314019602978890602D52978E1
:100B8000890700D50020F0BD1000014C030000FED5
:100B90001000004D0000FFFF17A2000080B50D22DD
:100BA000520680008018FFF7A5FF80BD05490A683E
:100BB0000123002802D01A430A6070479A430A6052
:100BC0007047C0461000005D04490A68F0239A434C
:100BD0000007000E101808607047C0460800005D4E
:100BE00001480249018070470C00005D142000009C
:100BF00002480168491C01607047C0460805002092
:100C00004D210906086070474D2109060968014019
:100C1000091A4842484170470148008880007047DF
:100C20002800004DF0B583B00746184DE9696868A3
:100C3000800201D4012425E00191BE080124200492
:100C40000290FFF7DDFF284600F090FCB80501D0C8
:100C500020023618EE61284600F021F90298FFF7CD
:100C6000D3FF002806D1B600FFF7D6FFB04201D16E
:100C7000002407E0284600F079FC0198E861284646
:100C800000F00DF9204603B0F0BDC0460C00004D49
:100C90007047000080B5804801210170292040067E
:100CA00000F00AFC80BDC04610B5E448002421468F
:100CB00000F0DCFA76480470C74804707548017883
:100CC0006D4A11700470022000F07EFC69480178C2
:100CD00043290ED1417810290BD181781F2008407B
:100CE0000A280AD01E280BD014280CD100F070F866
:100CF00010BD452000F094F810BD00F009F810BDBB
:100D000000F044F810BDB42000F08AF810BDC046D1
:100D1000B0B5594C2078062813D1564DE8780128F3
:100D200013D000282CD12879FFF730FD411C1CD0AE
:100D3000687109212170000AA871132000F070F871
:100D4000B0BD932000F06CF8B0BD0020FFF71EFD91
:100D5000411C0AD08F4909680978012909D0022964
:100D600009D12871691D000A04E0732000F058F8C9
:100D7000B0BD291D0870182020701D2000F050F80B
:100D800009202070B32000F04BF8B0BD10B53A4CEC
:100D9000207818280CD1374BD87801280CD000289F
:100DA0000FD19A7959791879DB1DFFF75DFA06E0C2
:100DB000852000F035F810BD181D00F0B3F80520AF
:100DC00000E0A5200421217000F02AF810BDC046E3
:100DD00080B52949087809280DD12648C278022A09
:100DE0000DD0012A10D0002A14D1827941790079DE
:100DF000FFF71AFA80BD852000F012F880BD417916
:100E00000079FFF713FC80BD82794179007900F009
:100E100069F880BD04200870A52000F001F880BDAD
:100E2000F0B581B0124D01212970124CA070124E04
:100E30003078411E2046FFF73DFC31780919491EE4
:100E40000870072000F04CFC3078002807D00027FD
:100E5000E05D00F07DFB7F1C30788742F8D300F026
:100E600047FB0028FBD00020287001B0F0BDC04631
:100E70003B000041E4000020C000002004480021A5
:100E800001700448017054480170034801707047B4
:100E9000C100002004050020050500207047002146
:100EA00001800120704700000948026809490A4092
:100EB000094BD2180260094A4260002282600E2368
:100EC000C36002614261826102680A400260704749
:100ED0000C00004C0000FFFF17A2000000100002F1
:100EE00070470000F0B581B00024072801D9E44321
:100EF00014E017460E4605462046FFF781FB3802F0
:100F00008019A900234A515809798900224A505072
:100F10002046FFF700FD2046FFF77CFB204601B08E
:100F2000F0BDC046F0B581B0044600252846FFF765
:100F300067FB184E00952A4608E0009880B21B799E
:100F40009B001549C850521C072A14D090003358F2
:100F50001D78002DF1D0301803681F7800252E462B
:100F60002846A15DA94008430835761CBE42F8D347
:100F7000A419084EE2E708494868401C486000246C
:100F80002046FFF7C8FC2046FFF744FB204601B08F
:100F9000F0BDC046980000200401002080B5FFF796
:100FA00027FE80BD01480249016070473C000020D7
:100FB000001BB70080B5FFF777FE80BD80B50648FF
:100FC0000178002906D0491C0170C8B2112801D34C
:100FD000FFF754FF80BDC0460605002070477047EC
:100FE00010B5164C8021204600F0D0F8012803D11E
:100FF0008021204600F0C8F82021204600F0C6F8E5
:10100000012803D12021204600F0BEF810212046FF
:1010100000F0BCF8012805D1FFF7CCFF10212046D5
:1010200000F0B2F80821204600F0B0F8012803D102
:101030000821204600F0A8F810BDC0460000015568
:1010400080B503480078800701D5FFF7C9FF80BD50
:101050006C00005010B5AB20C4058021204600F084
:1010600095F8012803D18021204600F08DF8202139
:10107000204600F08BF8012803D12021204600F003
:1010800083F81021204600F081F8012805D1FFF7F0
:1010900095FF1021204600F077F80821204600F047
:1010A00075F8012803D10821204600F06DF810BD25
:1010B00080B5FFF7CFFF80BD10B5164C80212046CC
:1010C00000F064F8012803D18021204600F05CF88C
:1010D0002021204600F05AF8012803D12021204683
:1010E00000F052F81021204600F050F8012805D1F8
:1010F000FFF774FF1021204600F046F80821204633
:1011000000F044F8012803D10821204600F03CF803
:1011100010BDC0460000865580B5FFF7CDFF80BDED
:1011200010B5164C8021204600F030F8012803D17C
:101130008021204600F028F82021204600F026F8E3
:10114000012803D12021204600F01EF8102120465E
:1011500000F01CF8012805D1FFF741FF10212046BF
:1011600000F012F80821204600F010F8012803D101
:101170000821204600F008F810BDC0460000865641
:1011800080B5FFF7CDFF80BD016070470068084063
:10119000411E88417047012211404368934359180A
:1011A00041607047012A03D142680A434260704798
:1011B00042688A434260704770B5244D291F002061
:1011C00008600822EA60C721A96127242C62032154
:1011D0000B072B60696028601D4D2E1F3060EA6090
:1011E0002F26AE612C622B6069602860194D2E1F7E
:1011F0003060EA60184EAE6107262E622B6069608F
:101200002860164D2E1F3060EA60154EAE612C62CC
:101210002B6069602860134C251F2860E260A6617E
:10122000216223606062A0620F4AE2622063606311
:10123000A063E063A06460642065E064A06560650D
:101240002066E0656160206070BDC0460C000055FE
:101250000C0001550C0080550F2700000C0086552E
:101260001F4E00000C008656F0F00000027C0129A1
:1012700003D0FC210A400274704703210A43027420
:10128000704770B529204406204600F00FF9064645
:10129000204600F00FF905463540A8070BD4680634
:1012A00028D428062ED4E80634D428074BD468075F
:1012B00000D586E070BD0126680503D5B102204641
:1012C00000F088F8280503D5F102204600F082F8E6
:1012D000E80403D53103204600F07CF8A80403D5C8
:1012E0007103204600F076F80221204600F072F8E3
:1012F0006806D6D500F008F94021204600F06AF8CB
:101300002806D0D500F023F98021204600F062F8AD
:10131000E806CAD50126A80303D57104204600F0CB
:1013200059F8680303D5B104204600F053F8E803E8
:1013300003D53104204600F04DF81021204600F07E
:1013400049F82807B3D50126E80203D53105204620
:1013500000F040F8A80203D57105204600F03AF8E5
:10136000680203D5B105204600F034F8280203D501
:10137000F105204600F02EF8E80103D5310620469D
:1013800000F028F8280103D5F106204600F022F8E5
:10139000E80003D53107204600F01CF8A80003D56B
:1013A0007107204600F016F8680003D5B107204603
:1013B00000F010F80821204600F00CF8680700D46F
:1013C00078E70421204600F005F870BD80B5FFF7EE
:1013D00058FF80BD212291430160704702690123BB
:1013E0009A430A4302617047F0B583B00446084649
:1013F0001146FEF78DFE082801D201214EE0064677
:1014000001940120009000030290002408273D462B
:1014100004E00D4604467F1C202F15D03046394687
:10142000FEF776FE39464143711A09D0781AE2B2C6
:101430009042394600DA29469042EADA2046E8E747
:1014400002998842E7D23D46019CA06815490140B7
:10145000A16030462946FEF75BFE0299884200995A
:101460001CD8401EA084681EE0756075032000062D
:10147000A1680143A1604020A07520752020C021F3
:1014800021542069084901402161A0690C210143D0
:10149000A16120690121014321610021084603B0B7
:1014A000F0BDC046F1FFCCFF85FFFCFF00682121A5
:1014B0008843704740687047006B7047426801235B
:1014C0009A430A43426070474A4343688B4313433D
:1014D0004360704780B5292040064B210A0203492A
:1014E000FFF782FF401E411E884180BD00127A0036
:1014F0002920400600684007C00F70472920400699
:1015000000680006C00F704780B5FFF7C3FB0248B4
:101510000121017080BDC04606050020491E032937
:101520000AD8C0467944097949008F4401070A0D59
:1015300034214254002070470120704782860020E9
:1015400070478263002070474263002070477047F5
:1015500010B50446FFF7D2FF0028FBD02920400633
:1015600001212246FFF7DAFF10BD0000014901808A
:101570000120704717A20000002805D41F21084051
:1015800001218140014801607047C04600E100E050
:10159000002805D4032102468A430A49511806E06F
:1015A0000F210140083903229143054A8918800719
:1015B000C00EFF2282400868904308607047C04612
:1015C0001CED00E000E400E010B5002804D0044663
:1015D00000F003F8641EFBD110BD10B555200406C1
:1015E00010212046FFF7D0FD01212046FFF73EFEE7
:1015F00010212046FFF7CAFD0028F9D0002120461F
:10160000FFF734FE10212046FFF7BEFD10BD00009D
:1016100072B6FEF7C5FF00F057F813208002FFF7FF
:10162000E3F9274F002438462146FFF71FFE102616
:101630000125384631462A46FFF7B4FD384629468B
:10164000FFF7A9FD38463146FFF79EFDAB20C705E1
:1016500038462146FFF70AFE384631462A46FFF74C
:10166000A1FD38462946FFF796FD38463146FFF77B
:101670008BFD2920470638462146FFF7AFFE402163
:1016800038462A46FFF720FF38462946FFF716FF5F
:1016900038462946FFF7A2FE62B6552000063146BD
:1016A000FFF772FD074805702046FFF71FFA002874
:1016B00001D0FFF70FF8FFF727F800F023F8FCE759
:1016C000000001553B00004110B50D4C2046FFF7CE
:1016D0004DFF0020FFF76AFA2046FFF7E0FB10BD40
:1016E000B0B50446064D2846FFF740FF2046FFF7F9
:1016F0006BFA0120FFF75AFA2846FFF7D0FBB0BD7E
:101700000C00005D80B5FFF76BFA80BD0FB410B51B
:1017100003A9044B044A029800F018F810BC08BC56
:1017200004B01847291A00000000002002E008C891
:10173000121F08C1002AFAD170477047002001E04B
:1017400001C1121F002AFBD170470000FFB58FB006
:101750000F460446002606E025280AD0129A119961
:101760009047641C761C20780028F5D1304613B0D1
:10177000F0BD00250121A14A009500E00543641C4D
:1017800023780846203B98401042F7D120782E2835
:1017900015D1042005436078641C2A280AD101CFA2
:1017A000641C00900BE000990A2251433039401824
:1017B000641C00902078014630390929F3D920783B
:1017C0006C280ED004DC4C2813D06A2812D104E017
:1017D00074280ED07A280DD10BE001204005054376
:1017E00007E00121090562780D43824201D16D189D
:1017F000641C641C2078864669284AD008DC0028CE
:10180000B4D058286DD0632810D0642808D140E0A7
:1018100070286BD0732812D0752860D0782860D0DB
:10182000129A704611999047761CE5E0387869461F
:1018300008720020487202A80190012003E0386875
:1018400001900020C0433F1D69070CD5002500E032
:101850006D1C00998D420FDA8542F9DB0199495DD3
:101860000029F5D108E0002500E06D1C8542FCDB75
:101870000199495D0029F8D1761907E0019801998D
:101880000078491C0191129A119990476D1EF5D26A
:10189000B2E00A20029000216802400F0391022862
:1018A0000CD001CFC117844600290DDA62460846E4
:1018B00052420021814194462D2008E0FF1DFF087F
:1018C000FF0003CF8446EFE7280504D52B206A46A6
:1018D000107401203CE0E8073AD02020F7E70A2006
:1018E00000E0102000210391029007E010200290F8
:1018F0000021042005430820039100906802400F56
:10190000022810D001CF0021844600200D90280726
:101910001FD5704670280CD0029A1020039B4240BD
:101920001A430CD015E0FF1DFF08FF0003CF8446CB
:10193000EBE740206A46107401200D900CE06046F1
:10194000084306D030206A46107470465074022056
:101950000D907046582804D029A001900DA80E9033
:101960000DE02CA0F9E76046039B029AFEF7F8FB16
:10197000019B84469B5C0E9A521E0E921370604629
:101980000843F0D10E9805A9081A20300190680785
:1019900001D5009801E0012000900199884203DD03
:1019A00001460198081A00E000200025009006E09A
:1019B00004A8129A405D119990476D1C761C0D98F1
:1019C0008542F5DB04E0129A302011999047761C8D
:1019D0000099481E00900029F5DC08E00E980E9949
:1019E0000078491C0E91129A11999047761C019922
:1019F000481E01900029F1DC641CB4E609280100AE
:101A00003031323334353637383961626364656674
:101A10000000000030313233343536373839414236
:101A2000434445460000000038B50446684604704B
:101A300069460320ABBE204638BD005EBCE2613F74
:101A4000DD83C29C7E20A3FD1F419DC3217FFCA29C
:101A5000401E5F01E3BD3E6082DC237D9FC1421CCE
:101A6000FEA0E1BF5D0380DE3C62BEE0025CDF8180
:101A7000633D7C22C09E1D43A1FF4618FAA427792E
:101A80009BC584DA3866E5BB5907DB856739BAE45C
:101A900006581947A5FB7826C49A653BD987045A8E
:101AA000B8E6A7F91B45C6987A24F8A6441A99C740
:101AB000257B3A6486D85B05E7B98CD2306EEDB3EE
:101AC000510F4E10F2AC2F7193CD114FADF3702E1C
:101AD000CC92D38D6F31B2EC0E50AFF1134DCE904E
:101AE000722C6D33D18F0C52B0EE326C8ED0530D00
:101AF000EFB1F0AE4C1291CF2D73CA947628ABF5AE
:101B000017490856B4EA6937D58B5709EBB53668DB
:101B10008AD495CB2977F4AA4816E9B7550B88D60D
:101B2000346A2B7597C94A14F6A8742AC896154BBF
:101B3000A9F7B6E80A54D7896B3500000000000009
:101B4000000000000000010000000000000600008E
:101B500001000000080000000F810000E5110300F3
:101B60009380000000000000000000000000000062
:101B70000000000004000000000000000000000061
:101B80000000000000127A00000000004000004445
:101B900000000000000000410000000000000144BF
:101BA000030000000400014402000000080001449A
:101BB000020000000C00014423000000200001444A
:101BC000020000002400014402000000280001443B
:101BD000020000002C00014402000000400001440B
:101BE000000000002000004100000000000002444E
:101BF00022A000000400024421A000004000024492
:101C00000000000040000041FF7F000000000000D5
:101C100020205230203D20307825580A0D00202009
:101C20005231203D20307825580A0D00202048618F
:101C30007264204661756C742048616E646C6572D4
:101C40000A0D0000641C000000000020C00000001D
:101C50002C170000241D0000C000002050080000C8
:101C60003C1700000000000002000000120002000B
:101C700058020D00020001000100010000000F00E9
:101C8000020003000A00010000001000020005002D
:101C90000C0002001E000B00010000000E000000FE
:101CA000001BB7000200000011000114E6810F00C4
:101CB00000F5000000000000000001D8D37301000F
:101CC00000C30000000000000000013A6F1409008A
:101CD00000D900000000000000000137476E090035
:101CE00000E60000000000000000013769C909009B
:101CF0000093000000000000000000001C00002015
:101D00002E000020280000200A00002034000020BF
:101D100016000020220000204000002004000020C7
:041D2000100000208F
:04000005000000DB1C
:00000001FF
