:020000040000FA
:10000000D8090020D5000000E3000000E500000052
:10001000FFFFFFFFFFFFFFFFFFFFFFFFFFFFFFFFF0
:10002000FFFFFFFFFFFFFFFFFFFFFFFFFD000000DF
:10003000FFFFFFFFFFFFFFFFFF00000001010000C7
:100040000301000003010000FFFFFFFF03010000A8
:100050000301000003010000030100000301000090
:1000600003010000FFFFFFFF030100000301000088
:1000700065200000BD200000F92000000301000001
:10008000030100002D210000FFFFFFFFFFFFFFFF26
:10009000A72200000301000003010000FFFFFFFF93
:1000A0000301000003010000FFFFFFFFFFFFFFFF50
:1000B0000301000003010000030100000301000030
:1000C0000348854600F09CF8004800479D2E00003C
:1000D000D8090020002001688D460A4880470A4858
:1000E0000047FEE704207146084202D0EFF3098082
:1000F00001E0EFF308807146044A1047FEE7FEE78F
:10010000FEE7FEE7A11E0000C10000006913000029
:1001100030B50B46014600202022012409E00D469F
:10012000D5409D4205D31D469540491B2546954027
:1001300040191546521E002DF1DC30BD03460B431D
:100140009B0703D009E008C9121F08C0042AFAD28D
:1001500003E00B780370401C491C521EF9D2704713
:10016000D2B201E00270401C491EFBD2704700224F
:10017000F6E710B513460A4604461946FFF7F0FFA6
:10018000204610BD30B504460020034600E05B1C4D
:10019000934203D2E05CCD5C401BF8D030BDF0B59B
:1001A0001FB40646002082B005464024019100900D
:1001B0001BE0019922460F46304600F043F8049AAE
:1001C000059B801A994110D310461946224600F02B
:1001D00029F8361A8F410197224601200021009FFD
:1001E00000F020F838184D4100902046641E002889
:1001F000DFDC019B00982946324607B0F0BD0000C5
:10020000064C0125064E05E0E36807CC2B430C3C69
:1002100098471034B442F7D3FFF756FFB4330000C9
:10022000D433000010B5202A04DB0146203A914067
:10023000002010BD914020239C1A0346E34019433F
:10024000904010BD10B5202A04DB0846203AD0406B
:10025000002110BD0B46D340D0402024A21A91406B
:100260000843194610BD30B58C180278401C13079E
:100270001B0F01D10378401C120906D10278401CE3
:1002800003E005780D70401C491C5B1EF9D101E0AC
:100290000B70491C521EFBD1A142E6D3002030BD99
:1002A000F0B583B00026F443012845D805466F48D1
:1002B0000088002840D010024718F8087C283BD856
:1002C0000220394601F0B6F9FF2835D0A84234465D
:1002D00032D001200290830202200024614E01905E
:1002E0002146324601F0CAF8681E41424141F155AB
:1002F000012D00D0E5435C48018849198AB2437951
:100300009B00F25001805A4D6979019801F098F9EB
:10031000411C88B22A88904200D9298069798900D5
:1003200070500225284601F0B5F8029803022846CD
:100330002146324601F08BF9204603B0F0BDC0469D
:10034000F0B585B00024E743022800D984E00D46CB
:10035000064610024118C8087C287DD8404F01206D
:100360000390029383028809C01CC0B201903D4AE9
:1003700004912146009301F081F8093728013840A3
:10038000384D281810220299FFF7D8FE019F3846F1
:1003900001F080F803980302384621462A4602936A
:1003A00001F055F90220049901F044F9B0422746C2
:1003B00052D00546022000272A4C39462246009B8F
:1003C00001F05CF8002D12D0012D18D0FF2D029DF8
:1003D000049828D1012E1DD1039921542248417936
:1003E00089000288521C93B26350028013E0012EF0
:1003F000029D049817D1039921541B480CE0002E4C
:10040000029D04980FD1275417484179890002882A
:10041000521E05E027541548417989000288521C74
:1004200093B2635002802646114C6179022001F09C
:1004300007F9411C88B22288904200D92180617955
:10044000890070500224204601F024F820463946E5
:1004500032462B4601F0FBF8384605B0F0BDC046E9
:10046000E7030000D401002010000020F800002065
:10047000C4000020F0B581B0F54C0125E570277966
:1004800026782920400601F032FF012F11D01E2EC0
:100490000FD0217862181073481C207002290AD1ED
:1004A000A17BC906890F094A515C6170C0B28842BC
:1004B00005D001B0F0BD6178C0B28842F9D1002901
:1004C000F7D0257100F00CF801B0F0BDDC00002081
:1004D000DF48002101710180C170DE480170704762
:1004E00070B5DB4D2878A870287B432829D1687B1C
:1004F000102826D1A97B1F2008400A2806D01E28D4
:1005000007D0142808D100F055F970BD00F01AF892
:1005100070BD00F009F970BDCE4E01203070B420DE
:10052000A873A8782C460C34411E204600F0F2FB3C
:10053000A9780A19521E1070204601F0E6FE00202C
:10054000307070BD70B5C24DA878062808D1284615
:100550000C30062100F080F9002817D0F32000E0CD
:100560009320BC4E01213170A873A8782C460C341E
:10057000411E204600F0CEFBA9780A19521E1070C9
:10058000204601F0C2FE0020307070BDE87B0028DC
:1005900015D0012820D1634801680A79002A1FD0AC
:1005A000098800221346EC180E46D64026740832FD
:1005B0005B1C04682479A342F5D3E91811E0287C78
:1005C00000F0A6FE411C00D1A8E068740921A970C2
:1005D000000AA8741320C4E70920A870B320C0E75C
:1005E0002946103142681379002B0CD01288002361
:1005F0001C461646DE400E550833641C46683679A4
:10060000B442F6D3091982681379002B0CD01288F2
:1006100000231C461646DE400E550833641C8668CF
:100620003679B442F6D30919C2681379002B0CD07D
:10063000128800231C461646DE400E550833641C03
:10064000C6683679B442F6D3091902691379002BCA
:100650000CD0128800231C461646DE400E55083387
:10066000641C06693679B442F6D3091942691379D4
:10067000002B0CD0128800231C461646DE400E5577
:100680000833641C46693679B442F6D30919826985
:100690001379002B0CD0128800231C461646DE402E
:1006A0000E550833641C86693679B442F6D30919AD
:1006B000C2691379002B0CD0128800231C46164601
:1006C000DE400E550833641CC6693679B442F6D351
:1006D0000919026A1379002B0CD0128800231C46DA
:1006E0001646DE400E550833641C066A3679B4425D
:1006F000F6D30919426A1379002B0BD01288002314
:100700001C461646DE400E550833641C466A367990
:10071000B442F6D31820A8701D2022E70920A87043
:1007200073201EE73801002070B5494EB078494D5E
:1007300018280AD130460C30182100F08DF8002816
:1007400018D001202870E52002E0012028708520C3
:10075000B073B07834460C34411E204600F0DAFA0B
:10076000B1780A19521E1070204601F0CEFD00200B
:10077000287070BD0420B070F07B012809D00028DB
:1007800014D1B27C717C307C33461333FFF7D8FD33
:1007900003E03046103001F005FAB0600121297005
:1007A000401C01D00520D3E72520D1E70120287087
:1007B000A520CDE770B5264EB078264D09280AD180
:1007C00030460C30092100F047F8002818D00120ED
:1007D0002870E52002E0012028708520B073B078F1
:1007E00034460C34411E204600F094FAB1780A19C0
:1007F000521E1070204601F088FD0020287070BD48
:10080000F07B022809D001280CD000281AD1B27C34
:10081000717C307CFFF744FD09E0717C307C00F096
:10082000BBF904E0B27C717C307C01F07FF90421DB
:10083000B170B06001212970401C01D00520CDE7C6
:100840002520CBE70420B07001202870A520C5E743
:10085000600100203B00004170B50022491E08D015
:10086000064B04460D46267856409A5D641C6D1E64
:10087000F9D1405C101A411E884170BD7E320000E3
:10088000054908607047C046034909680140481E91
:10089000814108467047C0460000014C99490A78DA
:1008A000002803D0082002430A707047F720024056
:1008B0000A707047F0B58BB000210991089107913B
:1008C0009B48026801231A430260180403900990B0
:1008D00061200001059008900793874D2868874C98
:1008E0002040874A8018286018056E6806436E60AD
:1008F000032216036F68B7436F602E6826402E6090
:10090000804E301F056825407D4C2C1904900460F2
:10091000079C74603446083C099D25609505089C39
:100920002C403768784807403C19346034460C3C0A
:1009300008462160099CA403A40F0693029205D0E7
:100940001404099F27405C04A74203D13768102490
:100950003C4302E034681027BC43346003460A90ED
:1009600005980A90F46804272743F76006990A035C
:1009700066480488944202D18488944201D002805F
:10098000828000923446103C2768FF00FAD5022787
:1009900027700A9F2F4035685B4805403D4335600E
:1009A00010250A9F2F403268AA43D21932600A9359
:1009B00005980A908A040A9D1540376897437A196A
:1009C00032603268120703D4326808251543356057
:1009D00022685200FCD5202727703268BA43326063
:1009E00002998D02089A2A4030680595A84380181C
:1009F00030600D020898284032680195AA4310180B
:100A0000306008980005800F069A82402068000236
:100A1000000F9042FAD108988005800F069A824014
:100A200020680003000F9042FAD18A03089D154008
:100A30000699C803854207D135683D43356025686E
:100A4000002DFCD540252570089D1540376897433B
:100A50002F433760089A039D2A40284D6D1E376842
:100A60002F4017433760079A7260089A1204950F57
:100A70000A46AA4025686D016D0F9542FAD10822F9
:100A8000B260234CF460234C346193307061336264
:100A90007362B36233637363B3633068059B184258
:100AA00002D0306890433060089818408A02904223
:100AB00018D00898019A10400902884212D0009874
:100AC000401E124A9188014091800899194099422C
:100AD00008D00899019A1140914203D00B4A11881D
:100AE00001401180049A10680449084010600A48C7
:100AF0000A4901600BB0F0BD0C00004D0000FFFF83
:100B000017A200001000014CFFFF3FFF3400024419
:100B10000F810000E5110300F400002000127A00AC
:100B200080B5FFF7C7FE02480121017080BDC046B5
:100B30000400034C70B500F067FF0024002826D0A5
:100B4000332000F089FF00F00BFF124E307000F0F0
:100B500007FF707000F004FFB07000F001FFF0704C
:100B600000F0FEFE307100F0FBFE707100F0F8FE48
:100B7000B07100F0F5FE0546F0713078012806D11D
:100B80000448072100F0C6F8281A44424441204690
:100B900070BDC046C4010020F0B581B00D460021F3
:100BA000CC4300285CD001286FD1584F3868428868
:100BB0000088904209D10420021D202A5CD03858B8
:100BC0004388008898421046F6D00126B3020024DC
:100BD0004F4D204621462A4600F050FC3868418897
:100BE00001804079800029507868418801804079EF
:100BF00080002950B86841880180407980002950E0
:100C0000F86841880180407980002950386941881E
:100C100001804079800029507869418801804079BD
:100C200080002950B86941880180407980002950AE
:100C3000F64F7979204600F003FD411C88B23A88CE
:100C4000904200D93980797989006850204600F0B7
:100C500021FC3302204621462A4600F0F8FC14E02D
:100C6000012D12D8E448008800280ED0E34A1288EB
:100C7000012D05D1824203D10C46204601B0F0BDC2
:100C8000002D05D1002A0C4602D1204601B0F0BD4E
:100C9000012000908602022000241D4F21463A4682
:100CA000334600F0EBFB193E03E0761E7F1C002E5E
:100CB00004D03878FF28F8D03D70F6E7002DCF4AF1
:100CC00001D0CD480588A8B251798900104E7050E6
:100CD0001580CE4D6979022000F0B2FC411C88B22B
:100CE0002A88904200D929806979890070500225AC
:100CF000284600F0CFFB00980302284621463246E2
:100D000000F0A5FC204601B0F0BDC046380100202F
:100D1000D401002010B50022002907D0044BD2B224
:100D2000047854401A5D401C491EF8D1104610BD8D
:100D30007E320000F0B581B00520800200F0F2FBA9
:100D40000020014600F07CFCAA2800D0A4E0A94DB8
:100D5000286841790024204600F072FC2968088048
:100D600068684179204600F06BFC69680880A868D3
:100D70004179204600F064FCA9680880E868417960
:100D8000204600F05DFCE96808802869417920462A
:100D900000F056FC2969088068694179204600F016
:100DA0004FFC69690880A8694179204600F048FC39
:100DB000A9690880904D69790226304600F040FC10
:100DC00028808E4D69790096304600F039FC2880E5
:100DD000FF262046314600F033FC0546012420461C
:100DE000314600F02DFC0746A84200D82F46009857
:100DF000314600F025FCB84200D8384683490880C7
:100E00007F4D286801780A267143204600F018FCBF
:100E10002968C87008787043411C204600F010FC17
:100E20002968887008787043811C204600F008FC0F
:100E300029684870686801787143204600F000FC1A
:100E40006968C87008787043411C204600F0F8FBC0
:100E50006968887008787043811C204600F0F0FBB8
:100E600069684870A86801787143204600F0E8FB83
:100E7000A968C87008787043411C204600F0E0FB68
:100E8000A968887008787043811C204600F0D8FB60
:100E9000A968487001B0F0BD0024FF270125204655
:100EA00039462A4600F0E0FB284639462A4600F03B
:100EB000DBFB0226304639462A4600F0D5FB4D4F73
:100EC000386842884179204600F0CEFB7868428835
:100ED0004179204600F0C8FBB86842884179204635
:100EE00000F0C2FBF86842884179204600F0BCFB64
:100EF000386942884179204600F0B6FB786942881B
:100F00004179204600F0B0FBB8694288417920461B
:100F100000F0AAFB384842884179304600F0A4FB33
:100F2000364842884179304600F09EFB344E3068A6
:100F300001780A277943C9B2C278284600F094FBA9
:100F4000306801787943491CC9B28278284600F09C
:100F50008BFB306801787943891CC9B242782846F6
:100F600000F082FB706801787943C9B2C2782846E4
:100F700000F07AFB706801787943491CC9B2827825
:100F8000284600F071FB706801787943891CC9B26A
:100F90004278284600F068FBB06801787943C9B20E
:100FA000C278284600F060FBB06801787943491C9C
:100FB000C9B28278284600F057FBB06801787943BF
:100FC000891CC9B24278284600F04EFBAA2220466E
:100FD000214600F049FB0B4808210B4E324600F039
:100FE00049FC2846214622463346FFF7A9F901B0BD
:100FF000F0BDC04638010020F8000020100000209D
:101000001801002026010020B4010020C4000020A7
:10101000F0B583B09B48002404704470C47101256E
:101020000572029544728472974E032101913046F5
:1010300000F053F93046294600F061F93046214668
:1010400000F032F93046214600F03FF930462146A3
:1010500000F04CF93046214600F02EF9304621468A
:1010600000F016F9351D02272846394600F035F9FB
:101070002846214600F043F92846214600F014F99D
:101080002846214600F021F92846214600F02EF995
:101090002846214600F010F92846214600F0F8F8CD
:1010A000354608352846394600F017F928462146C6
:1010B00000F025F92846214600F0F6F8284621469A
:1010C00000F003F92846214600F010F92846214691
:1010D00000F0F2F82846214600F0DAF835460C35E3
:1010E0002846019900F0F9F82846029900F007F91E
:1010F0002846214600F0D8F82846214600F0E5F8B9
:101100002846214600F0F2F82846214600F0D4F89F
:101110002846214600F0BCF8354620352846394699
:1011200000F0DBF82846214600F0E9F82846214681
:1011300000F0BAF82846214600F0C7F828462146B4
:1011400000F0D4F82846214600F0B6F8284621469B
:1011500000F09EF8354624352846394600F0BDF8A3
:101160002846214600F0CBF82846214600F09CF89E
:101170002846214600F0A9F82846214600F0B6F896
:101180002846214600F098F82846214600F080F8CD
:10119000354628352846394600F09FF8284621462E
:1011A00000F0ADF82846214600F07EF8284621469A
:1011B00000F08BF82846214600F098F82846214692
:1011C00000F07AF82846214600F062F82C363046C6
:1011D000394600F082F83046214600F090F830465B
:1011E000214600F061F83046214600F06EF83046A6
:1011F000214600F07BF83046214600F05DF830468D
:10120000214600F045F8214E3046394600F065F899
:101210003046029F394600F072F83046214600F011
:1012200043F83046214600F050F83046214600F0A1
:101230005DF83046214600F03FF80A253046294641
:1012400000F026F8361D3046394600F046F83046A4
:10125000394600F054F83046214600F025F8304673
:10126000214600F032F83046214600F03FF8304683
:10127000214600F021F83046294600F009F803B075
:10128000F0BDC046310000410000014400000244AE
:101290000268044B1340090319430122D20789183D
:1012A00001607047FF0FFF7F026808239A43C90758
:1012B000090F51180160704703229202036893439B
:1012C000036002680A4302607047026880239A4301
:1012D000C907090E511801607047026807239A4335
:1012E000026002681A400A43026070470322120239
:1012F00003689343036002680A4302607047026810
:1013000020239A43C907890E5118016070470000D5
:101310000A2802D90020C0437047800001490858BC
:101320000088704738010020F0B581B001F0E6FC7C
:10133000FF2812D001460A4C207838252A4642431D
:10134000084EB218CF00D2195268002A01D0904737
:10135000207845437019C05D207001B0F0BDC046D3
:10136000CD0100201C0000200C4601681B4D2960A7
:10137000416869608168A960C168E96001692961A3
:10138000416969618169A961C069E861144801F036
:10139000DFFD2968134801F0DBFD6968124801F0A0
:1013A000D7FDA96811A001F0D3FDE96813A001F0F1
:1013B000CFFD296915A001F0CBFD696917A001F0E7
:1013C000C7FDA9691BA001F0C3FDE9691FA001F0D9
:1013D000BFFD24A0214601F0BBFDFEE78C010020EB
:1013E0009A3300007E3300008C33000020205232FC
:1013F000203D20307825580A0D000000202052336F
:10140000203D20307825580A0D0000002020523160
:1014100032203D20307825580A0D000020205374DA
:1014200061636B6564204C52203D20307825580A5A
:101430000D0000002020537461636B6564205043ED
:10144000203D20307825580A0D00000020205374DC
:1014500061636B656420505352203D2030782558DD
:101460000A0D0000202043757272656E74204C5284
:10147000203D20307825580A0D00000010B50D24BD
:10148000640680020019411810461A46FEF756FEFF
:1014900010BD0000F0B59B4909680D22520680027C
:1014A00086180F204006304090423AD10820014073
:1014B00037D09549081F0468944A1440944AA418E8
:1014C00004600D68012425430D604F6802252F43F9
:1014D0004F600F6820233B43D027BB430B6046235C
:1014E0000B73BE238B810B46103B22271F70BFF36B
:1014F0006F8F0027FA4332601A780268834E3240B9
:10150000834BD21802600F730A68F0239A430A6073
:101510004A68AA434A600A68A2430A6001683140E7
:101520000160F0BD70B504460B4D284600F060FF29
:1015300001263046FFF7B2F9B007FFF7A5F90028FA
:10154000FAD02020FFF79CF9284600F0DFFA204669
:1015500000F0CAF970BDC0460C00014C80B50D23E7
:101560005B06C018FEF70EFE4142484180BD0000F8
:10157000F0B582B0634B1C680123240757D50326BE
:101580000D4635406C426C41064075427541460E31
:101590000D2E4CD125434AD0F04C23685B4E33408E
:1015A0005B4D5B1923606368012501952B436360E4
:1015B000A368022500952B43A360636810251D4393
:1015C000E0239D43656046232374BE232382236862
:1015D00033402360002325460C3D22272F70BFF3A4
:1015E0006F8F0E6806602D783D40022D07D15B1C81
:1015F000001D091D9342EED30023019D01E0019DD2
:101600002B462068414A1040414908432060002091
:1016100020746068F02188436060A0680099884366
:10162000A0606068A8436060206810402060184691
:1016300002B0F0BD0D22520680028018405C704757
:101640000D2252068002801889004058704780B5EC
:101650008900800240180D214906401811461A469B
:10166000FFF786FF80BD0000F0B581B0254B1B68F9
:101670001B0702D4012001B0F0BD234D2C1F2668AA
:1016800000920246214806402148301820602B680D
:10169000012003432B606E6802231E436E602E6898
:1016A00010273743E026B7432F6046262E73B9260E
:1016B000AE812E46103E22273770890092025118C3
:1016C000BFF36F8F0D225206009F8F5021680F4F7E
:1016D00039400F4A891821602968F0229143296016
:1016E00069689943696029688143296021683940A4
:1016F00021603178890602D53178890700D500202C
:1017000001B0F0BD1000014C1000004D0000FFFFC3
:1017100017A2000005490A680123002802D01A43D5
:101720000A6070479A430A607047C0461000005D27
:1017300004490A68F0239A430007000E1018086055
:101740007047C0460800005D0148024901807047AB
:101750000C00005D14200000F0B581B01248082193
:10176000124A00F087F8124E3088002819D0032062
:10177000840200270D4D04E010347F1C308887421E
:101780000FD2B9B20220FFF755FF0128F4D1102281
:1017900020462946FFF7E2FE0028EDD0012001B0E7
:1017A000F0BD002001B0F0BDC4010020B401002054
:1017B000F8000020F0B581B00C46054608683F27C8
:1017C00038400A461832802111544740401C2646B2
:1017D0005036072F0CD8101839460092FEF7C7FC78
:1017E0004027204600993A4600F018FE009A002053
:1017F0001018083F39461746FEF7B9FC03CC716054
:10180000410DF170410BB17041097170C000307031
:10181000083C206040222046394600F0FFFDA068C9
:101820002870A068000A68706089A870E07AE87083
:10183000E0682871E068000A6871E089A871E07BBF
:10184000E871206928722069000A6872608AA872AB
:10185000E07CE872606928736069000A6873E08A56
:10186000A873E07DE87398212046FEF780FC01B064
:10187000F0BD0000F0B5A7B014460D460646164868
:10188000069016480590164804901648039001AF3C
:10189000183780213846FEF76AFC680F029007204F
:1018A0004007294681430191402D0AD300943F24EB
:1018B0002A46A24301A8314600F0B0FD0646254065
:1018C000009C384631462A46FEF738FC01A92046DE
:1018D000FFF770FF27B0F0BD76543210FEDCBA98E7
:1018E00089ABCDEF01234567F0B583B006461B4FAA
:1018F000F9697868800203D40124204603B0F0BD62
:101900000191B00802903D460C3D0124200428605E
:10191000384600F06DFDB00503D02002029E361857
:1019200000E0029EFE61384600F0F0F82868C0032F
:1019300009D4032080078643B88B864203D1002454
:10194000204603B0F0BD384600F052FD0198F86122
:10195000384600F0DBF8204603B0F0BD0C00004D27
:10196000F0B581B0002637460096674C01256548E2
:101970002946FFF7B2FC0098207000BF00BF00BFEF
:1019800000BF00BF00BF00BF00BF00BF00BF00BF5F
:1019900000BF00BF00BF00BF00BF00BF00BF00BF4F
:1019A00000BF00BF00BF00BF00BF00BF00BF00BF3F
:1019B00000BF00BF00BF00BF00BF00BF00BF00BF2F
:1019C00000BF00BF00BF00BF00BF03214D48FFF7AD
:1019D00084FC2078002801D1054600E0BD40462067
:1019E00000BF00BF00BF00BF401EF9D12E437F1CC7
:1019F000082FBBD1F0B201B0F0BDC04680B50146A2
:101A00004048FFF76AFC80BD70B53E4C012120467E
:101A1000FFF763FC3C4E002030701920050128467A
:101A2000503000BF00BF00BF00BF401EF9D10321EE
:101A30002046FFF752FC502000BF00BF00BF00BF90
:101A4000401EF9D1317800BF00BF00BF00BF6D1E3E
:101A5000F9D14842484170BDF0B581B00446002735
:101A6000284D3E4602E0761C082E49D0012128462A
:101A7000FFF733FC244807702046F040C00733D0FE
:101A800000BF00BF00BF00BF00BF00BF00BF00BF5E
:101A900000BF00BF00BF00BF00BF00BF00BF00BF4E
:101AA00000BF00BF00BF00BF00BF00BF00BF00BF3E
:101AB00000BF00BF00BF00BF00BF00BF00BF00BF2E
:101AC00000BF00BF00BF00BF00BF00BF00BF00BF1E
:101AD00003212846FFF701FC462000BF00BF00BFDE
:101AE00000BF401EF9D1BEE7502000BF00BF00BFBD
:101AF00000BF401EF9D103212846FFF7EEFBB2E7F5
:101B000001B0F0BD0000014430000041002101801F
:101B100001207047044A1368002902D00343136070
:101B200070478343136070471400004CF0B581B0D8
:101B30000024072803D9E443204601B0F0BD80000B
:101B4000D44B12025718195809888F42F4D01D1827
:101B50000120009083020024CF4E204621463246C9
:101B6000FFF78CFC28680780407980003750CB4F06
:101B700079792046FFF764FD411C88B23A8890428B
:101B800000D939807979890070502046FFF782FCAE
:101B900000980302204621463246FFF758FD2046B2
:101BA00001B0F0BDF0B581B00446BA4801680879CB
:101BB00000280FD000231D461A46665D9E40B6B22F
:101BC000324308336D1C8542F7D36019098891426E
:101BD00006D095E0002220460988914200D08FE08F
:101BE000AC4949680B79002B0FD000252E462A46B8
:101BF000875DAF40BFB23A430835761C9E42F7D3AB
:101C000080190988914204D07AE000220988914223
:101C100076D1A04989680B79002B0FD000252E467C
:101C20002A46875DAF40BFB23A430835761C9E42D4
:101C3000F7D380190988914204D061E00022098815
:101C400091425DD19349C9680B79002B0FD00025D3
:101C50002E462A46875DAF40BFB23A430835761C10
:101C60009E42F7D380190988914204D048E00022AF
:101C70000988914244D1874909690B79002B0FD01B
:101C800000252E462A46875DAF40BFB23A4308354D
:101C9000761C9E42F7D380190988914204D02FE028
:101CA0000022098891422BD17A4949690B79002B8E
:101CB0000CD000252E462A46875DAF40BFB23A437E
:101CC0000835761C9E42F7D3801900E0002209886F
:101CD000914215D16F4989690A79002A0BD00025F4
:101CE0002E462B46875DAF40BFB23B430835761C7E
:101CF0009642F7D300E000230888984200D1C5E05F
:101D00000120009083020027634A38463946FFF7D6
:101D1000B5FB604800680279002A0BD000210B4611
:101D20000E46E55C8D402E4308315B1C9342F8D390
:101D3000E41800E03E460680B1B240798000564E7D
:101D40003150544840680279002A0CD000231E46C6
:101D50001946A55D9D4029430833761C9642F8D369
:101D6000A4194D4E00E03946018089B240798000C7
:101D70003150484880680279002A0CD000231E4662
:101D80001946A55D9D4029430833761C9642F8D339
:101D9000A419414E00E03946018089B240798000A3
:101DA00031503C48C0680279002A0CD000231E46FE
:101DB0001946A55D9D4029430833761C9642F8D309
:101DC000A419354E00E03946018089B2407980007F
:101DD0003150304800690279002A0CD000231E4699
:101DE0001946A55D9D4029430833761C9642F8D3D9
:101DF000A419294E00E03946018089B2407980005B
:101E00003150244840690279002A0CD000231E4634
:101E10001946A55D9D4029430833761C9642F8D3A8
:101E2000A4191D4E00E03946018089B24079800036
:101E30003150184880690179002909D000221346E1
:101E40001746E55C95402F4308325B1C8B42F8D364
:101E50000780B9B2407980003150104C6179002080
:101E6000FFF7EEFB411C88B22288904200D9218006
:101E700061798900705000242046FFF70BFB009821
:101E80000302204621463246FFF7E1FB002001B065
:101E9000F0BDC04638010020D4010020C40000205D
:101EA0000148024901607047F4000020001BB700A0
:101EB00080B51E4802781E480178002A04D0002907
:101EC00009D00178491E0BE01B4A1278914205D2D5
:101ED0000178491C04E01748002101E01548012160
:101EE000017016480178002907D112490A78012AA1
:101EF00003D109780170002009E00178012908D197
:101F00000C490A78002A04D109780170042000F0F5
:101F1000EBFF0B480178002906D0491C0170C8B2BC
:101F20000B2801D3FEF7D4FA80BDC0463300004130
:101F3000D4050020AD01002024010020D50500209B
:101F400063010020F0B585B002AD284600F053F9DA
:101F50009F200090E880F9262E81552007063846FC
:101F6000294600F052F910210191012438462246F9
:101F700000F037F93846214600F02CF90098E88047
:101F80002E814D4F3846294600F03FF93846019ED4
:101F90003146224600F025F93846214600F01AF96C
:101FA0000F200090E8802C482881AB20C7053846D8
:101FB000294600F02AF938463146224600F011F948
:101FC0003846214600F006F9009EEE80224828811E
:101FD000554F3846294600F018F93846019F3946D2
:101FE000224600F0FEF85048214600F0F3F8EE805B
:101FF000194828816F4E3046294600F006F93046D0
:102000003946224600F0EDF83046214600F0E2F86D
:102010002003F54908601148026840231343BF229A
:102020009343036062030A6003680D4A134003256B
:10203000AD035B190360A3030B60FF231B0405685A
:102040009D43056063040B6041681140E2038918F9
:10205000416005B0F0BDC0464FC3FFFF0CE400E097
:10206000FF00FFFF70B511480178C90715D100784E
:1020700080071AD50E4E3088411C31800D490988E1
:102080000D4C88420DD100252046294600F000F96C
:102090003580052000F028FF03E0FFF709FF5520F9
:1020A00004061021204600F093F870BD6C0000502B
:1020B000D6050020360100200000015570B50C4EF9
:1020C0003068411C3160AB21CC050A49096888425F
:1020D00008D100252046294600F0DAF835600320B3
:1020E00000F002FF1021204600F072F870BDC046DB
:1020F000B00100200001002010B50B4CFEF71AFDC6
:1021000001280CD10021204600F0C2F8FFF724FB83
:10211000002801D0012000E0022000F0E5FE10219F
:10212000204600F055F810BD0000865510B51F4838
:1021300001781F4A12781F4C914207D20178491C3E
:1021400001701021204600F043F810BD1A490868BC
:102150001A4A126890420BD10021204600F098F8EC
:10216000062000F0C1FE1021204600F031F810BD1D
:102170000868421C0A6012490978FDF7C9FF002966
:10218000DFD1104801784A424A4102700E490A786C
:102190000E49002A03D10278534253410B70007854
:1021A00008721021204600F013F810BDAC01002089
:1021B0002501002000008656080000200C000020A9
:1021C0000400002005000020CC0100203100004167
:1021D00001607047012211404368934359184160E0
:1021E0007047012A03D142680A434260704742683F
:1021F0008A434260704705210181C180002101802E
:102200008170C17001714171704770B5CA888B7857
:10221000002B144600D11C46048582850A894B7820
:10222000002B144600D11C46048482840A7803697A
:102230003024A3439207920E9A180261CB78402271
:10224000D24384681440DB075B0EE31883600C798B
:102250008023DB4385681D40E407240E2C1984602D
:102260004C7903252D038668AE43A407A40CA4195A
:1022700084604C7805691540E207520EAA18026185
:10228000897802691A40C907090E5118016170BDA9
:10229000027C012903D0FC210A400274704703210B
:1022A0000A4302747047B0B529204406204600F066
:1022B00018F80546204600F018F82840400605D5D5
:1022C000FEF7D8F84021204600F001F8B0BD2122E9
:1022D000914301607047026901239A430A430261F6
:1022E0007047006821218843704740687047006B41
:1022F0007047426801239A430A43426070474A4349
:1023000043688B43134343607047F0B581B0064682
:102310002920440600290DD00D4600273278206878
:102320000006FCD50121204600F00AF87F1C761C2F
:10233000AF42F3D120684007FCD501B0F0BD0000EA
:10234000491E03290AD8C0467944097949008F44B7
:1023500001070A0D342142540020704701207047C4
:10236000828600207047826300207047426300200D
:102370007047000070B5184E306818490140316050
:102380001748332181800721F173717303210906F6
:1023900032680A4332604021B1733173C022027047
:1023A000B068104A0240B2603446083C012520461D
:1023B0002A46FFF7A4FF20462946FFF79AFF280583
:1023C0000949086009480168FF22914301603069AA
:1023D0000C210143316170BD08000052F1FFCCFFB8
:1023E0002000005285FFFCFF00E100E014E400E063
:1023F000014901800120704717A2000010B5064C6A
:102400002046FFF7F5FF0121C802FFF783FB2046B6
:10241000FFF77CFB10BDC0460C00004CF0B59CB033
:10242000876805460C3538CD0190803000900893C0
:102430001B91029703951A94049208781B99497886
:10244000090208181B998978090440181B99C97852
:10245000090640181290019B98651B9800791B99FA
:102460004979090208181B998979090440181B99B0
:10247000C979090640181790D8651B98007A1B99EE
:10248000497A090208181B99897A090440181B998E
:10249000C97A09064018199018661B98007B1B9989
:1024A000497B090208181B99897B090440181B996C
:1024B000C97B09064018149058661B98007C1B992C
:1024C000497C090208181B99897C090440181B994A
:1024D000C97C09064018189098661B98007D1B99C6
:1024E000497D090208181B99897D090440181B9928
:1024F000C97D090640181190D8661B98007E1B996B
:10250000497E090208181B99897E090440181B9905
:10251000C97E09064018159018671B98007F1B9903
:10252000497F090208181B99897F090440181B99E3
:10253000C97F090640180E90586720201B99085C37
:102540001B9A203251780902081891780904401822
:10255000D178090640180A909867107951790902D4
:102560000818917909044018D17909064018169085
:10257000D867107A517A09020818917A090440182C
:10258000D17A090640180F90009B1860107B517B90
:1025900009020818917B09044018D17B09064018EC
:1025A00013905860107C517C09020818917C090432
:1025B0004018D17C090640180C909860107D517D20
:1025C00009020818917D09044018D17D09064018B8
:1025D0001090D860107E517E09020818917E09047F
:1025E0004018D17E090640180B901861107F517F6A
:1025F00009020818917F09044018D17F0906401884
:102600000D90586128466040089A1040684038187C
:1026100012994018FC49401819210691C8411146E9
:10262000841810461A99484020401A994840179932
:1026300069180818F54940181426F0410719204672
:1026400050403840504013461A99199A8918081872
:10265000EF4940180F210991C841C119384660401F
:1026600008406040149A9A181018EA4A80180A2202
:102670000792D04140180D467D4005407D40189B93
:10268000E4186419E44D6419069AD44124180546E7
:102690004D4025404D40119BFF187D19DF4FED192E
:1026A0000596F5412F19254645403D404540159B6F
:1026B000C9184919DA4D4919099BD941C9193D462B
:1026C00065400D4065400E9BC0184019D54D40191E
:1026D000079BD84140180D467D4005407D400A9B30
:1026E000E4186419D04D6419D441241805464D40AE
:1026F00025404D40169BDF197D19CC4FED19F54152
:102700002F19254645403D4045400F9B5918491912
:10271000C74D4919099AD141CD193946614029401F
:102720006140139B18184018C2494018079EF04199
:10273000401929467940014079400C9B1C196118C9
:10274000BD4C0919069BD9410C180146694021402E
:102750006940109BDF197918B84FC919059BD941F9
:102760000919274647400F4047400B9B5D19ED195B
:10277000B34FED19D5416B180D4665401D406540BE
:102780000D9F38184019AF4D4019F041C21810463E
:10279000584008405840179D2C192018AA4C001981
:1027A0001B240594E04184182046504018405040B6
:1027B000159D69180818A54940181726F041354697
:1027C0000696071938466040104060401399C918B2
:1027D00008189F49401812210791C841C11908469D
:1027E000784020407840129B9A181018994A801817
:1027F0000C220992D04142181046484038404840C7
:10280000119B1C192018944C0019059EF041841846
:1028100020465040084050400F9BDF1938188F4F1A
:10282000C019E841071938466040104060400D9BD0
:10283000591808188A4940180799C841C11908460B
:10284000784020407840189DAA181018854A8018B2
:10285000099AD041401802464A403A404A40169DE3
:102860002C19A218FD4C1219F241141822464240AC
:102870000A4042400B9BDF19BA18F94FD219069B48
:10288000DA4117193A46624002406240149D6918C5
:102890008918F44A8918079EF141C9190A467A40F5
:1028A00022407A400A9B18188018EF4A8018099A2B
:1028B000D041401802464A403A404A40109D2C19E7
:1028C000A218EA4C1219059CE24114182246424013
:1028D0000A404240199DEF19BA18E54FD219069DDA
:1028E000EA4115192A466240024062400E9F79185B
:1028F0008918E04A8918F14149190A466A40174681
:1029000027406F400C9E3018C019DB4FC019099E3C
:10291000F04147187A40119800198018D74A80185A
:102920001C26F0410996C4193846484060405A199F
:102930001018D34A801815220692D0410519204656
:1029400078406840139A51180818CE494018102151
:102950000591C84142192946614051400B98C71959
:102960007918C9480F1809200790C741BF181046A9
:1029700068407840179B1C192018C44C0019F0417E
:10298000C419384650406040189B5D192818C04D46
:1029900040190699C84105192046784068400E9BA9
:1029A0009A181018BB4A8018059EF04140192A4613
:1029B000624042400F9BDF19BA18B74FD219079BEC
:1029C000DA41171802466A407A40109B1C19A21877
:1029D000B24C1219099BDA41D4193A46424062407E
:1029E000129B5D19AA18AE4D5219CA4115192246FB
:1029F0007A406A40149B18188018AA4A8018F0413F
:102A000040192A4630E0C04678A46AD756B7C7E8CE
:102A1000DB702024EECEBDC1AF0F7CF52AC6874700
:102A2000134630A8019546FDD8988069AFF7448BCE
:102A3000B15BFFFFBED75C892211906B937198FD4B
:102A40008E4379A62108B44962251EF640B340C0E2
:102A5000515A5E26AAC7B6E95D102FD65314440218
:102A600081E6A1D8C8FBD3E762404240159BDF193D
:102A7000BA188D4FD2190799CA41171802466A40F1
:102A80007A40169B1C19A218884C1219099BDA412E
:102A9000D4193A46424062400C9B5D19AA18844DF5
:102AA0005219069BDA41121925467D4055400D9B6F
:102AB000181840197F4D4019F041801813466340A3
:102AC0004340199DED19EB187B4D5B19CB4119184B
:102AD000D3430B434340129D2C19E318774C1B1929
:102AE0001A240994E3415C18C34323434B400E9DD1
:102AF000AA18D218724BD2181626F2411519CA43D9
:102B00002A4362400B9B181880186E4A80181122C5
:102B10001292D0414719E04338436840119B59183D
:102B20000818694940180B211191C841C019E9439F
:102B3000014379400C9B1C196118644C0919099ACE
:102B4000D1410C18F94321434140149B5D19691888
:102B50005F4D49190E96F1410D19C143294361405A
:102B60000F9BDF1979185B4FC919129BD9414F1977
:102B7000E14339436940179B1818401856494018DB
:102B80001199C841C019E943014379400A9B1C19B6
:102B90006118524C0919D1410918FC430C434440B7
:102BA0000D9B5D192C194E4D6419F4416518C443F1
:102BB0002C434C40159BDF193C194A4FE419129ADB
:102BC000D4416719CC433C436C40109B1818001942
:102BD000454C0019119EF041C419E8432043784048
:102BE000189B59180818414940180999C8410019FB
:102BF000F94301436140139B5D1969183C4D491924
:102C00000E9BD9410918E5430D434540199BDF1937
:102C10007D19384FED19D5416A18089BD518C7435F
:102C200017434F40169B1C19E419029F324BE418BE
:102C3000F4412B19039D1A9C1419049A4D191B99E0
:102C4000C7194031403A01D0FFF7F1FB0198876086
:102C50000C3038C008461CB0F0BDC046E6CDE121BE
:102C6000D60737C3870DD5F4ED145A4505E9E3A916
:102C7000F8A3EFFCD9026F678A4C2A8D4239FAFF1C
:102C800081F6718722619D6D0C38E5FD44EABEA492
:102C9000A9CFDE4B604BBBF670BCBFBEC67E9B2887
:102CA000FA27A1EA8530EFD4051D880439D0D4D99C
:102CB000E599DBE6F87CA21F6556ACC4442229F4F2
:102CC00097FF2A43A72394AB39A093FCC3595B65B4
:102CD00092CC0C8F7DF4EFFFD15D84854F7EA86F81
:102CE000E0E62CFE144301A3A111084E827E53F7A7
:102CF00035F23ABDBBD2D72A91D386EB88494878C2
:102D00000A78904201D1FF2070478A78521E824291
:102D100004D0421C0818C0784A7070470022081876
:102D2000C0784A707047C046014800210170704762
:102D3000D505002010B5544800242146FFF7A8FA15
:102D40000320FEF75BFE114801210170504804701A
:102D500010BDC04680B54C480121FFF799FA4D4897
:102D60004078414241414A480170084800210170C1
:102D700080BDC0464648002101700122027203480E
:102D800001704448426042707047C046CC01002048
:102D900010B53C4C6078012803D13B480121FFF776
:102DA00077FA3B48002202700121017239484160E4
:102DB0002270417006230370D24382603648FFF7C9
:102DC00067FA10BD10B5304800242146FFF760FABD
:102DD0000320FEF713FE2E480470012101722D48D6
:102DE0004160284A147041700170062282602A48AE
:102DF000FFF74EFA10BDC0467047000010B5AB207B
:102E0000C00501242146FFF743FA1F482146FFF77A
:102E10003FFA1F480021017004721E484460194A9D
:102E20001170447006220270C94381601A4821461D
:102E3000FFF72EFA10BDC04670B5AB20C0050024C8
:102E40002146FFF725FA0F4E74600F482146FFF721
:102E50001FFA0320FEF7D2FD0C4801252946FFF793
:102E600017FA0B48047005720A48456034704570C3
:102E7000022101701021816007482946FFF708FAF6
:102E800070BDC046AC010020000086550000015511
:102E900031000041040000200000865672B6FDF7A4
:102EA0003FFEFDF747FFFEF7B3F8FFF74BF8FFF7DC
:102EB00061FAFFF7A3FA2920400601242146FFF713
:102EC0000AFA552000062146FFF7E2F905480021DD
:102ED0000170072000F026F862B6FEF725FA00F030
:102EE00033F8FAE73B00004110B50D498A78521ECD
:102EF0004B789A4204D05C1CE4B2A34204D110BDCA
:102F00000024E4B2A342FAD00B78CC18E0709A42C5
:102F100002D0581C087010BD0020087010BDC046BB
:102F200004010020B0B50446064D2846FFF760FABC
:102F30002046FEF7FDFB0120FEF7ECFB2846FEF7DE
:102F4000E5FDB0BD0C00005D80B5FEF7FDFB80BD6A
:102F50000FB410B503A9044B044A029800F018F806
:102F600010BC08BC04B018476D32000000000020FF
:102F700002E008C8121F08C1002AFAD17047704742
:102F8000002001E001C1121F002AFBD170470000A0
:102F9000FFB58FB00F460446002606E025280AD06C
:102FA000129A11999047641C761C20780028F5D15C
:102FB000304613B0F0BD00250121A14A009500E084
:102FC0000543641C23780846203B98401042F7D103
:102FD00020782E2815D1042005436078641C2A2807
:102FE0000AD101CF641C00900BE000990A225143E2
:102FF00030394018641C0090207801463039092986
:10300000F3D920786C280ED004DC4C2813D06A2821
:1030100012D104E074280ED07A280DD10BE00120E3
:103020004005054307E00121090562780D4382420E
:1030300001D16D18641C641C2078864669284AD02A
:1030400008DC0028B4D058286DD0632810D064283C
:1030500008D140E070286BD0732812D0752860D05A
:10306000782860D0129A704611999047761CE5E056
:103070003878694608720020487202A80190012041
:1030800003E0386801900020C0433F1D69070CD55C
:10309000002500E06D1C00998D420FDA8542F9DBB6
:1030A0000199495D0029F5D108E0002500E06D1C7B
:1030B0008542FCDB0199495D0029F8D1761907E0CA
:1030C000019801990078491C0191129A1199904731
:1030D0006D1EF5D2B2E00A20029000216802400F76
:1030E000039102280CD001CFC117844600290DDAC4
:1030F0006246084652420021814194462D2008E054
:10310000FF1DFF08FF0003CF8446EFE7280504D525
:103110002B206A46107401203CE0E8073AD02020BA
:10312000F7E70A2000E0102000210391029007E059
:1031300010200290002104200543082003910090F4
:103140006802400F022810D001CF002184460020E1
:103150000D9028071FD5704670280CD0029A1020B9
:10316000039B42401A430CD015E0FF1DFF08FF00EF
:1031700003CF8446EBE740206A46107401200D908F
:103180000CE06046084306D030206A461074704652
:10319000507402200D907046582804D029A0019048
:1031A0000DA80E900DE02CA0F9E76046039B029A53
:1031B000FCF7F5FF019B84469B5C0E9A521E0E9213
:1031C000137060460843F0D10E9805A9081A203004
:1031D0000190680701D5009801E001200090019955
:1031E000884203DD01460198081A00E0002000250E
:1031F000009006E004A8129A405D119990476D1C5A
:10320000761C0D988542F5DB04E0129A3020119966
:103210009047761C0099481E00900029F5DC08E0D4
:103220000E980E990078491C0E91129A11999047A8
:10323000761C0199481E01900029F1DC641CB4E65B
:10324000092801003031323334353637383961627C
:103250006364656600000000303132333435363740
:1032600038394142434445460000000038B5044621
:103270006846047069460320ABBE204638BD005E38
:10328000BCE2613FDD83C29C7E20A3FD1F419DC344
:10329000217FFCA2401E5F01E3BD3E6082DC237DF6
:1032A0009FC1421CFEA0E1BF5D0380DE3C62BEE028
:1032B000025CDF81633D7C22C09E1D43A1FF461856
:1032C000FAA427799BC584DA3866E5BB5907DB8504
:1032D0006739BAE406581947A5FB7826C49A653BB6
:1032E000D987045AB8E6A7F91B45C6987A24F8A6E8
:1032F000441A99C7257B3A6486D85B05E7B98CD216
:10330000306EEDB3510F4E10F2AC2F7193CD114FC3
:10331000ADF3702ECC92D38D6F31B2EC0E50AFF175
:10332000134DCE90722C6D33D18F0C52B0EE326CA7
:103330008ED0530DEFB1F0AE4C1291CF2D73CA94D5
:103340007628ABF517490856B4EA6937D58B570983
:10335000EBB536688AD495CB2977F4AA4816E9B735
:10336000550B88D6346A2B7597C94A14F6A8742A67
:10337000C896154BA9F7B6E80A54D7896B352020B3
:103380005230203D20307825580A0D00202052313F
:10339000203D20307825580A0D00202048617264B5
:1033A000204661756C742048616E646C65720A0D0C
:1033B00000000000D4330000000000206001000085
:1033C000660200008C3400006001002078080000D4
:1033D000802F000051330601420155FFFFFFFF4AD5
:1033E00002FE58025802020D010333FD2D42013343
:1033F000552D420233392E420133C52D420133F996
:103400002D420133352D8201420133912D820282FA
:103410000282028202C20233292D420233752D57E5
:103420000100010002FF59010F03000300020A2EF0
:1034300001100406091805000500020C1E551E00A7
:10344000020B43010E631BB73302FD621462056277
:103450000162022BCE0100200C0100201201392054
:1034600014010114E6810F92F534E803D03320E60D
:103470003320E03320163320EC3320CA3320D633F8
:0C34800020F83320103320C4122000007C
:04000005000000DB1C
:00000001FF
