:020000040000FA
:10000000D0090020D5000000E3000000E50000005A
:10001000FFFFFFFFFFFFFFFFFFFFFFFFFFFFFFFFF0
:10002000FFFFFFFFFFFFFFFFFFFFFFFFFD000000DF
:10003000FFFFFFFFFFFFFFFFFF00000001010000C7
:100040000301000003010000FFFFFFFF03010000A8
:100050000301000003010000030100000301000090
:1000600003010000FFFFFFFF030100000301000088
:10007000B11F0000E11F0000F51F00000301000098
:100080000301000009200000FFFFFFFFFFFFFFFF4B
:10009000E92000000301000003010000FFFFFFFF53
:1000A0000301000003010000FFFFFFFFFFFFFFFF50
:1000B0000301000003010000030100000301000030
:1000C0000348854600F0A4F800480047192D0000B9
:1000D000D0090020002001688D460A4880470A4860
:1000E0000047FEE704207146084202D0EFF3098082
:1000F00001E0EFF308807146044A1047FEE7FEE78F
:10010000FEE7FEE7291D0000C10000007515000094
:1001100003460B439B0703D009E008C9121F08C020
:10012000042AFAD203E00B780370401C491C521ECB
:10013000F9D27047D2B201E00270401C491EFBD2D6
:1001400070470022F6E710B513460A4604461946E2
:10015000FFF7F0FF204610BD30B5044600200346EF
:1001600000E05B1C934203D2E05CCD5C401BF8D006
:1001700030BD70B50446002903D0002020220123A1
:1001800010E0002801D00020C043C046C0460DE06A
:100190002546D5408D4205D30D469540641B1D462E
:1001A000954040191546521E002DF1DC214670BDC8
:1001B000F0B51FB40646002082B0054640240191E8
:1001C00000901BE0019922460F46304600F042F8AD
:1001D000049A059B801A994110D31046194622466D
:1001E00000F028F8361A8F4101972246012000219D
:1001F000009F00F01FF838184D4100902046641E03
:100200000028DFDC019B00982946324607B0F0BD8C
:10021000064C0125064E05E0E36807CC2B430C3C59
:1002200098471034B442F7D3FFF74EFF5032000026
:100230007032000010B5202A04DB0146203A9140BC
:10024000002010BD914020239C1A0346E34019432F
:10025000904010BD10B5202A04DB0846203AD0405B
:10026000002110BD0B46D340D0402024A21A91405B
:100270000843194610BD30B58C180278401C13078E
:100280001B0F01D10378401C120906D10278401CD3
:1002900003E005780D70401C491C5B1EF9D101E09C
:1002A0000B70491C521EFBD1A142E6D3002030BD89
:1002B000F0B581B006460020C443012E38D8EA4B81
:1002C0001B88002B34D012025518E9087C292FD83E
:1002D000E749695CFF292BD0B142044628D00127A9
:1002E000BA02C44CE2492046FFF712FF701E414299
:1002F000414161550024012E00D0E643BE480188EB
:1003000089198AB243799B00BA4EF250018038466F
:1003100001F06EFFBA49497989007050D44D2846E2
:10032000394601F0CBF93A022846314601F01EFA6F
:10033000204601B0F0BDC046F0B585B007460024A8
:10034000E043022F7ED80D4611024A19D1087C29BC
:1003500078D804940293A94C0D2040069109891C79
:10036000C9B289020392091801910126B202A1487B
:100370000092FFF7CDFE0934280120409D4C201843
:1003800010220299FFF7C4FE019D2846314601F074
:1003900095F90296320228462146144601F0E6F904
:1003A000B34803990D5CBD4202D1049805B0F0BD7D
:1003B0000E469048AE49009AFFF7AAFE002D11D0D4
:1003C000012D16D0FF2D29D1012F1BD1894D029867
:1003D000A8558948417989000288521C93B26B5014
:1003E000028012E0012F19D1824D0298A85582494E
:1003F0000CE0002F12D100207E4DA8557E490888C0
:10040000401E05E000207B4DA85597490888401CF8
:100410000880491D80B20978890068500125284666
:1004200001F0E6FE764949798900724F7850904E86
:100430003046294601F042F930463946224601F05D
:1004400095F9049805B0F0BD80B50B4600018749C9
:10045000411810221846FFF75BFE002080BDC04601
:1004600002460020082A01D9C04370479200A74BDA
:100470009A5812880A80704710B50021A34A04E0F8
:100480000370091D401C24290AD05458238824795C
:10049000022CF5D11B0A037053581B78401CEFE760
:1004A000002010BDF0B581B0144C2088401C544E83
:1004B00030800D2045060121284601F0FFF8AA21D1
:1004C000284601F0B3F93188204601F0AFF9002742
:1004D0008E4EF159487980002843098801F0A6F929
:1004E0003F1D182FF5D1206805490968884200D8BA
:1004F00008464349088001B0F0BDC046FC03001A1D
:10050000FC07001AF0B581B00D4601460024E04317
:1005100000293DD0012939D17C4E306841880088BE
:1005200088420BD1002001460A1D102A2ED07118D6
:1005300049684B88098899421146F5D00D20470635
:10054000012082022B4D28463946FFF7E1FD204667
:1005500031584A884B799B00EA504A880A80001D2E
:100560001028F5D12646304601F042FE244949794B
:100570008900204D685001263846314601F09EF82A
:1005800032023846294601F0F1F8204601B0F0BDAC
:10059000012DFBD8344909880029F7D01648008876
:1005A000012D01D1884203D0002D04D1002802D1B1
:1005B000204601B0F0BD01260091B2020D4F2C493A
:1005C0003846FFF7A5FD009A0C4803E0401E7F1C4B
:1005D000002804D03978FF29F8D03D70F6E7002DC7
:1005E00000D12A46044B5879800002490A501A80EB
:1005F0001F4FB8E7BC0100200A000020E7030000FD
:10060000DC000020F0B581B015480821154A01F042
:10061000D9F915480788781E3A468241002F1AD02A
:100620000025124C124E03E000221034AF4212D0CB
:10063000A85D012808D10092102220460949FFF741
:100640008BFD009A002804D06D1CBD42ECD2012223
:10065000EBE7084805800120104001B0F0BDC0461E
:100660008C0100207C010020F80000200008001A06
:100670000004001A5A01002010B50024042801D9F2
:10068000E04310BD120251188000204A1058028821
:10069000914216D00180FFF705FF0B4800880B49F7
:1006A0004143880C0A4908600A4800880A494143C6
:1006B0000A4801604B20C0000949098841430948A4
:1006C0000160204610BDC046E2000020CDCC0000F5
:1006D00010010020EC000020E02E00002C01002082
:1006E000100000200401002010B50021074A05E099
:1006F000445C1C80121D491C042905D013681C7918
:10070000022CF5D1445AF4E7002010BD300100203E
:1007100070B52148012404701E4D2878012803D0AB
:10072000434E30781E2804D12920400601F0EFFC0A
:1007300070BD2920400601F0EAFC3278E749885470
:100740003078421C3270022806D18878C006800FAB
:100750000849085C0E49087031780D4802789142CA
:1007600006D10078002803D02C70072002F014FB7B
:1007700070BDC046E80000202D48002101700448EB
:1007800001700448017004480170D348017070473B
:1007900094010020C2050020C8050020F0B581B0FA
:1007A00023480078CB4F3870CC4C207843283CD17C
:1007B0006078102839D1A1781F2008400A2807D076
:1007C0001E2809D014280BD100F068FA01B0F0BD42
:1007D00000F030F801B0F0BD00F086F901B0F0BDD6
:1007E000BD4E01203070B420A0703878411E2046E4
:1007F00000F016FD39780919491E087029204506B0
:100800003F78002F0CD02278002028560028FBD5F6
:100810000121284601F08EFC641C7F1E3806F2D1AF
:1008200028784007FCD50020307001B0F0BDC046EC
:10083000C1050020F0B581B0A64E307806282AD137
:100840003178A64C204600F03BFB00284BD0A24F4D
:1008500001203870F320A0703078411E204600F04F
:10086000DFFC31780919491E0870292045063678C1
:10087000002E0CD02278002028560028FBD501211C
:10088000284601F057FC641C761E3006F2D1287809
:100890004007FCD523E0904F012038708F4C932007
:1008A000A0703078411E204600F0BAFC317809195A
:1008B000491E0870292045063678002E0CD0227873
:1008C000002028560028FBD50121284601F032FCE3
:1008D000641C761E3006F2D128784007FCD5002033
:1008E000387001B0F0BDEC4CE078022832D001281D
:1008F00063D0002800D08AE0E74C2079611DFFF723
:10090000AFFD09213170401C00D1DEE0E14F012034
:1009100038701320A0703078411E204600F080FC13
:1009200031780919491E0870292045063678002EAD
:100930000CD02278002028560028FBD5012128461B
:1009400001F0F8FB641C761E3006F2D128784007CF
:10095000FCD5C4E762490888498888427DD10920CE
:100960003070CD4C0027E771A77167712771C949B5
:10097000012008701320A0703078411E204600F03E
:100980004FFC31780919491E087029204506367830
:10099000002E0BD02278E8570028FCD501212846EC
:1009A00001F0C8FB641C761E3006F3D1287840079E
:1009B000FCD5B848077001B0F0BDB74C201DFFF75B
:1009C0005BFD18203070B34F012038701D20A070DF
:1009D0003078411E204600F023FC31780919491E69
:1009E0000870292045063678002E0CD02278002089
:1009F00028560028FBD50121284601F09BFB641CEA
:100A0000761E3006F2D128784007FCD567E709202A
:100A10003070A04F01203870B320A0703078411E94
:100A2000204600F0FDFB31780919491E0870292085
:100A300045063678002E0CD0227800202856002853
:100A4000FBD50121284601F075FB641C761E30069B
:100A5000F2D128784007FCD541E78F4CA0710027E0
:100A60002771000A6071E01D1E491022FFF750FB3C
:100A700018203070F949012008701D20A0703078CE
:100A8000411E204600F0CCFB31780919491E087040
:100A9000292045063678002E0BD02278E85700280A
:100AA000FCD50121284601F045FB641C761E30066A
:100AB000F3D10B4928784007FCD5E84807704888EF
:100AC0000880FFF7EFFC01B0F0BD732000F0C8F91B
:100AD00001B0F0BD580100203B000041950100200D
:100AE000FE0000207C010020F0B581B0F34F387883
:100AF000F04E182829D13978EF4C204600F0E0F963
:100B0000002849D001203070E520A0703878411EBF
:100B1000204600F085FB39780919491E0870292004
:100B200045063F78002F0CD0227800202856002858
:100B3000FBD50121284601F0FDFA641C7F1E380612
:100B4000F2D128784007FCD522E001203070DA4C41
:100B50008520A0703878411E204600F061FB39786E
:100B60000919491E0870292045063F78002F0CD02E
:100B70002278002028560028FBD50121284601F0C4
:100B8000D9FA641C7F1E3806F2D128784007FCD5BC
:100B90000020307001B0F0BD04203870C64CE07801
:100BA000012809D0002831D1C34B9A795979187995
:100BB000DB1DFFF7C1FB03E0BF48001DFFF794FDFD
:100BC00001213170BC4C401C43D00520A070387806
:100BD000411E204600F024FB39780919491E08708F
:100BE000292045063F78002F0CD022780020285677
:100BF0000028FBD50121284601F09CFA641C7F1EC9
:100C00003806F2D128784007FCD5C1E701203070C2
:100C1000A520A0703878411E204600F001FB3978ED
:100C20000919491E0870292045063F78002F0CD06D
:100C30002278002028560028FBD50121284601F003
:100C400079FA641C7F1E3806F2D128784007FCD55B
:100C50009EE72520A0703878411E204600F0E0FA7B
:100C600039780919491E0870292045063F78002F58
:100C70000CD02278002028560028FBD501212846D8
:100C800001F058FA641C7F1E3806F2D1287840071C
:100C9000FCD57DE73B00004195010020F0B581B017
:100CA000864F3878834E092829D13978824C2046DE
:100CB00000F006F9002849D001203070E520A0702E
:100CC0003878411E204600F0ABFA39780919491EE0
:100CD0000870292045063F78002F0CD0227800208C
:100CE00028560028FBD50121284601F023FA641C70
:100CF0007F1E3806F2D128784007FCD522E001207B
:100D000030706D4C8520A0703878411E204600F070
:100D100087FA39780919491E0870292045063F7855
:100D2000002F0CD02278002028560028FBD5012166
:100D3000284601F0FFF9641C7F1E3806F2D128789E
:100D40004007FCD50020307001B0F0BD5A4CE0786F
:100D500002280AD001280ED0002859D1564882799D
:100D600041790079FFF7A4FA0BE053484179007903
:100D7000FFF7C8FB05E05048427981790079FFF719
:100D80007BFC042139700121317029214C064A4D28
:100D9000401C1ED00520A8703878411E284600F05F
:100DA0003FFA39784919491E08703F78002F0CD056
:100DB0002A78002020560028FBD50121204601F08A
:100DC000B9F96D1C7F1E3806F2D120784007FCD59A
:100DD000B8E72520A8703878411E284600F020FA90
:100DE00039784919491E08703F78002F0CD02A78AD
:100DF000002020560028FBD50121204601F09AF959
:100E00006D1C7F1E3806F2D120784007FCD599E78B
:100E10000420387001203070A520A0703878411E61
:100E2000204600F0FDF939780919491E087029207B
:100E300045063F78002F0CD0227800202856002845
:100E4000FBD50121284601F075F9641C7F1E380688
:100E5000F2D128784007FCD574E7C0463B0000413A
:100E6000F0B581B0134E01213170134CA070134FB7
:100E70003878411E204600F0D3F939780919491E07
:100E80000870292045063F78002F0CD022780020DA
:100E900028560028FBD50121284601F04BF9641C97
:100EA0007F1E3806F2D128784007FCD5002030702C
:100EB00001B0F0BD3B000041950100205801002029
:100EC00070B50022491E08D0DC4B04460D4626783A
:100ED00056409A5D641C6D1EF9D1405C101A411E8B
:100EE000884170BD044908607047C04602490968DE
:100EF0000840411E884170470000014C411E884156
:100F0000C0009B490A78F7231340181808707047EF
:100F1000F0B58DB000200B900A9009909E490A7898
:100F2000012632430A7031040B91612109010691B7
:100F30000A9109968C490B888C4C0C808B79102275
:100F4000049213438B7103252B034F689F434F601B
:100F50000B88088086490A1F138802921480099B17
:100F60004B600B46083B0B9C1C600AAB9B78C02275
:100F7000079213408C783F2205921440E3188B703F
:100F80000B460C3B18600BAB9B789B0704D00BAB5C
:100F90009B782B40022B03D10C78049A144302E077
:100FA0000C78049A94430C700C90069A0C920B7B6C
:100FB0000422019213430B7334036E4A1388A34235
:100FC00002D19388A34201D01480948000940895A4
:100FD0000C460D3C2378DB06FAD50A46103A02236C
:100FE000039213700CAB9A78079D2A408D78059F69
:100FF0003D40AA188A701A78049B1A400B78EF2596
:101000001D40AA180A700C90069A0C920CAA9278AD
:10101000019B1A408B78FB251D40AA188A700A781C
:10102000120703D40A78082313430B700690227822
:101030005206FCD52023039803700A6804939A4350
:101040000A600AAF7B780C2213404D78F3202840C9
:10105000C01848707878089B18404B78FC251D40D4
:101060002818487078780007800F334683400F4671
:101070000E3F387800098342F9D10AA84078089BCE
:1010800018403346834038780F2505409D42FAD1F9
:101090000AA84078079B184080280AD10878049B4A
:1010A00018430870D04308560028FBD54020039B06
:1010B00018700AAD6878079B18404B78059F3B4035
:1010C00018184870A87830408B78FE271F403818D1
:1010D00088700998486068788009864020780723DE
:1010E0000340B342FAD108208860234803467C338A
:1010F000CB60224B0B6148610698086248628862A7
:1011000008634863886348780007800F089C03D011
:101110000878F72303400B700AA840781040042891
:1011200018D00AA840782040012813D00098411E0A
:10113000104B9888084098800AA8407810400C28E6
:1011400008D00AA840782040032803D0094A108814
:1011500008401080029908880698088008480949C4
:1011600001600DB0F0BDC0460C00004D17A2FFFF9E
:101170001000014C3400024493800000E51103008C
:10118000F400002000127A0080B5FFF7C1FE02488B
:101190000121017080BDC0460400034CB0B500F0D1
:1011A000B7FC002816D0332000F0DAFC00250A4CEA
:1011B00000F07CFC60556D1C082DF9D120780128C9
:1011C00008D1E5790721204600F02AF8291A48427B
:1011D0004841B0BD0020B0BD8C01002080B50D4855
:1011E0000088002806D00C4801210180DF48022138
:1011F000017080BD08480088002807D0DB48022124
:1012000001700648012100F064FF80BDD74800212D
:10121000017080BD16000020040000200000015570
:1012200010B50022002907D0044BD2B204785440F4
:101230001A5D401C491EF8D1104610BD1A3100003D
:10124000F0B583B09B48002404704470C47101253C
:101250000572029544728472974E032101913046C3
:1012600000F052F93046294600F060F93046214638
:1012700000F032F93046214600F03FF93046214671
:1012800000F04BF93046214600F02EF93046214659
:1012900000F016F9351D02272846394600F034F9CA
:1012A0002846214600F042F92846214600F014F96C
:1012B0002846214600F021F92846214600F02DF964
:1012C0002846214600F010F92846214600F0F8F89B
:1012D000354608352846394600F016F92846214695
:1012E00000F024F92846214600F0F6F82846214669
:1012F00000F003F92846214600F00FF92846214660
:1013000000F0F2F82846214600F0DAF835460C35B0
:101310002846019900F0F8F82846029900F006F9ED
:101320002846214600F0D8F82846214600F0E5F886
:101330002846214600F0F1F82846214600F0D4F86E
:101340002846214600F0BCF8354620352846394667
:1013500000F0DAF82846214600F0E8F82846214651
:1013600000F0BAF82846214600F0C7F82846214682
:1013700000F0D3F82846214600F0B6F8284621466A
:1013800000F09EF8354624352846394600F0BCF872
:101390002846214600F0CAF82846214600F09CF86D
:1013A0002846214600F0A9F82846214600F0B5F865
:1013B0002846214600F098F82846214600F080F89B
:1013C000354628352846394600F09EF828462146FD
:1013D00000F0ACF82846214600F07EF82846214669
:1013E00000F08BF82846214600F097F82846214661
:1013F00000F07AF82846214600F062F82C36304694
:10140000394600F081F83046214600F08FF830462A
:10141000214600F061F83046214600F06EF8304673
:10142000214600F07AF83046214600F05DF830465B
:10143000214600F045F8214E3046394600F064F868
:101440003046029F394600F071F83046214600F0E0
:1014500043F83046214600F050F83046214600F06F
:101460005CF83046214600F03FF80A253046294610
:1014700000F026F8361D3046394600F045F8304673
:10148000394600F053F83046214600F025F8304642
:10149000214600F032F83046214600F03EF8304652
:1014A000214600F021F83046294600F009F803B043
:1014B000F0BDC0463100004100000144000002447C
:1014C0000268044B1340090319430122D20789180B
:1014D00001607047FF0FFF7F0278F7231340C907B1
:1014E000090F591801707047032292020368934351
:1014F000036002680A430260704702787F2313404A
:10150000C901591801707047026807239A430260A5
:1015100002781A400A4302607047032212020368ED
:101520009343036002680A43026070470278DF2336
:101530001340C907890E59180170704770B501F042
:10154000E9FAFF2810D00146084C20788201084DA6
:10155000AA18CE0092195268002A00D0904720782D
:1015600080012818805D207070BDC046B901002040
:101570001C00002082B001910168214C216041686B
:10158000204F39608168204E3160C1681F4D29604D
:1015900001691F4A116041691E4A116081691E4A32
:1015A0001160C0691D4908601D4801F01FFC2168D9
:1015B0001C4801F01BFC39681B4801F017FC31681E
:1015C0001AA001F013FC29681CA001F00FFC1048C0
:1015D00001681EA001F00AFC0E4801681FA001F07E
:1015E00005FC0D48016823A001F000FC0B480168D0
:1015F00026A001F0FBFB2BA0019901F0F7FBFEE711
:10160000680100206C010020740100207801002096
:10161000700100205C0100206001002064010020B6
:10162000363200001A3200002832000020205232E8
:10163000203D20307825580A0D000000202052332C
:10164000203D20307825580A0D000000202052311E
:1016500032203D20307825580A0D00002020537498
:1016600061636B6564204C52203D20307825580A18
:101670000D0000002020537461636B6564205043AB
:10168000203D20307825580A0D000000202053749A
:1016900061636B656420505352203D20307825589B
:1016A0000A0D0000202043757272656E74204C5242
:1016B000203D20307825580A0D000000F0B581B09B
:1016C0007E4A127839239B06C3185B0E01277F2BB5
:1016D00047D3254B034044D108231A4041D0784CCE
:1016E000231F1A88774A1A8025680122154325602E
:1016F0006668022500952E436660266820273743DA
:10170000D026B743276046262673BE26A681012928
:1017100000D811462246103A22271770BFF36F8F68
:101720000026F543056015783D400122022D06D1C3
:101730000125AD024019491EECD1374600E017469D
:10174000009D39491888198026732068F021884344
:1017500020606068A843606020689043206018881B
:101760001E80384601B0F0BDFF030000F0B581B027
:10177000524B1B7801261B0752D503230C461C40F5
:10178000651EAC4103405D1EAB413925AD064519D0
:101790006D0E7F2D44D3234042D1C34C2388494B47
:1017A0002380656801231D436560A66802250095B6
:1017B0002E43A660666810273743E026B74367606C
:1017C00046262674BE262682268800272780012AE0
:1017D00000D81A4623460C3B22261E70BFF36F8F9B
:1017E0000D6805601D7835400123022D06D1521E7B
:1017F000001D091D002AEDD13E4600E01E4620884E
:101800000948208027746068F02188436060A068E0
:1018100000998843A06060689843606020882780B2
:10182000304601B0F0BDC04617A20000F0B5054635
:1018300022480378392080062818440E01207F2C86
:101840003AD303242C4037D10824234034D01C4CF5
:10185000231F18881B48188026680120064326602D
:101860006768022637436760276810223A43E027FB
:10187000BA43226046222273B922A2812746103F32
:1018800022223A70BFF36F8F296019880D491980A1
:101890002168F022914321606168B1436160216851
:1018A000814321601988002119803A78920602D577
:1018B0003A78920700D50846F0BDC0461000014CAA
:1018C0001000004D17A2FFFF411E884103490A780E
:1018D000FE231340181808707047C0461000005DC2
:1018E00003490A780F231340000118180870704745
:1018F0000800005D01480249018070470C00005D4E
:1019000014200000F0B581B00C46054608683F275A
:1019100038400A4618328021009211544740401C3A
:1019200026465036072F0BD8201818303946FEF7B8
:1019300008FC4027204600993A4600F07BFC002036
:1019400020181830083F3946FEF7FBFB03CC7160C6
:10195000410DF170410BB17041097170C0003070E0
:10196000083C206040222046009900F063FCA068FB
:101970002870A068000A68706089A870E07AE87032
:10198000E0682871E068000A6871E089A871E07B6E
:10199000E871206928722069000A6872608AA8725A
:1019A000E07CE872606928736069000A6873E08A05
:1019B000A873E07DE87398212046FEF7C2FB01B0D2
:1019C000F0BD0000F0B5A7B014460D460646184815
:1019D0000690184805901848049018480390002075
:1019E0000290019001AF183780213846FEF7A9FB1D
:1019F000680F029007204007294681430191402D3E
:101A00000AD300943F242A46A24301A8314600F09D
:101A100011FC06462540009C384631462A46FEF712
:101A200077FB01A92046FFF76DFF27B0F0BDC04648
:101A300076543210FEDCBA9889ABCDEF01234567AE
:101A4000F0B581B00646184CE169A079800601D452
:101A5000012626E0009125460C3D01273804286028
:101A6000204600F0BFFBB108B00501D038020918CC
:101A70003E46E16120460F4600F046F92868C00363
:101A800007D4032080078743A08B874201D100261B
:101A900007E0204600F0A6FB0098E061204600F039
:101AA00033F9304601B0F0BD0C00004DF0B581B007
:101AB000002427462646012544482946FFF724FDF1
:101AC000434804700A2000BF00BF00BF00BF401E93
:101AD000F9D103213D48FFF717FD3D480078002864
:101AE00001D1054600E0BD40462000BF00BF00BF59
:101AF00000BF401EF9D12E437F1C082FDBD1F0B26E
:101B000001B0F0BD80B501463048FFF7FDFC80BD57
:101B100070B52E4C01212046FFF7F6FC2C4E00201C
:101B20003070192005012846503000BF00BF00BFAB
:101B300000BF401EF9D103212046FFF7E5FC5020ED
:101B400000BF00BF00BF00BF401EF9D1317800BF09
:101B500000BF00BF00BF6D1EF9D14842484170BDB3
:101B6000F0B581B004460027184D3E4602E0761CD1
:101B7000082E28D001212846FFF7C6FC144807701C
:101B80002046F040C00712D00A2000BF00BF00BFAF
:101B900000BF401EF9D103212846FFF7B5FC4620BF
:101BA00000BF00BF00BF00BF401EF9D1DFE75020DB
:101BB00000BF00BF00BF00BF401EF9D1032128466F
:101BC000FFF7A2FCD3E701B0F0BDC046000001441E
:101BD00030000041F0B581B00D2044062068AA28ED
:101BE00027D100203B490A5853799B0023431B68A7
:101BF0001380001D1828F6D1374841798900334AEF
:101C000089580180354841798900895801803048D8
:101C10000168101F0068884200D8084632490880D1
:101C2000324908884988884237D02E49FEF70CFC93
:101C300033E0AA212046FFF7F9FD244E301F01258D
:101C40002946FFF7F3FD22482946FFF7EFFD00255F
:101C5000204F79594879800020434988FFF7E6FDF5
:101C60002D1D182DF5D11C49487980003043498835
:101C7000FFF7DCFD19494879800030434988FFF7B8
:101C8000D5FD17480821174C2246FFF79BFE01207F
:101C900000210A462346FEF74FFB154800881549E8
:101CA0004143880C41490860134800881349414367
:101CB0004B4801604B20C00011490988414311483D
:101CC0000160FFF78BFA01B0F0BDC0460004001AB6
:101CD000FC07001A30010020F80000200A00002054
:101CE000220100207C010020DC000020FE000020FA
:101CF000E2000020CDCC0000EC000020E02E00002F
:101D00001000002004010020002101800120704704
:101D1000044A1368002902D00343136070478343C9
:101D2000136070471400004C01480249016070477D
:101D3000F4000020001BB70010B5194C2178194899
:101D40000078002909D000281DD017480168002913
:101D50000FD00168491E016015E0002813D1124818
:101D60000168124A1268914208D20168491C016058
:101D700009E0042001F010F8002003E0002001F049
:101D80000BF8012020700A480178002907D001785B
:101D9000491C01700078112801D3FEF7EDFC10BD3D
:101DA000BA01002033000041BC05002010010020D2
:101DB000C8050020B0B5094D2868411C29600849B4
:101DC0000968884208D185480024214600F081F93D
:101DD0002C60052000F0E0FFB0BDC046C405002027
:101DE0002C0100207047000080B5FFF7D7F90128CB
:101DF0000CD18448002100F06CF9FEF703FC0028A8
:101E000001D0012000E0022000F0C6FF80BDC046E6
:101E100080B519480178194A1278914203D20178A5
:101E2000491C017080BD16490868164A1268904224
:101E300007D17948002100F04CF9062000F0ACFFF2
:101E400080BD0868421C0A600F490978FEF791F9C5
:101E5000002900D080BD0D4801784A424A410270F5
:101E60000B490A780B49002A03D1027853425341A7
:101E70000B700078087280BDC00500202001002092
:101E8000180100201C010020140100202101002065
:101E9000B801002031000041F0B585B002AD284600
:101EA00000F0D0F89F200090E880F9262E81552080
:101EB00007063846294600F0CFF810210191012489
:101EC0003846224600F0B4F83846214600F0A8F81B
:101ED0000098E8802E81414F3846294600F0BCF832
:101EE0003846019E3146224600F0A2F83846214687
:101EF00000F096F80F200090E8802A482881AB2057
:101F0000C7053846294600F0A7F83846314622462C
:101F100000F08EF83846214600F082F8009EEE80F0
:101F200020482881374F3846294600F095F8384632
:101F3000019F3946224600F07BF83248214600F0E6
:101F40006FF8EE8017482881334E3046294600F05E
:101F500083F830463946224600F06AF8304621467A
:101F600000F05EF8A0039D490860FF2003040E4ABC
:101F700015689D43156063040B6053680B4D2B403F
:101F8000E6039B19536063030B6013682B40032522
:101F9000AD035B19136023030B601168814311606B
:101FA00005B0F0BD4FC3FFFF0CE400E0FF00FFFFF2
:101FB00080B509480178C90706D1007880070AD59D
:101FC000FFF7F8FE054803E0FFF7B6FE55200006D0
:101FD000102100F023F880BD6C0000500000015576
:101FE00080B5FFF7FFFEAB20C005102100F016F80A
:101FF00080BD000080B5FFF7F7FE0248102100F019
:102000000DF880BD0000865580B5FFF701FF02483E
:10201000102100F003F880BD000086560160704773
:1020200001220A400179FE230B4099180171704783
:10203000012A03D142680A434260704742688A43DA
:102040004260704705210181C180002101808170BB
:10205000C17001714171704770B5CA888B78002BCF
:10206000144600D11C46048582850A894B78002BD2
:10207000144600D11C46048482840B78047CCF2251
:1020800014409B079B0EE3180374CC78057ABF239A
:102090001D40E407640E2C1904720D79067A7F2422
:1020A0002640ED01751905724D79467A1640AA074A
:1020B000920EB21842724A78057C1D40D207520E29
:1020C000AA1802748978027C2240C901511801744F
:1020D00070BD012901D0002100E00321027CFC2316
:1020E000134059180174704780B500F01EF829207C
:1020F0004006402100F001F880BD2122914301609B
:102100007047026901239A430A4302617047006BDA
:102110007047426801239A430A43426070474A432A
:1021200043688B4313434360704780B5FEF7F0FA72
:1021300080BD0000491E03290AD8C04679440979A8
:1021400049008F4401070A0D342142540020704792
:10215000012070478286002070478263002070470C
:10216000426300207047000070B5184E306818496F
:10217000014031601748332181800721F173717369
:102180000321090632680A4332604021B17331737A
:10219000C0220270B068104A0240B2603446083C67
:1021A000012520462A46FFF7BAFF20462946FFF7B9
:1021B000B0FF28050949086009480168FF229143DA
:1021C000016030690C210143316170BD080000528B
:1021D000F1FFCCFF2000005285FFFCFF00E100E092
:1021E00014E400E0014901800120704717A20000BB
:1021F000800207494A79920010180D225206805A2F
:10220000421C90B20B88984200D90A807047C046A1
:10221000DC00002010B5064C2046FFF7E3FF01214B
:10222000C802FFF775FD2046FFF76EFD10BDC046E2
:102230000C00004CF0B59CB0876805460C3538CDD5
:1022400001908030009008931B91029703951A9497
:10225000049208781B994978090208181B99897813
:10226000090440181B99C978090640181290019B6F
:1022700098651B9800791B994979090208181B99E0
:102280008979090440181B99C979090640181790E3
:10229000D8651B98007A1B99497A090208181B997E
:1022A000897A090440181B99C97A090640181990BF
:1022B00018661B98007B1B99497B090208181B991B
:1022C000897B090440181B99C97B090640181490A2
:1022D00058661B98007C1B99497C090208181B99B9
:1022E000897C090440181B99C97C0906401818907C
:1022F00098661B98007D1B99497D090208181B9957
:10230000897D090440181B99C97D09064018119060
:10231000D8661B98007E1B99497E090208181B99F4
:10232000897E090440181B99C97E0906401815903A
:1023300018671B98007F1B99497F090208181B9991
:10234000897F090440181B99C97F090640180E901F
:10235000586720201B99085C1B9A2032517809028B
:102360000818917809044018D178090640180A9095
:102370009867107951790902081891790904401871
:10238000D179090640181690D867107A517A090257
:102390000818917A09044018D17A090640180F905C
:1023A000009B1860107B517B09020818917B09047F
:1023B0004018D17B0906401813905860107C517C5E
:1023C00009020818917C09044018D17C09064018BC
:1023D0000C909860107D517D09020818917D0904C8
:1023E0004018D17D090640181090D860107E517EAB
:1023F00009020818917E09044018D17E0906401888
:102400000B901861107F517F09020818917F090411
:102410004018D17F090640180D9058612846604049
:10242000089A10406840381812994018FC49401822
:1024300019210691C8411146841810461A9948403E
:1024400020401A994840179969180818F54940180A
:102450001426F0410719204650403840504013469A
:102460001A99199A89180818EF4940180F210991EB
:10247000C841C1193846604008406040149A9A1813
:102480001018EA4A80180A220792D04140180D46D7
:102490007D4005407D40189BE4186419E44D6419A3
:1024A000069AD441241805464D4025404D40119BC5
:1024B000FF187D19DF4FED190596F5412F192546B7
:1024C00045403D404540159BC9184919DA4D491909
:1024D000099BD941C9193D4665400D4065400E9B99
:1024E000C0184019D54D4019079BD84140180D46DA
:1024F0007D4005407D400A9BE4186419D04D641965
:10250000D441241805464D4025404D40169BFF18E8
:102510007D19CC4FED19F5412F19254645403D4019
:1025200045400F9BC9184919C74D4919099AD1410E
:10253000CD193946614029406140139BC0184018AD
:10254000C2494018079EF041401929467940014090
:1025500079400C9B1C196118BD4C0919069BD94187
:102560000C180146694021406940109BDF19791819
:10257000B84FC919059BD9410919274647400F4053
:1025800047400B9B5D19ED19B34FED19D5416B1801
:102590000D4665401D4065400D9F38184019AF4DF0
:1025A0004019F041C2181046584008405840179D45
:1025B0002C192018AA4C00191B240594E0418418FA
:1025C0002046504018405040159D69180818A549EC
:1025D00040181726F04135460696071938466040E0
:1025E000104060401399C91808189F4940181221DB
:1025F0000791C841C1190846784020407840129B95
:102600009A181018994A80180C220992D041421841
:102610001046484038404840119B1C192018944CE3
:102620000019059EF0418418204650400840504053
:102630000F9BDF1938188F4FC019E841071938462A
:102640006040104060400D9B591808188A49401896
:102650000799C841C1190846784020407840189D24
:10266000AA181018854A8018099AD04140180246C5
:102670004A403A404A40169D2C19A218FD4C1219A6
:10268000F2411418224642400A4042400B9BDF1997
:10269000BA18F94FD219069BDA4117193A46624027
:1026A00002406240149D69188918F44A8918079EEF
:1026B000F141C9190A467A4022407A400A9B18180B
:1026C0008018EF4A8018099AD041401802464A40C3
:1026D0003A404A40109D2C19A218EA4C1219059C48
:1026E000E2411418224642400A404240199DEF1927
:1026F000BA18E54FD219069DEA4115192A466240DB
:10270000024062400E9F79188918E04A8918F14109
:1027100049190A466A40174627406F400C9E3018F8
:10272000C019DB4FC019099EF04147187A40119833
:1027300000198018D74A80181C26F0410996C41940
:102740003846484060405A191018D34A801815225C
:102750000692D0410519204678406840139A5118D6
:102760000818CE49401810210591C8414219294640
:10277000614051400B98C7197918C9480F180920B2
:102780000790C741BF18104668407840179B1C1936
:102790002018C44C0019F041C4193846504060401C
:1027A000189B5D192818C04D40190699C841051994
:1027B0002046784068400E9B9A181018BB4A801833
:1027C000059EF04140192A46624042400F9BDF19A6
:1027D000BA18B74FD219079BDA41171802466A4058
:1027E0007A40109B1C19A218B24C1219099BDA41AD
:1027F000D4193A4642406240129B5D19AA18AE4D68
:102800005219CA41151922467A406A40149B181879
:102810008018AA4A8018F04140192A4630E0C04684
:1028200078A46AD756B7C7E8DB702024EECEBDC1C6
:10283000AF0F7CF52AC68747134630A8019546FDA1
:10284000D8988069AFF7448BB15BFFFFBED75C8936
:102850002211906B937198FD8E4379A62108B4499B
:1028600062251EF640B340C0515A5E26AAC7B6E99B
:102870005D102FD65314440281E6A1D8C8FBD3E7DC
:1028800062404240159BDF19BA188D4FD219079943
:10289000CA41171802466A407A40169B1C19A218B2
:1028A000884C1219099BDA41D4193A4642406240D9
:1028B0000C9B5D19AA18844D5219069BDA41121916
:1028C00025467D4055400D9B181840197F4D4019F5
:1028D000F0418018134663404340199DED19EB18F1
:1028E0007B4D5B19CB411918D3430B434340129DD9
:1028F0002C19E318774C1B191A240994E3415C182E
:10290000C34323434B400E9DAA18D218724BD218D2
:102910001626F2411519CA432A4362400B9B181828
:1029200080186E4A801811221292D0414719E04354
:1029300038436840119B59180818694940180B2101
:102940001191C841C019E943014379400C9B1C19FE
:102950006118644C0919099AD1410C18F9432143B3
:102960004140149B5D1969185F4D49190E96F1415C
:102970000D19C143294361400F9BDF1979185B4F43
:10298000C919129BD9414F19E14339436940179B3B
:1029900018184018564940181199C841C019E94300
:1029A000014379400A9B1C196118524C0919D14105
:1029B0000918FC430C4344400D9B5D192C194E4DE6
:1029C0006419F4416518C4432C434C40159BDF192E
:1029D0003C194A4FE419129AD4416719CC433C433D
:1029E0006C40109B18180019454C0019119EF041BD
:1029F000C419E84320437840189B591808184149E6
:102A000040180999C8410019F94301436140139BDB
:102A10005D1969183C4D49190E9BD9410918E543C8
:102A20000D434540199BDF197D19384FED19D541EC
:102A30006A18089BD518C74317434F40169B1C19AB
:102A4000E419029F324BE418F4412B19039D1A9CA0
:102A50001419049A4D191B99C7194031403A01D0F5
:102A6000FFF7F1FB019887600C3038C008461CB0B6
:102A7000F0BDC046E6CDE121D60737C3870DD5F4BA
:102A8000ED145A4505E9E3A9F8A3EFFCD9026F67F5
:102A90008A4C2A8D4239FAFF81F6718722619D6D39
:102AA0000C38E5FD44EABEA4A9CFDE4B604BBBF673
:102AB00070BCBFBEC67E9B28FA27A1EA8530EFD442
:102AC000051D880439D0D4D9E599DBE6F87CA21F2E
:102AD0006556ACC4442229F497FF2A43A72394AB3C
:102AE00039A093FCC3595B6592CC0C8F7DF4EFFF4A
:102AF000D15D84854F7EA86FE0E62CFE144301A3D0
:102B0000A111084E827E53F735F23ABDBBD2D72AC7
:102B100091D386EBAB4841780278914201D1FF20F6
:102B200070478278521E8A4201D04A1C00E000227F
:102B300042704018C078704780B56A480021018013
:102B4000FDF7B0FC2A480078002802D0002000F0F1
:102B500023F980BD10B5674800242146FFF7B9FA74
:102B60000320FEF7CFFF3548012101706348047050
:102B700010BDC04680B55F480121FFF7AAFA624840
:102B80000078414241415D4801702C4800210170AC
:102B900080BDC046594800210170012202722748B9
:102BA00001705748026058480270704780B5FDF7C1
:102BB000F5FD80BD80B50E480078012803D14D4851
:102BC0000121FFF786FA4D480022027001210172AF
:102BD0004B4801604B4802704B4801704B4806233C
:102BE0000370D0434A4A10604A48FFF772FA80BD2A
:102BF000BA01002010B53F4800242146FFF769FACA
:102C00000320FEF77FFF3D480470012101723C481C
:102C100001603C4804703C4801703C4801703C48ED
:102C2000062202603B48FFF754FA10BD0348012119
:102C300001703248002101707047C046B801002081
:102C400010B5AB20C00501242146FFF742FA294800
:102C50002146FFF73EFA29480021017004722848F6
:102C60000460284801702848047028480622027031
:102C7000C8432749086027482146FFF72AFA10BDB4
:102C8000B0B5184801240480174800881749088007
:102C9000FDF708FCAB20C00500252946FFF719FA0F
:102CA0001348056013482946FFF713FA0320FEF77F
:102CB00029FF11482146FFF70CFA104805700472ED
:102CC0000F4804600F4805700F4804700F48022138
:102CD00001700F48102101600E482146FFF7F9F9F5
:102CE000B0BDC046040000205A010020FE000020B4
:102CF000B40100200000865500000155310000415C
:102D000018010020C005002021010020140100202E
:102D10001C0100200000865672B6FEF735FAFEF759
:102D20008FFAFFF7B9F8FFF71FFAFFF773FA184C9D
:102D30002046FFF757FA01252846FEF7DFF8A807D7
:102D4000FEF7D4F80028FAD02020FEF7CBF8204672
:102D5000FEF7DAFF0520C002FEF772FEFEF73AFF2B
:102D60000C48002101702920400601242146FFF76C
:102D7000C8F9552000062146FFF7ABF9072000F0FF
:102D800023F862B6FEF7DAFBFEF7B4FDFAE7C046B9
:102D90000C00014C3B00004110B50A494B788A7881
:102DA000521E002B02D19A4200D110BD0B78CC18D4
:102DB000E0709A4202D0581C087010BD00200870C4
:102DC00010BDC04608010020B0B50446064D284697
:102DD000FFF708FA2046FEF783FD0120FEF774FD99
:102DE0002846FEF791FFB0BD0C00005D0FB410B592
:102DF00003A9044B044A029800F018F810BC08BC60
:102E000004B01847093100000000002002E008C8A3
:102E1000121F08C1002AFAD170477047002001E054
:102E200001C1121F002AFBD170470000FFB58FB00F
:102E30000F460446002606E025280AD0129A11996A
:102E40009047641C761C20780028F5D1304613B0DA
:102E5000F0BD00250121A14A009500E00543641C56
:102E600023780846203B98401042F7D120782E283E
:102E700015D1042005436078641C2A280AD101CFAB
:102E8000641C00900BE000990A225143303940182D
:102E9000641C00902078014630390929F3D9207844
:102EA0006C280ED004DC4C2813D06A2812D104E020
:102EB00074280ED07A280DD10BE00120400505437F
:102EC00007E00121090562780D43824201D16D18A6
:102ED000641C641C2078864669284AD008DC0028D7
:102EE000B4D058286DD0632810D0642808D140E0B1
:102EF00070286BD0732812D0752860D0782860D0E5
:102F0000129A704611999047761CE5E03878694628
:102F100008720020487202A80190012003E038687E
:102F200001900020C0433F1D69070CD5002500E03B
:102F30006D1C00998D420FDA8542F9DB0199495DDC
:102F40000029F5D108E0002500E06D1C8542FCDB7E
:102F50000199495D0029F8D1761907E00198019996
:102F60000078491C0191129A119990476D1EF5D273
:102F7000B2E00A20029000216802400F039102286B
:102F80000CD001CFC117844600290DDA62460846ED
:102F900052420021814194462D2008E0FF1DFF0888
:102FA000FF0003CF8446EFE7280504D52B206A46AF
:102FB000107401203CE0E8073AD02020F7E70A200F
:102FC00000E0102000210391029007E01020029001
:102FD0000021042005430820039100906802400F5F
:102FE000022810D001CF0021844600200D90280730
:102FF0001FD5704670280CD0029A1020039B4240C7
:103000001A430CD015E0FF1DFF08FF0003CF8446D4
:10301000EBE740206A46107401200D900CE06046FA
:10302000084306D030206A4610747046507402205F
:103030000D907046582804D029A001900DA80E903C
:103040000DE02CA0F9E76046039B029AFDF7B0F86B
:10305000019B84469B5C0E9A521E0E921370604632
:103060000843F0D10E9805A9081A2030019068078E
:1030700001D5009801E0012000900199884203DD0C
:1030800001460198081A00E000200025009006E0A3
:1030900004A8129A405D119990476D1C761C0D98FA
:1030A0008542F5DB04E0129A302011999047761C96
:1030B0000099481E00900029F5DC08E00E980E9952
:1030C0000078491C0E91129A11999047761C01992B
:1030D000481E01900029F1DC641CB4E609280100B7
:1030E000303132333435363738396162636465667E
:1030F0000000000030313233343536373839414240
:10310000434445460000000038B504466846047054
:1031100069460320ABBE204638BD005EBCE2613F7D
:10312000DD83C29C7E20A3FD1F419DC3217FFCA2A5
:10313000401E5F01E3BD3E6082DC237D9FC1421CD7
:10314000FEA0E1BF5D0380DE3C62BEE0025CDF8189
:10315000633D7C22C09E1D43A1FF4618FAA4277937
:103160009BC584DA3866E5BB5907DB856739BAE465
:1031700006581947A5FB7826C49A653BD987045A97
:10318000B8E6A7F91B45C6987A24F8A6441A99C749
:10319000257B3A6486D85B05E7B98CD2306EEDB3F7
:1031A000510F4E10F2AC2F7193CD114FADF3702E25
:1031B000CC92D38D6F31B2EC0E50AFF1134DCE9057
:1031C000722C6D33D18F0C52B0EE326C8ED0530D09
:1031D000EFB1F0AE4C1291CF2D73CA947628ABF5B7
:1031E00017490856B4EA6937D58B5709EBB53668E5
:1031F0008AD495CB2977F4AA4816E9B7550B88D617
:10320000346A2B7597C94A14F6A8742AC896154BC8
:10321000A9F7B6E80A54D7896B3520205230203DF3
:1032200020307825580A0D0020205231203D2030D2
:103230007825580A0D002020486172642046617587
:103240006C742048616E646C65720A0D00000000A9
:1032500070320000000000205401000076020000DF
:103260002033000058010020780800001C2E0000C8
:103270009153010E5902FE01000100020C44010DA0
:10328000010337412C33AD2B420133752B420233FE
:10329000812C420133F52B4201332D2C4201335551
:1032A0002B8201420133B52B420133AD2B820282C6
:1032B0000282028202C20233392B420233952B4230
:1032C0000233AD2B2A0100010002FF6400644D02AD
:1032D0000A0406091801000100020B631BB76A0209
:1032E000FDFFFFFFFF020F14620542144206420178
:1032F0003CFFFFFFFF01010114E6810F32F533A00F
:103300000F32E23320EC3320103320163320043305
:1033100020FE3320F833200A3320DC122000000086
:04000005000000DB1C
:00000001FF
