:020000040000FA
:1000000050090020D5000000E3000000E5000000DA
:10001000FFFFFFFFFFFFFFFFFFFFFFFFFFFFFFFFF0
:10002000FFFFFFFFFFFFFFFFFFFFFFFFFD000000DF
:10003000FFFFFFFFFFFFFFFFFF00000001010000C7
:100040000301000003010000FFFFFFFF03010000A8
:100050000301000003010000030100000301000090
:1000600003010000FFFFFFFF030100000301000088
:10007000D9200000092100004D21000003010000EB
:100080000301000081210000FFFFFFFFFFFFFFFFD2
:10009000DD2200000301000003010000FFFFFFFF5D
:1000A0000301000003010000FFFFFFFFFFFFFFFF50
:1000B0000301000003010000030100000301000030
:1000C0000348854600F08AF8004800479524000060
:1000D00050090020002001688D460A4880470A48E0
:1000E0000047FEE704207146084202D0EFF3098082
:1000F00001E0EFF308807146044A1047FEE7FEE78F
:10010000FEE7FEE7B91F0000C1000000990E0000E5
:1001100030B50B46014600202022012409E00D469F
:10012000D5409D4205D31D469540491B2546954027
:1001300040191546521E002DF1DC30BD03460B431D
:100140009B0703D009E008C9121F08C0042AFAD28D
:1001500003E00B780370401C491C521EF9D2704713
:1001600030B504460020034600E05B1C934203D2F6
:10017000E05CCD5C401BF8D030BDF0B51FB4064646
:10018000002082B005464024019100901BE00199B7
:1001900022460F46304600F043F8049A059B801A29
:1001A000994110D310461946224600F029F8361A14
:1001B0008F410197224601200021009F00F020F886
:1001C00038184D4100902046641E0028DFDC019B5A
:1001D00000982946324607B0F0BD0000064C0125C4
:1001E000064E05E0E36807CC2B430C3C98471034DF
:1001F000B442F7D3FFF768FF5429000074290000C8
:1002000010B5202A04DB0146203A9140002010BDA1
:10021000914020239C1A0346E3401943904010BDAF
:1002200010B5202A04DB0846203AD040002110BD3A
:100230000B46D340D0402024A21A914008431946CF
:1002400010BD0000F0B581B00025EC43012840D876
:10025000064610024718F8087C283AD8022039468A
:1002600000F080FFFF2834D0B0422C4631D001206E
:100270000090830202200024624D21462A4600F0AD
:1002800095FE701E41424141E955012E00D0E643E2
:100290005D48018889198AB243799B00EA50018040
:1002A0005B4E7179204600F063FF411C88B23288B2
:1002B000904200D931807179890068500226304619
:1002C00000F080FE00980302304621462A4600F0E6
:1002D00056FF204601B0F0BDF0B585B00024E743DD
:1002E000022800D988E00D46064610024118C808C9
:1002F0007C2800D980E0424F0120039002938302C2
:100300008809C01CC0B201903E4A04912146009366
:1003100000F04CFE0937280138403A4D28181022C9
:100320000299FFF70BFF019F384600F04BFE039840
:100330000302384621462A46029300F020FF02209D
:10034000049900F00FFFB042274655D00546022021
:1003500000272C4C39462246009B00F027FE002D3A
:1003600012D0012D18D0FF2D029D04982BD1012E03
:1003700020D1039921542448417989000288521CD4
:1003800093B26350028016E0012E029D04981AD1A8
:10039000039921541C480FE0002E049800D12754E3
:1003A0001948417989000288521E93B26350028035
:1003B000029D08E027541548417989000288521CA3
:1003C00093B2635002802646114C6179022000F0FE
:1003D000CFFE411C88B22288904200D921806179E9
:1003E000890070500224204600F0ECFD204639467A
:1003F00032462B4600F0C3FE384605B0F0BDC0467D
:10040000E703000048010020040000204400002011
:1004100010000020054908607047C046034909687C
:100420000140481E814108467047C0460000014C0B
:1004300092490A78002803D0082002430A707047C6
:10044000F72002400A707047F0B58BB00023099383
:1004500001221004049009900893032041020691A0
:10046000089107930792824D2E6882490E40824C74
:1004700036192E6006036F68B7436F602E680E4012
:100480002E607E4E371F3D680D402C1905973C604D
:10049000079C74603446083C099D25608505089CCE
:1004A0002C40376876490F403C193460099CA403FE
:1004B000A40F05D00404099F27405404A74203D188
:1004C00034681027274337600A9306990A91F46825
:1004D000042102910C43F46017036A490C88BC4262
:1004E00002D18C88BC4201D00F808F8003973446A4
:1004F000103C2768FF00FAD5022727700A9F2F407B
:1005000035685F490D403D43356010250A9F2F40F7
:100510003168A943C91931600A9306990A91910477
:100520000A9D0D4037688F4379193160316809079A
:1005300003D4316808250D433560019221684900D4
:10054000FCD5202727703168B9433160024680020C
:100550000899014035680690854310466918316056
:10056000120208991140356800929543691831606C
:10057000089909058D0F019A1146A94025682D0299
:100580002D0F8D42FAD1089989058D0F1146A9408A
:1005900025682D032D0F8D42FAD18103089D0D4052
:1005A000D003854207D135683D4335602568002D6D
:1005B000FCD540252570089D0D4037688F432F439B
:1005C00037600899049D29402A4D6D1E37682F40D9
:1005D0000F43376007997160089909048D0F114620
:1005E000A94025686D016D0F8D42FAD131460C3955
:1005F0000B600821B160244CF460244C34619330CA
:10060000706133627362B362029830637363B36381
:100610003068069C2042039B02D0306888433060DB
:10062000089820409102884217D008980099084005
:100630001102884211D0581E124A918801409180BF
:1006400008992140A14208D00899009A114091428E
:1006500003D00C4A118801401180059A10680549A1
:10066000084010600A480B4901600BB0F0BDC0465D
:100670000C00004D0000FFFF17A200001000014C0D
:10068000FFFF3FFF340002440F810000E51103002B
:100690004000002000127A0080B5FFF7D5FE80BD33
:1006A00070B500F019FF05460124204601F0CCFE8C
:1006B000002D22D0332000F02DFF00F047FE104D1A
:1006C000287000F043FE687000F040FEA87000F053
:1006D0003DFEE87000F03AFE287100F037FE6871C8
:1006E00000F034FEA87100F031FE0646E8710721E3
:1006F000284600F09DF8864200D00024204670BDB8
:1007000038010020F0B581B001281AD00D46002133
:10071000CC43002860D1012D5ED80127BC02022005
:100720000021424E3246234600F040FC193C03E0D3
:10073000641E761C002C52D03078FF28F8D035701B
:10074000F6E70126B3020024384D204621462A460A
:1007500000F02CFCEB4801684A880A80497989003E
:100760006A5041684A880A80497989006A508168DC
:100770004A880A80497989006A50C1684A880A8093
:10078000497989006A5001694A880A804979890053
:100790006A5041694A880A80497989006A508069AB
:1007A00041880180407980002950DA4F79792046CC
:1007B00000F0DEFC411C88B23A88904200D93980B2
:1007C000797989006850204600F0FCFB330220460E
:1007D00021462A4600F0D3FC204601B0F0BD002D92
:1007E00001D0C9480588A8B2C8494A7992000F4E7D
:1007F000B0500D80C74D69790024204600F0B8FC48
:10080000411C88B22A88904200D9298069798900E0
:1008100070500225284600F0D5FB3B0228462146B1
:10082000324600F0ACFC204601B0F0BD480100208B
:1008300010B50022002907D0044BD2B204785440EE
:100840001A5D401C491EF8D1104610BD1E2800003C
:10085000F0B581B00520C00200F0FCFB002001468D
:1008600000F086FCAA2800D0ABE0A64D28684179AC
:100870000024204600F07CFC2968088068684179E3
:10088000204600F075FC69680880A8684179204618
:1008900000F06EFCA9680880E8684179204600F005
:1008A00067FCE968088028694179204600F060FC0F
:1008B0002969088068694179204600F059FC696916
:1008C0000880A8694179204600F052FCA969088097
:1008D000E8694179204600F04BFCE9690880286A04
:1008E0004179204600F044FC296A0880686A417911
:1008F000204600F03DFC696A0880FF252046294615
:1009000000F036FC074601242046294600F030FC62
:100910000646B84200D83E460220294600F028FC90
:10092000B04200D830467B490880794D286801786C
:100930000A267143204600F01BFC2968C87008781D
:100940007043411C204600F013FC29688870087829
:100950007043811C204600F00BFC296848706868D1
:1009600001787143204600F003FC6968C87008787C
:100970007043411C204600F0FBFB696888700878D2
:100980007043811C204600F0F3FB69684870A8683A
:1009900001787143204600F0EBFBA968C870087825
:1009A0007043411C204600F0E3FBA968887008787A
:1009B0007043811C204600F0DBFBA968487001B041
:1009C000F0BD0024FF270125204639462A4600F0C5
:1009D000E3FB284639462A4600F0DEFB0226304675
:1009E00039462A4600F0D8FB464F3868428841799C
:1009F000204600F0D1FB786842884179204600F01B
:100A0000CBFBB86842884179204600F0C5FBF86806
:100A100042884179204600F0BFFB3869428841791D
:100A2000204600F0B9FB786942884179204600F001
:100A3000B3FBB86942884179204600F0ADFB3248EB
:100A400042884179304600F0A7FB3048428841791E
:100A5000304600F0A1FB2E4E306801780A2779431A
:100A6000C9B2C278284600F097FB30680178794314
:100A7000491CC9B28278284600F08EFB30680178A4
:100A80007943891CC9B24278284600F085FB70681A
:100A900001787943C9B2C278284600F07DFB7068BE
:100AA00001787943491CC9B28278284600F074FB6A
:100AB000706801787943891CC9B24278284600F0F1
:100AC0006BFBB06801787943C9B2C278284600F060
:100AD00063FBB06801787943491CC9B28278284623
:100AE00000F05AFBB06801787943891CC9B242789A
:100AF000284600F051FBAA222046214600F04CFB7C
:100B000001B0F0BDB400002044000020040000202B
:100B10005800002010000020B0B501250024104B23
:100B2000284621462246FFF7D7FB0E4B2046294692
:100B30002246FFF7D1FB02250B4B284629462246C9
:100B4000FFF7CAFB0321094B20462246FFF7C4FBEF
:100B50000421074B28462246FFF7BEFBB0BDC04626
:100B60006400002074000020840000209400002015
:100B7000A4000020F0B583B09B48002404704470AA
:100B8000C47101250572029544728472974E032147
:100B90000191304600F053F93046294600F061F9E2
:100BA0003046214600F032F93046214600F03FF948
:100BB0003046214600F04CF93046214600F02EF92F
:100BC0003046214600F016F9351D022728463946E1
:100BD00000F035F92846214600F043F92846214621
:100BE00000F014F92846214600F021F92846214654
:100BF00000F02EF92846214600F010F9284621463B
:100C000000F0F8F8354608352846394600F017F95F
:100C10002846214600F025F92846214600F0F6F83E
:100C20002846214600F003F92846214600F010F935
:100C30002846214600F0F2F82846214600F0DAF86E
:100C400035460C352846019900F0F9F828460299F6
:100C500000F007F92846214600F0D8F8284621463A
:100C600000F0E5F82846214600F0F2F82846214633
:100C700000F0D4F82846214600F0BCF8354620356F
:100C80002846394600F0DBF82846214600F0E9F80E
:100C90002846214600F0BAF82846214600F0C7F859
:100CA0002846214600F0D4F82846214600F0B6F840
:100CB0002846214600F09EF8354624352846394618
:100CC00000F0BDF82846214600F0CBF82846214622
:100CD00000F09CF82846214600F0A9F82846214655
:100CE00000F0B6F82846214600F098F8284621463C
:100CF00000F080F8354628352846394600F09FF840
:100D00002846214600F0ADF82846214600F07EF83E
:100D10002846214600F08BF82846214600F098F836
:100D20002846214600F07AF82846214600F062F86D
:100D30002C363046394600F082F83046214600F025
:100D400090F83046214600F061F83046214600F028
:100D50006EF83046214600F07BF83046214600F020
:100D60005DF83046214600F045F8214E30463946C0
:100D700000F065F83046029F394600F072F83046C0
:100D8000214600F043F83046214600F050F8304646
:100D9000214600F05DF83046214600F03FF80A2574
:100DA0003046294600F026F8361D3046394600F018
:100DB00046F83046394600F054F83046214600F0F7
:100DC00025F83046214600F032F83046214600F042
:100DD0003FF83046214600F021F83046294600F021
:100DE00009F803B0F0BDC0463100004100000144E5
:100DF000000002440268044B134009031943012216
:100E0000D207891801607047FF0FFF7F026808232F
:100E10009A43C907090F51180160704703229202D3
:100E200003689343036002680A43026070470268E4
:100E300080239A43C907090E511801607047026860
:100E400007239A43026002681A400A43026070470F
:100E50000322120203689343036002680A4302609C
:100E60007047026820239A43C907890E5118016010
:100E7000704780B50146022000F074F980BD000083
:100E80000A2802D90020C043704780000149085851
:100E900000887047B40000200C4601681B4D296093
:100EA000416869608168A960C168E9600169296178
:100EB000416969618169A961C069E861144801F00B
:100EC00017FB2968134801F013FB6968124801F009
:100ED0000FFBA96811A001F00BFBE96813A001F05A
:100EE00007FB296915A001F003FB696917A001F050
:100EF000FFFAA9691BA001F0FBFAE9691FA001F044
:100F0000F7FA24A0214601F0F3FAFEE718010020C9
:100F10003A2900001E2900002C290000202052320E
:100F2000203D20307825580A0D0000002020523343
:100F3000203D20307825580A0D0000002020523135
:100F400032203D20307825580A0D000020205374AF
:100F500061636B6564204C52203D20307825580A2F
:100F60000D0000002020537461636B6564205043C2
:100F7000203D20307825580A0D00000020205374B1
:100F800061636B656420505352203D2030782558B2
:100F90000A0D0000202043757272656E74204C5259
:100FA000203D20307825580A0D00000010B50D2492
:100FB000640680020019411810461A46FFF7BEF871
:100FC00010BD0000F0B59B4909680D225206800251
:100FD00086180F204006304090423AD10820014048
:100FE00037D09549081F0468944A1440944AA418BD
:100FF00004600D68012425430D604F6802252F43CE
:101000004F600F6820233B43D027BB430B60462330
:101010000B73BE238B810B46103B22271F70BFF33F
:101020006F8F0027FA4332601A780268834E32408D
:10103000834BD21802600F730A68F0239A430A6048
:101040004A68AA434A600A68A2430A6001683140BC
:101050000160F0BD70B504460B4D284601F0DEF985
:1010600001263046FFF7E4F9B007FFF7D7F900286B
:10107000FAD02020FFF7CEF9284600F081FE204666
:1010800000F028F970BDC0460C00014C80B50D235E
:101090005B06C018FFF764F84142484180BD00007C
:1010A000F0B582B0634B1C680123240757D5032693
:1010B0000D4635406C426C41064075427541460E06
:1010C0000D2E4CD125434AD09F4C23685B4E3340B4
:1010D0005B4D5B1923606368012501952B436360B9
:1010E000A368022500952B43A360636810251D4368
:1010F000E0239D43656046232374BE232382236837
:1011000033402360002325460C3D22272F70BFF378
:101110006F8F0E6806602D783D40022D07D15B1C55
:10112000001D091D9342EED30023019D01E0019DA6
:101130002B462068414A1040414908432060002066
:1011400020746068F02188436060A068009988433B
:10115000A0606068A8436060206810402060184666
:1011600002B0F0BD0D22520680028018405C70472C
:101170000D2252068002801889004058704780B5C1
:101180008900800240180D214906401811461A4670
:10119000FFF786FF80BD0000F0B581B0254B1B68CE
:1011A0001B0702D4012001B0F0BD234D2C1F26687F
:1011B00000920246214806402148301820602B68E2
:1011C000012003432B606E6802231E436E602E686D
:1011D00010273743E026B7432F6046262E73B926E3
:1011E000AE812E46103E2227377089009202511898
:1011F000BFF36F8F0D225206009F8F5021680F4F53
:1012000039400F4A891821602968F02291432960EA
:101210006968994369602968814329602168394078
:1012200021603178890602D53178890700D5002000
:1012300001B0F0BD1000014C1000004D0000FFFF98
:1012400017A2000005490A680123002802D01A43AA
:101250000A6070479A430A607047C0461000005DFC
:1012600004490A68F0239A430007000E101808602A
:101270007047C0460800005D014802490180704780
:101280000C00005D14200000F0B581B00F4E3088D6
:10129000002817D000240E4D274604E008347F1C98
:1012A000308887420ED2B8B2FFF7E3FD0128F5D1AE
:1012B000082220462946FFF7E9FE0028EED001204B
:1012C00001B0F0BD002001B0F0BDC04644000020D8
:1012D00038010020F0B583B006461B4FF9697868E5
:1012E000800203D40124204603B0F0BD0191B00870
:1012F00002903D460C3D012420042860384601F050
:101300008DF8B00503D02002029E361800E0029E40
:10131000FE61384600F034FD2868C00309D403207C
:1013200080078643B88B864203D10024204603B051
:10133000F0BD384601F072F80198F861384600F0C7
:101340001FFD204603B0F0BD0C00004DF0B587B086
:10135000D94802252946FFF772FDD84800240470B9
:101360000746284601F08DF80326D3483146FFF79B
:1013700066FD387806903C27384601F082F8CE4862
:101380002946FFF75CFDCD480470284601F079F846
:10139000C9483146FFF753FDC848007805903846E4
:1013A00001F06FF8C4482946FFF749FDC3480470AF
:1013B000284601F066F8C0483146FFF740FDBF48B7
:1013C00000780490384601F05CF8BB482946FFF7E6
:1013D00036FDBA480470284601F053F8B648314645
:1013E000FFF72DFDB54800780390384601F049F825
:1013F000B1482946FFF723FDB0480470284601F0A4
:1014000040F8AD483146FFF71AFDAC48017802912B
:10141000384601F036F8A8482946FFF710FDA748DE
:1014200004700094284601F02CF8A3483146FFF7D9
:1014300006FDA24801780191384601F022F89E4845
:101440002946FFF7FCFC9D4804700446284601F03D
:1014500018F899483146FFF7F2FC2478384601F035
:1014600010F895482946FFF7EAFC00999348017067
:10147000284601F006F890483146FFF7E0FC8F4817
:101480000578384600F0FDFF0699481E8141059A0F
:10149000501E824150004018049A511E8A4191000A
:1014A0000818039A511E8A41D1000818029A511E49
:1014B0008A4111010818019A511E8A4151010818E8
:1014C000611E8C41A1010143681E8541E80108436A
:1014D000C0B207B0F0BDC04670B5774C02212046BF
:1014E000FFF7ADFC754E002030701920050128462D
:1014F000503000F0C6FF03212046FFF7A0FC50202B
:1015000000F0BFFF3478284600F0BBFF6042604126
:1015100070BDC046F0B581B00546674C022120463B
:10152000FFF78DFC654E00273770E80707D13C2098
:1015300000F0A7FF03212046FFF781FC09E001200E
:1015400000F09FFF03212046FFF779FC3C2000F0CC
:1015500098FF02212046FFF772FC3770A80707D4D6
:101560003C2000F08EFF03212046FFF768FC09E0D5
:10157000012000F086FF03212046FFF760FC3C209D
:1015800000F07FFF02212046FFF759FC3770680703
:1015900007D43C2000F075FF03212046FFF74FFCE5
:1015A00009E0012000F06DFF03212046FFF747FC12
:1015B0003C2000F066FF02212046FFF740FC377018
:1015C000280707D43C2000F05CFF03212046FFF7EA
:1015D00036FC09E0012000F054FF03212046FFF70C
:1015E0002EFC3C2000F04DFF02212046FFF727FC97
:1015F0003770E80607D43C2000F043FF0321204663
:10160000FFF71DFC09E0012000F03BFF032120460D
:10161000FFF715FC3C2000F034FF02212046FFF7C5
:101620000EFC3770A80607D43C2000F02AFF0321E7
:101630002046FFF704FC09E0012000F022FF03210F
:101640002046FFF7FCFB3C2000F01BFF0221204658
:10165000FFF7F5FB3770680607D43C2000F011FF58
:1016600003212046FFF7EBFB09E0012000F009FF12
:1016700003212046FFF7E3FB3C2000F002FF02219C
:101680002046FFF7DCFB3770280608D43C2000F02A
:10169000F8FE03212046FFF7D2FB01B0F0BD012088
:1016A00000F0EFFE03212046FFF7C9FB3C2000F0CD
:1016B000E8FE01B0F0BDC04600000144300000412A
:1016C00070B53E4C257826792920400600F030FE82
:1016D000012E10D01D2D0ED8217862181073481CD1
:1016E0002070022908D1A17BC906890F084A515CE4
:1016F0006170002903D170BD61780029FBD0C0B2B0
:101700008842F8D1012121712B4800F0DCFD70BD29
:1017100028000020F0B581B027480024214600F0C1
:10172000D2FD264E74703471F4703078B07034701D
:10173000022000F089FE307B43283BD1707B1028CB
:1017400038D1B17B1F2008400A2807D01E2809D0B5
:1017500014280BD100F07EFA01B0F0BD00F030F893
:1017600001B0F0BD00F0F4F901B0F0BDF64F01207A
:101770003870B420B073B07835460C35411E284619
:10178000FFF756F8B1784919491E0870072000F094
:1017900099FEB078002807D03019007B00F0F5FDE5
:1017A000641CB0788442F7D300F0D0FD0028FBD051
:1017B0000020387001B0F0BD00000155E0000020AD
:1017C000F0B581B0DF4EF07BDF4D00281DD0012841
:1017D00048D100242046FFF753FB411C00D187E18C
:1017E000DA4F39680979002900D185E0214602469F
:1017F000E24073181D7C15431D740834491C3A6877
:1018000012799142F3D3741877E0307CFFF738FBFC
:10181000411C4CD070740921B170000AB0740120D1
:1018200028701320B073B07834460C34411E204623
:10183000FEF7FEFFB1780919491E0870072000F075
:1018400041FEB078002808D000243019007B00F059
:101850009CFD641CB0788442F7D300F077FD00282B
:10186000FBD06AE10920B07001202870B320B0736A
:10187000B07834460C34411E2046FEF7D9FFB178CB
:101880000919491E0870072000F01CFEB0780028D6
:1018900008D000243019007B00F077FD641CB0787C
:1018A0008442F7D300F052FD0028FBD045E1092027
:1018B000B070012028707320B073B07834460C34B7
:1018C000411E2046FEF7B4FFB1780919491E087081
:1018D000072000F0F7FDB078002808D00024301968
:1018E000007B00F052FD641CB0788442F7D300F016
:1018F0002DFD0028FBD020E134461034012000905B
:10190000FFF7BEFA411C00D1F2E07968097900299D
:101910000DD000210A460346CB40A55C1D43A554CB
:101920000831521C7B681B799A42F4D3A418022018
:10193000FFF7A6FA411C00D1DAE0B968097900295D
:101940000DD000210A460346CB40A55C1D43A5549B
:101950000831521CBB681B799A42F4D3A4180320A7
:10196000FFF78EFA411C00D1C2E0F968097900291D
:101970000DD000210A460346CB40A55C1D43A5546B
:101980000831521CFB681B799A42F4D3A418042036
:10199000FFF776FA411C00D1AAE0396909790029DC
:1019A0000DD000210A460346CB40A55C1D43A5543B
:1019B0000831521C3B691B799A42F4D3A4180520C4
:1019C000FFF75EFA411C00D192E07969097900299C
:1019D0000DD000210A460346CB40A55C1D43A5540B
:1019E0000831521C7B691B799A42F4D3A418062053
:1019F000FFF746FA411C7BD0B969097900290DD05F
:101A000000210A460346CB40A55C1D43A55408317E
:101A1000521CBB691B799A42F4D3A4180720FFF724
:101A20002FFA411C64D0F969097900290DD00021F1
:101A30000A460346CB40A55C1D43A5540831521C01
:101A4000FB691B799A42F4D3A4180820FFF718FA0F
:101A5000411C4DD0396A097900290DD000210A4670
:101A60000346CB40A55C1D43A5540831521C3B6A7C
:101A70001B799A42F4D3A4180920FFF701FA411CFC
:101A800036D0796A097900290CD000210A4603462C
:101A9000CB40A55C1D43A5540831521C7B6A1B79C1
:101AA0009A42F4D31820B070B44D009828701D20CD
:101AB000B073B07834460C34411E2046FEF7B8FEB1
:101AC000B1780919491E0870072000F0FBFCB078B6
:101AD000002808D000243019007B00F056FC641C5C
:101AE000B0788442F7D300F031FC0028FBD024E02A
:101AF0000920B0700120A14D28707320B073B07818
:101B000034460C34411E2046FEF792FEB178091986
:101B1000491E0870072000F0D5FCB078002808D0D6
:101B200000243019007B00F030FC641CB078844243
:101B3000F7D300F00BFC0028FBD00020287001B088
:101B4000F0BDC046E00000203B000041B400002092
:101B500070B5894E0420B070F07B884D012809D003
:101B6000002831D1B27C717C307C33461333FEF7D0
:101B7000B3FB03E03046103000F04CF9B0600121B7
:101B80002970401C43D00520B073B07834460C3423
:101B9000411E2046FEF74CFEB1780919491E087017
:101BA000072000F08FFCB078002808D000243019FE
:101BB000007B00F0EAFB641CB0788442F7D300F0AD
:101BC000C5FB0028FBD042E001202870A520B0739F
:101BD000B07834460C34411E2046FEF729FEB17819
:101BE0000919491E0870072000F06CFCB078002825
:101BF00008D000243019007B00F0C7FB641CB078CB
:101C00008442F7D300F0A2FB0028FBD01FE0252080
:101C1000B073B07834460C34411E2046FEF708FEFF
:101C2000B1780919491E0870072000F04BFCB07804
:101C3000002808D000243019007B00F0A6FB641CAB
:101C4000B0788442F7D300F081FB0028FBD000205D
:101C5000287070BD70B5484EF07B484D022809D001
:101C600001280CD0002858D1B27C717C307CFEF762
:101C7000E9FA09E0717C307CFEF744FD04E0B27CB7
:101C8000717C307C00F08CF80421B170B0600121CF
:101C90002970401C20D00520B073B07834460C3435
:101CA000411E2046FEF7C4FDB1780919491E08708F
:101CB000072000F007FCB078002808D00024301975
:101CC000007B00F062FB641CB0788442F7D300F024
:101CD0003DFB0028FBD044E02520B073B0783446AB
:101CE0000C34411E2046FEF7A3FDB1780919491EA8
:101CF0000870072000F0E6FBB078002808D0002428
:101D00003019007B00F041FB641CB0788442F7D3AB
:101D100000F01CFB0028FBD023E00420B070012061
:101D20002870A520B073B07834460C34411E20468C
:101D3000FEF77EFDB1780919491E0870072000F0F2
:101D4000C1FBB078002808D000243019007B00F0D7
:101D50001CFB641CB0788442F7D300F0F7FA00282B
:101D6000FBD00020287070BD034800210171C170B4
:101D70000180024801707047E00000203B000041F4
:101D80000021018001207047044A1368002902D015
:101D90000343136070478343136070471400004C83
:101DA000F0B581B0072804D90020C443204601B013
:101DB000F0BD15460F460646012000908302002420
:101DC0007A4A20462146FFF7F1F82802C019B100EF
:101DD000764E774A51580880497989007050754D80
:101DE00069792046FFF7C4F9411C88B22A889042DD
:101DF00000D929806979890070502046FFF7E2F800
:101E000000980302204621463246FFF7B8F92046E3
:101E100001B0F0BDF0B581B005460120009083020D
:101E20000024624A20462146FFF7C0F86048016856
:101E30000B79002B0BD0002632463746A85CB04009
:101E400007430836521C9A42F8D3AD1800E02746E3
:101E50000F80BAB249798900544F7A50544841688A
:101E60000B79002B0CD0002637463246E85DB04097
:101E7000024308367F1C9F42F8D3ED194B4F00E018
:101E800022460A8090B24979890078504848816892
:101E90000B79002B0CD0002637463246E85DB04067
:101EA000024308367F1C9F42F8D3ED193F4F00E0F4
:101EB00022460A8090B24979890078503C48C1682E
:101EC0000B79002B0CD0002637463246E85DB04037
:101ED000024308367F1C9F42F8D3ED19334F00E0D0
:101EE00022460A8090B249798900785030480169C9
:101EF0000B79002B0CD0002637463246E85DB04007
:101F0000024308367F1C9F42F8D3ED19274F00E0AB
:101F100022460A8090B24979890078502448416964
:101F20000B79002B0CD0002637463246E85DB040D6
:101F3000024308367F1C9F42F8D3ED191B4F00E087
:101F400022460A8090B24979890078501848806901
:101F50000179002909D0002213461446EE5C964010
:101F6000344308325B1C8B42F8D30480A1B2407921
:101F7000800039500F4C61790020FFF7F9F8411CBF
:101F800088B22288904200D92180617989007850F6
:101F900000252846FFF716F8009803022846294630
:101FA0003A46FFF7ECF8284601B0F0BD48010020A2
:101FB000B400002010000020014802490160704771
:101FC00040000020001BB700F0B585B002AC2046F1
:101FD00000F02CF91F20E080F92727815520060604
:101FE0003046214600F02CF910253046294600F0F5
:101FF00005F90720E0802781424F3846214600F04E
:102000001FF9012638462946324600F005F93846C0
:10201000314600F0FAF83846294600F0EFF8300370
:1020200028490860284820810020E0802749086866
:10203000FF22019290430860AB20C7053846214635
:1020400000F0FEF838462946324600F0E5F83846FA
:10205000314600F0DAF83846294600F0CFF8700330
:10206000EC4908601A4820810F27E7801749086863
:10207000184A104008604148214600F0E1F83F4806
:10208000294600F0BBF8B003E249086010482081FF
:10209000E780019800040D4A116881431160514F97
:1020A0003846214600F0CCF83846294600F0A6F81C
:1020B0007004D8490860054A5068064908405060D5
:1020C00005B0F0BD00E100E03F9C00000CE400E042
:1020D0004FC3FFFFFF00FFFF10B5094800788007DE
:1020E0000CD5084C1021204600F08AF8012805D1B3
:1020F000FFF710FB1021204600F080F810BDC0460D
:102100006C0000500000015510B5AB20C405102133
:10211000204600F075F8012812D10A4800780A49D3
:1021200008707A480178002906D0491C0170C8B2AD
:10213000112801D3FFF718FE1021204600F05EF8A9
:1021400010BDC046330000414805002010B50B4CBF
:102150001021204600F054F801280ED1FEF7A0FA15
:10216000012806D1FFF790F8012800D0022022496B
:1021700008701021204600F041F810BD000086557F
:1021800070B5184C1021204600F03AF8012828D1EB
:10219000154E35681548006885420BD11548002159
:1021A000417001220270204600F08DF81248032190
:1021B000017012E00E4801782846FDF7A9FF0029BA
:1021C00009D10C4841784A424A41427001784A425A
:1021D0004A4102703568681C30601021204600F0CA
:1021E0000DF870BD0000865610010020140100207B
:1021F0000C010020390000414A00002001607047B6
:1022000000680840411E8841704701221140436820
:102210009343591841607047012A03D142680A4329
:102220004260704742688A434260704705210181DD
:10223000C180002101808170C170017141717047BE
:1022400070B5CA888B78002B144600D11C460485D3
:1022500082850A894B78002B144600D11C460484E1
:1022600082840A7803693024A3439207920E9A1855
:102270000261CB784022D24384681440DB075B0EB6
:10228000E31883600C798023DB4385681D40E407F5
:10229000240E2C1984604C7903252D038668AE43E7
:1022A000A407A40CA41984604C7805691540E207C2
:1022B000520EAA180261897802691A40C907090EEC
:1022C0005118016170BD027C012903D0FC210A4034
:1022D0000274704703210A4302747047B0B5292085
:1022E0004406204600F01EF80546204600F01EF881
:1022F0002840400608D5054801210170FFF7E0F9A4
:102300004021204600F004F8B0BDC046E3000020A4
:102310002122914301607047026901239A430A43D5
:102320000261704700682121884370474068704708
:10233000006B7047426801239A430A43426070472A
:102340004A4343688B431343436070472920400648
:1023500000684007C00F7047491E03290AD8C046CD
:102360007944097949008F4401070A0D3421425408
:1023700000207047012070478286002070478263EA
:102380000020704742630020704780B50246292034
:10239000400601680906FCD50121FFF7DDFF80BD7D
:1023A00070B5184E30681849014031601748332124
:1023B00081800721F17371730321090632680A4392
:1023C00032604021B1733173C0220270B068104A8C
:1023D0000240B2603446083C012520462A46FFF7F9
:1023E000AFFF20462946FFF7A5FF280509490860E9
:1023F00009480168FF229143016030690C210143C3
:10240000316170BD08000052F1FFCCFF2000005286
:1024100085FFFCFF00E100E014E400E001490180D9
:102420000120704717A2000010B5064C2046FFF7A8
:10243000F5FF0121C802FFF7A7FC2046FFF7A0FC2B
:1024400010BDC0460C00004C70B505465520040672
:1024500001212046FFF737FF002D0DD00026102167
:102460002046FFF7CDFE0028F9D010212046FFF7C7
:10247000C5FE761CAE42F2D100212046FFF723FFB5
:1024800070BD002805D000BF00BF00BF00BF401EC8
:10249000F9D1704772B6FEF7FFF8FEF76BFBFEF757
:1024A000D7F9FFF791FDFFF77BFFFFF7BDFF29206D
:1024B00040060121FFF730FF62B6FEF72DFB00F06A
:1024C00013F8FCE7B0B50446064D2846FFF7A6FF13
:1024D0002046FEF7C5FE0120FEF7B4FE2846FFF7B2
:1024E0004FFCB0BD0C00005D80B5FEF7C5FE80BDA1
:1024F0000FB410B503A9044B044A029800F018F871
:1025000010BC08BC04B018470D28000000000020D3
:1025100002E008C8121F08C1002AFAD170477047AC
:10252000002001E001C1121F002AFBD1704700000A
:10253000FFB58FB00F460446002606E025280AD0D6
:10254000129A11999047641C761C20780028F5D1C6
:10255000304613B0F0BD00250121A14A009500E0EE
:102560000543641C23780846203B98401042F7D16D
:1025700020782E2815D1042005436078641C2A2871
:102580000AD101CF641C00900BE000990A2251434C
:1025900030394018641C00902078014630390929F0
:1025A000F3D920786C280ED004DC4C2813D06A288C
:1025B00012D104E074280ED07A280DD10BE001204E
:1025C0004005054307E00121090562780D43824279
:1025D00001D16D18641C641C2078864669284AD095
:1025E00008DC0028B4D058286DD0632810D06428A7
:1025F00008D140E070286BD0732812D0752860D0C5
:10260000782860D0129A704611999047761CE5E0C0
:102610003878694608720020487202A801900120AB
:1026200003E0386801900020C0433F1D69070CD5C6
:10263000002500E06D1C00998D420FDA8542F9DB20
:102640000199495D0029F5D108E0002500E06D1CE5
:102650008542FCDB0199495D0029F8D1761907E034
:10266000019801990078491C0191129A119990479B
:102670006D1EF5D2B2E00A20029000216802400FE0
:10268000039102280CD001CFC117844600290DDA2E
:102690006246084652420021814194462D2008E0BE
:1026A000FF1DFF08FF0003CF8446EFE7280504D590
:1026B0002B206A46107401203CE0E8073AD0202025
:1026C000F7E70A2000E0102000210391029007E0C4
:1026D000102002900021042005430820039100905F
:1026E0006802400F022810D001CF0021844600204C
:1026F0000D9028071FD5704670280CD0029A102024
:10270000039B42401A430CD015E0FF1DFF08FF0059
:1027100003CF8446EBE740206A46107401200D90F9
:102720000CE06046084306D030206A4610747046BC
:10273000507402200D907046582804D029A00190B2
:102740000DA80E900DE02CA0F9E76046039B029ABD
:10275000FDF713FD019B84469B5C0E9A521E0E9260
:10276000137060460843F0D10E9805A9081A20306E
:102770000190680701D5009801E0012000900199BF
:10278000884203DD01460198081A00E00020002578
:10279000009006E004A8129A405D119990476D1CC4
:1027A000761C0D988542F5DB04E0129A30201199D1
:1027B0009047761C0099481E00900029F5DC08E03F
:1027C0000E980E990078491C0E91129A1199904713
:1027D000761C0199481E01900029F1DC641CB4E6C6
:1027E00009280100303132333435363738396162E7
:1027F00063646566000000003031323334353637AB
:1028000038394142434445460000000038B504468B
:102810006846047069460320ABBE204638BD005EA2
:10282000BCE2613FDD83C29C7E20A3FD1F419DC3AE
:10283000217FFCA2401E5F01E3BD3E6082DC237D60
:102840009FC1421CFEA0E1BF5D0380DE3C62BEE092
:10285000025CDF81633D7C22C09E1D43A1FF4618C0
:10286000FAA427799BC584DA3866E5BB5907DB856E
:102870006739BAE406581947A5FB7826C49A653B20
:10288000D987045AB8E6A7F91B45C6987A24F8A652
:10289000441A99C7257B3A6486D85B05E7B98CD280
:1028A000306EEDB3510F4E10F2AC2F7193CD114F2E
:1028B000ADF3702ECC92D38D6F31B2EC0E50AFF1E0
:1028C000134DCE90722C6D33D18F0C52B0EE326C12
:1028D0008ED0530DEFB1F0AE4C1291CF2D73CA9440
:1028E0007628ABF517490856B4EA6937D58B5709EE
:1028F000EBB536688AD495CB2977F4AA4816E9B7A0
:10290000550B88D6346A2B7597C94A14F6A8742AD1
:10291000C896154BA9F7B6E80A54D7896B3520201D
:102920005230203D20307825580A0D0020205231A9
:10293000203D20307825580A0D002020486172641F
:10294000204661756C742048616E646C65720A0D76
:10295000000000007429000000000020DC000000DE
:1029600010250000502A0000E00000207008000040
:1029700020250000000000000000000002FE5802B8
:102980005802020D0100010002FF00000000010FCB
:1029900003000300020A00000000011004060918E9
:1029A00005000500020C1E001E00020B00000000C6
:1029B000010E0000001BB7000000000002FDFF0038
:1029C00001000000000002000000000040010020A3
:1029D0004C000020520000200114E6810F0000F599
:1029E000000000000000000001D8D373010000C304
:1029F0000000000000000000013A6F14090000D937
:102A000000000000000000000137476E090000E6EA
:102A10000000000000000000013769C909000093B0
:102A200000000000000000001C0000203200002018
:102A30002C0000200A000020380000201600002092
:102A4000220000204400002004000020100000208C
:04000005000000DB1C
:00000001FF
