:020000040000FA
:1000000018090020D5000000E3000000E500000012
:10001000FFFFFFFFFFFFFFFFFFFFFFFFFFFFFFFFF0
:10002000FFFFFFFFFFFFFFFFFFFFFFFFFD000000DF
:10003000FFFFFFFFFFFFFFFFFF00000001010000C7
:100040000301000003010000FFFFFFFF03010000A8
:100050000301000003010000030100000301000090
:1000600003010000FFFFFFFF030100000301000088
:10007000E5230000192400003524000003010000DE
:100080000301000075240000FFFFFFFFFFFFFFFFDB
:10009000E92500000301000003010000FFFFFFFF4E
:1000A0000301000003010000FFFFFFFFFFFFFFFF50
:1000B0000301000003010000030100000301000030
:1000C0000348854600F08AF8004800477D27000075
:1000D00018090020002001688D460A4880470A4818
:1000E0000047FEE704207146084202D0EFF3098082
:1000F00001E0EFF308807146044A1047FEE7FEE78F
:10010000FEE7FEE799220000C1000000D90E0000C2
:1001100030B50B46014600202022012409E00D469F
:10012000D5409D4205D31D469540491B2546954027
:1001300040191546521E002DF1DC30BD03460B431D
:100140009B0703D009E008C9121F08C0042AFAD28D
:1001500003E00B780370401C491C521EF9D2704713
:1001600030B504460020034600E05B1C934203D2F6
:10017000E05CCD5C401BF8D030BDF0B51FB4064646
:10018000002082B005464024019100901BE00199B7
:1001900022460F46304600F043F8049A059B801A29
:1001A000994110D310461946224600F029F8361A14
:1001B0008F410197224601200021009F00F020F886
:1001C00038184D4100902046641E0028DFDC019B5A
:1001D00000982946324607B0F0BD0000064C0125C4
:1001E000064E05E0E36807CC2B430C3C98471034DF
:1001F000B442F7D3FFF768FF4C2C00006C2C0000D2
:1002000010B5202A04DB0146203A9140002010BDA1
:10021000914020239C1A0346E3401943904010BDAF
:1002200010B5202A04DB0846203AD040002110BD3A
:100230000B46D340D0402024A21A914008431946CF
:1002400010BD0000F0B583B00026F443012845D866
:10025000054671480088002840D010024718F80869
:100260007C283BD80220394600F09CFFFF2835D07F
:10027000A842344632D0012002908302022000249A
:10028000634E01902146324600F0B0FE681E4142A6
:100290004141F155012D00D0E5435E4801884919DF
:1002A0008AB243799B00F25001805C4D69790198D4
:1002B00000F07EFF411C88B22A88904200D9298034
:1002C0006979890070500225284600F09BFE02984B
:1002D000030228462146324600F071FF204603B053
:1002E000F0BDC046F0B585B00024E743022800D930
:1002F00088E00D46064610024118C8087C2800D93F
:1003000080E0424F01200390029383028809C01CC1
:10031000C0B201903E4A04912146009300F066FE6F
:100320000937280138403A4D281810220299FFF762
:1003300005FF019F384600F065FE0398030238462A
:1003400021462A46029300F03AFF0220049900F069
:1003500029FFB042274655D00546022000272C4CE5
:1003600039462246009B00F041FE002D12D0012D9F
:1003700018D0FF2D029D04982BD1012E20D1039976
:1003800021542448417989000288521C93B2635059
:10039000028016E0012E029D04981AD1039921547F
:1003A0001C480FE0002E049800D1275419484179C9
:1003B00089000288521E93B263500280029D08E0B9
:1003C00027541548417989000288521C93B2635022
:1003D00002802646114C6179022000F0E9FE411CA2
:1003E00088B22288904200D92180617989007050BA
:1003F0000224204600F006FE2046394632462B46AF
:1004000000F0DDFE384605B0F0BDC046E703000051
:1004100018010020040000204400002010000020EB
:1004200070B50022491E08D0064B04460D462678BA
:1004300056409A5D641C6D1EF9D1405C101A411E35
:10044000884170BD162B0000054908607047C04602
:10045000034909680140481E814108467047C0466B
:100460000000014C92490A78002803D0082002437A
:100470000A707047F72002400A707047F0B58BB0E1
:10048000002309930122100404900990089303208B
:1004900041020691089107930792824D2E68824986
:1004A0000E40824C36192E6006036F68B7436F60AA
:1004B0002E680E402E607E4E371F3D680D402C1971
:1004C00005973C60079C74603446083C099D256094
:1004D0008505089C2C40376876490F403C193460EC
:1004E000099CA403A40F05D00404099F27405404C9
:1004F000A74203D134681027274337600A9306992F
:100500000A91F468042102910C43F46017036A49CC
:100510000C88BC4202D18C88BC4201D00F808F80F5
:1005200003973446103C2768FF00FAD5022727704E
:100530000A9F2F4035685F490D403D4335601025C7
:100540000A9F2F403168A943C91931600A9306995F
:100550000A9191040A9D0D4037688F4379193160E3
:100560003168090703D4316808250D4335600192CD
:1005700021684900FCD5202727703168B9433160D4
:10058000024680020899014035680690854310466E
:10059000691831601202089911403568009295433C
:1005A00069183160089909058D0F019A1146A94013
:1005B00025682D022D0F8D42FAD1089989058D0FDE
:1005C0001146A94025682D032D0F8D42FAD18103D4
:1005D000089D0D40D003854207D135683D43356005
:1005E0002568002DFCD540252570089D0D403768F5
:1005F0008F432F4337600899049D29402A4D6D1E73
:1006000037682F400F4337600799716008990904D4
:100610008D0F1146A94025686D016D0F8D42FAD1ED
:1006200031460C390B600821B160244CF460244C35
:1006300034619330706133627362B36202983063E5
:100640007363B3633068069C2042039B02D030681A
:1006500088433060089820409102884217D008985B
:10066000009908401102884211D0581E124A918800
:100670000140918008992140A14208D00899009A30
:100680001140914203D00C4A118801401180059A13
:1006900010680549084010600A480B4901600BB01A
:1006A000F0BDC0460C00004D0000FFFF17A2000087
:1006B0001000014CFFFF3FFF340002440F81000097
:1006C000E51103004000002000127A0080B5FFF71A
:1006D000D5FE80BD70B500F057FF0546012002F041
:1006E00039F80024002D26D0332000F06BFF00F0F5
:1006F00077FE124E307000F073FE707000F070FEE6
:10070000B07000F06DFEF07000F06AFE307100F025
:1007100067FE707100F064FEB07100F061FE054686
:10072000F0713078012806D10448072100F0C6F89E
:10073000281A44424441204670BDC04608010020AA
:10074000F0B581B00D460021CC4300285CD00128D3
:100750006FD1584F386842880088904209D10420F0
:10076000021D202A5CD038584388008898421046E1
:10077000F6D00126B30200244F4D204621462A46DA
:1007800000F034FC386841880180407980002950AD
:10079000786841880180407980002950B868418894
:1007A0000180407980002950F868418801804079B3
:1007B00080002950386941880180407980002950A3
:1007C000786941880180407980002950B869418862
:1007D0000180407980002950EE4F7979204600F061
:1007E000E7FC411C88B23A88904200D93980797977
:1007F00089006850204600F005FC3302204621465F
:100800002A4600F0DCFC14E0012D12D8DE480088F6
:1008100000280ED0DD4A1288012D05D1824203D175
:100820000C46204601B0F0BD002D05D1002A0C4633
:1008300002D1204601B0F0BD0120009086020220C6
:1008400000241D4F21463A46334600F0CFFB193EA7
:1008500003E0761E7F1C002E04D03878FF28F8D0E5
:100860003D70F6E7002DC94A01D0C7480588A8B2F7
:1008700051798900104E70501580C64D697902205B
:1008800000F096FC411C88B22A88904200D9298049
:100890006979890070500225284600F0B3FB009862
:1008A000030228462146324600F089FC204601B06A
:1008B000F0BDC046880000201801002010B50022BD
:1008C000002907D0044BD2B2047854401A5D401C72
:1008D000491EF8D1104610BD162B0000F0B581B0AE
:1008E0000F20800200F0D6FB0020014600F060FCE3
:1008F000AA2800D0A4E0A34D28684179002420460E
:1009000000F056FC2968088068684179204600F0AC
:100910004FFC69680880A8684179204600F048FCCF
:10092000A9680880E8684179204600F041FCE96840
:10093000088028694179204600F03AFC296908803E
:1009400068694179204600F033FC69690880A8692C
:100950004179204600F02CFCA96908808A4D69790C
:100960000226304600F024FC2880884D69790096E4
:10097000304600F01DFC2880FF262046314600F05E
:1009800017FC054601242046314600F011FC0746BD
:10099000A84200D82F460098314600F009FCB84222
:1009A00000D838467B490880794D286801780A26A6
:1009B0007143204600F0FCFB2968C870087870433A
:1009C000411C204600F0F4FB2968887008787043C9
:1009D000811C204600F0ECFB2968487068680178AB
:1009E0007143204600F0E4FB6968C87008787043E2
:1009F000411C204600F0DCFB696888700878704371
:100A0000811C204600F0D4FB69684870A868017812
:100A10007143204600F0CCFBA968C8700878704389
:100A2000411C204600F0C4FBA96888700878704318
:100A3000811C204600F0BCFBA968487001B0F0BDE5
:100A40000024FF270125204639462A4600F0C4FB32
:100A5000284639462A4600F0BFFB02263046394672
:100A60002A4600F0B9FB474F386842884179204652
:100A700000F0B2FB786842884179204600F0ACFB78
:100A8000B86842884179204600F0A6FBF8684288A1
:100A90004179204600F0A0FB386942884179204620
:100AA00000F09AFB786942884179204600F094FB77
:100AB000B86942884179204600F08EFB324842886E
:100AC0004179304600F088FB304842884179304611
:100AD00000F082FB2E4E306801780A277943C9B2B4
:100AE000C278284600F078FB306801787943491CC9
:100AF000C9B28278284600F06FFB306801787943EC
:100B0000891CC9B24278284600F066FB70680178FB
:100B10007943C9B2C278284600F05EFB706801785C
:100B20007943491CC9B28278284600F055FB7068A9
:100B300001787943891CC9B24278284600F04CFB01
:100B4000B06801787943C9B2C278284600F044FB06
:100B5000B06801787943491CC9B28278284600F010
:100B60003BFBB06801787943891CC9B242782846BA
:100B700000F032FBAA222046214600F02DFB01B0F6
:100B8000F0BDC04688000020440000200400002082
:100B90005800002010000020B0B502240025064BAC
:100BA000204629462A46FFF79DFB0121034B20469C
:100BB0002A46FFF797FBB0BD6500002075000020B6
:100BC000F0B583B09B48002404704470C4710125C3
:100BD0000572029544728472974E0321019130464A
:100BE00000F053F93046294600F061F930462146BD
:100BF00000F032F93046214600F03FF930462146F8
:100C000000F04CF93046214600F02EF930462146DE
:100C100000F016F9351D02272846394600F035F94F
:100C20002846214600F043F92846214600F014F9F1
:100C30002846214600F021F92846214600F02EF9E9
:100C40002846214600F010F92846214600F0F8F821
:100C5000354608352846394600F017F9284621461A
:100C600000F025F92846214600F0F6F828462146EE
:100C700000F003F92846214600F010F928462146E5
:100C800000F0F2F82846214600F0DAF835460C3537
:100C90002846019900F0F9F82846029900F007F972
:100CA0002846214600F0D8F82846214600F0E5F80D
:100CB0002846214600F0F2F82846214600F0D4F8F4
:100CC0002846214600F0BCF83546203528463946EE
:100CD00000F0DBF82846214600F0E9F828462146D6
:100CE00000F0BAF82846214600F0C7F82846214609
:100CF00000F0D4F82846214600F0B6F828462146F0
:100D000000F09EF8354624352846394600F0BDF8F7
:100D10002846214600F0CBF82846214600F09CF8F2
:100D20002846214600F0A9F82846214600F0B6F8EA
:100D30002846214600F098F82846214600F080F821
:100D4000354628352846394600F09FF82846214682
:100D500000F0ADF82846214600F07EF828462146EE
:100D600000F08BF82846214600F098F828462146E6
:100D700000F07AF82846214600F062F82C3630461A
:100D8000394600F082F83046214600F090F83046AF
:100D9000214600F061F83046214600F06EF83046FA
:100DA000214600F07BF83046214600F05DF83046E1
:100DB000214600F045F8214E3046394600F065F8EE
:100DC0003046029F394600F072F83046214600F066
:100DD00043F83046214600F050F83046214600F0F6
:100DE0005DF83046214600F03FF80A253046294696
:100DF00000F026F8361D3046394600F046F83046F9
:100E0000394600F054F83046214600F025F83046C7
:100E1000214600F032F83046214600F03FF83046D7
:100E2000214600F021F83046294600F009F803B0C9
:100E3000F0BDC04631000041000001440000024402
:100E40000268044B1340090319430122D207891891
:100E500001607047FF0FFF7F026808239A43C907AC
:100E6000090F5118016070470322920203689343EF
:100E7000036002680A4302607047026880239A4355
:100E8000C907090E511801607047026807239A4389
:100E9000026002681A400A4302607047032212028D
:100EA00003689343036002680A4302607047026864
:100EB00020239A43C907890E51180160704700002A
:100EC0000A2802D90020C043704780000149085811
:100ED00000887047880000200C4601681B4D29607F
:100EE000416869608168A960C168E9600169296138
:100EF000416969618169A961C069E861144801F0CB
:100F000073FC2968134801F06FFC6968124801F00E
:100F10006BFCA96811A001F067FCE96813A001F05F
:100F200063FC296915A001F05FFC696917A001F055
:100F30005BFCA9691BA001F057FCE9691FA001F047
:100F400053FC24A0214601F04FFCFEE7E8000020FE
:100F5000322C0000162C0000242C000020205232DD
:100F6000203D20307825580A0D0000002020523303
:100F7000203D20307825580A0D00000020205231F5
:100F800032203D20307825580A0D0000202053746F
:100F900061636B6564204C52203D20307825580AEF
:100FA0000D0000002020537461636B656420504382
:100FB000203D20307825580A0D0000002020537471
:100FC00061636B656420505352203D203078255872
:100FD0000A0D0000202043757272656E74204C5219
:100FE000203D20307825580A0D00000010B50D2452
:100FF000640680020019411810461A46FFF79EF851
:1010000010BD0000F0B59B4909680D225206800210
:1010100086180F204006304090423AD10820014007
:1010200037D09549081F0468944A1440944AA4187C
:1010300004600D68012425430D604F6802252F438D
:101040004F600F6820233B43D027BB430B604623F0
:101050000B73BE238B810B46103B22271F70BFF3FF
:101060006F8F0027FA4332601A780268834E32404D
:10107000834BD21802600F730A68F0239A430A6008
:101080004A68AA434A600A68A2430A60016831407C
:101090000160F0BD70B504460B4D284601F044FBDD
:1010A00001263046FFF7DEF9B007FFF7D1F9002837
:1010B000FAD02020FFF7C8F9284600F023FF204689
:1010C00000F052F970BDC0460C00014C80B50D23F4
:1010D0005B06C018FFF744F84142484180BD00005C
:1010E000F0B582B0634B1C680123240757D5032653
:1010F0000D4635406C426C41064075427541460EC6
:101100000D2E4CD125434AD0B44C23685B4E33405E
:101110005B4D5B1923606368012501952B43636078
:10112000A368022500952B43A360636810251D4327
:10113000E0239D43656046232374BE2323822368F6
:1011400033402360002325460C3D22272F70BFF338
:101150006F8F0E6806602D783D40022D07D15B1C15
:10116000001D091D9342EED30023019D01E0019D66
:101170002B462068414A1040414908432060002026
:1011800020746068F02188436060A06800998843FB
:10119000A0606068A8436060206810402060184626
:1011A00002B0F0BD0D22520680028018405C7047EC
:1011B0000D2252068002801889004058704780B581
:1011C0008900800240180D214906401811461A4630
:1011D000FFF786FF80BD0000F0B581B0254B1B688E
:1011E0001B0702D4012001B0F0BD234D2C1F26683F
:1011F00000920246214806402148301820602B68A2
:10120000012003432B606E6802231E436E602E682C
:1012100010273743E026B7432F6046262E73B926A2
:10122000AE812E46103E2227377089009202511857
:10123000BFF36F8F0D225206009F8F5021680F4F12
:1012400039400F4A891821602968F02291432960AA
:101250006968994369602968814329602168394038
:1012600021603178890602D53178890700D50020C0
:1012700001B0F0BD1000014C1000004D0000FFFF58
:1012800017A2000005490A680123002802D01A436A
:101290000A6070479A430A607047C0461000005DBC
:1012A00004490A68F0239A430007000E10180860EA
:1012B0007047C0460800005D014802490180704740
:1012C0000C00005D14200000B0B5104900220A7027
:1012D00001240C720E490A704C60032815D8D243C1
:1012E0000623C0467844007940008744080104077B
:1012F0001022022303E00622234600E08C708A605D
:101300004B700448012101F064F9B0BD3100004187
:10131000DC00002000008656B0B5022000242146E3
:10132000FFF740FF012809D1032080020D49082260
:10133000FFF7CCFE002801D001250FE00220012597
:101340002946FFF72FFF01280AD103208002103021
:1013500004490822FFF7BAFE002801D02846B0BD94
:101360002046B0BD08010020F0B583B006461B4FF3
:10137000F9697868800203D40124204603B0F0BDE7
:101380000191B00802903D460C3D012420042860E4
:10139000384601F0C9F9B00503D02002029E361884
:1013A00000E0029EFE61384600F0ACFD2868C003F4
:1013B00009D4032080078643B88B864203D10024DA
:1013C000204603B0F0BD384601F0AEF90198F8614F
:1013D000384600F097FD204603B0F0BD0C00004DEC
:1013E000F0B58DB0E04F012538462946FFF74DFD99
:1013F000DE4800210B91017006460224204602942B
:1014000001F0B3F9032138460F46FFF73EFD30786F
:1014100009903C20019001F0A8F9D3480C95294689
:10142000FFF733FD0B9ED1480670204601F09DF971
:10143000CD483946FFF729FDCC4800780890019C3B
:10144000204601F092F9C8482946FFF71EFDC7481B
:101450000670029E304601F088F9C34839460A9763
:10146000FFF713FDC14800780790204601F07DF991
:10147000BD482946FFF709FD0B9DBC480570304665
:1014800001F073F9B8483946FFF7FFFCB74908780F
:101490000F460690204601F068F9B3480C99FFF713
:1014A000F4FC3D702F46304601F05FF9AE4805462A
:1014B0000A99FFF7EAFCAD4801780591204601F052
:1014C00054F928460C9D2946FFF7DFFCA748077012
:1014D000304601F04AF9A4480A9F3946FFF7D5FC87
:1014E000A24801780491204601F03FF99E48294620
:1014F000FFF7CBFC0B9D9D480570304601F035F998
:1015000099483946FFF7C1FC984801780391204675
:1015100001F02BF994480C99FFF7B7FC934805703C
:101520000546304601F021F98F483946FFF7ADFCFA
:101530002E78204601F019F90999481E8141089A30
:10154000501E824150004018079A511E8A41910056
:101550000818069A511E8A41D1000818059A511E92
:101560008A4111010818049A511E8A415101081834
:10157000039A511E8A4191010143701E8641F00178
:101580000843C0B20DB0F0BD70B5774C01212046C4
:10159000FFF77BFC754E00203070192005012846AE
:1015A000503001F0E2F803212046FFF76EFC502096
:1015B00001F0DBF83478284601F0D7F8604260414A
:1015C00070BDC046F0B581B00546674C012120468C
:1015D000FFF75BFC654E00273770E80707D13C201A
:1015E00001F0C3F803212046FFF74FFC09E001207A
:1015F00001F0BBF803212046FFF747FC3C2001F037
:10160000B4F801212046FFF740FC3770A80707D443
:101610003C2001F0AAF803212046FFF736FC09E040
:10162000012001F0A2F803212046FFF72EFC3C2008
:1016300001F09BF801212046FFF727FC377068076F
:1016400007D43C2001F091F803212046FFF71DFC50
:1016500009E0012001F089F803212046FFF715FC7D
:101660003C2001F082F801212046FFF70EFC377084
:10167000280707D43C2001F078F803212046FFF723
:1016800004FC09E0012001F070F803212046FFF777
:10169000FCFB3C2001F069F801212046FFF7F5FB37
:1016A0003770E80607D43C2001F05FF8032120469C
:1016B000FFF7EBFB09E0012001F057F8032120467A
:1016C000FFF7E3FB3C2001F050F801212046FFF733
:1016D000DCFB3770A80607D43C2001F046F8032154
:1016E0002046FFF7D2FB09E0012001F03EF803217C
:1016F0002046FFF7CAFB3C2001F037F801212046C5
:10170000FFF7C3FB3770680607D43C2001F02DF8C3
:1017100003212046FFF7B9FB09E0012001F025F87D
:1017200003212046FFF7B1FB3C2001F01EF8012108
:101730002046FFF7AAFB3770280608D43C2001F0AA
:1017400014F803212046FFF7A0FB01B0F0BD0120F3
:1017500001F00BF803212046FFF797FB3C2001F036
:1017600004F801B0F0BDC046000001443000004163
:1017700070B53E4C257826792920400600F05EFFA2
:10178000012E10D01D2D0ED8217862181073481C20
:101790002070022908D1A17BC906890F084A515C33
:1017A0006170002903D170BD61780029FBD0C0B2FF
:1017B0008842F8D1012121712B4800F00AFF70BD49
:1017C00028000020F0B581B027480024214600F011
:1017D00000FFF74E747034713078B07034700220AE
:1017E00000F0B8FF307B43283BD1707B102838D104
:1017F000B17B1F2008400A2807D01E2809D01428D2
:101800000BD100F0A7FA01B0F0BD00F031F801B043
:10181000F0BD00F0D3F901B0F0BDE64F0120387003
:10182000B420B073B07835460C35411E2846FFF71A
:1018300045F8B1784919491E0870072000F0BEFF2D
:10184000B078002807D03019007B00F024FF641C1A
:10185000B0788442F7D300F0FFFE0028FBD00020D0
:10186000387001B0F0BDC04600000155B000002046
:10187000F0B581B0CE4EB078CE4D062828D1344692
:101880000C3406212046FEF7CBFD002846D001206F
:101890002870F320B073B078411E2046FFF70EF891
:1018A000B1780919491E0870072000F087FFB07849
:1018B000002808D000243019007B00F0ECFE641CE6
:1018C000B0788442F7D300F0C7FE0028FBD021E0B7
:1018D000012028709320B073B07834460C34411E38
:1018E0002046FEF7EBFFB1780919491E0870072062
:1018F00000F064FFB078002808D000243019007B85
:1019000000F0C9FE641CB0788442F7D300F0A4FE56
:101910000028FBD00020287001B0F0BDF07B00282B
:1019200015D001283FD1A44801680A79002A5DD06A
:101930000D8800221346F7182946D1403974083221
:101940005B1C016809798B42F5D3F1184FE0307CBC
:10195000FFF7B6FA411C00D106E170740921B1709D
:10196000000AB074012028701320B073B078411EB3
:101970002046FEF7A3FFB1780919491E0870072019
:1019800000F01CFFB078002808D000243019007B3C
:1019900000F081FE641CB0788442F7D300F05CFE56
:1019A0000028FBD0B6E70920B07001202870B320D2
:1019B000B073B078411E2046FEF780FFB178091958
:1019C000491E0870072000F0F9FEB078002808D002
:1019D00000243019007B00F05EFE641CB078844265
:1019E000F7D300F039FE0028FBD093E731461031E1
:1019F00042681379002B0CD0128800231F4615462D
:101A0000DD40CD5508337F1C45682D79AF42F6D3B4
:101A1000C91982681379002B0CD0128800231F4645
:101A20001546DD40CD5508337F1C85682D79AF42C2
:101A3000F6D3C919C2681379002B0CD01288002381
:101A40001F461546DD40CD5508337F1CC5682D79EE
:101A5000AF42F6D3C91902691379002B0CD0128852
:101A600000231F461546DD40CD5508337F1C056910
:101A70002D79AF42F6D3C91942691379002B0CD0E6
:101A8000128800231F461546DD40CD5508337F1CC4
:101A900045692D79AF42F6D3C91982691379002BB4
:101AA0000CD0128800231F461546DD40CD55083363
:101AB0007F1C85692D79AF42F6D3C919C2691379A4
:101AC000002B0CD0128800231F461546DD40CD5553
:101AD00008337F1CC5692D79AF42F6D3C919026A54
:101AE0001379002B0CD0128800231F461546DD40C9
:101AF000CD5508337F1C056A2D79AF42F6D3C9193D
:101B0000426A1379002B0BD0128800231F4615461A
:101B1000DD40CD5508337F1C456A2D79AF42F6D3A1
:101B20001820B0700120F64D28701D20B073B078D9
:101B3000411E2046FEF7C2FEB1780919491E087001
:101B4000072000F03BFEB078002808D000243019B0
:101B5000007B00F0A0FD641CB0788442F7D300F055
:101B60007BFD0028FBD0D5E60920B070012028704D
:101B70007320B073B078411E2046FEF79FFEB17807
:101B80000919491E0870072000F018FEB0780028D7
:101B900008D000243019007B00F07DFD641CB07873
:101BA0008442F7D300F058FD0028FBD0B2E6C046CF
:101BB000B00000203B0000418800002070B5CF4EEF
:101BC000B078CF4D182828D134460C34182120463F
:101BD000FEF726FC002845D001202870E520B073D0
:101BE000B078411E2046FEF769FEB1780919491EFA
:101BF0000870072000F0E2FDB078002808D000242B
:101C00003019007B00F047FD641CB0788442F7D3A4
:101C100000F022FD0028FBD021E001202870852063
:101C2000B073B07834460C34411E2046FEF746FEB1
:101C3000B1780919491E0870072000F0BFFDB0787F
:101C4000002808D000243019007B00F024FD641C1B
:101C5000B0788442F7D300F0FFFC0028FBD00020CE
:101C6000287070BD0420B070F07B012809D00028D6
:101C70002FD1B27C717C307C33461333FEF732FBBC
:101C800003E03046103000F089F9B060012129707E
:101C9000401C3FD00520B073B078411E2046FEF7AF
:101CA0000DFEB1780919491E0870072000F086FD65
:101CB000B078002808D000243019007B00F0EBFC3D
:101CC000641CB0788442F7D300F0C6FC0028FBD037
:101CD000C5E701202870A520B073B078411E2046CA
:101CE000FEF7ECFDB1780919491E0870072000F0D5
:101CF00065FDB078002808D000243019007B00F082
:101D0000CAFC641CB0788442F7D300F0A5FC00281C
:101D1000FBD0A4E72520B073B078411E2046FEF723
:101D2000CDFDB1780919491E0870072000F046FD65
:101D3000B078002808D000243019007B00F0ABFCFC
:101D4000641CB0788442F7D300F086FC0028FBD0F6
:101D500085E7C04670B5694EB078694D092828D12D
:101D600034460C3409212046FEF75AFB002845D0A2
:101D700001202870E520B073B078411E2046FEF7A0
:101D80009DFDB1780919491E0870072000F016FD65
:101D9000B078002808D000243019007B00F07BFCCC
:101DA000641CB0788442F7D300F056FC0028FBD0C6
:101DB00021E0012028708520B073B07834460C34BF
:101DC000411E2046FEF77AFDB1780919491E0870B8
:101DD000072000F0F3FCB078002808D00024301968
:101DE000007B00F058FC641CB0788442F7D300F00C
:101DF00033FC0028FBD00020287070BDF07B022847
:101E000009D001280CD0002854D1B27C717C307CE0
:101E1000FEF718FA09E0717C307CFEF791FC04E0D3
:101E2000B27C717C307C00F07DF80421B170B06030
:101E300001212970401C1ED00520B073B078411ECE
:101E40002046FEF73BFDB1780919491E08700720AE
:101E500000F0B4FCB078002808D000243019007BD2
:101E600000F019FC641CB0788442F7D300F0F4FB56
:101E70000028FBD0BFE72520B073B078411E204674
:101E8000FEF71CFDB1780919491E0870072000F003
:101E900095FCB078002808D000243019007B00F0B1
:101EA000FAFB641CB0788442F7D300F0D5FB00281D
:101EB000FBD0A0E70420B07001202870A520B073EB
:101EC000B078411E2046FEF7F9FCB1780919491E89
:101ED0000870072000F072FCB078002808D00024B9
:101EE0003019007B00F0D7FB641CB0788442F7D334
:101EF00000F0B2FB0028FBD07DE7C046B000002018
:101F00003B0000410021018001207047044A136812
:101F1000002902D003431360704783431360704766
:101F20001400004CF0B581B00024072803D9E44325
:101F3000204601B0F0BD8000D44B1202571819584A
:101F400009888F42F4D01D180120009083020024DC
:101F5000CF4E204621463246FFF748F828680780D2
:101F6000407980003750CB4F79792046FFF720F930
:101F7000411C88B23A88904200D939807979890029
:101F800070502046FFF73EF8009803022046214695
:101F90003246FFF714F9204601B0F0BDF0B581B02C
:101FA0000446BA480168087900280FD000231D466E
:101FB0001A46665D9E40B6B2324308336D1C8542B8
:101FC000F7D360190988914206D095E00022204697
:101FD0000988914200D08FE0AC4949680B79002B09
:101FE0000FD000252E462A46875DAF40BFB23A4348
:101FF0000835761C9E42F7D380190988914204D097
:102000007AE000220988914276D1A04989680B794B
:10201000002B0FD000252E462A46875DAF40BFB269
:102020003A430835761C9E42F7D3801909889142BD
:1020300004D061E00022098891425DD19349C968CA
:102040000B79002B0FD000252E462A46875DAF4026
:10205000BFB23A430835761C9E42F7D380190988EF
:10206000914204D048E000220988914244D1874936
:1020700009690B79002B0FD000252E462A46875D73
:10208000AF40BFB23A430835761C9E42F7D3801961
:102090000988914204D02FE00022098891422BD177
:1020A0007A4949690B79002B0CD000252E462A4627
:1020B000875DAF40BFB23A430835761C9E42F7D3E6
:1020C000801900E000220988914215D16F49896981
:1020D0000A79002A0BD000252E462B46875DAF409B
:1020E000BFB23B430835761C9642F7D300E000238D
:1020F0000888984200D1C5E00120009083020027A3
:10210000634A38463946FEF771FF60480068027935
:10211000002A0BD000210B460E46E55C8D402E4375
:1021200008315B1C9342F8D3E41800E03E46068079
:10213000B1B240798000564E31505448406802791F
:10214000002A0CD000231E461946A55D9D40294358
:102150000833761C9642F8D3A4194D4E00E0394658
:10216000018089B240798000315048488068027906
:10217000002A0CD000231E461946A55D9D40294328
:102180000833761C9642F8D3A419414E00E0394634
:10219000018089B24079800031503C48C0680279A2
:1021A000002A0CD000231E461946A55D9D402943F8
:1021B0000833761C9642F8D3A419354E00E0394610
:1021C000018089B24079800031503048006902793D
:1021D000002A0CD000231E461946A55D9D402943C8
:1021E0000833761C9642F8D3A419294E00E03946EC
:1021F000018089B2407980003150244840690279D9
:10220000002A0CD000231E461946A55D9D40294397
:102210000833761C9642F8D3A4191D4E00E03946C7
:10222000018089B240798000315018488069017975
:10223000002909D0002213461746E55C95402F433C
:1022400008325B1C8B42F8D30780B9B2407980001A
:102250003150104C61790020FEF7AAFF411C88B272
:102260002288904200D92180617989007050002431
:102270002046FEF7C7FE009803022046214632465C
:10228000FEF79DFF002001B0F0BDC0468800002091
:102290001801002010000020014802490160704729
:1022A00040000020001BB700F0B585B002AC20460E
:1022B00000F042F91F20E080F9272781552006060B
:1022C0003046214600F042F910253046294600F0FC
:1022D0001BF90720E08027814E4F3846214600F049
:1022E00035F9012638462946324600F01BF93846B2
:1022F000314600F010F93846294600F005F9300360
:1023000033490860334820810020E080324A106859
:10231000FF21019188431060AB20C7053846214654
:1023200000F014F938462946324600F0FBF83846EA
:10233000314600F0F0F83846294600F0E5F8700321
:10234000F7490860254820810F200090E08022494D
:102350000868234A10400860454F3846214600F07F
:10236000F5F83846294600F0CFF838462946324677
:1023700000F0D8F83846314600F0CDF8B003E8490F
:102380000860164820810098E08001980004124AF5
:10239000116881431160544F3846214600F0D6F849
:1023A0003846294600F0B0F838462946324600F053
:1023B000B9F83846314600F0AEF87004D8490860E4
:1023C000054A506806490840506005B0F0BDC04657
:1023D00000E100E03F9C00000CE400E04FC3FFFF81
:1023E000FF00FFFF10B50A48007880070FD5094CA1
:1023F0001021204600F08AF8012808D186480021E3
:102400000170FFF7DFF91021204600F07DF810BDC4
:102410006C0000500000015510B5AB20C405102120
:10242000204600F073F8012803D11021204600F067
:102430006BF810BD10B5E04C1021204600F066F896
:10244000012814D1FEF746F901280CD1FEF764FFEC
:10245000002801D0012000E00220FEF735FF002116
:10246000204600F0B6F81021204600F04DF810BDCF
:102470000000865510B51C4C1021204600F046F88F
:10248000012830D119480178194A1278914202D2B4
:10249000491C017023E017490868174A12689042E6
:1024A00008D118480021017001220272204600F074
:1024B00090F814E0421C0A6010490978FDF728FEE4
:1024C00000290CD10E4801780E48002903D101786B
:1024D0004A424A410270017A4A424A41027210213C
:1024E000204600F011F810BD00008656DC000020E8
:1024F00064000020E0000020E4000020DD00002057
:10250000DE00002031000041016070470068084093
:10251000411E884170470122114043689343591876
:1025200041607047012A03D142680A434260704704
:1025300042688A434260704705210181C1800021C1
:1025400001808170C17001714171704770B5CA8896
:102550008B78002B144600D11C46048582850A899D
:102560004B78002B144600D11C46048482840A78E0
:1025700003693024A3439207920E9A180261CB7824
:102580004022D24384681440DB075B0EE31883606B
:102590000C798023DB4385681D40E407240E2C1949
:1025A00084604C7903252D038668AE43A407A40CF0
:1025B000A41984604C7805691540E207520EAA18E8
:1025C0000261897802691A40C907090E5118016130
:1025D00070BD027C012903D0FC210A4002747047BF
:1025E00003210A4302747047B0B5292044062046EF
:1025F00000F01EF80546204600F01EF82840400670
:1026000008D5054801210170FFF7B2F840212046A6
:1026100000F004F8B0BDC046B30000202122914371
:1026200001607047026901239A430A4302617047BF
:10263000006821218843704740687047006B7047ED
:10264000426801239A430A43426070474A43436801
:102650008B431343436070472920400600684007BE
:10266000C00F7047491E03290AD8C046794409792A
:1026700049008F4401070A0D34214254002070475D
:1026800001207047828600207047826300207047D7
:1026900042630020704780B5024629204006016849
:1026A0000906FCD50121FFF7DDFF80BD70B5184E8E
:1026B0003068184901403160174833218180072173
:1026C000F17371730321090632680A4332604021B5
:1026D000B1733173C0220270B068104A0240B26018
:1026E0003446083C012520462A46FFF7AFFF204626
:1026F0002946FFF7A5FF2805094908600948016830
:10270000FF229143016030690C210143316170BDAA
:1027100008000052F1FFCCFF2000005285FFFCFFB3
:1027200000E100E014E400E001490180012070476D
:1027300017A2000010B5064C2046FFF7F5FF012157
:10274000C802FFF7E3FB2046FFF7DCFB10BDC046E5
:102750000C00004C7D21C900414305D000BF00BFE3
:1027600000BF00BF491EF9D17047002805D000BF47
:1027700000BF00BF00BF401EF9D1704772B6FDF721
:10278000A5FFFEF7ABF8FEF71BFAFFF78DFDFFF78D
:102790008DFFFFF7CFFF2920400601242146FFF7D8
:1027A00041FFFEF7F9F904482146FFF712FF62B630
:1027B00000F016F8FCE7C04600008655B0B50446A8
:1027C000064D2846FFF7B0FF2046FEF769FD0120C1
:1027D000FEF758FD2846FFF795FBB0BD0C00005DE5
:1027E00080B5FEF769FD80BD0FB410B503A9044B99
:1027F000044A029800F018F810BC08BC04B018474E
:10280000052B00000000002002E008C8121F08C1CC
:10281000002AFAD170477047002001E001C1121F61
:10282000002AFBD170470000FFB58FB00F46044669
:10283000002606E025280AD0129A11999047641CB8
:10284000761C20780028F5D1304613B0F0BD002565
:102850000121A14A009500E00543641C2378084645
:10286000203B98401042F7D120782E2815D1042023
:1028700005436078641C2A280AD101CF641C0090AB
:102880000BE000990A22514330394018641C009033
:102890002078014630390929F3D920786C280ED0E8
:1028A00004DC4C2813D06A2812D104E074280ED01E
:1028B0007A280DD10BE001204005054307E00121F6
:1028C000090562780D43824201D16D18641C641CB5
:1028D0002078864669284AD008DC0028B4D05828D9
:1028E0006DD0632810D0642808D140E070286BD0E8
:1028F000732812D0752860D0782860D0129A70465C
:1029000011999047761CE5E03878694608720020F6
:10291000487202A80190012003E03868019000206D
:10292000C0433F1D69070CD5002500E06D1C0099D0
:102930008D420FDA8542F9DB0199495D0029F5D115
:1029400008E0002500E06D1C8542FCDB0199495D33
:102950000029F8D1761907E0019801990078491CFF
:102960000191129A119990476D1EF5D2B2E00A209A
:10297000029000216802400F039102280CD001CF81
:10298000C117844600290DDA6246084652420021EA
:10299000814194462D2008E0FF1DFF08FF0003CF72
:1029A0008446EFE7280504D52B206A4610740120E1
:1029B0003CE0E8073AD02020F7E70A2000E01020AA
:1029C00000210391029007E01020029000210420D2
:1029D00005430820039100906802400F022810D0A0
:1029E00001CF0021844600200D9028071FD5704696
:1029F00070280CD0029A1020039B42401A430CD03E
:102A000015E0FF1DFF08FF0003CF8446EBE74020E1
:102A10006A46107401200D900CE06046084306D011
:102A200030206A4610747046507402200D90704633
:102A3000582804D029A001900DA80E900DE02CA0DC
:102A4000F9E76046039B029AFDF797FB019B8446DA
:102A50009B5C0E9A521E0E92137060460843F0D192
:102A60000E9805A9081A20300190680701D5009832
:102A700001E0012000900199884203DD01460198A0
:102A8000081A00E000200025009006E004A8129A31
:102A9000405D119990476D1C761C0D988542F5DBC1
:102AA00004E0129A302011999047761C0099481E34
:102AB00000900029F5DC08E00E980E990078491C7A
:102AC0000E91129A11999047761C0199481E019017
:102AD0000029F1DC641CB4E60928010030313233EE
:102AE000343536373839616263646566000000004A
:102AF0003031323334353637383941424344454634
:102B00000000000038B5044668460470694603209A
:102B1000ABBE204638BD005EBCE2613FDD83C29C97
:102B20007E20A3FD1F419DC3217FFCA2401E5F01AB
:102B3000E3BD3E6082DC237D9FC1421CFEA0E1BF5D
:102B40005D0380DE3C62BEE0025CDF81633D7C228F
:102B5000C09E1D43A1FF4618FAA427799BC584DABD
:102B60003866E5BB5907DB856739BAE4065819476B
:102B7000A5FB7826C49A653BD987045AB8E6A7F91D
:102B80001B45C6987A24F8A6441A99C7257B3A644F
:102B900086D85B05E7B98CD2306EEDB3510F4E107D
:102BA000F2AC2F7193CD114FADF3702ECC92D38D2B
:102BB0006F31B2EC0E50AFF1134DCE90722C6D33DD
:102BC000D18F0C52B0EE326C8ED0530DEFB1F0AE0F
:102BD0004C1291CF2D73CA947628ABF5174908563D
:102BE000B4EA6937D58B5709EBB536688AD495CBEB
:102BF0002977F4AA4816E9B7550B88D6346A2B759D
:102C000097C94A14F6A8742AC896154BA9F7B6E8CE
:102C10000A54D7896B3520205230203D203078254A
:102C2000580A0D0020205231203D20307825580AC6
:102C30000D00202048617264204661756C74204844
:102C4000616E646C65720A0D000000006C2C00005F
:102C500000000020B0000000082800001C2D00002B
:102C6000B0000020680800001828000000000000E4
:102C70000000000002FE58025802020D010001008F
:102C800002FF00000000010F03000300020A000021
:102C9000000001100406091805000500020C1E00C2
:102CA0001E00020B00000000010E0000001BB70018
:102CB0000000000002FD0100000000000200000012
:102CC00000000000100100204A00002050000020F9
:102CD000020114E6810F0000F50000000000000072
:102CE0000001D8D373010000C30000000000000001
:102CF000000000001C000020320000202C000020FA
:102D00000A000020380000201600002022000020C9
:0C2D1000440000200400002010000020FF
:04000005000000DB1C
:00000001FF
